{
  "address": "0x58f2de19FE051E4D4E0d3874310dD6bEBd94BAC4",
  "abi": [
    {
      "anonymous": false,
      "inputs": [
        {
          "indexed": false,
          "internalType": "address",
          "name": "previousAdmin",
          "type": "address"
        },
        {
          "indexed": false,
          "internalType": "address",
          "name": "newAdmin",
          "type": "address"
        }
      ],
      "name": "AdminChanged",
      "type": "event"
    },
    {
      "anonymous": false,
      "inputs": [
        {
          "indexed": true,
          "internalType": "address",
          "name": "beacon",
          "type": "address"
        }
      ],
      "name": "BeaconUpgraded",
      "type": "event"
    },
    {
      "anonymous": false,
      "inputs": [
        {
          "indexed": false,
          "internalType": "uint8",
          "name": "version",
          "type": "uint8"
        }
      ],
      "name": "Initialized",
      "type": "event"
    },
    {
      "anonymous": false,
      "inputs": [
        {
          "indexed": true,
          "internalType": "address",
          "name": "implementation",
          "type": "address"
        }
      ],
      "name": "Upgraded",
      "type": "event"
    },
    {
      "inputs": [
        {
          "internalType": "uint256",
          "name": "creatorId",
          "type": "uint256"
        },
        {
          "internalType": "uint256",
          "name": "courseId",
          "type": "uint256"
        },
        {
          "internalType": "address",
          "name": "recepient",
          "type": "address"
        },
        {
          "internalType": "uint256",
          "name": "certificateTokenId",
          "type": "uint256"
        },
        {
          "internalType": "bytes",
          "name": "data",
          "type": "bytes"
        }
      ],
      "name": "afterMint",
      "outputs": [],
      "stateMutability": "nonpayable",
      "type": "function"
    },
    {
      "inputs": [
        {
          "internalType": "uint256",
          "name": "",
          "type": "uint256"
        },
        {
          "internalType": "uint256",
          "name": "courseId",
          "type": "uint256"
        },
        {
          "internalType": "address",
          "name": "user",
          "type": "address"
        },
        {
          "internalType": "bytes",
          "name": "",
          "type": "bytes"
        }
      ],
      "name": "beforeMint",
      "outputs": [],
      "stateMutability": "payable",
      "type": "function"
    },
    {
      "inputs": [],
      "name": "factory",
      "outputs": [
        {
          "internalType": "address",
          "name": "",
          "type": "address"
        }
      ],
      "stateMutability": "view",
      "type": "function"
    },
    {
      "inputs": [
        {
          "internalType": "address",
          "name": "course",
          "type": "address"
        }
      ],
      "name": "getFeeData",
      "outputs": [
        {
          "components": [
            {
              "internalType": "address",
              "name": "currency",
              "type": "address"
            },
            {
              "internalType": "uint256",
              "name": "amount",
              "type": "uint256"
            },
            {
              "internalType": "address",
              "name": "recepient",
              "type": "address"
            },
            {
              "internalType": "uint256",
              "name": "creatorId",
              "type": "uint256"
            },
            {
              "internalType": "uint256",
              "name": "courseId",
              "type": "uint256"
            }
          ],
          "internalType": "struct FeeModule.FeeData",
          "name": "",
          "type": "tuple"
        }
      ],
      "stateMutability": "view",
      "type": "function"
    },
    {
      "inputs": [
        {
          "internalType": "uint256",
          "name": "creatorId",
          "type": "uint256"
        },
        {
          "internalType": "uint256",
          "name": "courseId",
          "type": "uint256"
        },
        {
          "internalType": "bytes",
          "name": "data",
          "type": "bytes"
        }
      ],
      "name": "initialiseMintModule",
      "outputs": [],
      "stateMutability": "nonpayable",
      "type": "function"
    },
    {
      "inputs": [
        {
          "internalType": "address",
          "name": "_factory",
          "type": "address"
        }
      ],
      "name": "initialize",
      "outputs": [],
      "stateMutability": "nonpayable",
      "type": "function"
    },
    {
      "inputs": [],
      "name": "proxiableUUID",
      "outputs": [
        {
          "internalType": "bytes32",
          "name": "",
          "type": "bytes32"
        }
      ],
      "stateMutability": "view",
      "type": "function"
    },
    {
      "inputs": [
        {
          "internalType": "address",
          "name": "newImplementation",
          "type": "address"
        }
      ],
      "name": "upgradeTo",
      "outputs": [],
      "stateMutability": "nonpayable",
      "type": "function"
    },
    {
      "inputs": [
        {
          "internalType": "address",
          "name": "newImplementation",
          "type": "address"
        },
        {
          "internalType": "bytes",
          "name": "data",
          "type": "bytes"
        }
      ],
      "name": "upgradeToAndCall",
      "outputs": [],
      "stateMutability": "payable",
      "type": "function"
    }
  ],
  "numDeployments": 1,
  "solcInputHash": "8f18a999814fff596cd9f8c8a989e1e1",
  "bytecode": "0x60a080604052346100315730608052610d6a908161003782396080518181816104a9015281816105dc01526106640152f35b600080fdfe6080604081815260048036101561001557600080fd5b600092833560e01c90816318dfd78814610966575080633240257f146106915780633659cfe61461063b578381634f1ef286146105635750806352d1902d1461048c57838163aeaa0833146103d657508063be2213c51461023e578063c45a0155146102125763c4d66de81461008a57600080fd5b3461020e57602036600319011261020e576100a3610a21565b906032549160ff8360081c161592838094610201575b80156101ea575b156101905760ff1981166001176032556001600160a01b0391908461017e575b501690811561013b57506001600160a01b03196097541617609755610103575080f35b60207f7f26b83ff96e1f2b6a682f133852f6798a09c465da95921460cefb38474024989161ff0019603254166032555160018152a180f35b606490602085519162461bcd60e51b8352820152601160248201527f4e4f5420412056414c494420504152414d0000000000000000000000000000006044820152fd5b61ffff191661010117603255386100e0565b845162461bcd60e51b8152602081850152602e60248201527f496e697469616c697a61626c653a20636f6e747261637420697320616c72656160448201526d191e481a5b9a5d1a585b1a5e995960921b6064820152608490fd5b50303b1580156100c05750600160ff8216146100c0565b50600160ff8216106100b9565b8280fd5b50503461023a578160031936011261023a576020906001600160a01b03609754169051908152f35b5080fd5b503461020e57606036600319011261020e576024358360443567ffffffffffffffff811161023a576102739036908501610a52565b94906001600160a01b03958660975416835190630b91e28d60e01b825286888301528160248160209889945af19081156103cc57916102c184926060948c9161039f575b508a163314610c01565b8101031261039b576102d281610c4c565b95806102e384868501359401610c4c565b169283151580610392575b1561035f578082809251996103028b610a80565b168952858901938452808901948552609860608a01968935885260808b01988952338c52528920975116916001600160a01b0319928389541617885551600188015560028701925116908254161790555160038401555191015580f35b5162461bcd60e51b8152808701859052600e60248201526d494e56414c494420504152414d5360901b6044820152606490fd5b508215156102ee565b8680fd5b6103bf9150883d8a116103c5575b6103b78183610ab2565b810190610be2565b386102b7565b503d6103ad565b84513d8b823e3d90fd5b9190503461023a5760a036600319011261023a576103f2610a3c565b5060843567ffffffffffffffff811161020e576104129036908301610a52565b505060206001600160a01b0391602483609754169186519586938492630b91e28d60e01b84528435908401525af191821561047f5761045c9350849261045f575b50163314610c01565b80f35b61047891925060203d81116103c5576103b78183610ab2565b9038610453565b50505051903d90823e3d90fd5b508234610560578060031936011261056057506001600160a01b037f00000000000000000000000000000000000000000000000000000000000000001630036104f857602082517f360894a13ba1a3210667c828492db98dca3e2076cc3735a920a3ca505d382bbc8152f35b6020608492519162461bcd60e51b8352820152603860248201527f555550535570677261646561626c653a206d757374206e6f742062652063616c60448201527f6c6564207468726f7567682064656c656761746563616c6c00000000000000006064820152fd5b80fd5b9280915060031936011261063757610579610a21565b506024359167ffffffffffffffff8311610632573660238401121561063257820135906105b16105a883610ad4565b91519182610ab2565b81815236602483850101116106325781602460209401848301370101526105606001600160a01b03807f0000000000000000000000000000000000000000000000000000000000000000169061060982301415610af0565b7f360894a13ba1a3210667c828492db98dca3e2076cc3735a920a3ca505d382bbc541614610b51565b505050fd5b5050fd5b833461056057602036600319011261056057610655610a21565b506105606001600160a01b03807f0000000000000000000000000000000000000000000000000000000000000000169061060982301415610af0565b50608036600319011261020e576106a6610a3c565b8360649384359267ffffffffffffffff93848111610962576106cb9036908701610a52565b50506001600160a01b038060975416948351630b91e28d60e01b81526024968735898301528188816020998a945af19081156109585790610717918b9161093b575b5083163314610c01565b338952609885528389209084519361072e85610a80565b8383541690818652600184015488870196818852866002870154169060808d8b830198848a52600381015460608501520154910152831560001461080c575050505050825134036107cb578880938193829351169051905af161078f610bb2565b501561079d57505050505080f35b5162461bcd60e51b815292830152600f908201526e1514905394d1915488119052531151608a1b6044820152fd5b5050509060139291519362461bcd60e51b85528401528201527f494e56414c494420414d4f554e542053454e54000000000000000000000000006044820152fd5b88516323b872dd60e01b8b8201908152979093168b8401526044830152818c01528a815298999891945092915061084281610a80565b845193848601908111858210176109295785528584527f5361666545524332303a206c6f772d6c6576656c2063616c6c206661696c6564868501525161089a9392918a91829182855af1610894610bb2565b91610c60565b8051838115918215610909575b50509050156108b857505050505080f35b5162461bcd60e51b815293840152602a908301527f5361666545524332303a204552433230206f7065726174696f6e20646964206e6044830152691bdd081cdd58d8d9595960b21b90820152608490fd5b838092935001031261039b57820151801515810361039b578083386108a7565b634e487b7160e01b8b5260418a52878bfd5b6109529150873d89116103c5576103b78183610ab2565b3861070d565b85513d8c823e3d90fd5b8380fd5b919290503461096257602036600319011261096257808460a095608061098a610a21565b9561099481610a80565b828152826020820152828582015282606082015201526001600160a01b038094168152609860205220908051926109ca84610a80565b80835416948585526001840154602086019081526080836002870154169285880193845260038701549660608901978852015496019586528351968752516020870152511690840152516060830152516080820152f35b600435906001600160a01b0382168203610a3757565b600080fd5b604435906001600160a01b0382168203610a3757565b9181601f84011215610a375782359167ffffffffffffffff8311610a375760208381860195010111610a3757565b60a0810190811067ffffffffffffffff821117610a9c57604052565b634e487b7160e01b600052604160045260246000fd5b90601f8019910116810190811067ffffffffffffffff821117610a9c57604052565b67ffffffffffffffff8111610a9c57601f01601f191660200190565b15610af757565b60405162461bcd60e51b815260206004820152602c60248201527f46756e6374696f6e206d7573742062652063616c6c6564207468726f7567682060448201526b19195b1959d85d1958d85b1b60a21b6064820152608490fd5b15610b5857565b60405162461bcd60e51b815260206004820152602c60248201527f46756e6374696f6e206d7573742062652063616c6c6564207468726f7567682060448201526b6163746976652070726f787960a01b6064820152608490fd5b3d15610bdd573d90610bc382610ad4565b91610bd16040519384610ab2565b82523d6000602084013e565b606090565b90816020910312610a3757516001600160a01b0381168103610a375790565b15610c0857565b606460405162461bcd60e51b815260206004820152602060248201527f4f4e4c5920415554484f524953454420544f2056414c494420434f55525345536044820152fd5b35906001600160a01b0382168203610a3757565b91929015610cc25750815115610c74575090565b3b15610c7d5790565b60405162461bcd60e51b815260206004820152601d60248201527f416464726573733a2063616c6c20746f206e6f6e2d636f6e74726163740000006044820152606490fd5b825190915015610cd55750805190602001fd5b6040519062461bcd60e51b82528160208060048301528251908160248401526000935b828510610d1b575050604492506000838284010152601f80199101168101030190fd5b8481018201518686016044015293810193859350610cf856fea264697066735822122087a5415e813798a34d5547ef9bb329e7378aaa0e0877abf0d51e596b618e5c0d64736f6c63430008130033",
  "devdoc": {
    "events": {
      "AdminChanged(address,address)": {
        "details": "Emitted when the admin account has changed."
      },
      "BeaconUpgraded(address)": {
        "details": "Emitted when the beacon is changed."
      },
      "Initialized(uint8)": {
        "details": "Triggered when the contract has been initialized or reinitialized."
      },
      "Upgraded(address)": {
        "details": "Emitted when the implementation is upgraded."
      }
    },
    "kind": "dev",
    "methods": {
      "afterMint(uint256,uint256,address,uint256,bytes)": {
        "details": "Hook called After Minting the certificate NFT",
        "params": {
          "certificateTokenId": "NFT token ID which is minted as certificate",
          "courseId": "Course ID for which the module is being used",
          "creatorId": "Course Creator Id",
          "data": "External Data  , sent by the USER during the mint Call",
          "recepient": "Recepeint of the NFT Certificate Mint"
        }
      },
      "beforeMint(uint256,uint256,address,bytes)": {
        "details": "Hook called before Minting the certificate NFT",
        "params": {
          "courseId": "Course ID for which the module is being used",
          "user": "User minting the certificate"
        }
      },
      "initialiseMintModule(uint256,uint256,bytes)": {
        "details": "for initialising the actual Owlearn Course Data for this contract",
        "params": {
          "courseId": "Course ID for which the module is being initialised",
          "creatorId": "Course Creator Id",
          "data": "External Data  , sent by the USER during the initialise Call"
        }
      },
      "initialize(address)": {
        "details": "Initialize the Module",
        "params": {
          "_factory": "Factory contract Address"
        }
      },
      "proxiableUUID()": {
        "details": "Implementation of the ERC1822 {proxiableUUID} function. This returns the storage slot used by the implementation. It is used to validate the implementation's compatibility when performing an upgrade. IMPORTANT: A proxy pointing at a proxiable contract should not be considered proxiable itself, because this risks bricking a proxy that upgrades to it, by delegating to itself until out of gas. Thus it is critical that this function revert if invoked through a proxy. This is guaranteed by the `notDelegated` modifier."
      },
      "upgradeTo(address)": {
        "custom:oz-upgrades-unsafe-allow-reachable": "delegatecall",
        "details": "Upgrade the implementation of the proxy to `newImplementation`. Calls {_authorizeUpgrade}. Emits an {Upgraded} event."
      },
      "upgradeToAndCall(address,bytes)": {
        "custom:oz-upgrades-unsafe-allow-reachable": "delegatecall",
        "details": "Upgrade the implementation of the proxy to `newImplementation`, and subsequently execute the function call encoded in `data`. Calls {_authorizeUpgrade}. Emits an {Upgraded} event."
      }
    },
    "version": 1
  },
  "userdoc": {
    "kind": "user",
    "methods": {},
    "version": 1
  },
  "storageLayout": {
    "storage": [
      {
        "astId": 21323,
        "contract": "src/modules/ModuleExample/FeeModule.sol:FeeModule",
        "label": "__gap",
        "offset": 0,
        "slot": "0",
        "type": "t_array(t_uint256)50_storage"
      },
      {
        "astId": 11058,
        "contract": "src/modules/ModuleExample/FeeModule.sol:FeeModule",
        "label": "_initialized",
        "offset": 0,
        "slot": "50",
        "type": "t_uint8"
      },
      {
        "astId": 11061,
        "contract": "src/modules/ModuleExample/FeeModule.sol:FeeModule",
        "label": "_initializing",
        "offset": 1,
        "slot": "50",
        "type": "t_bool"
      },
      {
        "astId": 11040,
        "contract": "src/modules/ModuleExample/FeeModule.sol:FeeModule",
        "label": "__gap",
        "offset": 0,
        "slot": "51",
        "type": "t_array(t_uint256)50_storage"
      },
      {
        "astId": 11355,
        "contract": "src/modules/ModuleExample/FeeModule.sol:FeeModule",
        "label": "__gap",
        "offset": 0,
        "slot": "101",
        "type": "t_array(t_uint256)50_storage"
      },
      {
        "astId": 21263,
        "contract": "src/modules/ModuleExample/FeeModule.sol:FeeModule",
        "label": "factory",
        "offset": 0,
        "slot": "151",
        "type": "t_address"
      },
      {
        "astId": 21354,
        "contract": "src/modules/ModuleExample/FeeModule.sol:FeeModule",
        "label": "_feeData",
        "offset": 0,
        "slot": "152",
        "type": "t_mapping(t_address,t_struct(FeeData)21345_storage)"
      }
    ],
    "types": {
      "t_address": {
        "encoding": "inplace",
        "label": "address",
        "numberOfBytes": "20"
      },
      "t_array(t_uint256)50_storage": {
        "base": "t_uint256",
        "encoding": "inplace",
        "label": "uint256[50]",
        "numberOfBytes": "1600"
      },
      "t_bool": {
        "encoding": "inplace",
        "label": "bool",
        "numberOfBytes": "1"
      },
      "t_mapping(t_address,t_struct(FeeData)21345_storage)": {
        "encoding": "mapping",
        "key": "t_address",
        "label": "mapping(address => struct FeeModule.FeeData)",
        "numberOfBytes": "32",
        "value": "t_struct(FeeData)21345_storage"
      },
      "t_struct(FeeData)21345_storage": {
        "encoding": "inplace",
        "label": "struct FeeModule.FeeData",
        "members": [
          {
            "astId": 21336,
            "contract": "src/modules/ModuleExample/FeeModule.sol:FeeModule",
            "label": "currency",
            "offset": 0,
            "slot": "0",
            "type": "t_address"
          },
          {
            "astId": 21338,
            "contract": "src/modules/ModuleExample/FeeModule.sol:FeeModule",
            "label": "amount",
            "offset": 0,
            "slot": "1",
            "type": "t_uint256"
          },
          {
            "astId": 21340,
            "contract": "src/modules/ModuleExample/FeeModule.sol:FeeModule",
            "label": "recepient",
            "offset": 0,
            "slot": "2",
            "type": "t_address"
          },
          {
            "astId": 21342,
            "contract": "src/modules/ModuleExample/FeeModule.sol:FeeModule",
            "label": "creatorId",
            "offset": 0,
            "slot": "3",
            "type": "t_uint256"
          },
          {
            "astId": 21344,
            "contract": "src/modules/ModuleExample/FeeModule.sol:FeeModule",
            "label": "courseId",
            "offset": 0,
            "slot": "4",
            "type": "t_uint256"
          }
        ],
        "numberOfBytes": "160"
      },
      "t_uint256": {
        "encoding": "inplace",
        "label": "uint256",
        "numberOfBytes": "32"
      },
      "t_uint8": {
        "encoding": "inplace",
        "label": "uint8",
        "numberOfBytes": "1"
      }
    }
  }
}