{
  "address": "0xf203d2Cd2107e89abcC0d522Cd3B3Dc15D95EcE6",
  "abi": [
    {
      "inputs": [],
      "stateMutability": "nonpayable",
      "type": "constructor"
    },
    {
      "inputs": [],
      "name": "ApprovalCallerNotOwnerNorApproved",
      "type": "error"
    },
    {
      "inputs": [],
      "name": "ApprovalQueryForNonexistentToken",
      "type": "error"
    },
    {
      "inputs": [],
      "name": "BalanceQueryForZeroAddress",
      "type": "error"
    },
    {
      "inputs": [],
      "name": "MintERC2309QuantityExceedsLimit",
      "type": "error"
    },
    {
      "inputs": [],
      "name": "MintToZeroAddress",
      "type": "error"
    },
    {
      "inputs": [],
      "name": "MintZeroQuantity",
      "type": "error"
    },
    {
      "inputs": [],
      "name": "OwnerQueryForNonexistentToken",
      "type": "error"
    },
    {
      "inputs": [],
      "name": "OwnershipNotInitializedForExtraData",
      "type": "error"
    },
    {
      "inputs": [],
      "name": "TransferCallerNotOwnerNorApproved",
      "type": "error"
    },
    {
      "inputs": [],
      "name": "TransferFromIncorrectOwner",
      "type": "error"
    },
    {
      "inputs": [],
      "name": "TransferToNonERC721ReceiverImplementer",
      "type": "error"
    },
    {
      "inputs": [],
      "name": "TransferToZeroAddress",
      "type": "error"
    },
    {
      "inputs": [],
      "name": "URIQueryForNonexistentToken",
      "type": "error"
    },
    {
      "anonymous": false,
      "inputs": [
        {
          "indexed": false,
          "internalType": "address",
          "name": "previousAdmin",
          "type": "address"
        },
        {
          "indexed": false,
          "internalType": "address",
          "name": "newAdmin",
          "type": "address"
        }
      ],
      "name": "AdminChanged",
      "type": "event"
    },
    {
      "anonymous": false,
      "inputs": [
        {
          "indexed": true,
          "internalType": "address",
          "name": "owner",
          "type": "address"
        },
        {
          "indexed": true,
          "internalType": "address",
          "name": "approved",
          "type": "address"
        },
        {
          "indexed": true,
          "internalType": "uint256",
          "name": "tokenId",
          "type": "uint256"
        }
      ],
      "name": "Approval",
      "type": "event"
    },
    {
      "anonymous": false,
      "inputs": [
        {
          "indexed": true,
          "internalType": "address",
          "name": "owner",
          "type": "address"
        },
        {
          "indexed": true,
          "internalType": "address",
          "name": "operator",
          "type": "address"
        },
        {
          "indexed": false,
          "internalType": "bool",
          "name": "approved",
          "type": "bool"
        }
      ],
      "name": "ApprovalForAll",
      "type": "event"
    },
    {
      "anonymous": false,
      "inputs": [
        {
          "indexed": true,
          "internalType": "address",
          "name": "beacon",
          "type": "address"
        }
      ],
      "name": "BeaconUpgraded",
      "type": "event"
    },
    {
      "anonymous": false,
      "inputs": [
        {
          "indexed": true,
          "internalType": "uint256",
          "name": "fromTokenId",
          "type": "uint256"
        },
        {
          "indexed": false,
          "internalType": "uint256",
          "name": "toTokenId",
          "type": "uint256"
        },
        {
          "indexed": true,
          "internalType": "address",
          "name": "from",
          "type": "address"
        },
        {
          "indexed": true,
          "internalType": "address",
          "name": "to",
          "type": "address"
        }
      ],
      "name": "ConsecutiveTransfer",
      "type": "event"
    },
    {
      "anonymous": false,
      "inputs": [
        {
          "indexed": false,
          "internalType": "uint256",
          "name": "tokenId",
          "type": "uint256"
        }
      ],
      "name": "CourseResourceBurned",
      "type": "event"
    },
    {
      "anonymous": false,
      "inputs": [
        {
          "indexed": false,
          "internalType": "string",
          "name": "courseName",
          "type": "string"
        },
        {
          "indexed": false,
          "internalType": "string",
          "name": "courseSymbol",
          "type": "string"
        },
        {
          "indexed": false,
          "internalType": "address",
          "name": "creator",
          "type": "address"
        }
      ],
      "name": "CourseResourceInitialised",
      "type": "event"
    },
    {
      "anonymous": false,
      "inputs": [
        {
          "indexed": false,
          "internalType": "uint256",
          "name": "tokenId",
          "type": "uint256"
        },
        {
          "indexed": false,
          "internalType": "string",
          "name": "newResourceURI",
          "type": "string"
        }
      ],
      "name": "CourseResourceUpdated",
      "type": "event"
    },
    {
      "anonymous": false,
      "inputs": [
        {
          "indexed": false,
          "internalType": "string",
          "name": "newCourseURI",
          "type": "string"
        }
      ],
      "name": "CourseURIUpdated",
      "type": "event"
    },
    {
      "anonymous": false,
      "inputs": [
        {
          "indexed": false,
          "internalType": "uint8",
          "name": "version",
          "type": "uint8"
        }
      ],
      "name": "Initialized",
      "type": "event"
    },
    {
      "anonymous": false,
      "inputs": [
        {
          "indexed": false,
          "internalType": "uint256",
          "name": "totalResourceMinted",
          "type": "uint256"
        },
        {
          "indexed": false,
          "internalType": "string[]",
          "name": "courseURIs",
          "type": "string[]"
        }
      ],
      "name": "NewCourseResourceMinted",
      "type": "event"
    },
    {
      "anonymous": false,
      "inputs": [
        {
          "indexed": true,
          "internalType": "address",
          "name": "previousOwner",
          "type": "address"
        },
        {
          "indexed": true,
          "internalType": "address",
          "name": "newOwner",
          "type": "address"
        }
      ],
      "name": "OwnershipTransferred",
      "type": "event"
    },
    {
      "anonymous": false,
      "inputs": [
        {
          "indexed": true,
          "internalType": "address",
          "name": "from",
          "type": "address"
        },
        {
          "indexed": true,
          "internalType": "address",
          "name": "to",
          "type": "address"
        },
        {
          "indexed": true,
          "internalType": "uint256",
          "name": "tokenId",
          "type": "uint256"
        }
      ],
      "name": "Transfer",
      "type": "event"
    },
    {
      "anonymous": false,
      "inputs": [
        {
          "indexed": true,
          "internalType": "address",
          "name": "implementation",
          "type": "address"
        }
      ],
      "name": "Upgraded",
      "type": "event"
    },
    {
      "inputs": [
        {
          "internalType": "address",
          "name": "to",
          "type": "address"
        },
        {
          "internalType": "uint256",
          "name": "tokenId",
          "type": "uint256"
        }
      ],
      "name": "approve",
      "outputs": [],
      "stateMutability": "payable",
      "type": "function"
    },
    {
      "inputs": [
        {
          "internalType": "address",
          "name": "owner",
          "type": "address"
        }
      ],
      "name": "balanceOf",
      "outputs": [
        {
          "internalType": "uint256",
          "name": "",
          "type": "uint256"
        }
      ],
      "stateMutability": "view",
      "type": "function"
    },
    {
      "inputs": [],
      "name": "baseURI",
      "outputs": [
        {
          "internalType": "string",
          "name": "",
          "type": "string"
        }
      ],
      "stateMutability": "view",
      "type": "function"
    },
    {
      "inputs": [],
      "name": "courseDetailsURI",
      "outputs": [
        {
          "internalType": "string",
          "name": "",
          "type": "string"
        }
      ],
      "stateMutability": "view",
      "type": "function"
    },
    {
      "inputs": [
        {
          "internalType": "uint256",
          "name": "tokenId",
          "type": "uint256"
        }
      ],
      "name": "deleteCourseNFT",
      "outputs": [],
      "stateMutability": "nonpayable",
      "type": "function"
    },
    {
      "inputs": [
        {
          "internalType": "uint256",
          "name": "tokenId",
          "type": "uint256"
        },
        {
          "internalType": "string",
          "name": "newNFTURI",
          "type": "string"
        }
      ],
      "name": "editCourseNFT",
      "outputs": [],
      "stateMutability": "nonpayable",
      "type": "function"
    },
    {
      "inputs": [
        {
          "internalType": "uint256",
          "name": "tokenId",
          "type": "uint256"
        }
      ],
      "name": "getApproved",
      "outputs": [
        {
          "internalType": "address",
          "name": "",
          "type": "address"
        }
      ],
      "stateMutability": "view",
      "type": "function"
    },
    {
      "inputs": [],
      "name": "implRegistery",
      "outputs": [
        {
          "internalType": "contract ImplementationRegistery",
          "name": "",
          "type": "address"
        }
      ],
      "stateMutability": "view",
      "type": "function"
    },
    {
      "inputs": [
        {
          "internalType": "string",
          "name": "courseName",
          "type": "string"
        },
        {
          "internalType": "string",
          "name": "courseSymbol",
          "type": "string"
        },
        {
          "internalType": "address",
          "name": "courseCreator",
          "type": "address"
        },
        {
          "internalType": "string",
          "name": "courseURI",
          "type": "string"
        },
        {
          "internalType": "string[]",
          "name": "courseNFTURIs",
          "type": "string[]"
        },
        {
          "internalType": "address",
          "name": "courseAddress",
          "type": "address"
        },
        {
          "internalType": "address",
          "name": "implmRegisteryAddress",
          "type": "address"
        }
      ],
      "name": "initialize",
      "outputs": [],
      "stateMutability": "payable",
      "type": "function"
    },
    {
      "inputs": [
        {
          "internalType": "address",
          "name": "owner",
          "type": "address"
        },
        {
          "internalType": "address",
          "name": "operator",
          "type": "address"
        }
      ],
      "name": "isApprovedForAll",
      "outputs": [
        {
          "internalType": "bool",
          "name": "",
          "type": "bool"
        }
      ],
      "stateMutability": "view",
      "type": "function"
    },
    {
      "inputs": [
        {
          "internalType": "string[]",
          "name": "courseNFTURIs",
          "type": "string[]"
        }
      ],
      "name": "mintCourseNFTs",
      "outputs": [],
      "stateMutability": "nonpayable",
      "type": "function"
    },
    {
      "inputs": [],
      "name": "name",
      "outputs": [
        {
          "internalType": "string",
          "name": "",
          "type": "string"
        }
      ],
      "stateMutability": "view",
      "type": "function"
    },
    {
      "inputs": [],
      "name": "owlearnCourse",
      "outputs": [
        {
          "internalType": "address",
          "name": "",
          "type": "address"
        }
      ],
      "stateMutability": "view",
      "type": "function"
    },
    {
      "inputs": [],
      "name": "owner",
      "outputs": [
        {
          "internalType": "address",
          "name": "",
          "type": "address"
        }
      ],
      "stateMutability": "view",
      "type": "function"
    },
    {
      "inputs": [
        {
          "internalType": "uint256",
          "name": "tokenId",
          "type": "uint256"
        }
      ],
      "name": "ownerOf",
      "outputs": [
        {
          "internalType": "address",
          "name": "",
          "type": "address"
        }
      ],
      "stateMutability": "view",
      "type": "function"
    },
    {
      "inputs": [],
      "name": "proxiableUUID",
      "outputs": [
        {
          "internalType": "bytes32",
          "name": "",
          "type": "bytes32"
        }
      ],
      "stateMutability": "view",
      "type": "function"
    },
    {
      "inputs": [],
      "name": "renounceOwnership",
      "outputs": [],
      "stateMutability": "nonpayable",
      "type": "function"
    },
    {
      "inputs": [
        {
          "internalType": "address",
          "name": "from",
          "type": "address"
        },
        {
          "internalType": "address",
          "name": "to",
          "type": "address"
        },
        {
          "internalType": "uint256",
          "name": "tokenId",
          "type": "uint256"
        }
      ],
      "name": "safeTransferFrom",
      "outputs": [],
      "stateMutability": "payable",
      "type": "function"
    },
    {
      "inputs": [
        {
          "internalType": "address",
          "name": "from",
          "type": "address"
        },
        {
          "internalType": "address",
          "name": "to",
          "type": "address"
        },
        {
          "internalType": "uint256",
          "name": "tokenId",
          "type": "uint256"
        },
        {
          "internalType": "bytes",
          "name": "_data",
          "type": "bytes"
        }
      ],
      "name": "safeTransferFrom",
      "outputs": [],
      "stateMutability": "payable",
      "type": "function"
    },
    {
      "inputs": [
        {
          "internalType": "address",
          "name": "operator",
          "type": "address"
        },
        {
          "internalType": "bool",
          "name": "approved",
          "type": "bool"
        }
      ],
      "name": "setApprovalForAll",
      "outputs": [],
      "stateMutability": "nonpayable",
      "type": "function"
    },
    {
      "inputs": [
        {
          "internalType": "string",
          "name": "_uri",
          "type": "string"
        }
      ],
      "name": "setBaseURI",
      "outputs": [],
      "stateMutability": "nonpayable",
      "type": "function"
    },
    {
      "inputs": [
        {
          "internalType": "string",
          "name": "_uri",
          "type": "string"
        }
      ],
      "name": "setCourseURI",
      "outputs": [],
      "stateMutability": "nonpayable",
      "type": "function"
    },
    {
      "inputs": [
        {
          "internalType": "bytes4",
          "name": "interfaceId",
          "type": "bytes4"
        }
      ],
      "name": "supportsInterface",
      "outputs": [
        {
          "internalType": "bool",
          "name": "",
          "type": "bool"
        }
      ],
      "stateMutability": "view",
      "type": "function"
    },
    {
      "inputs": [],
      "name": "symbol",
      "outputs": [
        {
          "internalType": "string",
          "name": "",
          "type": "string"
        }
      ],
      "stateMutability": "view",
      "type": "function"
    },
    {
      "inputs": [
        {
          "internalType": "uint256",
          "name": "tokenId",
          "type": "uint256"
        }
      ],
      "name": "tokenURI",
      "outputs": [
        {
          "internalType": "string",
          "name": "",
          "type": "string"
        }
      ],
      "stateMutability": "view",
      "type": "function"
    },
    {
      "inputs": [],
      "name": "totalSupply",
      "outputs": [
        {
          "internalType": "uint256",
          "name": "",
          "type": "uint256"
        }
      ],
      "stateMutability": "view",
      "type": "function"
    },
    {
      "inputs": [
        {
          "internalType": "address",
          "name": "from",
          "type": "address"
        },
        {
          "internalType": "address",
          "name": "to",
          "type": "address"
        },
        {
          "internalType": "uint256",
          "name": "tokenId",
          "type": "uint256"
        }
      ],
      "name": "transferFrom",
      "outputs": [],
      "stateMutability": "payable",
      "type": "function"
    },
    {
      "inputs": [
        {
          "internalType": "address",
          "name": "newOwner",
          "type": "address"
        }
      ],
      "name": "transferOwnership",
      "outputs": [],
      "stateMutability": "nonpayable",
      "type": "function"
    },
    {
      "inputs": [
        {
          "internalType": "address",
          "name": "newImplementation",
          "type": "address"
        }
      ],
      "name": "upgradeTo",
      "outputs": [],
      "stateMutability": "nonpayable",
      "type": "function"
    },
    {
      "inputs": [
        {
          "internalType": "address",
          "name": "newImplementation",
          "type": "address"
        },
        {
          "internalType": "bytes",
          "name": "data",
          "type": "bytes"
        }
      ],
      "name": "upgradeToAndCall",
      "outputs": [],
      "stateMutability": "payable",
      "type": "function"
    }
  ],
  "transactionHash": "0xc02cc35f28d1299c9e31db6b8821aff6f424e17acdf64a46134a66216de37ef2",
  "args": [],
  "numDeployments": 3,
  "solcInputHash": "a3e588bc19884ca33ea0d5ce829ba8e4",
  "bytecode": "0x60a08060405234620000cd576069546001908181811c91168015620000c2575b6020821014620000ac57601f811162000060575b6000606955306080526133e48381620000d382396080518181816108d201528181610bef0152610c9b0152f35b6069600052601f0160051c7f7fb4302e8e91f9110a6554c2c0a24601252c2a42c2220ca988efcfe399914308908101905b818110620000a0575062000033565b60008155820162000091565b634e487b7160e01b600052602260045260246000fd5b90607f16906200001f565b600080fdfe6080604052600436101561001257600080fd5b60003560e01c806301ffc9a7146101f757806306fdde03146101f2578063081812fc146101ed578063095ea7b3146101e85780631238dae0146101e357806318160ddd146101de57806323b872dd146101d95780633659cfe6146101d457806341040162146101cf57806342842e0e146101ca5780634f1ef286146101c557806352d1902d146101c057806355f804b3146101bb5780636352211e146101b65780636c0360eb146101b157806370a08231146101ac578063715018a6146101a75780638da5cb5b146101a257806395d89b411461019d5780639b760d0414610198578063a22cb46514610193578063ad79f6221461018e578063b88d4fde14610189578063beefab3714610184578063c87b56dd1461017f578063d0dae2fc1461017a578063e985e9c514610175578063f2f853ea14610170578063f2fde38b1461016b5763fc6c9bb21461016657600080fd5b6114e0565b611453565b6113c1565b611351565b6112b9565b61129a565b611273565b611229565b6111d5565b6110a2565b611071565b610fa9565b610f82565b610f2d565b610ea3565b610e73565b610e44565b610d45565b610c80565b610bac565b610b89565b610a35565b6108aa565b610896565b610812565b610740565b6104c7565b6103e6565b6102dd565b610213565b6001600160e01b031981160361020e57565b600080fd5b3461020e57602036600319011261020e576020600435610232816101fc565b63ffffffff60e01b166301ffc9a760e01b8114908115610270575b811561025f575b506040519015158152f35b635b5e139f60e01b14905038610254565b6380ac58cd60e01b8114915061024d565b60005b8381106102945750506000910152565b8181015183820152602001610284565b906020916102bd81518092818552858086019101610281565b601f01601f1916010190565b9060206102da9281815201906102a4565b90565b3461020e576000806003193601126103e35760405190807f2569078dfb4b0305704d3008e7403993ae9601b85f7ae5e742de3de8f8011c4290815490610322826105d3565b808652926001928084169081156103b6575060011461035c575b6103588661034c81880382610660565b604051918291826102c9565b0390f35b815292507f933ecf8acb7824b680a8d16f3ff3db8864228d986aa4c2ebab1eeb2703b4beb35b82841061039e57505050810160200161034c826103583861033c565b80546020858701810191909152909301928101610382565b90508695506103589693506020925061034c94915060ff191682840152151560051b82010192933861033c565b80fd5b3461020e57602036600319011261020e576004356104038161188c565b15610448576000527f2569078dfb4b0305704d3008e7403993ae9601b85f7ae5e742de3de8f8011c4660205260206001600160a01b0360406000205416604051908152f35b6333d1c03960e21b60005260046000fd5b600435906001600160a01b038216820361020e57565b602435906001600160a01b038216820361020e57565b604435906001600160a01b038216820361020e57565b60a435906001600160a01b038216820361020e57565b60c435906001600160a01b038216820361020e57565b604036600319011261020e576104db610459565b6024356001600160a01b0391826104f1836117c8565b16803303610562575b6000938385527f2569078dfb4b0305704d3008e7403993ae9601b85f7ae5e742de3de8f8011c4660205260408520921691826001600160a01b03198254161790557f8c5be1e5ebec7d5bd14f71427d1e84f3dd0314c0f7b2291e5b200ac8c7c3b9258480a480f35b60ff6105bc336105a4846001600160a01b03166000527f2569078dfb4b0305704d3008e7403993ae9601b85f7ae5e742de3de8f8011c47602052604060002090565b906001600160a01b0316600052602052604060002090565b54166104fa576367d9dca160e11b60005260046000fd5b90600182811c92168015610603575b60208310146105ed57565b634e487b7160e01b600052602260045260246000fd5b91607f16916105e2565b634e487b7160e01b600052604160045260246000fd5b6020810190811067ffffffffffffffff82111761063f57604052565b61060d565b6060810190811067ffffffffffffffff82111761063f57604052565b90601f8019910116810190811067ffffffffffffffff82111761063f57604052565b6040519060008260695491610696836105d3565b8083529260019081811690811561071e57506001146106bf575b506106bd92500383610660565b565b6069600090815291507f7fb4302e8e91f9110a6554c2c0a24601252c2a42c2220ca988efcfe3999143085b84831061070357506106bd9350508101602001386106b0565b81935090816020925483858a010152019101909185926106ea565b9050602092506106bd94915060ff191682840152151560051b820101386106b0565b3461020e576000806003193601126103e3576040519080606654610763816105d3565b808552916001918083169081156107e8575060011461078d575b6103588561034c81870382610660565b9250606683527f46501879b8ca8525e8c2fd519e2fbfcfa2ebea26501294aa02cbfcfb12e943545b8284106107d057505050810160200161034c8261035861077d565b805460208587018101919091529093019281016107b5565b8695506103589693506020925061034c94915060ff191682840152151560051b820101929361077d565b3461020e57600036600319011261020e57602060008051602061334f833981519152547f2569078dfb4b0305704d3008e7403993ae9601b85f7ae5e742de3de8f8011c41549003604051908152f35b606090600319011261020e576001600160a01b0390600435828116810361020e5791602435908116810361020e579060443590565b6108a86108a236610861565b916118ef565b005b3461020e57602036600319011261020e576108c3610459565b6001600160a01b0390610916827f0000000000000000000000000000000000000000000000000000000000000000166108fe81301415611d5c565b8360008051602061338f833981519152541614611dbd565b602082606554169260246040518095819363278f652360e11b8352861660048301525afa91821561099b576108a8926109579160009161096d575b50613302565b61095f611cbc565b610967611e1e565b90611ea3565b61098e915060203d8111610994575b6109868183610660565b8101906132ed565b38610951565b503d61097c565b6040513d6000823e3d90fd5b67ffffffffffffffff811161063f57601f01601f191660200190565b81601f8201121561020e578035906109da826109a7565b926109e86040519485610660565b8284526020838301011161020e57816000926020809301838601378301015290565b602060031982011261020e576004359067ffffffffffffffff821161020e576102da916004016109c3565b3461020e57610a4336610a0a565b610a4b611cbc565b805167ffffffffffffffff811161063f57610a7081610a6b6066546105d3565b612568565b602080601f8311600114610adf57509181610acf927f7e556cbf622f7b9bd132300b92319ed7e7f96d456f93fa37ef3282f2aea995ac94600091610ad4575b508160011b916000199060031b1c191617606655604051918291826102c9565b0390a1005b905082015138610aaf565b606660005290601f1983167f46501879b8ca8525e8c2fd519e2fbfcfa2ebea26501294aa02cbfcfb12e94354926000905b828210610b71575050927f7e556cbf622f7b9bd132300b92319ed7e7f96d456f93fa37ef3282f2aea995ac949260019282610acf9610610b58575b5050811b0160665561034c565b84015160001960f88460031b161c191690553880610b4b565b80600185968294968a01518155019501930190610b10565b6108a8610b9536610861565b9060405192610ba384610623565b60008452611b28565b604036600319011261020e57610bc0610459565b60243567ffffffffffffffff811161020e57610be09036906004016109c3565b6001600160a01b0391610c33837f000000000000000000000000000000000000000000000000000000000000000016610c1b81301415611d5c565b8460008051602061338f833981519152541614611dbd565b602083606554169360246040518096819363278f652360e11b8352861660048301525afa92831561099b576108a893610c739160009161096d5750613302565b610c7b611cbc565b611fbd565b3461020e57600036600319011261020e576001600160a01b037f0000000000000000000000000000000000000000000000000000000000000000163003610cda5760405160008051602061338f8339815191528152602090f35b60405162461bcd60e51b815260206004820152603860248201527f555550535570677261646561626c653a206d757374206e6f742062652063616c60448201527f6c6564207468726f7567682064656c656761746563616c6c00000000000000006064820152608490fd5b3461020e57610d5336610a0a565b610d5b611cbc565b805167ffffffffffffffff811161063f57610d8081610d7b6069546105d3565b6125c9565b602080601f8311600114610dbd57508192600092610db2575b5050600019600383901b1c191660019190911b17606955005b015190503880610d99565b90601f19831693610df060696000527f7fb4302e8e91f9110a6554c2c0a24601252c2a42c2220ca988efcfe39991430890565b926000905b868210610e2c5750508360019510610e13575b505050811b01606955005b015160001960f88460031b161c19169055388080610e08565b80600185968294968601518155019501930190610df5565b3461020e57602036600319011261020e5760206001600160a01b03610e6a6004356117c8565b16604051908152f35b3461020e57600036600319011261020e57610358610e8f610682565b6040519182916020835260208301906102a4565b3461020e57602036600319011261020e57610ebc610459565b6001600160a01b03811615610f1c5767ffffffffffffffff610f126020926001600160a01b03166000527f2569078dfb4b0305704d3008e7403993ae9601b85f7ae5e742de3de8f8011c45602052604060002090565b5416604051908152f35b6323d3ad8160e21b60005260046000fd5b3461020e576000806003193601126103e357610f47611cbc565b806001600160a01b0360335481198116603355167f8be0079c531659141344cd1fd0a4f28419497f9722a3daafe3b4186f6b6457e08280a380f35b3461020e57600036600319011261020e5760206001600160a01b0360335416604051908152f35b3461020e576000806003193601126103e35760405190807f2569078dfb4b0305704d3008e7403993ae9601b85f7ae5e742de3de8f8011c4390815490610fee826105d3565b808652926001928084169081156103b65750600114611017576103588661034c81880382610660565b815292507f617167b76dcc8247761fd21f427ad8ec3be6b3be203aed34e3aac08b4d31817c5b82841061105957505050810160200161034c826103583861033c565b8054602085870181019190915290930192810161103d565b3461020e57600036600319011261020e5760206001600160a01b0360655416604051908152f35b8015150361020e57565b3461020e57604036600319011261020e576110bb610459565b6001600160a01b03602435916110d083611098565b611110816105a4336001600160a01b03166000527f2569078dfb4b0305704d3008e7403993ae9601b85f7ae5e742de3de8f8011c47602052604060002090565b9215159260ff1981541660ff851617905560405192835216907f17307eab39ab6107e8899845ad3d59bd9653f200f220920489ca2b5937696c3160203392a3005b9080601f8301121561020e5781359067ffffffffffffffff9283831161063f578260051b6040519460209461118886840188610660565b865284808701928401019380851161020e57858401925b8584106111b0575050505050505090565b833583811161020e5787916111ca848480948a01016109c3565b81520193019261119f565b3461020e57602036600319011261020e5760043567ffffffffffffffff811161020e576112096108a8913690600401611151565b6001600160a01b0361122081606754163314612ce2565b60335416612ddd565b608036600319011261020e5761123d610459565b61124561046f565b6064359167ffffffffffffffff831161020e576112696108a89336906004016109c3565b9160443591611b28565b3461020e57600036600319011261020e5760206001600160a01b0360675416604051908152f35b3461020e57602036600319011261020e57610358610e8f600435613118565b60e036600319011261020e5767ffffffffffffffff60043581811161020e576112e69036906004016109c3565b60243582811161020e576112fe9036906004016109c3565b611306610485565b60643584811161020e5761131e9036906004016109c3565b60843594851161020e576113396108a8953690600401611151565b9161134261049b565b9361134b6104b1565b956122ef565b3461020e57604036600319011261020e57602060ff6113b5611371610459565b6105a461137c61046f565b916001600160a01b03166000527f2569078dfb4b0305704d3008e7403993ae9601b85f7ae5e742de3de8f8011c47602052604060002090565b54166040519015158152f35b3461020e57604036600319011261020e5760243560043567ffffffffffffffff821161020e576114167f67a3db4523b2423e9fe7cdb644223ab1cec0d37edb427efb397f2d19a91e0e819236906004016109c3565b9061142d6001600160a01b03606754163314612ce2565b6114378282612ff7565b610acf60405192839283526040602084015260408301906102a4565b3461020e57602036600319011261020e5761146c610459565b611474611cbc565b6001600160a01b0381161561148c576108a890611d14565b60405162461bcd60e51b815260206004820152602660248201527f4f776e61626c653a206e6577206f776e657220697320746865207a65726f206160448201526564647265737360d01b6064820152608490fd5b3461020e57602036600319011261020e576004356001600160a01b039061150c82606754163314612ce2565b611515816117c8565b60008281527f2569078dfb4b0305704d3008e7403993ae9601b85f7ae5e742de3de8f8011c46602052604090208054938216936115656001600160a01b03861633908114908314171590565b1590565b611767575b7fa8f4726b0aea98608e86d6ce481cc6256cdc01bfab9f5e9dfee21fd6fc25ba7e948493610acf959360009361175e575b506115d8826001600160a01b03166000527f2569078dfb4b0305704d3008e7403993ae9601b85f7ae5e742de3de8f8011c45602052604060002090565b80546fffffffffffffffffffffffffffffffff019055600084815260008051602061336f833981519152602052604090204260a01b8317600360e01b179055600160e11b8116156116ed575b507fddf252ad1be2c89b69c2b068fc378daa952ba7f163c4a11628f55a4df523b3ef8280a461169b6116777f2569078dfb4b0305704d3008e7403993ae9601b85f7ae5e742de3de8f8011c415460010190565b7f2569078dfb4b0305704d3008e7403993ae9601b85f7ae5e742de3de8f8011c4155565b6116b76116b2826000526068602052604060002090565b612fa4565b6116cc575b6040519081529081906020820190565b6116e86116e3826000526068602052604060002090565b612fae565b6116bc565b600184016117128160005260008051602061336f833981519152602052604060002090565b541561171f575b50611624565b60008051602061334f833981519152548114611719576117569060005260008051602061336f833981519152602052604060002090565b553880611719565b8390553861159b565b6117b76115616117b0959495336105a4896001600160a01b03166000527f2569078dfb4b0305704d3008e7403993ae9601b85f7ae5e742de3de8f8011c47602052604060002090565b5460ff1690565b6117c35792919261156a565b611c69565b6117e98160005260008051602061336f833981519152602052604060002090565b549081156118005750600160e01b81166118655790565b905060008051602061334f83398151915254811015611865575b60001901600081815260008051602061336f833981519152602052604090205490811561185e5750600160e01b8116156102da5760046000636f96cda160e11b8152fd5b905061181a565b636f96cda160e11b60005260046000fd5b634e487b7160e01b600052601160045260246000fd5b90600091600060008051602061334f8339815191525482106118ac575050565b92505b80835260008051602061336f8339815191526020526040832054806118e3575080156118de57600019016118af565b611876565b600160e01b1615925050565b9190916118fb826117c8565b906001600160a01b03809116938482841603611b235760008481527f2569078dfb4b0305704d3008e7403993ae9601b85f7ae5e742de3de8f8011c466020526040902080546119596001600160a01b03881633908114908314171590565b611ad3575b611ac9575b506119a0856001600160a01b03166000527f2569078dfb4b0305704d3008e7403993ae9601b85f7ae5e742de3de8f8011c45602052604060002090565b80546000190190556119e4816001600160a01b03166000527f2569078dfb4b0305704d3008e7403993ae9601b85f7ae5e742de3de8f8011c45602052604060002090565b8054600101905516928391600160e11b804260a01b851717611a1d8660005260008051602061336f833981519152602052604060002090565b55811615611a58575b507fddf252ad1be2c89b69c2b068fc378daa952ba7f163c4a11628f55a4df523b3ef600080a415611a5357565b611c8a565b60018401611a7d8160005260008051602061336f833981519152602052604060002090565b5415611a8a575b50611a26565b60008051602061334f833981519152548114611a8457611ac19060005260008051602061336f833981519152602052604060002090565b553880611a84565b6000905538611963565b611b196115616117b0336105a48b6001600160a01b03166000527f2569078dfb4b0305704d3008e7403993ae9601b85f7ae5e742de3de8f8011c47602052604060002090565b1561195e57611c69565b611c7a565b929190611b368282866118ef565b803b611b43575b50505050565b611b4c93611bb0565b15611b5a5738808080611b3d565b6368d2bf6b60e11b60005260046000fd5b9081602091031261020e57516102da816101fc565b3d15611bab573d90611b91826109a7565b91611b9f6040519384610660565b82523d6000602084013e565b606090565b9192602091611bfc916000604051958680958194630a85bd0160e11b9a8b84523360048501526001600160a01b03809516602485015260448401526080606484015260848301906102a4565b0393165af160009181611c39575b50611c2b57611c17611b80565b805115611c2657805190602001fd5b611b5a565b6001600160e01b0319161490565b611c5b91925060203d8111611c62575b611c538183610660565b810190611b6b565b9038611c0a565b503d611c49565b632ce44b5f60e11b60005260046000fd5b62a1148160e81b60005260046000fd5b633a954ecd60e21b60005260046000fd5b63b562e8dd60e01b60005260046000fd5b622e076360e81b60005260046000fd5b6001600160a01b03603354163303611cd057565b606460405162461bcd60e51b815260206004820152602060248201527f4f776e61626c653a2063616c6c6572206973206e6f7420746865206f776e65726044820152fd5b603354906001600160a01b0380911691826001600160a01b0319821617603355167f8be0079c531659141344cd1fd0a4f28419497f9722a3daafe3b4186f6b6457e0600080a3565b15611d6357565b60405162461bcd60e51b815260206004820152602c60248201527f46756e6374696f6e206d7573742062652063616c6c6564207468726f7567682060448201526b19195b1959d85d1958d85b1b60a21b6064820152608490fd5b15611dc457565b60405162461bcd60e51b815260206004820152602c60248201527f46756e6374696f6e206d7573742062652063616c6c6564207468726f7567682060448201526b6163746976652070726f787960a01b6064820152608490fd5b604051611e2a81610623565b60008152906000368137565b9081602091031261020e575190565b15611e4c57565b60405162461bcd60e51b815260206004820152602960248201527f45524331393637557067726164653a20756e737570706f727465642070726f786044820152681a58589b195555525160ba1b6064820152608490fd5b90611ecf7f4910fdfa16fed3260ed0e7147f7cc6da11a60208b5b9406d12a635614ffd91435460ff1690565b15611ede57506106bd906120c3565b6040516352d1902d60e01b8152916020836004816001600160a01b0385165afa60009381611f8d575b50611f6c5760405162461bcd60e51b815260206004820152602e60248201527f45524331393637557067726164653a206e657720696d706c656d656e7461746960448201526d6f6e206973206e6f74205555505360901b6064820152608490fd5b0390fd5b611f8860008051602061338f8339815191526106bd9414611e45565b61214f565b611faf91945060203d8111611fb6575b611fa78183610660565b810190611e36565b9238611f07565b503d611f9d565b90611fe97f4910fdfa16fed3260ed0e7147f7cc6da11a60208b5b9406d12a635614ffd91435460ff1690565b15611ff857506106bd906120c3565b6040516352d1902d60e01b8152916020836004816001600160a01b0385165afa600093816120a3575b506120825760405162461bcd60e51b815260206004820152602e60248201527f45524331393637557067726164653a206e657720696d706c656d656e7461746960448201526d6f6e206973206e6f74205555505360901b6064820152608490fd5b61209e60008051602061338f8339815191526106bd9414611e45565b61220b565b6120bc91945060203d8111611fb657611fa78183610660565b9238612021565b803b156120f4576001600160a01b0360008051602061338f83398151915291166001600160a01b0319825416179055565b60405162461bcd60e51b815260206004820152602d60248201527f455243313936373a206e657720696d706c656d656e746174696f6e206973206e60448201526c1bdd08184818dbdb9d1c9858dd609a1b6064820152608490fd5b90612159826120c3565b6001600160a01b0382167fbc7cd75a20ee27fd9adebab32041f755214dbc6bffa90cc0225b39da2e5c2d3b600080a2805115801590612203575b61219b575050565b61220091600080604051936121af85610644565b602785527f416464726573733a206c6f772d6c6576656c2064656c65676174652063616c6c6020860152660819985a5b195960ca1b6040860152602081519101845af46121fa611b80565b9161225e565b50565b506000612193565b90612215826120c3565b6001600160a01b0382167fbc7cd75a20ee27fd9adebab32041f755214dbc6bffa90cc0225b39da2e5c2d3b600080a28051158015906122565761219b575050565b506001612193565b919290156122c05750815115612272575090565b3b1561227b5790565b60405162461bcd60e51b815260206004820152601d60248201527f416464726573733a2063616c6c20746f206e6f6e2d636f6e74726163740000006044820152606490fd5b8251909150156122d35750805190602001fd5b60405162461bcd60e51b8152908190611f6890600483016102c9565b9492909593916000549660ff8860081c161580988199612416575b81156123f6575b501561239a57612337968861232e600160ff196000541617600055565b61238157612424565b61233d57565b61234d61ff001960005416600055565b604051600181527f7f26b83ff96e1f2b6a682f133852f6798a09c465da95921460cefb38474024989080602081015b0390a1565b61239561010061ff00196000541617600055565b612424565b60405162461bcd60e51b815260206004820152602e60248201527f496e697469616c697a61626c653a20636f6e747261637420697320616c72656160448201526d191e481a5b9a5d1a585b1a5e995960921b6064820152608490fd5b303b15915081612408575b5038612311565b6001915060ff161438612401565b600160ff821610915061230a565b959391949290947fee151c8401928dc223602bb187aff91b9a56c7cae5476ef1b3287b085a16c85f549560ff8760081c1696876000146125485750303b155b156124dd57612478961597886124aa5761298b565b61247e57565b7fee151c8401928dc223602bb187aff91b9a56c7cae5476ef1b3287b085a16c85f805461ff0019169055565b7fee151c8401928dc223602bb187aff91b9a56c7cae5476ef1b3287b085a16c85f805461ffff191661010117905561298b565b60405162461bcd60e51b815260206004820152603760248201527f455243373231415f5f496e697469616c697a61626c653a20636f6e747261637460448201527f20697320616c726561647920696e697469616c697a65640000000000000000006064820152608490fd5b60ff1615612463565b81811061255c575050565b60008155600101612551565b90601f8211612575575050565b6106bd9160666000527f46501879b8ca8525e8c2fd519e2fbfcfa2ebea26501294aa02cbfcfb12e94354906020601f840160051c830193106125bf575b601f0160051c0190612551565b90915081906125b2565b90601f82116125d6575050565b6106bd9160696000527f7fb4302e8e91f9110a6554c2c0a24601252c2a42c2220ca988efcfe399914308906020601f840160051c830193106125bf57601f0160051c0190612551565b90601f821161262c575050565b6106bd917f2569078dfb4b0305704d3008e7403993ae9601b85f7ae5e742de3de8f8011c426000527f933ecf8acb7824b680a8d16f3ff3db8864228d986aa4c2ebab1eeb2703b4beb3906020601f840160051c830193106125bf57601f0160051c0190612551565b90601f82116126a1575050565b6106bd917f2569078dfb4b0305704d3008e7403993ae9601b85f7ae5e742de3de8f8011c436000527f617167b76dcc8247761fd21f427ad8ec3be6b3be203aed34e3aac08b4d31817c906020601f840160051c830193106125bf57601f0160051c0190612551565b9190601f811161271857505050565b6106bd926000526020600020906020601f840160051c830193106125bf57601f0160051c0190612551565b90815167ffffffffffffffff811161063f577f2569078dfb4b0305704d3008e7403993ae9601b85f7ae5e742de3de8f8011c439061278a8161278584546105d3565b612694565b602080601f83116001146127c65750819293946000926127bb575b50508160011b916000199060031b1c1916179055565b0151905038806127a5565b90601f198316956128187f2569078dfb4b0305704d3008e7403993ae9601b85f7ae5e742de3de8f8011c436000527f617167b76dcc8247761fd21f427ad8ec3be6b3be203aed34e3aac08b4d31817c90565b926000905b8882106128555750508360019596971061283c575b505050811b019055565b015160001960f88460031b161c19169055388080612832565b8060018596829496860151815501950193019061281d565b90815167ffffffffffffffff811161063f5761288e81610a6b6066546105d3565b602080601f83116001146128ca57508192936000926128bf575b50508160011b916000199060031b1c191617606655565b0151905038806128a8565b90601f198316946128fd60666000527f46501879b8ca8525e8c2fd519e2fbfcfa2ebea26501294aa02cbfcfb12e9435490565b926000905b87821061293a575050836001959610612921575b505050811b01606655565b015160001960f88460031b161c19169055388080612916565b80600185968294968601518155019501930190612902565b916129846001600160a01b03916129766040949796976060875260608701906102a4565b9085820360208701526102a4565b9416910152565b9491939095926129ab60ff60005460081c166129a681612c82565b612c82565b6129b433611d14565b6129ed60ff7fee151c8401928dc223602bb187aff91b9a56c7cae5476ef1b3287b085a16c85f5460081c166129e881612c10565b612c10565b855167ffffffffffffffff811161063f577f2569078dfb4b0305704d3008e7403993ae9601b85f7ae5e742de3de8f8011c4290612a3381612a2e84546105d3565b61261f565b602080601f8311600114612b28575094612ad8612b1195612ad26001600160a01b039661237c9a96867f921ee8c633349ba790ec2fb9de6f159a305302393865162cff87696b46c268ea9f9e9d9b97612af4988f600092612b1d575b50508160011b916000199060031b1c19161790555b612aad8d612743565b612ac4600060008051602061334f83398151915255565b612acd8a611d14565b61286d565b87612ddd565b6001600160a01b03166001600160a01b03196067541617606755565b166001600160a01b03166001600160a01b03196065541617606555565b60405193849384612952565b01519050388f612a8f565b7f2569078dfb4b0305704d3008e7403993ae9601b85f7ae5e742de3de8f8011c4260005290601f1983167f933ecf8acb7824b680a8d16f3ff3db8864228d986aa4c2ebab1eeb2703b4beb3926000905b828210612bf757505095612ad26001600160a01b039661237c9a9660017f921ee8c633349ba790ec2fb9de6f159a305302393865162cff87696b46c268ea9f9e9d9b9697612af4988f97612ad89883612b119f10612bde575b505050811b019055612aa4565b015160001960f88460031b161c19169055388f80612bd1565b80600185968f9683959701518155019501930190612b78565b15612c1757565b60405162461bcd60e51b815260206004820152603460248201527f455243373231415f5f496e697469616c697a61626c653a20636f6e747261637460448201527f206973206e6f7420696e697469616c697a696e670000000000000000000000006064820152608490fd5b15612c8957565b60405162461bcd60e51b815260206004820152602b60248201527f496e697469616c697a61626c653a20636f6e7472616374206973206e6f74206960448201526a6e697469616c697a696e6760a81b6064820152608490fd5b15612ce957565b60405162461bcd60e51b815260206004820152601460248201527f4f4e4c5920434f5552534520434f4e54524143540000000000000000000000006044820152606490fd5b60001981146118de5760010190565b919082018092116118de57565b8051821015612d5e5760209160051b010190565b634e487b7160e01b600052603260045260246000fd5b90604082019082526020604081840152835180925260608301928160608460051b8301019501936000915b848310612daf5750505050505090565b9091929394958480612dcd600193605f198682030187528a516102a4565b9801930193019194939290612d9f565b9190612e1960008051602061334f833981519152547f2569078dfb4b0305704d3008e7403993ae9601b85f7ae5e742de3de8f8011c4154900390565b9281519060008051602061334f83398151915254908215612f9f57600190612eac6001600160a01b0382169183861460e11b4260a01b178317612e738660005260008051602061336f833981519152602052604060002090565b556001600160a01b03166000527f2569078dfb4b0305704d3008e7403993ae9601b85f7ae5e742de3de8f8011c45602052604060002090565b68010000000000000001850281540190558015612f9a57838301929180805b612f54575b50505050612eea9060008051602061334f83398151915255565b60005b818110612f2857507fc94fd08ef2f4f81479b90d2a7fc5eec80cf60e55e6af914ca21ae0926d32e07d92935061237c60405192839283612d74565b80612f4a612f3987612f4f94612d3d565b612f438387612d4a565b5190612ff7565b612d2e565b612eed565b15612f89575b6000818484837fddf252ad1be2c89b69c2b068fc378daa952ba7f163c4a11628f55a4df523b3ef8180a4612ecb565b80920191838303612f5a5780612ed0565b611cac565b611c9b565b6102da90546105d3565b612fb881546105d3565b9081612fc2575050565b81601f60009311600114612fd4575055565b908083918252612ff3601f60208420940160051c840160018501612551565b5555565b9190916130038161188c565b156130bc5760005260206068815260406000209083519067ffffffffffffffff821161063f5761303d8261303785546105d3565b85612709565b80601f831160011461306b5750819293946000926127bb5750508160011b916000199060031b1c1916179055565b90601f1983169561308185600052602060002090565b926000905b8882106130a45750508360019596971061283c57505050811b019055565b80600185968294968601518155019501930190613086565b60405162461bcd60e51b815260206004820152601c60248201527f55524920736574206f66206e6f6e6578697374656e7420746f6b656e000000006044820152606490fd5b9061311460209282815194859201610281565b0190565b6131218161188c565b1561322d576000908082526020606881526040832060405184819590835490613149826105d3565b948585526001928784821691826000146132095750506001146131cd575b50505061317692500384610660565b61317e610682565b928351156131c65780516131985750506102da915061323f565b6102da92506131b8906131b2604051958694850190613101565b90613101565b03601f198101835282610660565b9250505090565b869350819291528282205b8583106131f15750506131769350820101388080613167565b8054838a0185015288945086939092019181016131d8565b93509450505061317694915060ff191682840152151560051b820101388080613167565b604051630a14c4b560e41b8152600490fd5b6132488161188c565b156132dc57613255610682565b8051909190600090156132c757506040519060a08201604052608082019060008252905b6000190190600a9060308282060183530490816132795790506131b2926132bb6102da936080601f199485810192030181526040519586936020850190613101565b03908101835282610660565b915050604051906132d782610623565b815290565b630a14c4b560e41b60005260046000fd5b9081602091031261020e57516102da81611098565b1561330957565b60405162461bcd60e51b815260206004820152601c60248201527f494d504c454d454e45544154494f4e204e4f5420415050524f564544000000006044820152606490fdfe2569078dfb4b0305704d3008e7403993ae9601b85f7ae5e742de3de8f8011c402569078dfb4b0305704d3008e7403993ae9601b85f7ae5e742de3de8f8011c44360894a13ba1a3210667c828492db98dca3e2076cc3735a920a3ca505d382bbca2646970667358221220370195147fa953d8e372fff9c5bef25466388aac83e1fff93cc21ac1f9ebe00e64736f6c63430008130033",
  "devdoc": {
    "author": "Dhruv <contact.dhruvagarwal@gmail.com>",
    "events": {
      "AdminChanged(address,address)": {
        "details": "Emitted when the admin account has changed."
      },
      "Approval(address,address,uint256)": {
        "details": "Emitted when `owner` enables `approved` to manage the `tokenId` token."
      },
      "ApprovalForAll(address,address,bool)": {
        "details": "Emitted when `owner` enables or disables (`approved`) `operator` to manage all of its assets."
      },
      "BeaconUpgraded(address)": {
        "details": "Emitted when the beacon is changed."
      },
      "ConsecutiveTransfer(uint256,uint256,address,address)": {
        "details": "Emitted when tokens in `fromTokenId` to `toTokenId` (inclusive) is transferred from `from` to `to`, as defined in the [ERC2309](https://eips.ethereum.org/EIPS/eip-2309) standard. See {_mintERC2309} for more details."
      },
      "Initialized(uint8)": {
        "details": "Triggered when the contract has been initialized or reinitialized."
      },
      "Transfer(address,address,uint256)": {
        "details": "Emitted when `tokenId` token is transferred from `from` to `to`."
      },
      "Upgraded(address)": {
        "details": "Emitted when the implementation is upgraded."
      }
    },
    "kind": "dev",
    "methods": {
      "approve(address,uint256)": {
        "details": "Gives permission to `to` to transfer `tokenId` token to another account. See {ERC721A-_approve}. Requirements: - The caller must own the token or be an approved operator."
      },
      "balanceOf(address)": {
        "details": "Returns the number of tokens in `owner`'s account."
      },
      "constructor": {
        "details": "Lock implementation contract"
      },
      "deleteCourseNFT(uint256)": {
        "details": "delete the Course NFT  ,with the tokenID , directly",
        "params": {
          "tokenId": "tokenId of the NFT for which resource is to be deleted"
        }
      },
      "editCourseNFT(uint256,string)": {
        "details": "edit a single NFT , just changing the Contents and it's URI",
        "params": {
          "newNFTURI": "new & updated NFT URI containing info about the particular resource",
          "tokenId": "tokenId of the NFT for which resource is to be updated"
        }
      },
      "getApproved(uint256)": {
        "details": "Returns the account approved for `tokenId` token. Requirements: - `tokenId` must exist."
      },
      "initialize(string,string,address,string,string[],address,address)": {
        "details": "Intialise the course by minting the new NFTs for the course first",
        "params": {
          "courseAddress": "Owlearn Course Main Contract, just to add the the onlyCourse Modifier",
          "courseCreator": "creator of the Course , who will also control the Collection",
          "courseNFTURIs": "courseNFTURIs to be minted , containing info about the particular resource",
          "courseName": "Name of the Course , will also be the name of NFT Collection",
          "courseSymbol": "Symbol of the Course , will be the symbol of NFT Collection",
          "courseURI": "courseURI , containing any extra course Info , not to be stored on-chain",
          "implmRegisteryAddress": "implm Registery for the Owlearn Protocol , only set by courseFactory"
        }
      },
      "isApprovedForAll(address,address)": {
        "details": "Returns if the `operator` is allowed to manage all of the assets of `owner`. See {setApprovalForAll}."
      },
      "mintCourseNFTs(string[])": {
        "details": "mint new Course NFTs , after it is intialised once",
        "params": {
          "courseNFTURIs": "courseNFTURIs to be minted , containing info about the particular resource"
        }
      },
      "name()": {
        "details": "Returns the token collection name."
      },
      "owner()": {
        "details": "Returns the address of the current owner."
      },
      "ownerOf(uint256)": {
        "details": "Returns the owner of the `tokenId` token. Requirements: - `tokenId` must exist."
      },
      "proxiableUUID()": {
        "details": "Implementation of the ERC1822 {proxiableUUID} function. This returns the storage slot used by the implementation. It is used to validate the implementation's compatibility when performing an upgrade. IMPORTANT: A proxy pointing at a proxiable contract should not be considered proxiable itself, because this risks bricking a proxy that upgrades to it, by delegating to itself until out of gas. Thus it is critical that this function revert if invoked through a proxy. This is guaranteed by the `notDelegated` modifier."
      },
      "renounceOwnership()": {
        "details": "Leaves the contract without owner. It will not be possible to call `onlyOwner` functions. Can only be called by the current owner. NOTE: Renouncing ownership will leave the contract without an owner, thereby disabling any functionality that is only available to the owner."
      },
      "safeTransferFrom(address,address,uint256)": {
        "details": "Equivalent to `safeTransferFrom(from, to, tokenId, '')`."
      },
      "safeTransferFrom(address,address,uint256,bytes)": {
        "details": "Safely transfers `tokenId` token from `from` to `to`. Requirements: - `from` cannot be the zero address. - `to` cannot be the zero address. - `tokenId` token must exist and be owned by `from`. - If the caller is not `from`, it must be approved to move this token by either {approve} or {setApprovalForAll}. - If `to` refers to a smart contract, it must implement {IERC721Receiver-onERC721Received}, which is called upon a safe transfer. Emits a {Transfer} event."
      },
      "setApprovalForAll(address,bool)": {
        "details": "Approve or remove `operator` as an operator for the caller. Operators can call {transferFrom} or {safeTransferFrom} for any token owned by the caller. Requirements: - The `operator` cannot be the caller. Emits an {ApprovalForAll} event."
      },
      "setBaseURI(string)": {
        "details": "Set a base URI for the NFT collection if neededIf base URI is set , then the result of tokenURI, will be a concat string of baseURI + tokenURI we setDefault value set to \"\"",
        "params": {
          "_uri": "New Base URI to be set"
        }
      },
      "setCourseURI(string)": {
        "details": "Set a  New Course URI for the course incase any info changesDefault value set in constructor",
        "params": {
          "_uri": "New Base URI to be set"
        }
      },
      "supportsInterface(bytes4)": {
        "details": "Returns true if this contract implements the interface defined by `interfaceId`. See the corresponding [EIP section](https://eips.ethereum.org/EIPS/eip-165#how-interfaces-are-identified) to learn more about how these ids are created. This function call must use less than 30000 gas."
      },
      "symbol()": {
        "details": "Returns the token collection symbol."
      },
      "tokenURI(uint256)": {
        "details": "Get Token URI for a Token , fetched for getting the info for the resourcesIf there is no base URI, return the token URI.If both are set, concatenate the baseURI and tokenURI (via abi.encodePacked).Or Just return the blank baseURI using the method suggested by ERC721A",
        "params": {
          "tokenId": "tokenId  for each URI is to be fetched"
        }
      },
      "totalSupply()": {
        "details": "Returns the total number of tokens in existence. Burned tokens will reduce the count. To get the total number of tokens minted, please see {_totalMinted}."
      },
      "transferFrom(address,address,uint256)": {
        "details": "Transfers `tokenId` from `from` to `to`. Requirements: - `from` cannot be the zero address. - `to` cannot be the zero address. - `tokenId` token must be owned by `from`. - If the caller is not `from`, it must be approved to move this token by either {approve} or {setApprovalForAll}. Emits a {Transfer} event."
      },
      "transferOwnership(address)": {
        "details": "Transfers ownership of the contract to a new account (`newOwner`). Can only be called by the current owner."
      },
      "upgradeTo(address)": {
        "custom:oz-upgrades-unsafe-allow-reachable": "delegatecall",
        "details": "Upgrade the implementation of the proxy to `newImplementation`. Calls {_authorizeUpgrade}. Emits an {Upgraded} event."
      },
      "upgradeToAndCall(address,bytes)": {
        "custom:oz-upgrades-unsafe-allow-reachable": "delegatecall",
        "details": "Upgrade the implementation of the proxy to `newImplementation`, and subsequently execute the function call encoded in `data`. Calls {_authorizeUpgrade}. Emits an {Upgraded} event."
      }
    },
    "title": "OwlearnCourseResources",
    "version": 1
  },
  "userdoc": {
    "errors": {
      "ApprovalCallerNotOwnerNorApproved()": [
        {
          "notice": "The caller must own the token or be an approved operator."
        }
      ],
      "ApprovalQueryForNonexistentToken()": [
        {
          "notice": "The token does not exist."
        }
      ],
      "BalanceQueryForZeroAddress()": [
        {
          "notice": "Cannot query the balance for the zero address."
        }
      ],
      "MintERC2309QuantityExceedsLimit()": [
        {
          "notice": "The `quantity` minted with ERC2309 exceeds the safety limit."
        }
      ],
      "MintToZeroAddress()": [
        {
          "notice": "Cannot mint to the zero address."
        }
      ],
      "MintZeroQuantity()": [
        {
          "notice": "The quantity of tokens minted must be more than zero."
        }
      ],
      "OwnerQueryForNonexistentToken()": [
        {
          "notice": "The token does not exist."
        }
      ],
      "OwnershipNotInitializedForExtraData()": [
        {
          "notice": "The `extraData` cannot be set on an unintialized ownership slot."
        }
      ],
      "TransferCallerNotOwnerNorApproved()": [
        {
          "notice": "The caller must own the token or be an approved operator."
        }
      ],
      "TransferFromIncorrectOwner()": [
        {
          "notice": "The token must be owned by `from`."
        }
      ],
      "TransferToNonERC721ReceiverImplementer()": [
        {
          "notice": "Cannot safely transfer to a contract that does not implement the ERC721Receiver interface."
        }
      ],
      "TransferToZeroAddress()": [
        {
          "notice": "Cannot transfer to the zero address."
        }
      ],
      "URIQueryForNonexistentToken()": [
        {
          "notice": "The token does not exist."
        }
      ]
    },
    "kind": "user",
    "methods": {},
    "notice": "ERC721A NFT Contract responsible for course resources",
    "version": 1
  },
  "storageLayout": {
    "storage": [
      {
        "astId": 11058,
        "contract": "src/OwlearnCourse/Resources/OwlearnCourseResources.sol:OwlearnCourseResources",
        "label": "_initialized",
        "offset": 0,
        "slot": "0",
        "type": "t_uint8"
      },
      {
        "astId": 11061,
        "contract": "src/OwlearnCourse/Resources/OwlearnCourseResources.sol:OwlearnCourseResources",
        "label": "_initializing",
        "offset": 1,
        "slot": "0",
        "type": "t_bool"
      },
      {
        "astId": 14866,
        "contract": "src/OwlearnCourse/Resources/OwlearnCourseResources.sol:OwlearnCourseResources",
        "label": "__gap",
        "offset": 0,
        "slot": "1",
        "type": "t_array(t_uint256)50_storage"
      },
      {
        "astId": 10537,
        "contract": "src/OwlearnCourse/Resources/OwlearnCourseResources.sol:OwlearnCourseResources",
        "label": "_owner",
        "offset": 0,
        "slot": "51",
        "type": "t_address"
      },
      {
        "astId": 10657,
        "contract": "src/OwlearnCourse/Resources/OwlearnCourseResources.sol:OwlearnCourseResources",
        "label": "__gap",
        "offset": 0,
        "slot": "52",
        "type": "t_array(t_uint256)49_storage"
      },
      {
        "astId": 24551,
        "contract": "src/OwlearnCourse/Resources/OwlearnCourseResources.sol:OwlearnCourseResources",
        "label": "implRegistery",
        "offset": 0,
        "slot": "101",
        "type": "t_contract(ImplementationRegistery)23360"
      },
      {
        "astId": 24553,
        "contract": "src/OwlearnCourse/Resources/OwlearnCourseResources.sol:OwlearnCourseResources",
        "label": "courseDetailsURI",
        "offset": 0,
        "slot": "102",
        "type": "t_string_storage"
      },
      {
        "astId": 24555,
        "contract": "src/OwlearnCourse/Resources/OwlearnCourseResources.sol:OwlearnCourseResources",
        "label": "owlearnCourse",
        "offset": 0,
        "slot": "103",
        "type": "t_address"
      },
      {
        "astId": 24559,
        "contract": "src/OwlearnCourse/Resources/OwlearnCourseResources.sol:OwlearnCourseResources",
        "label": "_tokenURIs",
        "offset": 0,
        "slot": "104",
        "type": "t_mapping(t_uint256,t_string_storage)"
      },
      {
        "astId": 24562,
        "contract": "src/OwlearnCourse/Resources/OwlearnCourseResources.sol:OwlearnCourseResources",
        "label": "baseURI",
        "offset": 0,
        "slot": "105",
        "type": "t_string_storage"
      },
      {
        "astId": 24566,
        "contract": "src/OwlearnCourse/Resources/OwlearnCourseResources.sol:OwlearnCourseResources",
        "label": "__gap",
        "offset": 0,
        "slot": "106",
        "type": "t_array(t_uint256)50_storage"
      },
      {
        "astId": 11040,
        "contract": "src/OwlearnCourse/Resources/OwlearnCourseResources.sol:OwlearnCourseResources",
        "label": "__gap",
        "offset": 0,
        "slot": "156",
        "type": "t_array(t_uint256)50_storage"
      },
      {
        "astId": 11355,
        "contract": "src/OwlearnCourse/Resources/OwlearnCourseResources.sol:OwlearnCourseResources",
        "label": "__gap",
        "offset": 0,
        "slot": "206",
        "type": "t_array(t_uint256)50_storage"
      }
    ],
    "types": {
      "t_address": {
        "encoding": "inplace",
        "label": "address",
        "numberOfBytes": "20"
      },
      "t_array(t_uint256)49_storage": {
        "base": "t_uint256",
        "encoding": "inplace",
        "label": "uint256[49]",
        "numberOfBytes": "1568"
      },
      "t_array(t_uint256)50_storage": {
        "base": "t_uint256",
        "encoding": "inplace",
        "label": "uint256[50]",
        "numberOfBytes": "1600"
      },
      "t_bool": {
        "encoding": "inplace",
        "label": "bool",
        "numberOfBytes": "1"
      },
      "t_contract(ImplementationRegistery)23360": {
        "encoding": "inplace",
        "label": "contract ImplementationRegistery",
        "numberOfBytes": "20"
      },
      "t_mapping(t_uint256,t_string_storage)": {
        "encoding": "mapping",
        "key": "t_uint256",
        "label": "mapping(uint256 => string)",
        "numberOfBytes": "32",
        "value": "t_string_storage"
      },
      "t_string_storage": {
        "encoding": "bytes",
        "label": "string",
        "numberOfBytes": "32"
      },
      "t_uint256": {
        "encoding": "inplace",
        "label": "uint256",
        "numberOfBytes": "32"
      },
      "t_uint8": {
        "encoding": "inplace",
        "label": "uint8",
        "numberOfBytes": "1"
      }
    }
  }
}