{
  "address": "0x4132f806cF5Ea0F00adD160606DD353978610066",
  "abi": [
    {
      "inputs": [],
      "stateMutability": "nonpayable",
      "type": "constructor"
    },
    {
      "inputs": [],
      "name": "ApprovalCallerNotOwnerNorApproved",
      "type": "error"
    },
    {
      "inputs": [],
      "name": "ApprovalQueryForNonexistentToken",
      "type": "error"
    },
    {
      "inputs": [],
      "name": "BalanceQueryForZeroAddress",
      "type": "error"
    },
    {
      "inputs": [],
      "name": "MintERC2309QuantityExceedsLimit",
      "type": "error"
    },
    {
      "inputs": [],
      "name": "MintToZeroAddress",
      "type": "error"
    },
    {
      "inputs": [],
      "name": "MintZeroQuantity",
      "type": "error"
    },
    {
      "inputs": [],
      "name": "OwnerQueryForNonexistentToken",
      "type": "error"
    },
    {
      "inputs": [],
      "name": "OwnershipNotInitializedForExtraData",
      "type": "error"
    },
    {
      "inputs": [],
      "name": "TransferCallerNotOwnerNorApproved",
      "type": "error"
    },
    {
      "inputs": [],
      "name": "TransferFromIncorrectOwner",
      "type": "error"
    },
    {
      "inputs": [],
      "name": "TransferToNonERC721ReceiverImplementer",
      "type": "error"
    },
    {
      "inputs": [],
      "name": "TransferToZeroAddress",
      "type": "error"
    },
    {
      "inputs": [],
      "name": "URIQueryForNonexistentToken",
      "type": "error"
    },
    {
      "anonymous": false,
      "inputs": [
        {
          "indexed": false,
          "internalType": "address",
          "name": "previousAdmin",
          "type": "address"
        },
        {
          "indexed": false,
          "internalType": "address",
          "name": "newAdmin",
          "type": "address"
        }
      ],
      "name": "AdminChanged",
      "type": "event"
    },
    {
      "anonymous": false,
      "inputs": [
        {
          "indexed": true,
          "internalType": "address",
          "name": "owner",
          "type": "address"
        },
        {
          "indexed": true,
          "internalType": "address",
          "name": "approved",
          "type": "address"
        },
        {
          "indexed": true,
          "internalType": "uint256",
          "name": "tokenId",
          "type": "uint256"
        }
      ],
      "name": "Approval",
      "type": "event"
    },
    {
      "anonymous": false,
      "inputs": [
        {
          "indexed": true,
          "internalType": "address",
          "name": "owner",
          "type": "address"
        },
        {
          "indexed": true,
          "internalType": "address",
          "name": "operator",
          "type": "address"
        },
        {
          "indexed": false,
          "internalType": "bool",
          "name": "approved",
          "type": "bool"
        }
      ],
      "name": "ApprovalForAll",
      "type": "event"
    },
    {
      "anonymous": false,
      "inputs": [
        {
          "indexed": true,
          "internalType": "address",
          "name": "beacon",
          "type": "address"
        }
      ],
      "name": "BeaconUpgraded",
      "type": "event"
    },
    {
      "anonymous": false,
      "inputs": [
        {
          "indexed": true,
          "internalType": "uint256",
          "name": "fromTokenId",
          "type": "uint256"
        },
        {
          "indexed": false,
          "internalType": "uint256",
          "name": "toTokenId",
          "type": "uint256"
        },
        {
          "indexed": true,
          "internalType": "address",
          "name": "from",
          "type": "address"
        },
        {
          "indexed": true,
          "internalType": "address",
          "name": "to",
          "type": "address"
        }
      ],
      "name": "ConsecutiveTransfer",
      "type": "event"
    },
    {
      "anonymous": false,
      "inputs": [
        {
          "indexed": false,
          "internalType": "string",
          "name": "courseName",
          "type": "string"
        },
        {
          "indexed": false,
          "internalType": "string",
          "name": "courseSymbol",
          "type": "string"
        },
        {
          "indexed": false,
          "internalType": "address",
          "name": "creator",
          "type": "address"
        }
      ],
      "name": "CourseInitialised",
      "type": "event"
    },
    {
      "anonymous": false,
      "inputs": [
        {
          "indexed": false,
          "internalType": "uint256",
          "name": "tokenId",
          "type": "uint256"
        }
      ],
      "name": "CourseResourceBurned",
      "type": "event"
    },
    {
      "anonymous": false,
      "inputs": [
        {
          "indexed": false,
          "internalType": "uint256",
          "name": "tokenId",
          "type": "uint256"
        },
        {
          "indexed": false,
          "internalType": "string",
          "name": "newResourceURI",
          "type": "string"
        }
      ],
      "name": "CourseResourceUpdated",
      "type": "event"
    },
    {
      "anonymous": false,
      "inputs": [
        {
          "indexed": false,
          "internalType": "uint8",
          "name": "version",
          "type": "uint8"
        }
      ],
      "name": "Initialized",
      "type": "event"
    },
    {
      "anonymous": false,
      "inputs": [
        {
          "indexed": false,
          "internalType": "uint256",
          "name": "tokenId",
          "type": "uint256"
        },
        {
          "indexed": false,
          "internalType": "string",
          "name": "tokenURI",
          "type": "string"
        }
      ],
      "name": "MetadataUpdate",
      "type": "event"
    },
    {
      "anonymous": false,
      "inputs": [
        {
          "indexed": false,
          "internalType": "uint256",
          "name": "totalResourceMinted",
          "type": "uint256"
        },
        {
          "indexed": false,
          "internalType": "string[]",
          "name": "courseURIs",
          "type": "string[]"
        }
      ],
      "name": "NewCourseResourceMinted",
      "type": "event"
    },
    {
      "anonymous": false,
      "inputs": [
        {
          "indexed": true,
          "internalType": "address",
          "name": "previousOwner",
          "type": "address"
        },
        {
          "indexed": true,
          "internalType": "address",
          "name": "newOwner",
          "type": "address"
        }
      ],
      "name": "OwnershipTransferred",
      "type": "event"
    },
    {
      "anonymous": false,
      "inputs": [
        {
          "indexed": true,
          "internalType": "address",
          "name": "from",
          "type": "address"
        },
        {
          "indexed": true,
          "internalType": "address",
          "name": "to",
          "type": "address"
        },
        {
          "indexed": true,
          "internalType": "uint256",
          "name": "tokenId",
          "type": "uint256"
        }
      ],
      "name": "Transfer",
      "type": "event"
    },
    {
      "anonymous": false,
      "inputs": [
        {
          "indexed": true,
          "internalType": "address",
          "name": "implementation",
          "type": "address"
        }
      ],
      "name": "Upgraded",
      "type": "event"
    },
    {
      "inputs": [
        {
          "internalType": "address",
          "name": "to",
          "type": "address"
        },
        {
          "internalType": "uint256",
          "name": "tokenId",
          "type": "uint256"
        }
      ],
      "name": "approve",
      "outputs": [],
      "stateMutability": "payable",
      "type": "function"
    },
    {
      "inputs": [
        {
          "internalType": "address",
          "name": "owner",
          "type": "address"
        }
      ],
      "name": "balanceOf",
      "outputs": [
        {
          "internalType": "uint256",
          "name": "",
          "type": "uint256"
        }
      ],
      "stateMutability": "view",
      "type": "function"
    },
    {
      "inputs": [],
      "name": "baseURI",
      "outputs": [
        {
          "internalType": "string",
          "name": "",
          "type": "string"
        }
      ],
      "stateMutability": "view",
      "type": "function"
    },
    {
      "inputs": [],
      "name": "courseDetailsURI",
      "outputs": [
        {
          "internalType": "string",
          "name": "",
          "type": "string"
        }
      ],
      "stateMutability": "view",
      "type": "function"
    },
    {
      "inputs": [
        {
          "internalType": "uint256",
          "name": "tokenId",
          "type": "uint256"
        }
      ],
      "name": "deleteCourseNFT",
      "outputs": [],
      "stateMutability": "nonpayable",
      "type": "function"
    },
    {
      "inputs": [
        {
          "internalType": "uint256",
          "name": "tokenId",
          "type": "uint256"
        },
        {
          "internalType": "string",
          "name": "newNFTURI",
          "type": "string"
        }
      ],
      "name": "editCourseNFT",
      "outputs": [],
      "stateMutability": "nonpayable",
      "type": "function"
    },
    {
      "inputs": [
        {
          "internalType": "uint256",
          "name": "tokenId",
          "type": "uint256"
        }
      ],
      "name": "getApproved",
      "outputs": [
        {
          "internalType": "address",
          "name": "",
          "type": "address"
        }
      ],
      "stateMutability": "view",
      "type": "function"
    },
    {
      "inputs": [
        {
          "internalType": "string",
          "name": "courseName",
          "type": "string"
        },
        {
          "internalType": "string",
          "name": "courseSymbol",
          "type": "string"
        },
        {
          "internalType": "address",
          "name": "courseCreator",
          "type": "address"
        },
        {
          "internalType": "string",
          "name": "courseURI",
          "type": "string"
        },
        {
          "internalType": "string[]",
          "name": "courseNFTURIs",
          "type": "string[]"
        },
        {
          "internalType": "address",
          "name": "courseAddress",
          "type": "address"
        }
      ],
      "name": "initialize",
      "outputs": [],
      "stateMutability": "payable",
      "type": "function"
    },
    {
      "inputs": [
        {
          "internalType": "address",
          "name": "owner",
          "type": "address"
        },
        {
          "internalType": "address",
          "name": "operator",
          "type": "address"
        }
      ],
      "name": "isApprovedForAll",
      "outputs": [
        {
          "internalType": "bool",
          "name": "",
          "type": "bool"
        }
      ],
      "stateMutability": "view",
      "type": "function"
    },
    {
      "inputs": [
        {
          "internalType": "string[]",
          "name": "courseNFTURIs",
          "type": "string[]"
        }
      ],
      "name": "mintCourseNFTs",
      "outputs": [],
      "stateMutability": "nonpayable",
      "type": "function"
    },
    {
      "inputs": [],
      "name": "name",
      "outputs": [
        {
          "internalType": "string",
          "name": "",
          "type": "string"
        }
      ],
      "stateMutability": "view",
      "type": "function"
    },
    {
      "inputs": [],
      "name": "owlearnCourse",
      "outputs": [
        {
          "internalType": "address",
          "name": "",
          "type": "address"
        }
      ],
      "stateMutability": "view",
      "type": "function"
    },
    {
      "inputs": [],
      "name": "owner",
      "outputs": [
        {
          "internalType": "address",
          "name": "",
          "type": "address"
        }
      ],
      "stateMutability": "view",
      "type": "function"
    },
    {
      "inputs": [
        {
          "internalType": "uint256",
          "name": "tokenId",
          "type": "uint256"
        }
      ],
      "name": "ownerOf",
      "outputs": [
        {
          "internalType": "address",
          "name": "",
          "type": "address"
        }
      ],
      "stateMutability": "view",
      "type": "function"
    },
    {
      "inputs": [],
      "name": "proxiableUUID",
      "outputs": [
        {
          "internalType": "bytes32",
          "name": "",
          "type": "bytes32"
        }
      ],
      "stateMutability": "view",
      "type": "function"
    },
    {
      "inputs": [],
      "name": "renounceOwnership",
      "outputs": [],
      "stateMutability": "nonpayable",
      "type": "function"
    },
    {
      "inputs": [
        {
          "internalType": "address",
          "name": "from",
          "type": "address"
        },
        {
          "internalType": "address",
          "name": "to",
          "type": "address"
        },
        {
          "internalType": "uint256",
          "name": "tokenId",
          "type": "uint256"
        }
      ],
      "name": "safeTransferFrom",
      "outputs": [],
      "stateMutability": "payable",
      "type": "function"
    },
    {
      "inputs": [
        {
          "internalType": "address",
          "name": "from",
          "type": "address"
        },
        {
          "internalType": "address",
          "name": "to",
          "type": "address"
        },
        {
          "internalType": "uint256",
          "name": "tokenId",
          "type": "uint256"
        },
        {
          "internalType": "bytes",
          "name": "_data",
          "type": "bytes"
        }
      ],
      "name": "safeTransferFrom",
      "outputs": [],
      "stateMutability": "payable",
      "type": "function"
    },
    {
      "inputs": [
        {
          "internalType": "address",
          "name": "operator",
          "type": "address"
        },
        {
          "internalType": "bool",
          "name": "approved",
          "type": "bool"
        }
      ],
      "name": "setApprovalForAll",
      "outputs": [],
      "stateMutability": "nonpayable",
      "type": "function"
    },
    {
      "inputs": [
        {
          "internalType": "string",
          "name": "_uri",
          "type": "string"
        }
      ],
      "name": "setBaseURI",
      "outputs": [],
      "stateMutability": "nonpayable",
      "type": "function"
    },
    {
      "inputs": [
        {
          "internalType": "string",
          "name": "_uri",
          "type": "string"
        }
      ],
      "name": "setCourseURI",
      "outputs": [],
      "stateMutability": "nonpayable",
      "type": "function"
    },
    {
      "inputs": [
        {
          "internalType": "bytes4",
          "name": "interfaceId",
          "type": "bytes4"
        }
      ],
      "name": "supportsInterface",
      "outputs": [
        {
          "internalType": "bool",
          "name": "",
          "type": "bool"
        }
      ],
      "stateMutability": "view",
      "type": "function"
    },
    {
      "inputs": [],
      "name": "symbol",
      "outputs": [
        {
          "internalType": "string",
          "name": "",
          "type": "string"
        }
      ],
      "stateMutability": "view",
      "type": "function"
    },
    {
      "inputs": [
        {
          "internalType": "uint256",
          "name": "tokenId",
          "type": "uint256"
        }
      ],
      "name": "tokenURI",
      "outputs": [
        {
          "internalType": "string",
          "name": "",
          "type": "string"
        }
      ],
      "stateMutability": "view",
      "type": "function"
    },
    {
      "inputs": [],
      "name": "totalSupply",
      "outputs": [
        {
          "internalType": "uint256",
          "name": "",
          "type": "uint256"
        }
      ],
      "stateMutability": "view",
      "type": "function"
    },
    {
      "inputs": [
        {
          "internalType": "address",
          "name": "from",
          "type": "address"
        },
        {
          "internalType": "address",
          "name": "to",
          "type": "address"
        },
        {
          "internalType": "uint256",
          "name": "tokenId",
          "type": "uint256"
        }
      ],
      "name": "transferFrom",
      "outputs": [],
      "stateMutability": "payable",
      "type": "function"
    },
    {
      "inputs": [
        {
          "internalType": "address",
          "name": "newOwner",
          "type": "address"
        }
      ],
      "name": "transferOwnership",
      "outputs": [],
      "stateMutability": "nonpayable",
      "type": "function"
    },
    {
      "inputs": [
        {
          "internalType": "address",
          "name": "newImplementation",
          "type": "address"
        }
      ],
      "name": "upgradeTo",
      "outputs": [],
      "stateMutability": "nonpayable",
      "type": "function"
    },
    {
      "inputs": [
        {
          "internalType": "address",
          "name": "newImplementation",
          "type": "address"
        },
        {
          "internalType": "bytes",
          "name": "data",
          "type": "bytes"
        }
      ],
      "name": "upgradeToAndCall",
      "outputs": [],
      "stateMutability": "payable",
      "type": "function"
    }
  ],
  "transactionHash": "0x73a714876b5cd3d02b7d4a6b997d04b7709a17c09c4021ef3198597bc89ea1a5",
  "args": [],
  "numDeployments": 1,
  "solcInputHash": "5e1d42fca518fa5135f6b1c2e32a0005",
  "bytecode": "0x60c0604052600060a09081526068906200001a9082620000d8565b50306080523480156200002c57600080fd5b50620001a4565b634e487b7160e01b600052604160045260246000fd5b600181811c908216806200005e57607f821691505b6020821081036200007f57634e487b7160e01b600052602260045260246000fd5b50919050565b601f821115620000d357600081815260208120601f850160051c81016020861015620000ae5750805b601f850160051c820191505b81811015620000cf57828155600101620000ba565b5050505b505050565b81516001600160401b03811115620000f457620000f462000033565b6200010c8162000105845462000049565b8462000085565b602080601f8311600181146200014457600084156200012b5750858301515b600019600386901b1c1916600185901b178555620000cf565b600085815260208120601f198616915b82811015620001755788860151825594840194600190910190840162000154565b5085821015620001945787850151600019600388901b60f8161c191681555b5050505050600190811b01905550565b608051613088620001dc60003960008181610a6801528181610af201528181610c1c01528181610ca10152610d8701526130886000f3fe6080604052600436106101c25760003560e01c80636c0360eb116100f7578063b88d4fde11610095578063e985e9c511610064578063e985e9c5146104c0578063f2f853ea14610528578063f2fde38b14610548578063fc6c9bb21461056857600080fd5b8063b88d4fde1461045a578063beefab371461046d578063c87b56dd1461048d578063ded8dcd2146104ad57600080fd5b80638da5cb5b116100d15780638da5cb5b146103e757806395d89b4114610405578063a22cb4651461041a578063ad79f6221461043a57600080fd5b80636c0360eb1461039d57806370a08231146103b2578063715018a6146103d257600080fd5b80633659cfe6116101645780634f1ef2861161013e5780634f1ef2861461033557806352d1902d1461034857806355f804b31461035d5780636352211e1461037d57600080fd5b80633659cfe6146102e2578063410401621461030257806342842e0e1461032257600080fd5b8063095ea7b3116101a0578063095ea7b3146102565780631238dae01461026b57806318160ddd1461028057806323b872dd146102cf57600080fd5b806301ffc9a7146101c757806306fdde03146101fc578063081812fc1461021e575b600080fd5b3480156101d357600080fd5b506101e76101e23660046127cb565b610588565b60405190151581526020015b60405180910390f35b34801561020857600080fd5b50610211610625565b6040516101f39190612838565b34801561022a57600080fd5b5061023e61023936600461284b565b6106c7565b6040516001600160a01b0390911681526020016101f3565b61026961026436600461287b565b61073a565b005b34801561027757600080fd5b5061021161074a565b34801561028c57600080fd5b507f2569078dfb4b0305704d3008e7403993ae9601b85f7ae5e742de3de8f8011c415460008051602061300c83398151915254035b6040519081526020016101f3565b6102696102dd3660046128a5565b6107d8565b3480156102ee57600080fd5b506102696102fd3660046128e1565b610a5e565b34801561030e57600080fd5b5061026961031d3660046129b3565b610bde565b6102696103303660046128a5565b610bf2565b6102696103433660046129e8565b610c12565b34801561035457600080fd5b506102c1610d7a565b34801561036957600080fd5b506102696103783660046129b3565b610e3f565b34801561038957600080fd5b5061023e61039836600461284b565b610e53565b3480156103a957600080fd5b50610211610e5e565b3480156103be57600080fd5b506102c16103cd3660046128e1565b610e6b565b3480156103de57600080fd5b50610269610ee9565b3480156103f357600080fd5b506033546001600160a01b031661023e565b34801561041157600080fd5b50610211610efd565b34801561042657600080fd5b50610269610435366004612a36565b610f1c565b34801561044657600080fd5b50610269610455366004612b11565b610fa7565b610269610468366004612b46565b611025565b34801561047957600080fd5b5060665461023e906001600160a01b031681565b34801561049957600080fd5b506102116104a836600461284b565b611066565b6102696104bb366004612bae565b611186565b3480156104cc57600080fd5b506101e76104db366004612c7b565b6001600160a01b0391821660009081527f2569078dfb4b0305704d3008e7403993ae9601b85f7ae5e742de3de8f8011c476020908152604080832093909416825291909152205460ff1690565b34801561053457600080fd5b50610269610543366004612cae565b61149a565b34801561055457600080fd5b506102696105633660046128e1565b611544565b34801561057457600080fd5b5061026961058336600461284b565b6115d1565b60007f01ffc9a7000000000000000000000000000000000000000000000000000000006001600160e01b0319831614806105eb57507f80ac58cd000000000000000000000000000000000000000000000000000000006001600160e01b03198316145b8061061f57507f5b5e139f000000000000000000000000000000000000000000000000000000006001600160e01b03198316145b92915050565b606060008051602061300c833981519152600201805461064490612cdf565b80601f016020809104026020016040519081016040528092919081815260200182805461067090612cdf565b80156106bd5780601f10610692576101008083540402835291602001916106bd565b820191906000526020600020905b8154815290600101906020018083116106a057829003601f168201915b5050505050905090565b60006106d282611673565b6106ff576106ff7fcf4700e4000000000000000000000000000000000000000000000000000000006116e5565b5060009081527f2569078dfb4b0305704d3008e7403993ae9601b85f7ae5e742de3de8f8011c4660205260409020546001600160a01b031690565b610746828260016116ef565b5050565b6065805461075790612cdf565b80601f016020809104026020016040519081016040528092919081815260200182805461078390612cdf565b80156107d05780601f106107a5576101008083540402835291602001916107d0565b820191906000526020600020905b8154815290600101906020018083116107b357829003601f168201915b505050505081565b60006107e382611813565b6001600160a01b039485169490915081168414610823576108237fa1148100000000000000000000000000000000000000000000000000000000006116e5565b60008281527f2569078dfb4b0305704d3008e7403993ae9601b85f7ae5e742de3de8f8011c4660205260409020805461086e8187335b6001600160a01b039081169116811491141790565b6108cc576001600160a01b03861660009081527f2569078dfb4b0305704d3008e7403993ae9601b85f7ae5e742de3de8f8011c476020908152604080832033845290915290205460ff166108cc576108cc632ce44b5f60e11b6116e5565b80156108d757600082555b6001600160a01b0386811660009081527f2569078dfb4b0305704d3008e7403993ae9601b85f7ae5e742de3de8f8011c4560205260408082208054600019019055918716808252919020805460010190554260a01b17600160e11b1760008581527f2569078dfb4b0305704d3008e7403993ae9601b85f7ae5e742de3de8f8011c446020526040812091909155600160e11b841690036109f2576001840160008181527f2569078dfb4b0305704d3008e7403993ae9601b85f7ae5e742de3de8f8011c44602052604081205490036109f05760008051602061300c8339815191525481146109f05760008181527f2569078dfb4b0305704d3008e7403993ae9601b85f7ae5e742de3de8f8011c44602052604090208490555b505b6001600160a01b0385168481887fddf252ad1be2c89b69c2b068fc378daa952ba7f163c4a11628f55a4df523b3ef600080a480600003610a5557610a557fea553b34000000000000000000000000000000000000000000000000000000006116e5565b50505050505050565b6001600160a01b037f0000000000000000000000000000000000000000000000000000000000000000163003610af05760405162461bcd60e51b815260206004820152602c60248201527f46756e6374696f6e206d7573742062652063616c6c6564207468726f7567682060448201526b19195b1959d85d1958d85b1b60a21b60648201526084015b60405180910390fd5b7f00000000000000000000000000000000000000000000000000000000000000006001600160a01b0316610b4b7f360894a13ba1a3210667c828492db98dca3e2076cc3735a920a3ca505d382bbc546001600160a01b031690565b6001600160a01b031614610bb65760405162461bcd60e51b815260206004820152602c60248201527f46756e6374696f6e206d7573742062652063616c6c6564207468726f7567682060448201526b6163746976652070726f787960a01b6064820152608401610ae7565b610bbf816118f3565b60408051600080825260208201909252610bdb918391906118fb565b50565b610be6611a9b565b60656107468282612d67565b610c0d83838360405180602001604052806000815250611025565b505050565b6001600160a01b037f0000000000000000000000000000000000000000000000000000000000000000163003610c9f5760405162461bcd60e51b815260206004820152602c60248201527f46756e6374696f6e206d7573742062652063616c6c6564207468726f7567682060448201526b19195b1959d85d1958d85b1b60a21b6064820152608401610ae7565b7f00000000000000000000000000000000000000000000000000000000000000006001600160a01b0316610cfa7f360894a13ba1a3210667c828492db98dca3e2076cc3735a920a3ca505d382bbc546001600160a01b031690565b6001600160a01b031614610d655760405162461bcd60e51b815260206004820152602c60248201527f46756e6374696f6e206d7573742062652063616c6c6564207468726f7567682060448201526b6163746976652070726f787960a01b6064820152608401610ae7565b610d6e826118f3565b610746828260016118fb565b6000306001600160a01b037f00000000000000000000000000000000000000000000000000000000000000001614610e1a5760405162461bcd60e51b815260206004820152603860248201527f555550535570677261646561626c653a206d757374206e6f742062652063616c60448201527f6c6564207468726f7567682064656c656761746563616c6c00000000000000006064820152608401610ae7565b507f360894a13ba1a3210667c828492db98dca3e2076cc3735a920a3ca505d382bbc90565b610e47611a9b565b60686107468282612d67565b600061061f82611813565b6068805461075790612cdf565b60006001600160a01b038216610ea457610ea47f8f4eb604000000000000000000000000000000000000000000000000000000006116e5565b506001600160a01b031660009081527f2569078dfb4b0305704d3008e7403993ae9601b85f7ae5e742de3de8f8011c45602052604090205467ffffffffffffffff1690565b610ef1611a9b565b610efb6000611af5565b565b606060008051602061300c833981519152600301805461064490612cdf565b3360008181527f2569078dfb4b0305704d3008e7403993ae9601b85f7ae5e742de3de8f8011c47602090815260408083206001600160a01b03871680855290835292819020805460ff191686151590811790915590519081529192917f17307eab39ab6107e8899845ad3d59bd9653f200f220920489ca2b5937696c31910160405180910390a35050565b6066546001600160a01b0316336001600160a01b03161461100a5760405162461bcd60e51b815260206004820152601460248201527f4f4e4c5920434f5552534520434f4e54524143540000000000000000000000006044820152606401610ae7565b610bdb61101f6033546001600160a01b031690565b82611b54565b6110308484846107d8565b6001600160a01b0383163b156110605761104c84848484611c27565b611060576110606368d2bf6b60e11b6116e5565b50505050565b606061107182611673565b61108e57604051630a14c4b560e41b815260040160405180910390fd5b600082815260676020526040812080546110a790612cdf565b80601f01602080910402602001604051908101604052809291908181526020018280546110d390612cdf565b80156111205780601f106110f557610100808354040283529160200191611120565b820191906000526020600020905b81548152906001019060200180831161110357829003601f168201915b505050505090506000611131611d09565b90508051600003611143575092915050565b81511561117557808260405160200161115d929190612e27565b60405160208183030381529060405292505050919050565b61117e84611d18565b949350505050565b600054610100900460ff16158080156111a65750600054600160ff909116105b806111c05750303b1580156111c0575060005460ff166001145b6112325760405162461bcd60e51b815260206004820152602e60248201527f496e697469616c697a61626c653a20636f6e747261637420697320616c72656160448201527f647920696e697469616c697a65640000000000000000000000000000000000006064820152608401610ae7565b6000805460ff191660011790558015611255576000805461ff0019166101001790555b7fee151c8401928dc223602bb187aff91b9a56c7cae5476ef1b3287b085a16c85f54610100900460ff166112ae577fee151c8401928dc223602bb187aff91b9a56c7cae5476ef1b3287b085a16c85f5460ff16156112b2565b303b155b6113245760405162461bcd60e51b815260206004820152603760248201527f455243373231415f5f496e697469616c697a61626c653a20636f6e747261637460448201527f20697320616c726561647920696e697469616c697a65640000000000000000006064820152608401610ae7565b7fee151c8401928dc223602bb187aff91b9a56c7cae5476ef1b3287b085a16c85f54610100900460ff16158015611384577fee151c8401928dc223602bb187aff91b9a56c7cae5476ef1b3287b085a16c85f805461ffff19166101011790555b61138c611d93565b6113968888611e06565b61139f86611af5565b60656113ab8682612d67565b506113b68685611eac565b6066805473ffffffffffffffffffffffffffffffffffffffff19166001600160a01b0385161790556040517f55cb48b486025ffa5b3865fbcd0f920dfdbcb9da4d11015eddbc3a27158b28db90611412908a908a908a90612e56565b60405180910390a1801561144b577fee151c8401928dc223602bb187aff91b9a56c7cae5476ef1b3287b085a16c85f805461ff00191690555b508015610a55576000805461ff0019169055604051600181527f7f26b83ff96e1f2b6a682f133852f6798a09c465da95921460cefb38474024989060200160405180910390a150505050505050565b6066546001600160a01b0316336001600160a01b0316146114fd5760405162461bcd60e51b815260206004820152601460248201527f4f4e4c5920434f5552534520434f4e54524143540000000000000000000000006044820152606401610ae7565b6115078282611eb6565b7f67a3db4523b2423e9fe7cdb644223ab1cec0d37edb427efb397f2d19a91e0e818282604051611538929190612e95565b60405180910390a15050565b61154c611a9b565b6001600160a01b0381166115c85760405162461bcd60e51b815260206004820152602660248201527f4f776e61626c653a206e6577206f776e657220697320746865207a65726f206160448201527f64647265737300000000000000000000000000000000000000000000000000006064820152608401610ae7565b610bdb81611af5565b6066546001600160a01b0316336001600160a01b0316146116345760405162461bcd60e51b815260206004820152601460248201527f4f4e4c5920434f5552534520434f4e54524143540000000000000000000000006044820152606401610ae7565b61163d81611f55565b6040518181527fa8f4726b0aea98608e86d6ce481cc6256cdc01bfab9f5e9dfee21fd6fc25ba7e9060200160405180910390a150565b600060008051602061300c833981519152548210156116e05760005b5060008281527f2569078dfb4b0305704d3008e7403993ae9601b85f7ae5e742de3de8f8011c446020526040812054908190036116d6576116cf83612ec4565b925061168f565b600160e01b161590505b919050565b8060005260046000fd5b60006116fa83610e53565b90508180156117125750336001600160a01b03821614155b1561178a576001600160a01b03811660009081527f2569078dfb4b0305704d3008e7403993ae9601b85f7ae5e742de3de8f8011c476020908152604080832033845290915290205460ff1661178a5761178a7fcfb3b942000000000000000000000000000000000000000000000000000000006116e5565b60008381527f2569078dfb4b0305704d3008e7403993ae9601b85f7ae5e742de3de8f8011c466020526040808220805473ffffffffffffffffffffffffffffffffffffffff19166001600160a01b0388811691821790925591518693918516917f8c5be1e5ebec7d5bd14f71427d1e84f3dd0314c0f7b2291e5b200ac8c7c3b92591a450505050565b60008181527f2569078dfb4b0305704d3008e7403993ae9601b85f7ae5e742de3de8f8011c446020526040812054908190036118d05760008051602061300c83398151915254821061186f5761186f636f96cda160e11b6116e5565b506000190160008181527f2569078dfb4b0305704d3008e7403993ae9601b85f7ae5e742de3de8f8011c446020526040902054801561186f57600160e01b81166000036118bb57919050565b6118cb636f96cda160e11b6116e5565b61186f565b600160e01b81166000036118e357919050565b6116e0636f96cda160e11b6116e5565b610bdb611a9b565b7f4910fdfa16fed3260ed0e7147f7cc6da11a60208b5b9406d12a635614ffd91435460ff161561192e57610c0d83611f97565b826001600160a01b03166352d1902d6040518163ffffffff1660e01b8152600401602060405180830381865afa925050508015611988575060408051601f3d908101601f1916820190925261198591810190612edb565b60015b6119fa5760405162461bcd60e51b815260206004820152602e60248201527f45524331393637557067726164653a206e657720696d706c656d656e7461746960448201527f6f6e206973206e6f7420555550530000000000000000000000000000000000006064820152608401610ae7565b7f360894a13ba1a3210667c828492db98dca3e2076cc3735a920a3ca505d382bbc8114611a8f5760405162461bcd60e51b815260206004820152602960248201527f45524331393637557067726164653a20756e737570706f727465642070726f7860448201527f6961626c655555494400000000000000000000000000000000000000000000006064820152608401610ae7565b50610c0d838383612062565b6033546001600160a01b03163314610efb5760405162461bcd60e51b815260206004820181905260248201527f4f776e61626c653a2063616c6c6572206973206e6f7420746865206f776e65726044820152606401610ae7565b603380546001600160a01b0383811673ffffffffffffffffffffffffffffffffffffffff19831681179093556040519116919082907f8be0079c531659141344cd1fd0a4f28419497f9722a3daafe3b4186f6b6457e090600090a35050565b6000611b8f7f2569078dfb4b0305704d3008e7403993ae9601b85f7ae5e742de3de8f8011c415460008051602061300c833981519152540390565b8251909150611b9e8482612087565b60005b81811015611be757611bd5611bb68483612ef4565b858381518110611bc857611bc8612f07565b6020026020010151611eb6565b80611bdf81612f1d565b915050611ba1565b507fc94fd08ef2f4f81479b90d2a7fc5eec80cf60e55e6af914ca21ae0926d32e07d8184604051611c19929190612f36565b60405180910390a150505050565b604051630a85bd0160e11b81526000906001600160a01b0385169063150b7a0290611c5c903390899088908890600401612fa0565b6020604051808303816000875af1925050508015611c97575060408051601f3d908101601f19168201909252611c9491810190612fd2565b60015b611cec573d808015611cc5576040519150601f19603f3d011682016040523d82523d6000602084013e611cca565b606091505b508051600003611ce457611ce46368d2bf6b60e11b6116e5565b805181602001fd5b6001600160e01b031916630a85bd0160e11b149050949350505050565b60606068805461064490612cdf565b6060611d2382611673565b611d3757611d37630a14c4b560e41b6116e5565b6000611d41611d09565b90508051600003611d615760405180602001604052806000815250611d8c565b80611d6b846121d1565b604051602001611d7c929190612e27565b6040516020818303038152906040525b9392505050565b600054610100900460ff16611dfe5760405162461bcd60e51b815260206004820152602b60248201527f496e697469616c697a61626c653a20636f6e7472616374206973206e6f74206960448201526a6e697469616c697a696e6760a81b6064820152608401610ae7565b610efb612215565b7fee151c8401928dc223602bb187aff91b9a56c7cae5476ef1b3287b085a16c85f54610100900460ff16611ea25760405162461bcd60e51b815260206004820152603460248201527f455243373231415f5f496e697469616c697a61626c653a20636f6e747261637460448201527f206973206e6f7420696e697469616c697a696e670000000000000000000000006064820152608401610ae7565b6107468282612289565b6107468282611b54565b611ebf82611673565b611f0b5760405162461bcd60e51b815260206004820152601c60248201527f55524920736574206f66206e6f6e6578697374656e7420746f6b656e000000006044820152606401610ae7565b6000828152606760205260409020611f238282612d67565b507fa7527b31563240d0f5f29d80c2f13916d38a7b2b19b892c43486ed47722f2ffb8282604051611538929190612e95565b611f60816001612393565b60008181526067602052604090208054611f7990612cdf565b159050610bdb576000818152606760205260408120610bdb91612767565b6001600160a01b0381163b6120145760405162461bcd60e51b815260206004820152602d60248201527f455243313936373a206e657720696d706c656d656e746174696f6e206973206e60448201527f6f74206120636f6e7472616374000000000000000000000000000000000000006064820152608401610ae7565b7f360894a13ba1a3210667c828492db98dca3e2076cc3735a920a3ca505d382bbc805473ffffffffffffffffffffffffffffffffffffffff19166001600160a01b0392909216919091179055565b61206b836125f1565b6000825111806120785750805b15610c0d576110608383612631565b60008051602061300c8339815191525460008290036120c9576120c97fb562e8dd000000000000000000000000000000000000000000000000000000006116e5565b60008181527f2569078dfb4b0305704d3008e7403993ae9601b85f7ae5e742de3de8f8011c44602090815260408083206001600160a01b0387164260a01b6001881460e11b1781179091558084527f2569078dfb4b0305704d3008e7403993ae9601b85f7ae5e742de3de8f8011c45909252822080546801000000000000000186020190559081900361217f5761217f7f2e076300000000000000000000000000000000000000000000000000000000006116e5565b818301825b808360007fddf252ad1be2c89b69c2b068fc378daa952ba7f163c4a11628f55a4df523b3ef600080a4818160010191508103612184575060008051602061300c8339815191525550505050565b606060a06040510180604052602081039150506000815280825b600183039250600a81066030018353600a9004806121eb5750819003601f19909101908152919050565b600054610100900460ff166122805760405162461bcd60e51b815260206004820152602b60248201527f496e697469616c697a61626c653a20636f6e7472616374206973206e6f74206960448201526a6e697469616c697a696e6760a81b6064820152608401610ae7565b610efb33611af5565b7fee151c8401928dc223602bb187aff91b9a56c7cae5476ef1b3287b085a16c85f54610100900460ff166123255760405162461bcd60e51b815260206004820152603460248201527f455243373231415f5f496e697469616c697a61626c653a20636f6e747261637460448201527f206973206e6f7420696e697469616c697a696e670000000000000000000000006064820152608401610ae7565b7f2569078dfb4b0305704d3008e7403993ae9601b85f7ae5e742de3de8f8011c426123508382612d67565b507f2569078dfb4b0305704d3008e7403993ae9601b85f7ae5e742de3de8f8011c4361237c8282612d67565b50600060008051602061300c833981519152555050565b600061239e83611813565b9050806000806123db8660009081527f2569078dfb4b0305704d3008e7403993ae9601b85f7ae5e742de3de8f8011c466020526040902080549091565b91509150841561244e576123f0818433610859565b61244e576001600160a01b03831660009081527f2569078dfb4b0305704d3008e7403993ae9601b85f7ae5e742de3de8f8011c476020908152604080832033845290915290205460ff1661244e5761244e632ce44b5f60e11b6116e5565b801561245957600082555b6001600160a01b03831660008181527f2569078dfb4b0305704d3008e7403993ae9601b85f7ae5e742de3de8f8011c456020526040902080546fffffffffffffffffffffffffffffffff0190554260a01b177c03000000000000000000000000000000000000000000000000000000001760008781527f2569078dfb4b0305704d3008e7403993ae9601b85f7ae5e742de3de8f8011c446020526040812091909155600160e11b85169003612589576001860160008181527f2569078dfb4b0305704d3008e7403993ae9601b85f7ae5e742de3de8f8011c44602052604081205490036125875760008051602061300c8339815191525481146125875760008181527f2569078dfb4b0305704d3008e7403993ae9601b85f7ae5e742de3de8f8011c44602052604090208590555b505b60405186906000906001600160a01b038616907fddf252ad1be2c89b69c2b068fc378daa952ba7f163c4a11628f55a4df523b3ef908390a450507f2569078dfb4b0305704d3008e7403993ae9601b85f7ae5e742de3de8f8011c418054600101905550505050565b6125fa81611f97565b6040516001600160a01b038216907fbc7cd75a20ee27fd9adebab32041f755214dbc6bffa90cc0225b39da2e5c2d3b90600090a250565b6060611d8c838360405180606001604052806027815260200161302c602791396060600080856001600160a01b03168560405161266e9190612fef565b600060405180830381855af49150503d80600081146126a9576040519150601f19603f3d011682016040523d82523d6000602084013e6126ae565b606091505b50915091506126bf868383876126c9565b9695505050505050565b60608315612738578251600003612731576001600160a01b0385163b6127315760405162461bcd60e51b815260206004820152601d60248201527f416464726573733a2063616c6c20746f206e6f6e2d636f6e74726163740000006044820152606401610ae7565b508161117e565b61117e838381511561274d5781518083602001fd5b8060405162461bcd60e51b8152600401610ae79190612838565b50805461277390612cdf565b6000825580601f10612783575050565b601f016020900490600052602060002090810190610bdb91905b808211156127b1576000815560010161279d565b5090565b6001600160e01b031981168114610bdb57600080fd5b6000602082840312156127dd57600080fd5b8135611d8c816127b5565b60005b838110156128035781810151838201526020016127eb565b50506000910152565b600081518084526128248160208601602086016127e8565b601f01601f19169290920160200192915050565b602081526000611d8c602083018461280c565b60006020828403121561285d57600080fd5b5035919050565b80356001600160a01b03811681146116e057600080fd5b6000806040838503121561288e57600080fd5b61289783612864565b946020939093013593505050565b6000806000606084860312156128ba57600080fd5b6128c384612864565b92506128d160208501612864565b9150604084013590509250925092565b6000602082840312156128f357600080fd5b611d8c82612864565b634e487b7160e01b600052604160045260246000fd5b604051601f8201601f1916810167ffffffffffffffff8111828210171561293b5761293b6128fc565b604052919050565b600082601f83011261295457600080fd5b813567ffffffffffffffff81111561296e5761296e6128fc565b612981601f8201601f1916602001612912565b81815284602083860101111561299657600080fd5b816020850160208301376000918101602001919091529392505050565b6000602082840312156129c557600080fd5b813567ffffffffffffffff8111156129dc57600080fd5b61117e84828501612943565b600080604083850312156129fb57600080fd5b612a0483612864565b9150602083013567ffffffffffffffff811115612a2057600080fd5b612a2c85828601612943565b9150509250929050565b60008060408385031215612a4957600080fd5b612a5283612864565b915060208301358015158114612a6757600080fd5b809150509250929050565b600082601f830112612a8357600080fd5b8135602067ffffffffffffffff80831115612aa057612aa06128fc565b8260051b612aaf838201612912565b9384528581018301938381019088861115612ac957600080fd5b84880192505b85831015612b0557823584811115612ae75760008081fd5b612af58a87838c0101612943565b8352509184019190840190612acf565b98975050505050505050565b600060208284031215612b2357600080fd5b813567ffffffffffffffff811115612b3a57600080fd5b61117e84828501612a72565b60008060008060808587031215612b5c57600080fd5b612b6585612864565b9350612b7360208601612864565b925060408501359150606085013567ffffffffffffffff811115612b9657600080fd5b612ba287828801612943565b91505092959194509250565b60008060008060008060c08789031215612bc757600080fd5b863567ffffffffffffffff80821115612bdf57600080fd5b612beb8a838b01612943565b97506020890135915080821115612c0157600080fd5b612c0d8a838b01612943565b9650612c1b60408a01612864565b95506060890135915080821115612c3157600080fd5b612c3d8a838b01612943565b94506080890135915080821115612c5357600080fd5b50612c6089828a01612a72565b925050612c6f60a08801612864565b90509295509295509295565b60008060408385031215612c8e57600080fd5b612c9783612864565b9150612ca560208401612864565b90509250929050565b60008060408385031215612cc157600080fd5b82359150602083013567ffffffffffffffff811115612a2057600080fd5b600181811c90821680612cf357607f821691505b602082108103612d1357634e487b7160e01b600052602260045260246000fd5b50919050565b601f821115610c0d57600081815260208120601f850160051c81016020861015612d405750805b601f850160051c820191505b81811015612d5f57828155600101612d4c565b505050505050565b815167ffffffffffffffff811115612d8157612d816128fc565b612d9581612d8f8454612cdf565b84612d19565b602080601f831160018114612dca5760008415612db25750858301515b600019600386901b1c1916600185901b178555612d5f565b600085815260208120601f198616915b82811015612df957888601518255948401946001909101908401612dda565b5085821015612e175787850151600019600388901b60f8161c191681555b5050505050600190811b01905550565b60008351612e398184602088016127e8565b835190830190612e4d8183602088016127e8565b01949350505050565b606081526000612e69606083018661280c565b8281036020840152612e7b818661280c565b9150506001600160a01b0383166040830152949350505050565b82815260406020820152600061117e604083018461280c565b634e487b7160e01b600052601160045260246000fd5b600081612ed357612ed3612eae565b506000190190565b600060208284031215612eed57600080fd5b5051919050565b8082018082111561061f5761061f612eae565b634e487b7160e01b600052603260045260246000fd5b600060018201612f2f57612f2f612eae565b5060010190565b600060408201848352602060408185015281855180845260608601915060608160051b870101935082870160005b82811015612f9257605f19888703018452612f8086835161280c565b95509284019290840190600101612f64565b509398975050505050505050565b60006001600160a01b038087168352808616602084015250836040830152608060608301526126bf608083018461280c565b600060208284031215612fe457600080fd5b8151611d8c816127b5565b600082516130018184602087016127e8565b919091019291505056fe2569078dfb4b0305704d3008e7403993ae9601b85f7ae5e742de3de8f8011c40416464726573733a206c6f772d6c6576656c2064656c65676174652063616c6c206661696c6564a26469706673582212204aef821391157560ba8eb608baede20a545de0eb3061ac7a6751e6f2e5a283eb64736f6c63430008130033",
  "devdoc": {
    "author": "Dhruv <contact.dhruvagarwal@gmail.com>",
    "events": {
      "AdminChanged(address,address)": {
        "details": "Emitted when the admin account has changed."
      },
      "Approval(address,address,uint256)": {
        "details": "Emitted when `owner` enables `approved` to manage the `tokenId` token."
      },
      "ApprovalForAll(address,address,bool)": {
        "details": "Emitted when `owner` enables or disables (`approved`) `operator` to manage all of its assets."
      },
      "BeaconUpgraded(address)": {
        "details": "Emitted when the beacon is changed."
      },
      "ConsecutiveTransfer(uint256,uint256,address,address)": {
        "details": "Emitted when tokens in `fromTokenId` to `toTokenId` (inclusive) is transferred from `from` to `to`, as defined in the [ERC2309](https://eips.ethereum.org/EIPS/eip-2309) standard. See {_mintERC2309} for more details."
      },
      "Initialized(uint8)": {
        "details": "Triggered when the contract has been initialized or reinitialized."
      },
      "Transfer(address,address,uint256)": {
        "details": "Emitted when `tokenId` token is transferred from `from` to `to`."
      },
      "Upgraded(address)": {
        "details": "Emitted when the implementation is upgraded."
      }
    },
    "kind": "dev",
    "methods": {
      "approve(address,uint256)": {
        "details": "Gives permission to `to` to transfer `tokenId` token to another account. See {ERC721A-_approve}. Requirements: - The caller must own the token or be an approved operator."
      },
      "balanceOf(address)": {
        "details": "Returns the number of tokens in `owner`'s account."
      },
      "constructor": {
        "details": "Lock implementation contract"
      },
      "deleteCourseNFT(uint256)": {
        "details": "delete the Course NFT  ,with the tokenID , directly",
        "params": {
          "tokenId": "tokenId of the NFT for which resource is to be deleted"
        }
      },
      "editCourseNFT(uint256,string)": {
        "details": "edit a single NFT , just changing the Contents and it's URI",
        "params": {
          "newNFTURI": "new & updated NFT URI containing info about the particular resource",
          "tokenId": "tokenId of the NFT for which resource is to be updated"
        }
      },
      "getApproved(uint256)": {
        "details": "Returns the account approved for `tokenId` token. Requirements: - `tokenId` must exist."
      },
      "initialize(string,string,address,string,string[],address)": {
        "details": "Intialise the course by minting the new NFTs for the course first",
        "params": {
          "courseAddress": "Owlearn Course Main Contract, just to add the the onlyCourse Modifier",
          "courseCreator": "creator of the Course , who will also control the Collection",
          "courseNFTURIs": "courseNFTURIs to be minted , containing info about the particular resource",
          "courseName": "Name of the Course , will also be the name of NFT Collection",
          "courseSymbol": "Symbol of the Course , will be the symbol of NFT Collection",
          "courseURI": "courseURI , containing any extra course Info , not to be stored on-chain"
        }
      },
      "isApprovedForAll(address,address)": {
        "details": "Returns if the `operator` is allowed to manage all of the assets of `owner`. See {setApprovalForAll}."
      },
      "mintCourseNFTs(string[])": {
        "details": "mint new Course NFTs , after it is intialised once",
        "params": {
          "courseNFTURIs": "courseNFTURIs to be minted , containing info about the particular resource"
        }
      },
      "name()": {
        "details": "Returns the token collection name."
      },
      "owner()": {
        "details": "Returns the address of the current owner."
      },
      "ownerOf(uint256)": {
        "details": "Returns the owner of the `tokenId` token. Requirements: - `tokenId` must exist."
      },
      "proxiableUUID()": {
        "details": "Implementation of the ERC1822 {proxiableUUID} function. This returns the storage slot used by the implementation. It is used to validate the implementation's compatibility when performing an upgrade. IMPORTANT: A proxy pointing at a proxiable contract should not be considered proxiable itself, because this risks bricking a proxy that upgrades to it, by delegating to itself until out of gas. Thus it is critical that this function revert if invoked through a proxy. This is guaranteed by the `notDelegated` modifier."
      },
      "renounceOwnership()": {
        "details": "Leaves the contract without owner. It will not be possible to call `onlyOwner` functions. Can only be called by the current owner. NOTE: Renouncing ownership will leave the contract without an owner, thereby disabling any functionality that is only available to the owner."
      },
      "safeTransferFrom(address,address,uint256)": {
        "details": "Equivalent to `safeTransferFrom(from, to, tokenId, '')`."
      },
      "safeTransferFrom(address,address,uint256,bytes)": {
        "details": "Safely transfers `tokenId` token from `from` to `to`. Requirements: - `from` cannot be the zero address. - `to` cannot be the zero address. - `tokenId` token must exist and be owned by `from`. - If the caller is not `from`, it must be approved to move this token by either {approve} or {setApprovalForAll}. - If `to` refers to a smart contract, it must implement {IERC721Receiver-onERC721Received}, which is called upon a safe transfer. Emits a {Transfer} event."
      },
      "setApprovalForAll(address,bool)": {
        "details": "Approve or remove `operator` as an operator for the caller. Operators can call {transferFrom} or {safeTransferFrom} for any token owned by the caller. Requirements: - The `operator` cannot be the caller. Emits an {ApprovalForAll} event."
      },
      "setBaseURI(string)": {
        "details": "Set a base URI for the NFT collection if neededIf base URI is set , then the result of tokenURI, will be a concat string of baseURI + tokenURI we setDefault value set to \"\"",
        "params": {
          "_uri": "New Base URI to be set"
        }
      },
      "setCourseURI(string)": {
        "details": "Set a  New Course URI for the course incase any info changesDefault value set in constructor",
        "params": {
          "_uri": "New Base URI to be set"
        }
      },
      "supportsInterface(bytes4)": {
        "details": "Returns true if this contract implements the interface defined by `interfaceId`. See the corresponding [EIP section](https://eips.ethereum.org/EIPS/eip-165#how-interfaces-are-identified) to learn more about how these ids are created. This function call must use less than 30000 gas."
      },
      "symbol()": {
        "details": "Returns the token collection symbol."
      },
      "tokenURI(uint256)": {
        "details": "Get Token URI for a Token , fetched for getting the info for the resourcesIf there is no base URI, return the token URI.If both are set, concatenate the baseURI and tokenURI (via abi.encodePacked).Or Just return the blank baseURI using the method suggested by ERC721A",
        "params": {
          "tokenId": "tokenId  for each URI is to be fetched"
        }
      },
      "totalSupply()": {
        "details": "Returns the total number of tokens in existence. Burned tokens will reduce the count. To get the total number of tokens minted, please see {_totalMinted}."
      },
      "transferFrom(address,address,uint256)": {
        "details": "Transfers `tokenId` from `from` to `to`. Requirements: - `from` cannot be the zero address. - `to` cannot be the zero address. - `tokenId` token must be owned by `from`. - If the caller is not `from`, it must be approved to move this token by either {approve} or {setApprovalForAll}. Emits a {Transfer} event."
      },
      "transferOwnership(address)": {
        "details": "Transfers ownership of the contract to a new account (`newOwner`). Can only be called by the current owner."
      },
      "upgradeTo(address)": {
        "custom:oz-upgrades-unsafe-allow-reachable": "delegatecall",
        "details": "Upgrade the implementation of the proxy to `newImplementation`. Calls {_authorizeUpgrade}. Emits an {Upgraded} event."
      },
      "upgradeToAndCall(address,bytes)": {
        "custom:oz-upgrades-unsafe-allow-reachable": "delegatecall",
        "details": "Upgrade the implementation of the proxy to `newImplementation`, and subsequently execute the function call encoded in `data`. Calls {_authorizeUpgrade}. Emits an {Upgraded} event."
      }
    },
    "title": "OwlearnCourseResources",
    "version": 1
  },
  "userdoc": {
    "errors": {
      "ApprovalCallerNotOwnerNorApproved()": [
        {
          "notice": "The caller must own the token or be an approved operator."
        }
      ],
      "ApprovalQueryForNonexistentToken()": [
        {
          "notice": "The token does not exist."
        }
      ],
      "BalanceQueryForZeroAddress()": [
        {
          "notice": "Cannot query the balance for the zero address."
        }
      ],
      "MintERC2309QuantityExceedsLimit()": [
        {
          "notice": "The `quantity` minted with ERC2309 exceeds the safety limit."
        }
      ],
      "MintToZeroAddress()": [
        {
          "notice": "Cannot mint to the zero address."
        }
      ],
      "MintZeroQuantity()": [
        {
          "notice": "The quantity of tokens minted must be more than zero."
        }
      ],
      "OwnerQueryForNonexistentToken()": [
        {
          "notice": "The token does not exist."
        }
      ],
      "OwnershipNotInitializedForExtraData()": [
        {
          "notice": "The `extraData` cannot be set on an unintialized ownership slot."
        }
      ],
      "TransferCallerNotOwnerNorApproved()": [
        {
          "notice": "The caller must own the token or be an approved operator."
        }
      ],
      "TransferFromIncorrectOwner()": [
        {
          "notice": "The token must be owned by `from`."
        }
      ],
      "TransferToNonERC721ReceiverImplementer()": [
        {
          "notice": "Cannot safely transfer to a contract that does not implement the ERC721Receiver interface."
        }
      ],
      "TransferToZeroAddress()": [
        {
          "notice": "Cannot transfer to the zero address."
        }
      ],
      "URIQueryForNonexistentToken()": [
        {
          "notice": "The token does not exist."
        }
      ]
    },
    "kind": "user",
    "methods": {},
    "notice": "ERC721A NFT Contract responsible for course resources",
    "version": 1
  },
  "storageLayout": {
    "storage": [
      {
        "astId": 11058,
        "contract": "src/OwlearnCourse/Resources/OwlearnCourseResources.sol:OwlearnCourseResources",
        "label": "_initialized",
        "offset": 0,
        "slot": "0",
        "type": "t_uint8"
      },
      {
        "astId": 11061,
        "contract": "src/OwlearnCourse/Resources/OwlearnCourseResources.sol:OwlearnCourseResources",
        "label": "_initializing",
        "offset": 1,
        "slot": "0",
        "type": "t_bool"
      },
      {
        "astId": 14866,
        "contract": "src/OwlearnCourse/Resources/OwlearnCourseResources.sol:OwlearnCourseResources",
        "label": "__gap",
        "offset": 0,
        "slot": "1",
        "type": "t_array(t_uint256)50_storage"
      },
      {
        "astId": 10537,
        "contract": "src/OwlearnCourse/Resources/OwlearnCourseResources.sol:OwlearnCourseResources",
        "label": "_owner",
        "offset": 0,
        "slot": "51",
        "type": "t_address"
      },
      {
        "astId": 10657,
        "contract": "src/OwlearnCourse/Resources/OwlearnCourseResources.sol:OwlearnCourseResources",
        "label": "__gap",
        "offset": 0,
        "slot": "52",
        "type": "t_array(t_uint256)49_storage"
      },
      {
        "astId": 22906,
        "contract": "src/OwlearnCourse/Resources/OwlearnCourseResources.sol:OwlearnCourseResources",
        "label": "courseDetailsURI",
        "offset": 0,
        "slot": "101",
        "type": "t_string_storage"
      },
      {
        "astId": 22908,
        "contract": "src/OwlearnCourse/Resources/OwlearnCourseResources.sol:OwlearnCourseResources",
        "label": "owlearnCourse",
        "offset": 0,
        "slot": "102",
        "type": "t_address"
      },
      {
        "astId": 22912,
        "contract": "src/OwlearnCourse/Resources/OwlearnCourseResources.sol:OwlearnCourseResources",
        "label": "_tokenURIs",
        "offset": 0,
        "slot": "103",
        "type": "t_mapping(t_uint256,t_string_storage)"
      },
      {
        "astId": 22915,
        "contract": "src/OwlearnCourse/Resources/OwlearnCourseResources.sol:OwlearnCourseResources",
        "label": "baseURI",
        "offset": 0,
        "slot": "104",
        "type": "t_string_storage"
      },
      {
        "astId": 22919,
        "contract": "src/OwlearnCourse/Resources/OwlearnCourseResources.sol:OwlearnCourseResources",
        "label": "__gap",
        "offset": 0,
        "slot": "105",
        "type": "t_array(t_uint256)50_storage"
      },
      {
        "astId": 11040,
        "contract": "src/OwlearnCourse/Resources/OwlearnCourseResources.sol:OwlearnCourseResources",
        "label": "__gap",
        "offset": 0,
        "slot": "155",
        "type": "t_array(t_uint256)50_storage"
      },
      {
        "astId": 11355,
        "contract": "src/OwlearnCourse/Resources/OwlearnCourseResources.sol:OwlearnCourseResources",
        "label": "__gap",
        "offset": 0,
        "slot": "205",
        "type": "t_array(t_uint256)50_storage"
      }
    ],
    "types": {
      "t_address": {
        "encoding": "inplace",
        "label": "address",
        "numberOfBytes": "20"
      },
      "t_array(t_uint256)49_storage": {
        "base": "t_uint256",
        "encoding": "inplace",
        "label": "uint256[49]",
        "numberOfBytes": "1568"
      },
      "t_array(t_uint256)50_storage": {
        "base": "t_uint256",
        "encoding": "inplace",
        "label": "uint256[50]",
        "numberOfBytes": "1600"
      },
      "t_bool": {
        "encoding": "inplace",
        "label": "bool",
        "numberOfBytes": "1"
      },
      "t_mapping(t_uint256,t_string_storage)": {
        "encoding": "mapping",
        "key": "t_uint256",
        "label": "mapping(uint256 => string)",
        "numberOfBytes": "32",
        "value": "t_string_storage"
      },
      "t_string_storage": {
        "encoding": "bytes",
        "label": "string",
        "numberOfBytes": "32"
      },
      "t_uint256": {
        "encoding": "inplace",
        "label": "uint256",
        "numberOfBytes": "32"
      },
      "t_uint8": {
        "encoding": "inplace",
        "label": "uint8",
        "numberOfBytes": "1"
      }
    }
  }
}