{
  "address": "0x01B68Ceec167aAD7cbe3131c5518bC0765b00C88",
  "abi": [
    {
      "inputs": [],
      "stateMutability": "nonpayable",
      "type": "constructor"
    },
    {
      "anonymous": false,
      "inputs": [
        {
          "indexed": false,
          "internalType": "address",
          "name": "previousAdmin",
          "type": "address"
        },
        {
          "indexed": false,
          "internalType": "address",
          "name": "newAdmin",
          "type": "address"
        }
      ],
      "name": "AdminChanged",
      "type": "event"
    },
    {
      "anonymous": false,
      "inputs": [
        {
          "indexed": true,
          "internalType": "address",
          "name": "beacon",
          "type": "address"
        }
      ],
      "name": "BeaconUpgraded",
      "type": "event"
    },
    {
      "anonymous": false,
      "inputs": [
        {
          "indexed": true,
          "internalType": "address",
          "name": "course",
          "type": "address"
        },
        {
          "indexed": true,
          "internalType": "address",
          "name": "resource",
          "type": "address"
        },
        {
          "indexed": true,
          "internalType": "address",
          "name": "certificates",
          "type": "address"
        }
      ],
      "name": "CourseInitialised",
      "type": "event"
    },
    {
      "anonymous": false,
      "inputs": [
        {
          "indexed": false,
          "internalType": "uint8",
          "name": "version",
          "type": "uint8"
        }
      ],
      "name": "Initialized",
      "type": "event"
    },
    {
      "anonymous": false,
      "inputs": [
        {
          "indexed": true,
          "internalType": "address",
          "name": "course",
          "type": "address"
        }
      ],
      "name": "MintModuleDisabled",
      "type": "event"
    },
    {
      "anonymous": false,
      "inputs": [
        {
          "indexed": true,
          "internalType": "address",
          "name": "course",
          "type": "address"
        },
        {
          "indexed": true,
          "internalType": "address",
          "name": "moduleAddress",
          "type": "address"
        }
      ],
      "name": "MintModuleInitialised",
      "type": "event"
    },
    {
      "anonymous": false,
      "inputs": [
        {
          "indexed": true,
          "internalType": "address",
          "name": "previousOwner",
          "type": "address"
        },
        {
          "indexed": true,
          "internalType": "address",
          "name": "newOwner",
          "type": "address"
        }
      ],
      "name": "OwnershipTransferred",
      "type": "event"
    },
    {
      "anonymous": false,
      "inputs": [
        {
          "indexed": true,
          "internalType": "address",
          "name": "implementation",
          "type": "address"
        }
      ],
      "name": "Upgraded",
      "type": "event"
    },
    {
      "inputs": [],
      "name": "courseCertificates",
      "outputs": [
        {
          "internalType": "contract OwlearnCourseCertificates",
          "name": "",
          "type": "address"
        }
      ],
      "stateMutability": "view",
      "type": "function"
    },
    {
      "inputs": [],
      "name": "courseId",
      "outputs": [
        {
          "internalType": "uint256",
          "name": "",
          "type": "uint256"
        }
      ],
      "stateMutability": "view",
      "type": "function"
    },
    {
      "inputs": [],
      "name": "courseResources",
      "outputs": [
        {
          "internalType": "contract OwlearnCourseResources",
          "name": "",
          "type": "address"
        }
      ],
      "stateMutability": "view",
      "type": "function"
    },
    {
      "inputs": [],
      "name": "creatorId",
      "outputs": [
        {
          "internalType": "uint256",
          "name": "",
          "type": "uint256"
        }
      ],
      "stateMutability": "view",
      "type": "function"
    },
    {
      "inputs": [
        {
          "internalType": "uint256",
          "name": "tokenId",
          "type": "uint256"
        }
      ],
      "name": "deleteCourseNFT",
      "outputs": [],
      "stateMutability": "nonpayable",
      "type": "function"
    },
    {
      "inputs": [],
      "name": "disableModule",
      "outputs": [],
      "stateMutability": "nonpayable",
      "type": "function"
    },
    {
      "inputs": [
        {
          "internalType": "uint256",
          "name": "tokenId",
          "type": "uint256"
        },
        {
          "internalType": "string",
          "name": "newNFTURI",
          "type": "string"
        }
      ],
      "name": "editCourseNFT",
      "outputs": [],
      "stateMutability": "nonpayable",
      "type": "function"
    },
    {
      "inputs": [],
      "name": "implRegistery",
      "outputs": [
        {
          "internalType": "contract ImplementationRegistery",
          "name": "",
          "type": "address"
        }
      ],
      "stateMutability": "view",
      "type": "function"
    },
    {
      "inputs": [
        {
          "internalType": "uint256",
          "name": "_creatorId",
          "type": "uint256"
        },
        {
          "internalType": "uint256",
          "name": "_courseId",
          "type": "uint256"
        },
        {
          "internalType": "string",
          "name": "courseName",
          "type": "string"
        },
        {
          "internalType": "string",
          "name": "courseSymbol",
          "type": "string"
        },
        {
          "internalType": "address",
          "name": "courseCreator",
          "type": "address"
        },
        {
          "internalType": "string",
          "name": "courseURI",
          "type": "string"
        },
        {
          "internalType": "string[]",
          "name": "courseNFTURIs",
          "type": "string[]"
        },
        {
          "internalType": "string",
          "name": "certificateBaseURI",
          "type": "string"
        },
        {
          "internalType": "address",
          "name": "_resourceImplementation",
          "type": "address"
        },
        {
          "internalType": "address",
          "name": "_certificateImplementation",
          "type": "address"
        },
        {
          "internalType": "address",
          "name": "moduleRegisteryAddress",
          "type": "address"
        },
        {
          "internalType": "address",
          "name": "implmRegisteryAddress",
          "type": "address"
        }
      ],
      "name": "initialize",
      "outputs": [],
      "stateMutability": "payable",
      "type": "function"
    },
    {
      "inputs": [
        {
          "internalType": "address",
          "name": "to",
          "type": "address"
        },
        {
          "internalType": "bytes",
          "name": "data",
          "type": "bytes"
        }
      ],
      "name": "mintCourseCertificate",
      "outputs": [
        {
          "internalType": "uint256",
          "name": "tokenId",
          "type": "uint256"
        }
      ],
      "stateMutability": "payable",
      "type": "function"
    },
    {
      "inputs": [
        {
          "internalType": "string[]",
          "name": "courseNFTURIs",
          "type": "string[]"
        }
      ],
      "name": "mintCourseNFTs",
      "outputs": [],
      "stateMutability": "nonpayable",
      "type": "function"
    },
    {
      "inputs": [],
      "name": "mintModule",
      "outputs": [
        {
          "internalType": "address",
          "name": "",
          "type": "address"
        }
      ],
      "stateMutability": "view",
      "type": "function"
    },
    {
      "inputs": [],
      "name": "moduleRegistery",
      "outputs": [
        {
          "internalType": "contract OwlearnModuleRegistery",
          "name": "",
          "type": "address"
        }
      ],
      "stateMutability": "view",
      "type": "function"
    },
    {
      "inputs": [],
      "name": "owner",
      "outputs": [
        {
          "internalType": "address",
          "name": "",
          "type": "address"
        }
      ],
      "stateMutability": "view",
      "type": "function"
    },
    {
      "inputs": [],
      "name": "proxiableUUID",
      "outputs": [
        {
          "internalType": "bytes32",
          "name": "",
          "type": "bytes32"
        }
      ],
      "stateMutability": "view",
      "type": "function"
    },
    {
      "inputs": [],
      "name": "renounceOwnership",
      "outputs": [],
      "stateMutability": "nonpayable",
      "type": "function"
    },
    {
      "inputs": [
        {
          "internalType": "address",
          "name": "_mintModule",
          "type": "address"
        },
        {
          "internalType": "bytes",
          "name": "data",
          "type": "bytes"
        }
      ],
      "name": "setAndInitialiseMintModule",
      "outputs": [],
      "stateMutability": "nonpayable",
      "type": "function"
    },
    {
      "inputs": [
        {
          "internalType": "address",
          "name": "newOwner",
          "type": "address"
        }
      ],
      "name": "transferOwnership",
      "outputs": [],
      "stateMutability": "nonpayable",
      "type": "function"
    },
    {
      "inputs": [
        {
          "internalType": "address",
          "name": "newImplementation",
          "type": "address"
        }
      ],
      "name": "upgradeTo",
      "outputs": [],
      "stateMutability": "nonpayable",
      "type": "function"
    },
    {
      "inputs": [
        {
          "internalType": "address",
          "name": "newImplementation",
          "type": "address"
        },
        {
          "internalType": "bytes",
          "name": "data",
          "type": "bytes"
        }
      ],
      "name": "upgradeToAndCall",
      "outputs": [],
      "stateMutability": "payable",
      "type": "function"
    }
  ],
  "transactionHash": "0xd5838731497b6c7363a90723974bce72b22ef4c0875c944fe295a793e705845f",
  "args": [],
  "numDeployments": 4,
  "solcInputHash": "a2496cbb5711e7192c16f35b24945071",
  "bytecode": "0x60a080604052346100dc57306080526000549060ff8260081c1661008a575060ff8082160361004f575b6040516124b490816100e28239608051818181610e5501528181610f6d01526112f80152f35b60ff90811916176000557f7f26b83ff96e1f2b6a682f133852f6798a09c465da95921460cefb3847402498602060405160ff8152a138610029565b62461bcd60e51b815260206004820152602760248201527f496e697469616c697a61626c653a20636f6e747261637420697320696e697469604482015266616c697a696e6760c81b6064820152608490fd5b600080fdfe608060405260043610156200001357600080fd5b6000803560e01c80633659cfe614620012ce5780634f1ef2861462000f1157806352d1902d1462000e385780636e0f634b1462000e185780636fc753471462000dc3578063715018a61462000d6b5780638d2576ad1462000bdc5780638da5cb5b1462000bb35780639374e8b31462000b8a5780639b760d041462000b61578063ad79f6221462000adc578063af7406221462000ab3578063ba7366171462000a8a578063bf0e68d614620008c6578063dbd3abde146200089d578063e58324ea146200087d578063f2f853ea14620007da578063f2fde38b1462000740578063f310b34614620001935763fc6c9bb2146200010e57600080fd5b346200018257602036600319011262000182576200012b62001849565b806001600160a01b0360665416803b156200019057818091602460405180948193637e364dd960e11b835260043560048401525af1801562000185576200016f5750f35b6200017a9062001673565b620001825780f35b80fd5b6040513d84823e3d90fd5b50fd5b50610180366003190112620001825760443567ffffffffffffffff81116200073c57620001c59036906004016200179a565b60643567ffffffffffffffff81116200073857620001e89036906004016200179a565b6001600160a01b036084351660843503620007275760a43567ffffffffffffffff81116200073457620002209036906004016200179a565b60c43567ffffffffffffffff8111620007305762000243903690600401620017bb565b9260e43567ffffffffffffffff81116200072c57620002679036906004016200179a565b916001600160a01b036101043516610104350362000727576001600160a01b0361012435166101243503620007275761014435946001600160a01b0386168603620007275761016435916001600160a01b0383168303620007275787549060ff8260081c16159788809962000719575b801562000700575b15620006a457620003e0936001600160a01b03620003f3926200032a60ff8e62000417988f60018419831617835562000692575b505460081c16620003248162001bbe565b62001bbe565b6200033533620018a2565b62000342608435620018a2565b600435606a55602435606b55166001600160a01b031960675416176067556001600160a01b0386166001600160a01b03196068541617606855604051948593633436b8bf60e21b602086015260e06024860152620003bc620003a961010487018b62001b15565b8681036023190160448801528c62001b15565b906001600160a01b0360843516606487015260231986830301608487015262001b15565b8381036023190160a48501529062001b3c565b3060c48301526001600160a01b03851660e483015203601f198101835282620016bb565b604051908161041281011067ffffffffffffffff610412840111176200067e576200045582916104126200206d843961010435610412840162001b9c565b039087f0801562000673576200056662000586946200055362000540976001600160a01b0380951685196066541617606655620004de603660405180997f436572746966696361746520426164676520666f7220000000000000000000006020830152620004cd815180926020868601910162001af0565b810103601681018a520188620016bb565b6200051b602360405180936243425f60e81b60208301526200050a815180926020868601910162001af0565b8101036003810184520182620016bb565b604051636b687d7760e11b602082015260a0602482015298899760c489019062001b15565b8781036023190160448901529062001b15565b8581036023190160648701529062001b15565b91816084351660848501521660a483015203601f198101835282620016bb565b604051906104128083019083821067ffffffffffffffff8311176200065f5791620005be91849362001c5b8539610124359062001b9c565b039083f0801562000185576001600160a01b03169060655491806001600160a01b03198416176065556001600160a01b0360665416908460405194161790307f5b57aba6c6234040a31853b1fd814eb170804f5f9ab0e6c7dd837bbdf018b4a38680a46200062a575080f35b60207f7f26b83ff96e1f2b6a682f133852f6798a09c465da95921460cefb38474024989161ff0019845416845560018152a180f35b634e487b7160e01b86526041600452602486fd5b6040513d88823e3d90fd5b634e487b7160e01b88526041600452602488fd5b61ffff19166101011781553862000313565b60405162461bcd60e51b815260206004820152602e60248201527f496e697469616c697a61626c653a20636f6e747261637420697320616c72656160448201526d191e481a5b9a5d1a585b1a5e995960921b6064820152608490fd5b50303b158015620002df5750600160ff841614620002df565b50600160ff841610620002d7565b600080fd5b8580fd5b8480fd5b8380fd5b8280fd5b5080fd5b50346200018257602036600319011262000182576200075e6200165c565b6200076862001849565b6001600160a01b0381161562000786576200078390620018a2565b80f35b60405162461bcd60e51b815260206004820152602660248201527f4f776e61626c653a206e6577206f776e657220697320746865207a65726f206160448201526564647265737360d01b6064820152608490fd5b50346200018257604036600319011262000182578060243567ffffffffffffffff81116200019057620008129036906004016200179a565b6200081c62001849565b6001600160a01b0360665416803b15620008795762000866839291839260405194858094819363797c29f560e11b8352600435600484015260406024840152604483019062001b15565b03925af1801562000185576200016f5750f35b5050fd5b503462000182578060031936011262000182576020606a54604051908152f35b5034620001825780600319360112620001825760206001600160a01b0360695416604051908152f35b5080620008d33662001737565b91906001600160a01b0380606954168062000a04575b50602081602481606554169560405198899384926340d097c360e01b845216978860048401525af194851562000673578695620009cb575b5060695416908162000939575b602085604051908152f35b90859291606a5490606b5491833b156200072c576200098e86926040519889978896879563aeaa083360e01b87526004870152602486015260448501528a606485015260a0608485015260a484019162001c39565b03925af18015620009c057620009a8575b8080806200092e565b620009b4839162001673565b6200073c57816200099f565b6040513d85823e3d90fd5b9094506020813d8211620009fb575b81620009e960209383620016bb565b810103126200072c5751933862000921565b3d9150620009da565b606a5490606b5491813b1562000a86578791604051938492633240257f60e01b845260048401526024830152848716604483015260806064830152818062000a51608482018b8a62001c39565b039134905af19081156200067357869162000a6e575b50620008e9565b62000a799062001673565b6200073057843862000a67565b8780fd5b5034620001825780600319360112620001825760206001600160a01b0360655416604051908152f35b5034620001825780600319360112620001825760206001600160a01b0360675416604051908152f35b50346200018257602036600319011262000182578060043567ffffffffffffffff8111620001905762000b14903690600401620017bb565b62000b1e62001849565b6001600160a01b0360665416803b1562000879576040516356bcfb1160e11b81526020600482015291839183918290849082906200086690602483019062001b3c565b5034620001825780600319360112620001825760206001600160a01b0360685416604051908152f35b5034620001825780600319360112620001825760206001600160a01b0360665416604051908152f35b5034620001825780600319360112620001825760206001600160a01b0360335416604051908152f35b5034620001825762000bee3662001737565b9062000bfc93929362001849565b6001600160a01b03602081606754169560246040518094819363465b833760e01b835216988960048301525afa90811562000d6057849162000d2b575b501562000ce657836001600160a01b03196069541617606955606a54606b5491853b1562000730579062000c97859392604051958694859463be2213c560e01b86526004860152602485015260606044850152606484019162001c39565b038183875af18015620001855762000cd4575b5090307fa52f4637414589acc6a810e5e8584bd2bd567765c5b0ecb10e7ccda045706f4e8380a380f35b62000cdf9062001673565b3862000caa565b60405162461bcd60e51b815260206004820152601660248201527f4d4f44554c45204e4f542057484954454c4953544544000000000000000000006044820152606490fd5b62000d51915060203d811162000d58575b62000d488183620016bb565b81019062001c1f565b3862000c39565b503d62000d3c565b6040513d86823e3d90fd5b5034620001825780600319360112620001825762000d8862001849565b806001600160a01b0360335481198116603355167f8be0079c531659141344cd1fd0a4f28419497f9722a3daafe3b4186f6b6457e08280a380f35b5034620001825780600319360112620001825762000de062001849565b6001600160a01b031960695416606955307fa38823fb0659f71d7994eaed517511134e91441ab711c59ec1b863f63d3b054e8280a280f35b503462000182578060031936011262000182576020606b54604051908152f35b503462000182578060031936011262000182576001600160a01b037f000000000000000000000000000000000000000000000000000000000000000016300362000ea65760206040517f360894a13ba1a3210667c828492db98dca3e2076cc3735a920a3ca505d382bbc8152f35b60405162461bcd60e51b815260206004820152603860248201527f555550535570677261646561626c653a206d757374206e6f742062652063616c60448201527f6c6564207468726f7567682064656c656761746563616c6c00000000000000006064820152608490fd5b506040366003190112620001825762000f296200165c565b90602491823567ffffffffffffffff8111620007385736602382011215620007385762000f609036908581600401359101620016fb565b926001600160a01b0393847f00000000000000000000000000000000000000000000000000000000000000001662000f9b81301415620018ea565b62000fcc7f360894a13ba1a3210667c828492db98dca3e2076cc3735a920a3ca505d382bbc9187835416146200194c565b85606854169060405180976311b1927560e21b8252861692836004830152818660209a8b935afa908115620012c3578791620012a1575b50156200125d576200101462001849565b7f4910fdfa16fed3260ed0e7147f7cc6da11a60208b5b9406d12a635614ffd91435460ff161562001050575050505062000783919250620019ae565b6040516352d1902d60e01b8152939594938781600481865afa86918162001224575b50620010d35760405162461bcd60e51b815260048101899052602e818901527f45524331393637557067726164653a206e657720696d706c656d656e7461746960448201526d6f6e206973206e6f74205555505360901b6064820152608490fd5b9693959192949603620011cf5750620010ec84620019ae565b7fbc7cd75a20ee27fd9adebab32041f755214dbc6bffa90cc0225b39da2e5c2d3b8580a2815115801590620011c6575b62001128575b50505080f35b620011b2928480604051946200113e866200169e565b602786527f416464726573733a206c6f772d6c6576656c2064656c65676174652063616c6c85870152660819985a5b195960ca1b60408701528481519101845af4903d15620011bc573d6200119381620016de565b90620011a36040519283620016bb565b81528681943d92013e62001a4d565b5038808062001122565b6060925062001a4d565b5060016200111c565b8260296084926040519262461bcd60e51b845260048401528201527f45524331393637557067726164653a20756e737570706f727465642070726f786044820152681a58589b195555525160ba1b6064820152fd5b9091508881813d831162001255575b6200123f8183620016bb565b81010312620012515751903862001072565b8680fd5b503d62001233565b60405162461bcd60e51b815260048101889052601c818601527f494d504c454d454e45544154494f4e204e4f5420415050524f564544000000006044820152606490fd5b620012bc9150883d8a1162000d585762000d488183620016bb565b3862001003565b6040513d89823e3d90fd5b503462000182576020806003193601126200073c57620012ed6200165c565b6001600160a01b03807f000000000000000000000000000000000000000000000000000000000000000016906200132782301415620018ea565b620013587f360894a13ba1a3210667c828492db98dca3e2076cc3735a920a3ca505d382bbc9282845416146200194c565b602484826068541692604051928380926311b1927560e21b82528816958660048301525afa908115620006735786916200163a575b5015620015f5576200139e62001849565b604051908482019282841067ffffffffffffffff851117620015e1578360405286835260ff7f4910fdfa16fed3260ed0e7147f7cc6da11a60208b5b9406d12a635614ffd91435416600014620013fe5750505050620007839150620019ae565b6040516352d1902d60e01b8152939492938681600481865afa889181620015a8575b50620014825760405162461bcd60e51b815260048101889052602e60248201527f45524331393637557067726164653a206e657720696d706c656d656e7461746960448201526d6f6e206973206e6f74205555505360901b6064820152608490fd5b959394950362001551576200149782620019ae565b7fbc7cd75a20ee27fd9adebab32041f755214dbc6bffa90cc0225b39da2e5c2d3b8680a28483511580159062001549575b620014d6575b505050505080f35b806200153d9560405195620014eb876200169e565b602787527f416464726573733a206c6f772d6c6576656c2064656c65676174652063616c6c86880152660819985a5b195960ca1b60408801525190845af4903d15620011bc573d6200119381620016de565b503880808084620014ce565b5080620014c8565b60405162461bcd60e51b815260048101849052602960248201527f45524331393637557067726164653a20756e737570706f727465642070726f786044820152681a58589b195555525160ba1b6064820152608490fd5b9091508781813d8311620015d9575b620015c38183620016bb565b81010312620015d55751903862001420565b8880fd5b503d620015b7565b634e487b7160e01b87526041600452602487fd5b60405162461bcd60e51b815260048101859052601c60248201527f494d504c454d454e45544154494f4e204e4f5420415050524f564544000000006044820152606490fd5b620016559150853d871162000d585762000d488183620016bb565b386200138d565b600435906001600160a01b03821682036200072757565b67ffffffffffffffff81116200168857604052565b634e487b7160e01b600052604160045260246000fd5b6060810190811067ffffffffffffffff8211176200168857604052565b90601f8019910116810190811067ffffffffffffffff8211176200168857604052565b67ffffffffffffffff81116200168857601f01601f191660200190565b9291926200170982620016de565b91620017196040519384620016bb565b82948184528183011162000727578281602093846000960137010152565b604060031982011262000727576004356001600160a01b038116810362000727579160243567ffffffffffffffff928382116200072757806023830112156200072757816004013593841162000727576024848301011162000727576024019190565b9080601f830112156200072757816020620017b893359101620016fb565b90565b9080601f83011215620007275781359067ffffffffffffffff9283831162001688578260051b60405194602094620017f686840188620016bb565b86528480870192840101938085116200072757858401925b85841062001820575050505050505090565b8335838111620007275787916200183d848480948a01016200179a565b8152019301926200180e565b6001600160a01b036033541633036200185e57565b606460405162461bcd60e51b815260206004820152602060248201527f4f776e61626c653a2063616c6c6572206973206e6f7420746865206f776e65726044820152fd5b603354906001600160a01b0380911691826001600160a01b0319821617603355167f8be0079c531659141344cd1fd0a4f28419497f9722a3daafe3b4186f6b6457e0600080a3565b15620018f257565b60405162461bcd60e51b815260206004820152602c60248201527f46756e6374696f6e206d7573742062652063616c6c6564207468726f7567682060448201526b19195b1959d85d1958d85b1b60a21b6064820152608490fd5b156200195457565b60405162461bcd60e51b815260206004820152602c60248201527f46756e6374696f6e206d7573742062652063616c6c6564207468726f7567682060448201526b6163746976652070726f787960a01b6064820152608490fd5b803b15620019f2576001600160a01b037f360894a13ba1a3210667c828492db98dca3e2076cc3735a920a3ca505d382bbc91166001600160a01b0319825416179055565b60405162461bcd60e51b815260206004820152602d60248201527f455243313936373a206e657720696d706c656d656e746174696f6e206973206e60448201526c1bdd08184818dbdb9d1c9858dd609a1b6064820152608490fd5b9192901562001ab2575081511562001a63575090565b3b1562001a6d5790565b60405162461bcd60e51b815260206004820152601d60248201527f416464726573733a2063616c6c20746f206e6f6e2d636f6e74726163740000006044820152606490fd5b82519091501562001ac65750805190602001fd5b60405162461bcd60e51b81526020600482015290819062001aec90602483019062001b15565b0390fd5b60005b83811062001b045750506000910152565b818101518382015260200162001af3565b9060209162001b308151809281855285808601910162001af0565b601f01601f1916010190565b908082519081815260208091019281808460051b8301019501936000915b84831062001b6b5750505050505090565b909192939495848062001b8b600193601f198682030187528a5162001b15565b980193019301919493929062001b5a565b6040906001600160a01b03620017b89493168152816020820152019062001b15565b1562001bc657565b60405162461bcd60e51b815260206004820152602b60248201527f496e697469616c697a61626c653a20636f6e7472616374206973206e6f74206960448201526a6e697469616c697a696e6760a81b6064820152608490fd5b908160209103126200072757518015158103620007275790565b908060209392818452848401376000828201840152601f01601f191601019056fe604060808152610412908138038061001681610218565b93843982019181818403126102135780516001600160a01b038116808203610213576020838101516001600160401b0394919391858211610213570186601f820112156102135780519061007161006c83610253565b610218565b918083528583019886828401011161021357888661008f930161026e565b813b156101b9577f360894a13ba1a3210667c828492db98dca3e2076cc3735a920a3ca505d382bbc80546001600160a01b031916841790556000927fbc7cd75a20ee27fd9adebab32041f755214dbc6bffa90cc0225b39da2e5c2d3b8480a28051158015906101b2575b61010b575b855160cd90816103458239f35b855194606086019081118682101761019e578697849283926101889952602788527f416464726573733a206c6f772d6c6576656c2064656c65676174652063616c6c87890152660819985a5b195960ca1b8a8901525190845af4913d15610194573d9061017a61006c83610253565b91825281943d92013e610291565b508038808080806100fe565b5060609250610291565b634e487b7160e01b84526041600452602484fd5b50826100f9565b855162461bcd60e51b815260048101859052602d60248201527f455243313936373a206e657720696d706c656d656e746174696f6e206973206e60448201526c1bdd08184818dbdb9d1c9858dd609a1b6064820152608490fd5b600080fd5b6040519190601f01601f191682016001600160401b0381118382101761023d57604052565b634e487b7160e01b600052604160045260246000fd5b6001600160401b03811161023d57601f01601f191660200190565b60005b8381106102815750506000910152565b8181015183820152602001610271565b919290156102f357508151156102a5575090565b3b156102ae5790565b60405162461bcd60e51b815260206004820152601d60248201527f416464726573733a2063616c6c20746f206e6f6e2d636f6e74726163740000006044820152606490fd5b8251909150156103065750805190602001fd5b6044604051809262461bcd60e51b825260206004830152610336815180928160248601526020868601910161026e565b601f01601f19168101030190fdfe608060405236156052576001600160a01b037f360894a13ba1a3210667c828492db98dca3e2076cc3735a920a3ca505d382bbc54166000808092368280378136915af43d82803e15604e573d90f35b3d90fd5b6001600160a01b037f360894a13ba1a3210667c828492db98dca3e2076cc3735a920a3ca505d382bbc54166000808092368280378136915af43d82803e15604e573d90f3fea264697066735822122023e858470f0b6f83dd30eeb7dd4e57654c456b221ab38afe0cf035a4a247bab264736f6c63430008130033604060808152610412908138038061001681610218565b93843982019181818403126102135780516001600160a01b038116808203610213576020838101516001600160401b0394919391858211610213570186601f820112156102135780519061007161006c83610253565b610218565b918083528583019886828401011161021357888661008f930161026e565b813b156101b9577f360894a13ba1a3210667c828492db98dca3e2076cc3735a920a3ca505d382bbc80546001600160a01b031916841790556000927fbc7cd75a20ee27fd9adebab32041f755214dbc6bffa90cc0225b39da2e5c2d3b8480a28051158015906101b2575b61010b575b855160cd90816103458239f35b855194606086019081118682101761019e578697849283926101889952602788527f416464726573733a206c6f772d6c6576656c2064656c65676174652063616c6c87890152660819985a5b195960ca1b8a8901525190845af4913d15610194573d9061017a61006c83610253565b91825281943d92013e610291565b508038808080806100fe565b5060609250610291565b634e487b7160e01b84526041600452602484fd5b50826100f9565b855162461bcd60e51b815260048101859052602d60248201527f455243313936373a206e657720696d706c656d656e746174696f6e206973206e60448201526c1bdd08184818dbdb9d1c9858dd609a1b6064820152608490fd5b600080fd5b6040519190601f01601f191682016001600160401b0381118382101761023d57604052565b634e487b7160e01b600052604160045260246000fd5b6001600160401b03811161023d57601f01601f191660200190565b60005b8381106102815750506000910152565b8181015183820152602001610271565b919290156102f357508151156102a5575090565b3b156102ae5790565b60405162461bcd60e51b815260206004820152601d60248201527f416464726573733a2063616c6c20746f206e6f6e2d636f6e74726163740000006044820152606490fd5b8251909150156103065750805190602001fd5b6044604051809262461bcd60e51b825260206004830152610336815180928160248601526020868601910161026e565b601f01601f19168101030190fdfe608060405236156052576001600160a01b037f360894a13ba1a3210667c828492db98dca3e2076cc3735a920a3ca505d382bbc54166000808092368280378136915af43d82803e15604e573d90f35b3d90fd5b6001600160a01b037f360894a13ba1a3210667c828492db98dca3e2076cc3735a920a3ca505d382bbc54166000808092368280378136915af43d82803e15604e573d90f3fea2646970667358221220fef88af3064a69e4284b92be38885ed9f793c99f1484738718832dc09a7ece8264736f6c63430008130033a26469706673582212204409645878ba53c1f7060ee5f40e28a7d3af053a382841a23ed9871b7498e61e64736f6c63430008130033",
  "devdoc": {
    "author": "Dhruv <contact.dhruvagarwal@gmail.com>",
    "events": {
      "AdminChanged(address,address)": {
        "details": "Emitted when the admin account has changed."
      },
      "BeaconUpgraded(address)": {
        "details": "Emitted when the beacon is changed."
      },
      "Initialized(uint8)": {
        "details": "Triggered when the contract has been initialized or reinitialized."
      },
      "Upgraded(address)": {
        "details": "Emitted when the implementation is upgraded."
      }
    },
    "kind": "dev",
    "methods": {
      "constructor": {
        "details": "Lock implementation contract"
      },
      "deleteCourseNFT(uint256)": {
        "details": "mint new Course NFTs , after it is intialised once",
        "params": {
          "tokenId": "tokenId of the NFT for which resource is to be deleted"
        }
      },
      "disableModule()": {
        "details": "disable the mint module by reassigning it to address(0)"
      },
      "editCourseNFT(uint256,string)": {
        "details": "mint new Course NFTs , after it is intialised once",
        "params": {
          "newNFTURI": "new & updated NFT URI containing info about the particular resource",
          "tokenId": "tokenId of the NFT for which resource is to be updated"
        }
      },
      "initialize(uint256,uint256,string,string,address,string,string[],string,address,address,address,address)": {
        "details": "Intialise the course by creating Resource and Certificates Contract",
        "params": {
          "_courseId": "Id of the Course being created on Owlearn",
          "_creatorId": "Id fo the Course Creator on Owlearn",
          "certificateBaseURI": "NFT URI , dynamic , off-chain server link , fetching progree & certificates for a Course Learner",
          "courseCreator": "creator of the Course , who will also control the Collection",
          "courseNFTURIs": "courseNFTURIs to be minted , containing info about the particular resource",
          "courseName": "Name of the Course , will also be the name of NFT Collection",
          "courseSymbol": "Symbol of the Course , will be the symbol of NFT Collection",
          "courseURI": "courseURI , containing any extra course Info , not to be stored on-chain",
          "implmRegisteryAddress": "implm Registery for the Owlearn Protocol , only set by courseFactory",
          "moduleRegisteryAddress": "Module Registery for the Owlearn Protocol , only set by courseFactory"
        }
      },
      "mintCourseCertificate(address,bytes)": {
        "details": "Mint a Course Certificate NFT TASK  : Add customization tasks"
      },
      "mintCourseNFTs(string[])": {
        "details": "mint new Course NFTs , after it is intialised once",
        "params": {
          "courseNFTURIs": "courseNFTURIs to be minted , containing info about the particular resource"
        }
      },
      "owner()": {
        "details": "Returns the address of the current owner."
      },
      "proxiableUUID()": {
        "details": "Implementation of the ERC1822 {proxiableUUID} function. This returns the storage slot used by the implementation. It is used to validate the implementation's compatibility when performing an upgrade. IMPORTANT: A proxy pointing at a proxiable contract should not be considered proxiable itself, because this risks bricking a proxy that upgrades to it, by delegating to itself until out of gas. Thus it is critical that this function revert if invoked through a proxy. This is guaranteed by the `notDelegated` modifier."
      },
      "renounceOwnership()": {
        "details": "Leaves the contract without owner. It will not be possible to call `onlyOwner` functions. Can only be called by the current owner. NOTE: Renouncing ownership will leave the contract without an owner, thereby disabling any functionality that is only available to the owner."
      },
      "setAndInitialiseMintModule(address,bytes)": {
        "details": "Set a new mint Module & Initilaise it from the mint module contract",
        "params": {
          "_mintModule": "mint Module address to be set",
          "data": "User data containing extra info to the mintModule Initialise functions"
        }
      },
      "transferOwnership(address)": {
        "details": "Transfers ownership of the contract to a new account (`newOwner`). Can only be called by the current owner."
      },
      "upgradeTo(address)": {
        "custom:oz-upgrades-unsafe-allow-reachable": "delegatecall",
        "details": "Upgrade the implementation of the proxy to `newImplementation`. Calls {_authorizeUpgrade}. Emits an {Upgraded} event."
      },
      "upgradeToAndCall(address,bytes)": {
        "custom:oz-upgrades-unsafe-allow-reachable": "delegatecall",
        "details": "Upgrade the implementation of the proxy to `newImplementation`, and subsequently execute the function call encoded in `data`. Calls {_authorizeUpgrade}. Emits an {Upgraded} event."
      }
    },
    "title": "OwlearnCourse",
    "version": 1
  },
  "userdoc": {
    "kind": "user",
    "methods": {},
    "notice": "Course Master Contract , Single Point of Entry to create , and manage Course with Resource & Certificates Contract",
    "version": 1
  },
  "storageLayout": {
    "storage": [
      {
        "astId": 11058,
        "contract": "src/OwlearnCourse/OwlearnCourse.sol:OwlearnCourse",
        "label": "_initialized",
        "offset": 0,
        "slot": "0",
        "type": "t_uint8"
      },
      {
        "astId": 11061,
        "contract": "src/OwlearnCourse/OwlearnCourse.sol:OwlearnCourse",
        "label": "_initializing",
        "offset": 1,
        "slot": "0",
        "type": "t_bool"
      },
      {
        "astId": 14866,
        "contract": "src/OwlearnCourse/OwlearnCourse.sol:OwlearnCourse",
        "label": "__gap",
        "offset": 0,
        "slot": "1",
        "type": "t_array(t_uint256)50_storage"
      },
      {
        "astId": 10537,
        "contract": "src/OwlearnCourse/OwlearnCourse.sol:OwlearnCourse",
        "label": "_owner",
        "offset": 0,
        "slot": "51",
        "type": "t_address"
      },
      {
        "astId": 10657,
        "contract": "src/OwlearnCourse/OwlearnCourse.sol:OwlearnCourse",
        "label": "__gap",
        "offset": 0,
        "slot": "52",
        "type": "t_array(t_uint256)49_storage"
      },
      {
        "astId": 19140,
        "contract": "src/OwlearnCourse/OwlearnCourse.sol:OwlearnCourse",
        "label": "courseCertificates",
        "offset": 0,
        "slot": "101",
        "type": "t_contract(OwlearnCourseCertificates)18724"
      },
      {
        "astId": 19143,
        "contract": "src/OwlearnCourse/OwlearnCourse.sol:OwlearnCourse",
        "label": "courseResources",
        "offset": 0,
        "slot": "102",
        "type": "t_contract(OwlearnCourseResources)19606"
      },
      {
        "astId": 19146,
        "contract": "src/OwlearnCourse/OwlearnCourse.sol:OwlearnCourse",
        "label": "moduleRegistery",
        "offset": 0,
        "slot": "103",
        "type": "t_contract(OwlearnModuleRegistery)20799"
      },
      {
        "astId": 19149,
        "contract": "src/OwlearnCourse/OwlearnCourse.sol:OwlearnCourse",
        "label": "implRegistery",
        "offset": 0,
        "slot": "104",
        "type": "t_contract(ImplementationRegistery)18412"
      },
      {
        "astId": 19151,
        "contract": "src/OwlearnCourse/OwlearnCourse.sol:OwlearnCourse",
        "label": "mintModule",
        "offset": 0,
        "slot": "105",
        "type": "t_address"
      },
      {
        "astId": 19153,
        "contract": "src/OwlearnCourse/OwlearnCourse.sol:OwlearnCourse",
        "label": "creatorId",
        "offset": 0,
        "slot": "106",
        "type": "t_uint256"
      },
      {
        "astId": 19155,
        "contract": "src/OwlearnCourse/OwlearnCourse.sol:OwlearnCourse",
        "label": "courseId",
        "offset": 0,
        "slot": "107",
        "type": "t_uint256"
      },
      {
        "astId": 19159,
        "contract": "src/OwlearnCourse/OwlearnCourse.sol:OwlearnCourse",
        "label": "__gap",
        "offset": 0,
        "slot": "108",
        "type": "t_array(t_uint256)50_storage"
      },
      {
        "astId": 11040,
        "contract": "src/OwlearnCourse/OwlearnCourse.sol:OwlearnCourse",
        "label": "__gap",
        "offset": 0,
        "slot": "158",
        "type": "t_array(t_uint256)50_storage"
      },
      {
        "astId": 11355,
        "contract": "src/OwlearnCourse/OwlearnCourse.sol:OwlearnCourse",
        "label": "__gap",
        "offset": 0,
        "slot": "208",
        "type": "t_array(t_uint256)50_storage"
      }
    ],
    "types": {
      "t_address": {
        "encoding": "inplace",
        "label": "address",
        "numberOfBytes": "20"
      },
      "t_array(t_uint256)49_storage": {
        "base": "t_uint256",
        "encoding": "inplace",
        "label": "uint256[49]",
        "numberOfBytes": "1568"
      },
      "t_array(t_uint256)50_storage": {
        "base": "t_uint256",
        "encoding": "inplace",
        "label": "uint256[50]",
        "numberOfBytes": "1600"
      },
      "t_bool": {
        "encoding": "inplace",
        "label": "bool",
        "numberOfBytes": "1"
      },
      "t_contract(ImplementationRegistery)18412": {
        "encoding": "inplace",
        "label": "contract ImplementationRegistery",
        "numberOfBytes": "20"
      },
      "t_contract(OwlearnCourseCertificates)18724": {
        "encoding": "inplace",
        "label": "contract OwlearnCourseCertificates",
        "numberOfBytes": "20"
      },
      "t_contract(OwlearnCourseResources)19606": {
        "encoding": "inplace",
        "label": "contract OwlearnCourseResources",
        "numberOfBytes": "20"
      },
      "t_contract(OwlearnModuleRegistery)20799": {
        "encoding": "inplace",
        "label": "contract OwlearnModuleRegistery",
        "numberOfBytes": "20"
      },
      "t_uint256": {
        "encoding": "inplace",
        "label": "uint256",
        "numberOfBytes": "32"
      },
      "t_uint8": {
        "encoding": "inplace",
        "label": "uint8",
        "numberOfBytes": "1"
      }
    }
  }
}