{
  "address": "0xE60e9C0454e48695dB2c6CA1b27cc684919EAcDf",
  "abi": [
    {
      "inputs": [],
      "stateMutability": "nonpayable",
      "type": "constructor"
    },
    {
      "inputs": [],
      "name": "AlreadyRegistered",
      "type": "error"
    },
    {
      "inputs": [
        {
          "internalType": "string",
          "name": "name",
          "type": "string"
        }
      ],
      "name": "InvalidName",
      "type": "error"
    },
    {
      "inputs": [],
      "name": "Unauthorized",
      "type": "error"
    },
    {
      "inputs": [],
      "name": "notAllowlisted",
      "type": "error"
    },
    {
      "inputs": [],
      "name": "usernameBlackListed",
      "type": "error"
    },
    {
      "anonymous": false,
      "inputs": [
        {
          "indexed": false,
          "internalType": "address",
          "name": "previousAdmin",
          "type": "address"
        },
        {
          "indexed": false,
          "internalType": "address",
          "name": "newAdmin",
          "type": "address"
        }
      ],
      "name": "AdminChanged",
      "type": "event"
    },
    {
      "anonymous": false,
      "inputs": [
        {
          "indexed": true,
          "internalType": "address",
          "name": "owner",
          "type": "address"
        },
        {
          "indexed": true,
          "internalType": "address",
          "name": "approved",
          "type": "address"
        },
        {
          "indexed": true,
          "internalType": "uint256",
          "name": "tokenId",
          "type": "uint256"
        }
      ],
      "name": "Approval",
      "type": "event"
    },
    {
      "anonymous": false,
      "inputs": [
        {
          "indexed": true,
          "internalType": "address",
          "name": "owner",
          "type": "address"
        },
        {
          "indexed": true,
          "internalType": "address",
          "name": "operator",
          "type": "address"
        },
        {
          "indexed": false,
          "internalType": "bool",
          "name": "approved",
          "type": "bool"
        }
      ],
      "name": "ApprovalForAll",
      "type": "event"
    },
    {
      "anonymous": false,
      "inputs": [
        {
          "indexed": false,
          "internalType": "uint256",
          "name": "_fromTokenId",
          "type": "uint256"
        },
        {
          "indexed": false,
          "internalType": "uint256",
          "name": "_toTokenId",
          "type": "uint256"
        }
      ],
      "name": "BatchMetadataUpdate",
      "type": "event"
    },
    {
      "anonymous": false,
      "inputs": [
        {
          "indexed": true,
          "internalType": "address",
          "name": "beacon",
          "type": "address"
        }
      ],
      "name": "BeaconUpgraded",
      "type": "event"
    },
    {
      "anonymous": false,
      "inputs": [
        {
          "indexed": false,
          "internalType": "uint8",
          "name": "version",
          "type": "uint8"
        }
      ],
      "name": "Initialized",
      "type": "event"
    },
    {
      "anonymous": false,
      "inputs": [
        {
          "indexed": false,
          "internalType": "uint256",
          "name": "_tokenId",
          "type": "uint256"
        }
      ],
      "name": "MetadataUpdate",
      "type": "event"
    },
    {
      "anonymous": false,
      "inputs": [
        {
          "indexed": false,
          "internalType": "address",
          "name": "user",
          "type": "address"
        },
        {
          "indexed": false,
          "internalType": "string",
          "name": "name",
          "type": "string"
        },
        {
          "indexed": false,
          "internalType": "uint256",
          "name": "tokenId",
          "type": "uint256"
        }
      ],
      "name": "OwlIdRegistered",
      "type": "event"
    },
    {
      "anonymous": false,
      "inputs": [
        {
          "indexed": true,
          "internalType": "address",
          "name": "previousOwner",
          "type": "address"
        },
        {
          "indexed": true,
          "internalType": "address",
          "name": "newOwner",
          "type": "address"
        }
      ],
      "name": "OwnershipTransferred",
      "type": "event"
    },
    {
      "anonymous": false,
      "inputs": [
        {
          "indexed": true,
          "internalType": "address",
          "name": "from",
          "type": "address"
        },
        {
          "indexed": true,
          "internalType": "address",
          "name": "to",
          "type": "address"
        },
        {
          "indexed": true,
          "internalType": "uint256",
          "name": "tokenId",
          "type": "uint256"
        }
      ],
      "name": "Transfer",
      "type": "event"
    },
    {
      "anonymous": false,
      "inputs": [
        {
          "indexed": true,
          "internalType": "address",
          "name": "implementation",
          "type": "address"
        }
      ],
      "name": "Upgraded",
      "type": "event"
    },
    {
      "inputs": [],
      "name": "FOUR_LETTER_MULTIPLIER",
      "outputs": [
        {
          "internalType": "uint256",
          "name": "",
          "type": "uint256"
        }
      ],
      "stateMutability": "view",
      "type": "function"
    },
    {
      "inputs": [],
      "name": "ONE_LETTER_MULTIPLIER",
      "outputs": [
        {
          "internalType": "uint256",
          "name": "",
          "type": "uint256"
        }
      ],
      "stateMutability": "view",
      "type": "function"
    },
    {
      "inputs": [],
      "name": "PRICE_MULTIPLIER",
      "outputs": [
        {
          "internalType": "uint256",
          "name": "",
          "type": "uint256"
        }
      ],
      "stateMutability": "view",
      "type": "function"
    },
    {
      "inputs": [],
      "name": "THREE_LETTER_MULTIPLIER",
      "outputs": [
        {
          "internalType": "uint256",
          "name": "",
          "type": "uint256"
        }
      ],
      "stateMutability": "view",
      "type": "function"
    },
    {
      "inputs": [],
      "name": "TWO_LETTER_MULTIPLIER",
      "outputs": [
        {
          "internalType": "uint256",
          "name": "",
          "type": "uint256"
        }
      ],
      "stateMutability": "view",
      "type": "function"
    },
    {
      "inputs": [],
      "name": "allowlistMerkleRoot",
      "outputs": [
        {
          "internalType": "bytes32",
          "name": "",
          "type": "bytes32"
        }
      ],
      "stateMutability": "view",
      "type": "function"
    },
    {
      "inputs": [
        {
          "internalType": "address",
          "name": "to",
          "type": "address"
        },
        {
          "internalType": "uint256",
          "name": "tokenId",
          "type": "uint256"
        }
      ],
      "name": "approve",
      "outputs": [],
      "stateMutability": "nonpayable",
      "type": "function"
    },
    {
      "inputs": [
        {
          "internalType": "address",
          "name": "owner",
          "type": "address"
        }
      ],
      "name": "balanceOf",
      "outputs": [
        {
          "internalType": "uint256",
          "name": "",
          "type": "uint256"
        }
      ],
      "stateMutability": "view",
      "type": "function"
    },
    {
      "inputs": [],
      "name": "blackListNameMerkleRoot",
      "outputs": [
        {
          "internalType": "bytes32",
          "name": "",
          "type": "bytes32"
        }
      ],
      "stateMutability": "view",
      "type": "function"
    },
    {
      "inputs": [
        {
          "internalType": "bytes32[]",
          "name": "proof",
          "type": "bytes32[]"
        },
        {
          "internalType": "address",
          "name": "user",
          "type": "address"
        }
      ],
      "name": "checkAllowlist",
      "outputs": [
        {
          "internalType": "bool",
          "name": "isAllowed",
          "type": "bool"
        }
      ],
      "stateMutability": "view",
      "type": "function"
    },
    {
      "inputs": [
        {
          "internalType": "bytes32[]",
          "name": "proof",
          "type": "bytes32[]"
        },
        {
          "internalType": "string",
          "name": "_username",
          "type": "string"
        }
      ],
      "name": "checkBlackListName",
      "outputs": [
        {
          "internalType": "bool",
          "name": "isAllowed",
          "type": "bool"
        }
      ],
      "stateMutability": "view",
      "type": "function"
    },
    {
      "inputs": [
        {
          "internalType": "string",
          "name": "_username",
          "type": "string"
        }
      ],
      "name": "checkHandle",
      "outputs": [
        {
          "internalType": "bool",
          "name": "isEligible",
          "type": "bool"
        }
      ],
      "stateMutability": "view",
      "type": "function"
    },
    {
      "inputs": [
        {
          "internalType": "address",
          "name": "user",
          "type": "address"
        }
      ],
      "name": "checkLensHandle",
      "outputs": [
        {
          "internalType": "bool",
          "name": "ownsLensHandle",
          "type": "bool"
        }
      ],
      "stateMutability": "view",
      "type": "function"
    },
    {
      "inputs": [
        {
          "internalType": "string",
          "name": "",
          "type": "string"
        }
      ],
      "name": "domainNames",
      "outputs": [
        {
          "internalType": "string",
          "name": "domain",
          "type": "string"
        },
        {
          "internalType": "address",
          "name": "user",
          "type": "address"
        },
        {
          "internalType": "uint256",
          "name": "tokenId",
          "type": "uint256"
        }
      ],
      "stateMutability": "view",
      "type": "function"
    },
    {
      "inputs": [
        {
          "internalType": "address",
          "name": "",
          "type": "address"
        }
      ],
      "name": "domainRecords",
      "outputs": [
        {
          "internalType": "string",
          "name": "",
          "type": "string"
        }
      ],
      "stateMutability": "view",
      "type": "function"
    },
    {
      "inputs": [
        {
          "internalType": "uint256",
          "name": "tokenId",
          "type": "uint256"
        }
      ],
      "name": "getApproved",
      "outputs": [
        {
          "internalType": "address",
          "name": "",
          "type": "address"
        }
      ],
      "stateMutability": "view",
      "type": "function"
    },
    {
      "inputs": [
        {
          "internalType": "string",
          "name": "_username",
          "type": "string"
        }
      ],
      "name": "getNameRecord",
      "outputs": [
        {
          "components": [
            {
              "internalType": "string",
              "name": "domain",
              "type": "string"
            },
            {
              "internalType": "address",
              "name": "user",
              "type": "address"
            },
            {
              "internalType": "uint256",
              "name": "tokenId",
              "type": "uint256"
            }
          ],
          "internalType": "struct OwlearnIdStorage.Record",
          "name": "",
          "type": "tuple"
        }
      ],
      "stateMutability": "view",
      "type": "function"
    },
    {
      "inputs": [
        {
          "internalType": "address",
          "name": "user",
          "type": "address"
        }
      ],
      "name": "getNameRecordFromAddress",
      "outputs": [
        {
          "internalType": "string",
          "name": "",
          "type": "string"
        }
      ],
      "stateMutability": "view",
      "type": "function"
    },
    {
      "inputs": [
        {
          "internalType": "string",
          "name": "_username",
          "type": "string"
        },
        {
          "internalType": "address",
          "name": "user",
          "type": "address"
        }
      ],
      "name": "getPrice",
      "outputs": [
        {
          "internalType": "uint256",
          "name": "",
          "type": "uint256"
        }
      ],
      "stateMutability": "view",
      "type": "function"
    },
    {
      "inputs": [
        {
          "internalType": "string",
          "name": "_tld",
          "type": "string"
        },
        {
          "internalType": "address",
          "name": "_lensHub",
          "type": "address"
        },
        {
          "internalType": "bytes32",
          "name": "_allowListmerkleRoot",
          "type": "bytes32"
        },
        {
          "internalType": "bytes32",
          "name": "_blackListNameMerkleRoot",
          "type": "bytes32"
        }
      ],
      "name": "initialize",
      "outputs": [],
      "stateMutability": "payable",
      "type": "function"
    },
    {
      "inputs": [],
      "name": "isAllowListEnabled",
      "outputs": [
        {
          "internalType": "bool",
          "name": "",
          "type": "bool"
        }
      ],
      "stateMutability": "view",
      "type": "function"
    },
    {
      "inputs": [
        {
          "internalType": "address",
          "name": "owner",
          "type": "address"
        },
        {
          "internalType": "address",
          "name": "operator",
          "type": "address"
        }
      ],
      "name": "isApprovedForAll",
      "outputs": [
        {
          "internalType": "bool",
          "name": "",
          "type": "bool"
        }
      ],
      "stateMutability": "view",
      "type": "function"
    },
    {
      "inputs": [],
      "name": "isBlackListEnabled",
      "outputs": [
        {
          "internalType": "bool",
          "name": "",
          "type": "bool"
        }
      ],
      "stateMutability": "view",
      "type": "function"
    },
    {
      "inputs": [],
      "name": "isFeeEnabled",
      "outputs": [
        {
          "internalType": "bool",
          "name": "",
          "type": "bool"
        }
      ],
      "stateMutability": "view",
      "type": "function"
    },
    {
      "inputs": [],
      "name": "lensHub",
      "outputs": [
        {
          "internalType": "contract ILensHub",
          "name": "",
          "type": "address"
        }
      ],
      "stateMutability": "view",
      "type": "function"
    },
    {
      "inputs": [],
      "name": "name",
      "outputs": [
        {
          "internalType": "string",
          "name": "",
          "type": "string"
        }
      ],
      "stateMutability": "view",
      "type": "function"
    },
    {
      "inputs": [],
      "name": "owner",
      "outputs": [
        {
          "internalType": "address",
          "name": "",
          "type": "address"
        }
      ],
      "stateMutability": "view",
      "type": "function"
    },
    {
      "inputs": [
        {
          "internalType": "uint256",
          "name": "tokenId",
          "type": "uint256"
        }
      ],
      "name": "ownerOf",
      "outputs": [
        {
          "internalType": "address",
          "name": "",
          "type": "address"
        }
      ],
      "stateMutability": "view",
      "type": "function"
    },
    {
      "inputs": [],
      "name": "proxiableUUID",
      "outputs": [
        {
          "internalType": "bytes32",
          "name": "",
          "type": "bytes32"
        }
      ],
      "stateMutability": "view",
      "type": "function"
    },
    {
      "inputs": [
        {
          "internalType": "string",
          "name": "_username",
          "type": "string"
        },
        {
          "internalType": "bytes32[]",
          "name": "allowListProof",
          "type": "bytes32[]"
        },
        {
          "internalType": "bytes32[]",
          "name": "blackListProof",
          "type": "bytes32[]"
        }
      ],
      "name": "registerOwlId",
      "outputs": [
        {
          "internalType": "uint256",
          "name": "recordID",
          "type": "uint256"
        }
      ],
      "stateMutability": "payable",
      "type": "function"
    },
    {
      "inputs": [
        {
          "internalType": "address",
          "name": "to",
          "type": "address"
        },
        {
          "internalType": "string",
          "name": "_username",
          "type": "string"
        },
        {
          "internalType": "bytes32[]",
          "name": "proof",
          "type": "bytes32[]"
        }
      ],
      "name": "registerRestrictedNames",
      "outputs": [
        {
          "internalType": "uint256",
          "name": "recordID",
          "type": "uint256"
        }
      ],
      "stateMutability": "payable",
      "type": "function"
    },
    {
      "inputs": [],
      "name": "renounceOwnership",
      "outputs": [],
      "stateMutability": "nonpayable",
      "type": "function"
    },
    {
      "inputs": [
        {
          "internalType": "address",
          "name": "from",
          "type": "address"
        },
        {
          "internalType": "address",
          "name": "to",
          "type": "address"
        },
        {
          "internalType": "uint256",
          "name": "tokenId",
          "type": "uint256"
        }
      ],
      "name": "safeTransferFrom",
      "outputs": [],
      "stateMutability": "nonpayable",
      "type": "function"
    },
    {
      "inputs": [
        {
          "internalType": "address",
          "name": "from",
          "type": "address"
        },
        {
          "internalType": "address",
          "name": "to",
          "type": "address"
        },
        {
          "internalType": "uint256",
          "name": "tokenId",
          "type": "uint256"
        },
        {
          "internalType": "bytes",
          "name": "data",
          "type": "bytes"
        }
      ],
      "name": "safeTransferFrom",
      "outputs": [],
      "stateMutability": "nonpayable",
      "type": "function"
    },
    {
      "inputs": [
        {
          "internalType": "address",
          "name": "operator",
          "type": "address"
        },
        {
          "internalType": "bool",
          "name": "approved",
          "type": "bool"
        }
      ],
      "name": "setApprovalForAll",
      "outputs": [],
      "stateMutability": "nonpayable",
      "type": "function"
    },
    {
      "inputs": [
        {
          "internalType": "bytes4",
          "name": "interfaceId",
          "type": "bytes4"
        }
      ],
      "name": "supportsInterface",
      "outputs": [
        {
          "internalType": "bool",
          "name": "",
          "type": "bool"
        }
      ],
      "stateMutability": "view",
      "type": "function"
    },
    {
      "inputs": [
        {
          "internalType": "bool",
          "name": "_isAllowListEnabled",
          "type": "bool"
        }
      ],
      "name": "switchIsAllowlistEnabled",
      "outputs": [],
      "stateMutability": "nonpayable",
      "type": "function"
    },
    {
      "inputs": [
        {
          "internalType": "bool",
          "name": "_isBlackListEnabled",
          "type": "bool"
        }
      ],
      "name": "switchIsBlackListEnabled",
      "outputs": [],
      "stateMutability": "nonpayable",
      "type": "function"
    },
    {
      "inputs": [
        {
          "internalType": "bool",
          "name": "_isFeeEnabled",
          "type": "bool"
        }
      ],
      "name": "switchIsFeeEnabled",
      "outputs": [],
      "stateMutability": "nonpayable",
      "type": "function"
    },
    {
      "inputs": [],
      "name": "symbol",
      "outputs": [
        {
          "internalType": "string",
          "name": "",
          "type": "string"
        }
      ],
      "stateMutability": "view",
      "type": "function"
    },
    {
      "inputs": [],
      "name": "tld",
      "outputs": [
        {
          "internalType": "string",
          "name": "",
          "type": "string"
        }
      ],
      "stateMutability": "view",
      "type": "function"
    },
    {
      "inputs": [
        {
          "internalType": "uint256",
          "name": "tokenId",
          "type": "uint256"
        }
      ],
      "name": "tokenURI",
      "outputs": [
        {
          "internalType": "string",
          "name": "",
          "type": "string"
        }
      ],
      "stateMutability": "view",
      "type": "function"
    },
    {
      "inputs": [
        {
          "internalType": "address",
          "name": "from",
          "type": "address"
        },
        {
          "internalType": "address",
          "name": "to",
          "type": "address"
        },
        {
          "internalType": "uint256",
          "name": "tokenId",
          "type": "uint256"
        }
      ],
      "name": "transferFrom",
      "outputs": [],
      "stateMutability": "nonpayable",
      "type": "function"
    },
    {
      "inputs": [
        {
          "internalType": "address",
          "name": "newOwner",
          "type": "address"
        }
      ],
      "name": "transferOwnership",
      "outputs": [],
      "stateMutability": "nonpayable",
      "type": "function"
    },
    {
      "inputs": [
        {
          "internalType": "bytes32",
          "name": "_allowListmerkleRoot",
          "type": "bytes32"
        }
      ],
      "name": "updateAllowlistMerkleRoot",
      "outputs": [],
      "stateMutability": "nonpayable",
      "type": "function"
    },
    {
      "inputs": [
        {
          "internalType": "bytes32",
          "name": "_blackListNameMerkleRoot",
          "type": "bytes32"
        }
      ],
      "name": "updateBlacklistNameMerkleRoot",
      "outputs": [],
      "stateMutability": "nonpayable",
      "type": "function"
    },
    {
      "inputs": [
        {
          "internalType": "address",
          "name": "newImplementation",
          "type": "address"
        }
      ],
      "name": "upgradeTo",
      "outputs": [],
      "stateMutability": "nonpayable",
      "type": "function"
    },
    {
      "inputs": [
        {
          "internalType": "address",
          "name": "newImplementation",
          "type": "address"
        },
        {
          "internalType": "bytes",
          "name": "data",
          "type": "bytes"
        }
      ],
      "name": "upgradeToAndCall",
      "outputs": [],
      "stateMutability": "payable",
      "type": "function"
    },
    {
      "inputs": [],
      "name": "withdraw",
      "outputs": [],
      "stateMutability": "nonpayable",
      "type": "function"
    }
  ],
  "numDeployments": 8,
  "solcInputHash": "a2496cbb5711e7192c16f35b24945071",
  "bytecode": "0x60a0806040523461003157306080526152cc90816100378239608051818181612a1901528181612b120152612f9c0152f35b600080fdfe60806040818152600436101561001457600080fd5b600091823560e01c90816301ffc9a7146135555750806306fdde03146134ac578063081812fc14613484578063095ea7b3146133095780630e66dc69146132e557806310e84ec6146132ca578063113990b8146132af57806314fe5829146131eb57806323b872dd146131c6578063293108e0146131a85780632d5514321461318b5780633294b35a1461314d5780633659cfe614612f74578063392cb46614612f2e57806339bd5da914612eee5780633ccfd60b14612e6d578063403f966614612dd757806342842e0e14612da457806346f720d214612d7d5780634f1ef28614612ad157806352d1902d146129fc5780635bb90ab1146129e15780636352211e146129b157806369cf4c56146125bf5780636a92fa8e1461298a57806370a08231146128f7578063715018a6146128a35780638b5c2504146128885780638da5cb5b14612861578063919facca1461283e57806394a764711461281f57806395d89b411461273b578063967e971b14612720578063a22cb46514612657578063a8239d0b1461260a578063abcc6e7b146125bf578063ad4fb25c14612588578063b02cfdc314612561578063b88d4fde146124eb578063bde9afa5146124ac578063c87b56dd14612435578063ccad5ab914612410578063e54a33041461206a578063e57fb7c7146107b5578063e694c8be14610791578063e985e9c514610744578063ea3f36ac1461033b578063f1748196146102d15763f2fde38b1461023d57600080fd5b346102cd5760203660031901126102cd57610256613624565b9061025f613991565b6001600160a01b0382161561027b5750610278906139e9565b80f35b5162461bcd60e51b815260206004820152602660248201527f4f776e61626c653a206e6577206f776e657220697320746865207a65726f206160448201526564647265737360d01b6064820152608490fd5b5080fd5b50346102cd57806003193601126102cd5767ffffffffffffffff916004358381116102cd576103049036906004016138ef565b93909160243591821161033857509261032f916103276020953690600401613655565b9290916145d1565b90519015158152f35b80fd5b509060603660031901126103385767ffffffffffffffff916004358381116107405761036b903690600401613655565b60249291923585811161073c576103869036906004016138ef565b9060443587811161073857856103a1859236906004016138ef565b9093610103549560ff8760081c16610708575b505060ff8560101c166106e1575b506103cd9250614609565b156106d05760ff166106b5575b6103e48184614cbd565b9261019a61045961041d825496610416886103fd614724565b610408368a8a61393c565b61041061377e565b916148c5565b8585614e6f565b61042d610428614783565b614897565b61043e816104396147e2565b6141d3565b61044961042861480c565b6104538733614934565b86614a94565b8351610464816136f2565b61046f36858561393c565b81526020978882019033825286830198888a5233815260fb8b52878120828811610631576104a7886104a183546136b8565b8361418e565b87828d601f831160011461065057508391610645575b508860011b906000198a60031b1c19161790555b8751878782378b8189810160fc8152030190209351805192831161063157610503836104fd87546136b8565b8761418e565b8b91601f84116001146105a457926002949281927f4f7b030b13ad1e7f83970740f723ce3d718b9472443b4b2a75f535a79e973ce79b9c9d9592610599575b50508160011b916000199060031b1c19161784555b6001600160a01b03600185019151166001600160a01b03198254161790555191015560018154019055610590858551938493338561486b565b0390a151908152f35b015190503880610542565b8581528c8120929190601f198516908e5b8282106106195750509260019285927f4f7b030b13ad1e7f83970740f723ce3d718b9472443b4b2a75f535a79e973ce79c9d9e966002989610610600575b505050811b018455610557565b015160001960f88460031b161c191690553880806105f3565b806001869782949787015181550196019401906105b5565b634e487b7160e01b82526041600452602482fd5b9050870135386104bd565b91601f1981168486528386209386905b8c83831061069a5750505010610680575b5050600188811b0190556104d1565b88013560001960038b901b60f8161c191690553880610671565b8501358655600190950194938401938d935090810190610660565b6106cb6106c33383866142bc565b3410156146d8565b6103da565b8251630ea075bf60e21b8152600490fd5b6106ea936145d1565b6106f757388285826103c2565b825163097e8be960e01b8152600490fd5b9091935061071892503391614540565b156107275785849138806103b4565b8451639693bf4760e01b8152600490fd5b8680fd5b8480fd5b8280fd5b50346102cd57806003193601126102cd5760ff81602093610763613624565b61076b61363f565b6001600160a01b039182168352606a875283832091168252855220549151911615158152f35b8234610338576020366003190112610338576107ab613991565b6004356101005580f35b5060803660031901126102cd5760043567ffffffffffffffff8111610740576107e2903690600401613973565b6107ea61363f565b9083549160ff8360081c16159283809461205d575b8015612046575b15611feb5760ff198116600117865583611fda575b50835161082781613740565b600a81526913dddb19585c9b88125960b21b6020820152845161084981613740565b6005918282526413d5d3125160da1b602083015261087660ff895460081c166108718161423b565b61423b565b80519067ffffffffffffffff8211611fc65781906108956065546136b8565b601f8111611f6f575b50602090601f8311600114611ee7578a92611edc575b50508160011b916000199060031b1c1916176065555b80519067ffffffffffffffff8211611ec85781906108e96066546136b8565b601f8111611e71575b50602090601f8311600114611dee578992611de3575b50508160011b916000199060031b1c1916176066555b61093260ff875460081c166108718161423b565b61093b336139e9565b825167ffffffffffffffff8111611dcf5761095760fd546136b8565b601f8111611d78575b50806020601f8211600114611cf7578891611cec575b508160011b916000199060031b1c19161760fd555b61010161099881546136b8565b601f8111611c8b575b506110d7815586527f3c73766720786d6c6e733d22687474703a2f2f7777772e77332e6f72672f32307f109ea3cebb188b9c1b9fc5bb3920be60dfdc8699098dff92f3d80daaca747689557f30302f737667222077696474683d2232373022206865696768743d22323730227f109ea3cebb188b9c1b9fc5bb3920be60dfdc8699098dff92f3d80daaca74768a557f2066696c6c3d226e6f6e65223e3c706174682066696c6c3d2275726c282342297f109ea3cebb188b9c1b9fc5bb3920be60dfdc8699098dff92f3d80daaca74768b557f2220643d224d302030683237307632373048307a222f3e3c646566733e3c66697f109ea3cebb188b9c1b9fc5bb3920be60dfdc8699098dff92f3d80daaca74768c557f6c7465722069643d22412220636f6c6f722d696e746572706f6c6174696f6e2d7f109ea3cebb188b9c1b9fc5bb3920be60dfdc8699098dff92f3d80daaca74768d557f66696c746572733d2273524742222066696c746572556e6974733d22757365727f109ea3cebb188b9c1b9fc5bb3920be60dfdc8699098dff92f3d80daaca74768e557f53706163654f6e55736522206865696768743d22323730222077696474683d227f109ea3cebb188b9c1b9fc5bb3920be60dfdc8699098dff92f3d80daaca74768f557f323730223e3c666544726f70536861646f772064783d2230222064793d2231227f109ea3cebb188b9c1b9fc5bb3920be60dfdc8699098dff92f3d80daaca747690557f20737464446576696174696f6e3d22322220666c6f6f642d6f7061636974793d7f109ea3cebb188b9c1b9fc5bb3920be60dfdc8699098dff92f3d80daaca747691557f222e323235222077696474683d223230302522206865696768743d22323030257f109ea3cebb188b9c1b9fc5bb3920be60dfdc8699098dff92f3d80daaca747692557f222f3e3c2f66696c7465723e3c2f646566733e3c7061746820643d224d37322e7f109ea3cebb188b9c1b9fc5bb3920be60dfdc8699098dff92f3d80daaca747693557f3836332034322e393439632d2e3636382d2e3338372d312e3432362d2e35392d7f109ea3cebb188b9c1b9fc5bb3920be60dfdc8699098dff92f3d80daaca747694557f322e3139372d2e3539732d312e3532392e3230342d322e3139372e35396c2d317f109ea3cebb188b9c1b9fc5bb3920be60dfdc8699098dff92f3d80daaca747695557f302e30383120362e3033322d362e383520332e3933342d31302e30383120362e7f109ea3cebb188b9c1b9fc5bb3920be60dfdc8699098dff92f3d80daaca747696557f303332632d2e3636382e3338372d312e3432362e35392d322e3139372e3539737f109ea3cebb188b9c1b9fc5bb3920be60dfdc8699098dff92f3d80daaca747697557f2d312e3532392d2e3230342d322e3139372d2e35396c2d382e3031332d342e377f109ea3cebb188b9c1b9fc5bb3920be60dfdc8699098dff92f3d80daaca747698557f323161342e353220342e35322030203020312d312e3538392d312e363136632d7f109ea3cebb188b9c1b9fc5bb3920be60dfdc8699098dff92f3d80daaca747699557f2e3338342d2e3636352d2e3539342d312e3431382d2e3630382d322e313837767f109ea3cebb188b9c1b9fc5bb3920be60dfdc8699098dff92f3d80daaca74769a557f2d392e3331632d2e3031332d2e3737352e3138352d312e3533382e3537322d327f109ea3cebb188b9c1b9fc5bb3920be60dfdc8699098dff92f3d80daaca74769b557f2e32303861342e323520342e323520302030203120312e3632352d312e3539357f109ea3cebb188b9c1b9fc5bb3920be60dfdc8699098dff92f3d80daaca74769c557f6c372e3838342d342e3539632e3636382d2e33383720312e3432362d2e3539207f109ea3cebb188b9c1b9fc5bb3920be60dfdc8699098dff92f3d80daaca74769d557f322e3139372d2e353973312e3532392e32303420322e3139372e35396c372e387f109ea3cebb188b9c1b9fc5bb3920be60dfdc8699098dff92f3d80daaca74769e557f383420342e353961342e353220342e353220302030203120312e35383920312e7f109ea3cebb188b9c1b9fc5bb3920be60dfdc8699098dff92f3d80daaca74769f557f363136632e3338342e3636352e35393420312e3431382e36303820322e3138377f109ea3cebb188b9c1b9fc5bb3920be60dfdc8699098dff92f3d80daaca7476a0557f76362e3033326c362e38352d342e303635762d362e303332632e3031332d2e377f109ea3cebb188b9c1b9fc5bb3920be60dfdc8699098dff92f3d80daaca7476a1557f37352d2e3138352d312e3533382d2e3537322d322e32303861342e323520342e7f109ea3cebb188b9c1b9fc5bb3920be60dfdc8699098dff92f3d80daaca7476a2557f32352030203020302d312e3632352d312e3539354c34312e3435362032342e357f109ea3cebb188b9c1b9fc5bb3920be60dfdc8699098dff92f3d80daaca7476a3557f39632d2e3636382d2e3338372d312e3432362d2e35392d322e3139372d2e35397f109ea3cebb188b9c1b9fc5bb3920be60dfdc8699098dff92f3d80daaca7476a4557f732d312e3532392e3230342d322e3139372e35396c2d31342e38363420382e367f109ea3cebb188b9c1b9fc5bb3920be60dfdc8699098dff92f3d80daaca7476a5557f353561342e323520342e32352030203020302d312e36323520312e353935632d7f109ea3cebb188b9c1b9fc5bb3920be60dfdc8699098dff92f3d80daaca7476a6557f2e3338372e36372d2e35383520312e3433342d2e35373220322e3230387631377f109ea3cebb188b9c1b9fc5bb3920be60dfdc8699098dff92f3d80daaca7476a7557f2e343431632d2e3031332e3737352e31383520312e3533382e35373220322e327f109ea3cebb188b9c1b9fc5bb3920be60dfdc8699098dff92f3d80daaca7476a8557f303861342e323520342e323520302030203020312e36323520312e3539356c317f109ea3cebb188b9c1b9fc5bb3920be60dfdc8699098dff92f3d80daaca7476a9557f342e38363420382e363535632e3636382e33383720312e3432362e353920322e7f109ea3cebb188b9c1b9fc5bb3920be60dfdc8699098dff92f3d80daaca7476aa557f3139372e353973312e3532392d2e32303420322e3139372d2e35396c31302e307f109ea3cebb188b9c1b9fc5bb3920be60dfdc8699098dff92f3d80daaca7476ab557f38312d352e39303120362e38352d342e3036352031302e3038312d352e3930317f109ea3cebb188b9c1b9fc5bb3920be60dfdc8699098dff92f3d80daaca7476ac557f632e3636382d2e33383720312e3432362d2e353920322e3139372d2e353973317f109ea3cebb188b9c1b9fc5bb3920be60dfdc8699098dff92f3d80daaca7476ad557f2e3532392e32303420322e3139372e35396c372e38383420342e353961342e357f109ea3cebb188b9c1b9fc5bb3920be60dfdc8699098dff92f3d80daaca7476ae557f3220342e353220302030203120312e35383920312e363136632e3338342e36367f109ea3cebb188b9c1b9fc5bb3920be60dfdc8699098dff92f3d80daaca7476af557f352e35393420312e3431382e36303820322e31383776392e333131632e3031337f109ea3cebb188b9c1b9fc5bb3920be60dfdc8699098dff92f3d80daaca7476b0557f2e3737352d2e31383520312e3533382d2e35373220322e32303861342e3235207f109ea3cebb188b9c1b9fc5bb3920be60dfdc8699098dff92f3d80daaca7476b1557f342e32352030203020312d312e36323520312e3539356c2d372e38383420342e7f109ea3cebb188b9c1b9fc5bb3920be60dfdc8699098dff92f3d80daaca7476b2557f373231632d2e3636382e3338372d312e3432362e35392d322e3139372e3539737f109ea3cebb188b9c1b9fc5bb3920be60dfdc8699098dff92f3d80daaca7476b3557f2d312e3532392d2e3230342d322e3139372d2e35396c2d372e3838342d342e357f109ea3cebb188b9c1b9fc5bb3920be60dfdc8699098dff92f3d80daaca7476b4557f3961342e353220342e35322030203020312d312e3538392d312e363136632d2e7f109ea3cebb188b9c1b9fc5bb3920be60dfdc8699098dff92f3d80daaca7476b5557f3338352d2e3636352d2e3539342d312e3431382d2e3630382d322e313837762d7f109ea3cebb188b9c1b9fc5bb3920be60dfdc8699098dff92f3d80daaca7476b6557f362e3033326c2d362e383520342e30363576362e303332632d2e3031332e37377f109ea3cebb188b9c1b9fc5bb3920be60dfdc8699098dff92f3d80daaca7476b7557f352e31383520312e3533382e35373220322e32303861342e323520342e3235207f109ea3cebb188b9c1b9fc5bb3920be60dfdc8699098dff92f3d80daaca7476b8557f302030203020312e36323520312e3539356c31342e38363420382e363535632e7f109ea3cebb188b9c1b9fc5bb3920be60dfdc8699098dff92f3d80daaca7476b9557f3636382e33383720312e3432362e353920322e3139372e353973312e3532392d7f109ea3cebb188b9c1b9fc5bb3920be60dfdc8699098dff92f3d80daaca7476ba557f2e32303420322e3139372d2e35396c31342e3836342d382e363535632e3635377f109ea3cebb188b9c1b9fc5bb3920be60dfdc8699098dff92f3d80daaca7476bb557f2d2e33393420312e3230342d2e393520312e3538392d312e363136732e3539347f109ea3cebb188b9c1b9fc5bb3920be60dfdc8699098dff92f3d80daaca7476bc557f2d312e3431382e3630392d322e3138375635352e353338632e3031332d2e37377f109ea3cebb188b9c1b9fc5bb3920be60dfdc8699098dff92f3d80daaca7476bd557f352d2e3138352d312e3533382d2e3537322d322e32303861342e323520342e327f109ea3cebb188b9c1b9fc5bb3920be60dfdc8699098dff92f3d80daaca7476be557f352030203020302d312e3632352d312e3539356c2d31342e3939332d382e37387f109ea3cebb188b9c1b9fc5bb3920be60dfdc8699098dff92f3d80daaca7476bf557f367a222066696c6c3d2223666666222f3e3c646566733e3c6c696e65617247727f109ea3cebb188b9c1b9fc5bb3920be60dfdc8699098dff92f3d80daaca7476c0557f616469656e742069643d2242222078313d2230222079313d2230222078323d227f109ea3cebb188b9c1b9fc5bb3920be60dfdc8699098dff92f3d80daaca7476c1557f323730222079323d2232373022206772616469656e74556e6974733d227573657f109ea3cebb188b9c1b9fc5bb3920be60dfdc8699098dff92f3d80daaca7476c2557f7253706163654f6e557365223e3c73746f702073746f702d636f6c6f723d22237f109ea3cebb188b9c1b9fc5bb3920be60dfdc8699098dff92f3d80daaca7476c3557f636235656565222f3e3c73746f70206f66667365743d2231222073746f702d637f109ea3cebb188b9c1b9fc5bb3920be60dfdc8699098dff92f3d80daaca7476c4557f6f6c6f723d2223306364376534222073746f702d6f7061636974793d222e39397f109ea3cebb188b9c1b9fc5bb3920be60dfdc8699098dff92f3d80daaca7476c5557f222f3e3c2f6c696e6561724772616469656e743e3c2f646566733e3c746578747f109ea3cebb188b9c1b9fc5bb3920be60dfdc8699098dff92f3d80daaca7476c6557f20783d2233322e352220793d223233312220666f6e742d73697a653d223237227f109ea3cebb188b9c1b9fc5bb3920be60dfdc8699098dff92f3d80daaca7476c7557f2066696c6c3d2223666666222066696c7465723d2275726c282341292220666f7f109ea3cebb188b9c1b9fc5bb3920be60dfdc8699098dff92f3d80daaca7476c8557f6e742d66616d696c793d22506c7573204a616b617274612053616e732c44656a7f109ea3cebb188b9c1b9fc5bb3920be60dfdc8699098dff92f3d80daaca7476c9557f6156752053616e732c4e6f746f20436f6c6f7220456d6f6a692c4170706c65207f109ea3cebb188b9c1b9fc5bb3920be60dfdc8699098dff92f3d80daaca7476ca557f436f6c6f7220456d6f6a692c73616e732d73657269662220666f6e742d7765697f109ea3cebb188b9c1b9fc5bb3920be60dfdc8699098dff92f3d80daaca7476cb556a33b43a1e913137b632111f60a91b7f109ea3cebb188b9c1b9fc5bb3920be60dfdc8699098dff92f3d80daaca7476cc5561010290611b7182546136b8565b90601f8211611c4a575b5050611c0c92916001600160a01b0391601a6c1e17ba32bc3a1f1e17b9bb339f60991b019055166001600160a01b031960fe54161760fe5560443560ff55606435610100556101036201010062ffff00198254161790558351611bdd81613740565b601981527f2573206e616d652073657276696365206465706c6f796564200000000000000060208201526141d3565b611c14575080f35b60207f7f26b83ff96e1f2b6a682f133852f6798a09c465da95921460cefb38474024989161ff001984541684555160018152a180f35b828852601f7f93bdaa6a4190909b7c3fbe8d42169ffe1cab19f51dfc8db24c71abf849eced4a9201901c8101905b81811015611b7b57878155600101611c78565b601f01821c7f109ea3cebb188b9c1b9fc5bb3920be60dfdc8699098dff92f3d80daaca747689017f109ea3cebb188b9c1b9fc5bb3920be60dfdc8699098dff92f3d80daaca7476cd5b818110611ce157506109a1565b888155600101611cd4565b905084015138610976565b60fd89527f9346ac6dd7de6b96975fec380d4d994c4c12e6a8897544f22915316cc6cca2809150601f198316895b818110611d6057509083600194939210611d47575b5050811b0160fd5561098b565b86015160001960f88460031b161c191690553880611d3a565b9192602060018192868b015181550194019201611d25565b611dbf9060fd89527f9346ac6dd7de6b96975fec380d4d994c4c12e6a8897544f22915316cc6cca280601f8401851c81019160208510611dc5575b601f01851c0190614177565b38610960565b9091508190611db3565b634e487b7160e01b87526041600452602487fd5b015190503880610908565b60668a527f46501879b8ca8525e8c2fd519e2fbfcfa2ebea26501294aa02cbfcfb12e943549250601f1984168a5b818110611e595750908460019594939210611e40575b505050811b0160665561091e565b015160001960f88460031b161c19169055388080611e32565b92936020600181928786015181550195019301611e1c565b611eb89060668b527f46501879b8ca8525e8c2fd519e2fbfcfa2ebea26501294aa02cbfcfb12e94354601f8501871c81019160208610611ebe575b601f01871c0190614177565b386108f2565b9091508190611eac565b634e487b7160e01b88526041600452602488fd5b0151905038806108b4565b925060658a527f8ff97419363ffd7000167f130ef7168fbea05faf9251824ca5043f113cc6a7c7908a935b601f1984168510611f54576001945083601f19811610611f3b575b505050811b016065556108ca565b015160001960f88460031b161c19169055388080611f2d565b81810151835560209485019460019093019290910190611f12565b611fb69060658c527f8ff97419363ffd7000167f130ef7168fbea05faf9251824ca5043f113cc6a7c7601f8501881c81019160208610611fbc575b601f01881c0190614177565b3861089e565b9091508190611faa565b634e487b7160e01b89526041600452602489fd5b61ffff19166101011785553861081b565b845162461bcd60e51b815260206004820152602e60248201527f496e697469616c697a61626c653a20636f6e747261637420697320616c72656160448201526d191e481a5b9a5d1a585b1a5e995960921b6064820152608490fd5b50303b1580156108065750600160ff821614610806565b50600160ff8216106107ff565b5090606036600319011261033857612080613624565b67ffffffffffffffff9260243584811161240c576120a2903690600401613655565b92604435868111612408576120bb9036906004016138ef565b906120c4613991565b8584610103549360ff8560101c166123e0575b506120e29250614609565b156123cf5760ff166123bc575b6120f98483614cbd565b9360019561215e61212c61019a97898954018099556121258961211a614724565b61040836898c61393c565b8487614e6f565b612137610428614783565b612143816104396147e2565b61214e61042861480c565b6121588886614934565b87614a94565b84519061216a826136f2565b61217536848761393c565b8252602098898301986001600160a01b039182871693848c52898601948b8652815260fb8d5289812082881161063157878e6121bb826121b585546136b8565b8561418e565b8390601f831160011461235357508391612348575b5060001960038a901b1c191688851b1790555b8951878a82378d8189810160fc815203019020955190815192831161233457908d91612219846122138a546136b8565b8a61418e565b82601f85116001146122a2575093836105909997948e9f947f4f7b030b13ad1e7f83970740f723ce3d718b9472443b4b2a75f535a79e973ce79e9f9a989460029892612297575b5050600019600383901b1c191690821b1786555b85019151166001600160a01b03198254161790555191015586519485948561486b565b015190503880612260565b888252808220939291601f198616915b82821061231d57505094848e9f947f4f7b030b13ad1e7f83970740f723ce3d718b9472443b4b2a75f535a79e973ce79e9f9a989483946105909d9b9860029a10612304575b505050811b018655612274565b015160001960f88460031b161c191690553880806122f7565b8088869782949787015181550196019401906122b2565b634e487b7160e01b81526041600452602490fd5b90508a0135386121d0565b91601f1981168486528d848720948988925b84841061239e575050505010612384575b50508388811b0190556121e3565b8b013560001960038b901b60f8161c191690553880612376565b829495509686839497980135815501950193018c92918f8a90612365565b6123ca6106c33386856142bc565b6120ef565b8351630ea075bf60e21b8152600490fd5b6123e9936145d1565b156123f757388584826120d7565b835163097e8be960e01b8152600490fd5b8580fd5b8380fd5b50346102cd5760203660031901126102cd5760209061032f612430613624565b61463e565b50346102cd5760203660031901126102cd57906124a8916004356124776124728260005260676020526001600160a01b0360406000205416151590565b613b91565b8252609760205261248981832061383c565b91815161249581613724565b52519182916020835260208301906135ff565b0390f35b50346102cd5760203660031901126102cd576004359167ffffffffffffffff8311610338575061032f6124e56020933690600401613655565b90614609565b823461033857608036600319011261033857612505613624565b61250d61363f565b906064359060443567ffffffffffffffff831161073c576102789361253961255c943690600401613973565b9261254c6125478433613d09565b613c3c565b612557838383613dd1565b61404b565b613c9e565b50346102cd57816003193601126102cd576020906001600160a01b0360fe54169051908152f35b8234610338576020366003190112610338576125a26138e0565b6125aa613991565b6101039060ff80198354169115151617905580f35b50346102cd5760203660031901126102cd576125f7816124a8936001600160a01b036125e9613624565b16815260fb6020522061383c565b90519182916020835260208301906135ff565b50346102cd57806003193601126102cd576004359167ffffffffffffffff831161033857506126506126426020933690600401613655565b61264a61363f565b916142bc565b9051908152f35b50346102cd57806003193601126102cd57612670613624565b6024359081151580920361240c576001600160a01b0316918233146126dd57338452606a60205280842083855260205280842060ff1981541660ff8416179055519081527f17307eab39ab6107e8899845ad3d59bd9653f200f220920489ca2b5937696c3160203392a380f35b5162461bcd60e51b815260206004820152601960248201527f4552433732313a20617070726f766520746f2063616c6c6572000000000000006044820152606490fd5b50346102cd57816003193601126102cd576020905160328152f35b50346102cd57816003193601126102cd578051908260665461275c816136b8565b808552916001918083169081156127f7575060011461279a575b505050612788826124a894038361375c565b519182916020835260208301906135ff565b9450606685527f46501879b8ca8525e8c2fd519e2fbfcfa2ebea26501294aa02cbfcfb12e943545b8286106127df575050506127888260206124a89582010194612776565b805460208787018101919091529095019481016127c2565b6124a897508693506020925061278894915060ff191682840152151560051b82010194612776565b50346102cd57816003193601126102cd57602090610100549051908152f35b823461033857602036600319011261033857612858613991565b60043560ff5580f35b50346102cd57816003193601126102cd576020906001600160a01b0360c954169051908152f35b50346102cd57816003193601126102cd5760209051600a8152f35b82346103385780600319360112610338576128bc613991565b806001600160a01b0360c9548119811660c955167f8be0079c531659141344cd1fd0a4f28419497f9722a3daafe3b4186f6b6457e08280a380f35b50346102cd5760203660031901126102cd576001600160a01b03612919613624565b16801561293457828291602094526068845220549051908152f35b815162461bcd60e51b815260206004820152602960248201527f4552433732313a2061646472657373207a65726f206973206e6f7420612076616044820152683634b21037bbb732b960b91b6064820152608490fd5b50346102cd57816003193601126102cd5760209060ff6101035460101c1690519015158152f35b50346102cd5760203660031901126102cd576020906001600160a01b036129d9600435613bdd565b915191168152f35b50346102cd57816003193601126102cd576020905160058152f35b509034610338578060031936011261033857506001600160a01b037f0000000000000000000000000000000000000000000000000000000000000000163003612a6857602090517f360894a13ba1a3210667c828492db98dca3e2076cc3735a920a3ca505d382bbc8152f35b5162461bcd60e51b815260206004820152603860248201527f555550535570677261646561626c653a206d757374206e6f742062652063616c60448201527f6c6564207468726f7567682064656c656761746563616c6c00000000000000006064820152608490fd5b50806003193601126102cd57612ae5613624565b60243567ffffffffffffffff811161240c57612b05903690600401613973565b916001600160a01b0392837f00000000000000000000000000000000000000000000000000000000000000001693612b3f85301415613a31565b612b6e7f360894a13ba1a3210667c828492db98dca3e2076cc3735a920a3ca505d382bbc958287541614613a92565b612b76613991565b7f4910fdfa16fed3260ed0e7147f7cc6da11a60208b5b9406d12a635614ffd91435460ff1615612bad575050506102789150613af3565b83919293168351946352d1902d60e01b86526020958681600481865afa889181612d4a575b50612c3257855162461bcd60e51b815260048101889052602e60248201527f45524331393637557067726164653a206e657720696d706c656d656e7461746960448201526d6f6e206973206e6f74205555505360901b6064820152608490fd5b9592939503612cf457908591612c4784613af3565b7fbc7cd75a20ee27fd9adebab32041f755214dbc6bffa90cc0225b39da2e5c2d3b8380a2845115801590612cec575b612c83575b505050505080f35b612ce1948291660819985a5b195960ca1b865196612ca0886136f2565b602788527f416464726573733a206c6f772d6c6576656c2064656c65676174652063616c6c8389015287015281519101845af4612cdb613ee0565b916140ac565b503880808381612c7b565b506001612c76565b835162461bcd60e51b815260048101839052602960248201527f45524331393637557067726164653a20756e737570706f727465642070726f786044820152681a58589b195555525160ba1b6064820152608490fd5b9091508781813d8311612d76575b612d62818361375c565b81010312612d7257519038612bd2565b8880fd5b503d612d58565b50346102cd57816003193601126102cd5760209060ff6101035460081c1690519015158152f35b50346102cd5761255c61027891612dba36613683565b91925192612dc784613724565b86845261254c6125478433613d09565b50346102cd5760203660031901126102cd576004359167ffffffffffffffff83116103385750612e256020612e13612e60943690600401613973565b818451938285809451938492016135dc565b810160fc815203019020612e388161383c565b9160026001600160a01b036001840154169201549080519485946060865260608601906135ff565b9260208501528301520390f35b50346102cd57816003193601126102cd57612e86613991565b81808080476001600160a01b0360c954165af1612ea1613ee0565b5015612eab575080f35b5162461bcd60e51b815260206004820152601860248201527f4661696c656420746f207769746864726177204d6174696300000000000000006044820152606490fd5b823461033857602036600319011261033857612f086138e0565b612f10613991565b6101039062ff0000825491151560101b169062ff0000191617905580f35b50346102cd57806003193601126102cd576004359167ffffffffffffffff8311610338575061032f612f6660209336906004016138ef565b612f6e61363f565b91614540565b50346102cd576020908160031936011261074057612f90613624565b906001600160a01b03807f000000000000000000000000000000000000000000000000000000000000000016612fc881301415613a31565b612ff77f360894a13ba1a3210667c828492db98dca3e2076cc3735a920a3ca505d382bbc918383541614613a92565b612fff613991565b82519161300b83613724565b8683527f4910fdfa16fed3260ed0e7147f7cc6da11a60208b5b9406d12a635614ffd91435460ff161561304657505050506102789150613af3565b84929394169084516352d1902d60e01b81528681600481865afa88918161311e575b506130c857855162461bcd60e51b815260048101889052602e60248201527f45524331393637557067726164653a206e657720696d706c656d656e7461746960448201526d6f6e206973206e6f74205555505360901b6064820152608490fd5b9592939503612cf4579085916130dd84613af3565b7fbc7cd75a20ee27fd9adebab32041f755214dbc6bffa90cc0225b39da2e5c2d3b8380a284511580159061311757612c8357505050505080f35b5081612c76565b9091508781813d8311613146575b613136818361375c565b81010312612d7257519038613068565b503d61312c565b8234610338576020366003190112610338576131676138e0565b61316f613991565b6101039061ff00825491151560081b169061ff00191617905580f35b50346102cd57816003193601126102cd576124a8906125f761377e565b50346102cd57816003193601126102cd5760209060ff549051908152f35b8234610338576102786131d836613683565b916131e66125478433613d09565b613dd1565b50346102cd576020806003193601126107405760043567ffffffffffffffff811161240c5792816132226060953690600401613655565b9285805161322f816136f2565b888152828582015201528285519384928337810160fc81520301902090825192613258846136f2565b6132618361383c565b84526001600160a01b0361329e600282600187015416958588019687520154938387019485528351978897828952519188015260808701906135ff565b935116908401525160608301520390f35b50346102cd57816003193601126102cd576020905160018152f35b50346102cd57816003193601126102cd576020905160198152f35b50346102cd57816003193601126102cd5760209060ff610103541690519015158152f35b50346102cd57806003193601126102cd57613322613624565b602435916001600160a01b0390818061333a86613bdd565b1693169280841461343657803314908115613417575b50156133ae5783855260696020528420805473ffffffffffffffffffffffffffffffffffffffff19168317905561338683613bdd565b167f8c5be1e5ebec7d5bd14f71427d1e84f3dd0314c0f7b2291e5b200ac8c7c3b9258480a480f35b5162461bcd60e51b815260206004820152603d60248201527f4552433732313a20617070726f76652063616c6c6572206973206e6f7420746f60448201527f6b656e206f776e6572206f7220617070726f76656420666f7220616c6c0000006064820152608490fd5b90508552606a60205280852033865260205260ff818620541638613350565b815162461bcd60e51b815260206004820152602160248201527f4552433732313a20617070726f76616c20746f2063757272656e74206f776e656044820152603960f91b6064820152608490fd5b50346102cd5760203660031901126102cd576020906001600160a01b036129d9600435613bff565b50346102cd57816003193601126102cd57805190826065546134cd816136b8565b808552916001918083169081156127f757506001146134f857505050612788826124a894038361375c565b9450606585527f8ff97419363ffd7000167f130ef7168fbea05faf9251824ca5043f113cc6a7c75b82861061353d575050506127888260206124a89582010194612776565b80546020878701810191909152909501948101613520565b8390346102cd5760203660031901126102cd5760043563ffffffff60e01b81168091036107405760209250632483248360e11b8114908115613599575b5015158152f35b6380ac58cd60e01b8114915081156135cb575b81156135ba575b5083613592565b6301ffc9a760e01b149050836135b3565b635b5e139f60e01b811491506135ac565b60005b8381106135ef5750506000910152565b81810151838201526020016135df565b90602091613618815180928185528580860191016135dc565b601f01601f1916010190565b600435906001600160a01b038216820361363a57565b600080fd5b602435906001600160a01b038216820361363a57565b9181601f8401121561363a5782359167ffffffffffffffff831161363a576020838186019501011161363a57565b606090600319011261363a576001600160a01b0390600435828116810361363a5791602435908116810361363a579060443590565b90600182811c921680156136e8575b60208310146136d257565b634e487b7160e01b600052602260045260246000fd5b91607f16916136c7565b6060810190811067ffffffffffffffff82111761370e57604052565b634e487b7160e01b600052604160045260246000fd5b6020810190811067ffffffffffffffff82111761370e57604052565b6040810190811067ffffffffffffffff82111761370e57604052565b90601f8019910116810190811067ffffffffffffffff82111761370e57604052565b6040519060008260fd5491613792836136b8565b8083529260019081811690811561381a57506001146137bb575b506137b99250038361375c565b565b60fd600090815291507f9346ac6dd7de6b96975fec380d4d994c4c12e6a8897544f22915316cc6cca2805b8483106137ff57506137b99350508101602001386137ac565b81935090816020925483858a010152019101909185926137e6565b9050602092506137b994915060ff191682840152151560051b820101386137ac565b9060405191826000825492613850846136b8565b9081845260019485811690816000146138bd575060011461387a575b50506137b99250038361375c565b9093915060005260209081600020936000915b8183106138a55750506137b99350820101388061386c565b8554888401850152948501948794509183019161388d565b9150506137b994506020925060ff191682840152151560051b820101388061386c565b60043590811515820361363a57565b9181601f8401121561363a5782359167ffffffffffffffff831161363a576020808501948460051b01011161363a57565b67ffffffffffffffff811161370e57601f01601f191660200190565b92919261394882613920565b91613956604051938461375c565b82948184528183011161363a578281602093846000960137010152565b9080601f8301121561363a5781602061398e9335910161393c565b90565b6001600160a01b0360c9541633036139a557565b606460405162461bcd60e51b815260206004820152602060248201527f4f776e61626c653a2063616c6c6572206973206e6f7420746865206f776e65726044820152fd5b60c954906001600160a01b0380911691826001600160a01b031982161760c955167f8be0079c531659141344cd1fd0a4f28419497f9722a3daafe3b4186f6b6457e0600080a3565b15613a3857565b60405162461bcd60e51b815260206004820152602c60248201527f46756e6374696f6e206d7573742062652063616c6c6564207468726f7567682060448201526b19195b1959d85d1958d85b1b60a21b6064820152608490fd5b15613a9957565b60405162461bcd60e51b815260206004820152602c60248201527f46756e6374696f6e206d7573742062652063616c6c6564207468726f7567682060448201526b6163746976652070726f787960a01b6064820152608490fd5b803b15613b36576001600160a01b037f360894a13ba1a3210667c828492db98dca3e2076cc3735a920a3ca505d382bbc91166001600160a01b0319825416179055565b60405162461bcd60e51b815260206004820152602d60248201527f455243313936373a206e657720696d706c656d656e746174696f6e206973206e60448201526c1bdd08184818dbdb9d1c9858dd609a1b6064820152608490fd5b15613b9857565b60405162461bcd60e51b815260206004820152601860248201527f4552433732313a20696e76616c696420746f6b656e20494400000000000000006044820152606490fd5b60005260676020526001600160a01b036040600020541661398e811515613b91565b613c226124728260005260676020526001600160a01b0360406000205416151590565b60005260696020526001600160a01b036040600020541690565b15613c4357565b60405162461bcd60e51b815260206004820152602d60248201527f4552433732313a2063616c6c6572206973206e6f7420746f6b656e206f776e6560448201526c1c881bdc88185c1c1c9bdd9959609a1b6064820152608490fd5b15613ca557565b60405162461bcd60e51b815260206004820152603260248201527f4552433732313a207472616e7366657220746f206e6f6e20455243373231526560448201527131b2b4bb32b91034b6b83632b6b2b73a32b960711b6064820152608490fd5b0390fd5b906001600160a01b038080613d1d84613bdd565b16931691838314938415613d50575b508315613d3a575b50505090565b613d4691929350613bff565b1614388080613d34565b909350600052606a60205260406000208260005260205260ff604060002054169238613d2c565b15613d7e57565b60405162461bcd60e51b815260206004820152602560248201527f4552433732313a207472616e736665722066726f6d20696e636f72726563742060448201526437bbb732b960d91b6064820152608490fd5b90613df991613ddf84613bdd565b916001600160a01b03938493848094169485911614613d77565b16918215613e8f5781613e1691613e0f86613bdd565b1614613d77565b7fddf252ad1be2c89b69c2b068fc378daa952ba7f163c4a11628f55a4df523b3ef60008481526069602052604081206001600160a01b03199081815416905583825260686020526040822060001981540190558482526040822060018154019055858252606760205284604083209182541617905580a4565b60405162461bcd60e51b8152602060048201526024808201527f4552433732313a207472616e7366657220746f20746865207a65726f206164646044820152637265737360e01b6064820152608490fd5b3d15613f0b573d90613ef182613920565b91613eff604051938461375c565b82523d6000602084013e565b606090565b9091600091803b1561404257613f636020916001600160a01b039385604051958680958194630a85bd0160e11b9b8c845233600485015285602485015260448401526080606484015260848301906135ff565b0393165af190829082613ffa575b5050613fec57613f7f613ee0565b80519081613fe75760405162461bcd60e51b815260206004820152603260248201527f4552433732313a207472616e7366657220746f206e6f6e20455243373231526560448201527131b2b4bb32b91034b6b83632b6b2b73a32b960711b6064820152608490fd5b602001fd5b6001600160e01b0319161490565b909192506020813d821161403a575b816140166020938361375c565b810103126102cd5751906001600160e01b0319821682036103385750903880613f71565b3d9150614009565b50505050600190565b91926000929190813b156140a257602091613f639185604051958680958194630a85bd0160e11b9b8c84523360048501526001600160a01b03809516602485015260448401526080606484015260848301906135ff565b5050505050600190565b9192901561410e57508151156140c0575090565b3b156140c95790565b60405162461bcd60e51b815260206004820152601d60248201527f416464726573733a2063616c6c20746f206e6f6e2d636f6e74726163740000006044820152606490fd5b8251909150156141215750805190602001fd5b60405162461bcd60e51b815260206004820152908190613d059060248301906135ff565b9061414f82613920565b61415c604051918261375c565b828152809261416d601f1991613920565b0190602036910137565b818110614182575050565b60008155600101614177565b9190601f811161419d57505050565b6137b9926000526020600020906020601f840160051c830193106141c9575b601f0160051c0190614177565b90915081906141bc565b6000919061421a61422884936040519283916142086020840196634b5c427760e01b88526040602486015260648501906135ff565b838103602319016044850152906135ff565b03601f19810183528261375c565b51906a636f6e736f6c652e6c6f675afa50565b1561424257565b60405162461bcd60e51b815260206004820152602b60248201527f496e697469616c697a61626c653a20636f6e7472616374206973206e6f74206960448201526a6e697469616c697a696e6760a81b6064820152608490fd5b908060209392818452848401376000828201840152601f01601f1916010190565b9290916142d26142cd36858761393c565b6143b2565b806142ff575050604051637f19f48d60e01b815260206004820152928392613d059250602484019161429b565b91935091506001810361432b57506143206802b5e3af16b18800009161463e565b1561398e5760011c90565b60028103614347575061432068015af1d78b58c400009161463e565b600381036143625750614320678ac7230489e800009161463e565b60040361437b57614320674563918244f400009161463e565b614320670de0b6b3a76400009161463e565b600019811461439c5760010190565b634e487b7160e01b600052601160045260246000fd5b6000815191815b8381106143c7575050905090565b81518110156144d357818101602001517fff0000000000000000000000000000000000000000000000000000000000000016600160ff1b81101561442157506001810180911161439c5761441b909261438d565b916143b9565b600760fd1b81101561444357506002810180911161439c5761441b909261438d565b600f60fc1b81101561446557506003810180911161439c5761441b909261438d565b601f60fb1b81101561449e57506004808201809211614489575061441b909261438d565b601190634e487b7160e01b6000525260246000fd5b603f60fa1b11156144be576005810180911161439c5761441b909261438d565b6006810180911161439c5761441b909261438d565b634e487b7160e01b600052603260045260246000fd5b90929167ffffffffffffffff841161370e578360051b60405192602080946145138285018261375c565b809781520191810192831161363a57905b8282106145315750505050565b81358152908301908301614524565b9061457761398e936040516001600160a01b0360208201921682526020815261456881613740565b5190209260ff549236916144e9565b9091906000915b81518310156145ca576020808460051b840101519160008382106000146145b95750600052526145b360406000205b9261438d565b9161457e565b906040926145b394835252206145ad565b9150501490565b9161398e9361421a6145f961457793604051928391602083019560208752604084019161429b565b51902092610100549236916144e9565b6001600160a01b0391602060019282604051938492833760fc908201908152030190200154161561463957600090565b600190565b60fe546001600160a01b03908116919082156146d057602460209260405194859384926370a0823160e01b84521660048301525afa9081156146c457600091614693575b5060009060011161398e5750600190565b906020823d82116146bc575b816146ac6020938361375c565b8101031261033857505138614682565b3d915061469f565b6040513d6000823e3d90fd5b505050600090565b156146df57565b60405162461bcd60e51b815260206004820152601560248201527f4e4f5420454e4f554748204d41544943205041494400000000000000000000006044820152606490fd5b60405190614731826136f2565b603182527f74207769746820746f6b656e49442025640000000000000000000000000000006040837f5265676973746572696e672025732e2573206f6e2074686520636f6e7472616360208201520152565b60405190614790826136f2565b603982527f2d2d2d2d2d2d2d2d2d2d2d2d2d2d2d2d2d2d2d2d2d2d2d2d2d000000000000006040837f0a2d2d2d2d2d2d2d2d2d2d2d2d2d2d2d2d2d2d2d2d2d2d2d2d2d2d2d2d2d2d2d60208201520152565b604051906147ef82613740565b600e82526d46696e616c20746f6b656e55524960901b6020830152565b60405190614819826136f2565b603982527f2d2d2d2d2d2d2d2d2d2d2d2d2d2d2d2d2d2d2d2d2d2d2d2d0a000000000000006040837f2d2d2d2d2d2d2d2d2d2d2d2d2d2d2d2d2d2d2d2d2d2d2d2d2d2d2d2d2d2d2d2d60208201520152565b949392916040926001600160a01b036148929316875260606020880152606087019161429b565b930152565b600080916040516142288161421a602082019463104c13eb60e21b86526020602484015260448301906135ff565b906142286000949385946149206040519485936149116148fe6020870199639fd009f560e01b8b526080602489015260a48801906135ff565b60231993848883030160448901526135ff565b918583030160648601526135ff565b90608483015203601f19810183528261375c565b60405161494081613724565b6000928382526001600160a01b038316928315614a04578161255c946137b9966149896149838460005260676020526001600160a01b0360406000205416151590565b15614a48565b6149ac6149838460005260676020526001600160a01b0360406000205416151590565b81815260686020526040812060018154019055828152606760205260408120826001600160a01b03198254161790557fddf252ad1be2c89b69c2b068fc378daa952ba7f163c4a11628f55a4df523b3ef8180a4613f10565b606460405162461bcd60e51b815260206004820152602060248201527f4552433732313a206d696e7420746f20746865207a65726f20616464726573736044820152fd5b15614a4f57565b60405162461bcd60e51b815260206004820152601c60248201527f4552433732313a20746f6b656e20616c7265616479206d696e746564000000006044820152606490fd5b919091614ab78160005260676020526001600160a01b0360406000205416151590565b15614bd25760009080825260209160978352604081209085519067ffffffffffffffff821161233457614aee826121b585546136b8565b8490601f8311600114614b4e57907ff8e1a15aba9398e019f0b49df1a4fde98ee17ae345cb5f6b5e2c27f5033e8ce7969783614b43575b50508160011b916000199060031b1c19161790555b604051908152a1565b015190503880614b25565b9196601f198816848452868420935b818110614bbb57509160019391897ff8e1a15aba9398e019f0b49df1a4fde98ee17ae345cb5f6b5e2c27f5033e8ce7999a9410614ba2575b505050811b019055614b3a565b015160001960f88460031b161c19169055388080614b95565b929387600181928786015181550195019301614b5d565b60405162461bcd60e51b815260206004820152602e60248201527f45524337323155524953746f726167653a2055524920736574206f66206e6f6e60448201526d32bc34b9ba32b73a103a37b5b2b760911b6064820152608490fd5b60fd5460009291614c3e826136b8565b91600190818116908115614caa5750600114614c5957505050565b909192935060fd6000527f9346ac6dd7de6b96975fec380d4d994c4c12e6a8897544f22915316cc6cca280906000915b848310614c97575050500190565b8181602092548587015201920191614c89565b60ff191683525050811515909102019150565b906040519182614ce36021602094808685019586378301601760f91b8682015201614c2e565b0390614cf7601f199283810186528561375c565b60405193849160009061010192835493614d10856136b8565b90600195898782169182600014614e4d575050600114614df1575b50508291614d3c91519384916135dc565b0160009461010292835493614d50856136b8565b94828116908115614dd25750600114614d79575b505050505061398e920390810183528261375c565b60009081527f93bdaa6a4190909b7c3fbe8d42169ffe1cab19f51dfc8db24c71abf849eced4a9750905b848210614dbc5750505001925061398e38808080614d64565b8754848301529687019688955090820190614da3565b60ff191685525050505081151590910201925061398e38808080614d64565b88929394506000527f109ea3cebb188b9c1b9fc5bb3920be60dfdc8699098dff92f3d80daaca7476896000905b828210614e355750508501019190614d3c38614d2b565b80548b83018501528a97508993909101908601614e1e565b60ff19168982015283151590930288019092019450614d3c9150389050614d2b565b614e7d6142cd36848461393c565b91826000937a184f03e93ff9f4daa797ed6e38ed64bf6a1f01000000000000000080821015615142575b506d04ee2d6d415b85acef810000000080831015615133575b50662386f26fc1000080831015615124575b506305f5e10080831015615115575b5061271080831015615106575b5060648210156150f6575b600a809210156150ec575b600190816021614f15828901614145565b97880101905b6150b6575b5050505061506c614fa2614f776089602161398e97603d97614f7c6150a69b614f77601760f91b9a614f6960405197889260209e8f91808387019a8b3785019182015201614c2e565b03601f19810187528661375c565b615150565b90604051968794693d913730b6b2911d101160b11b8b870152518092602a8701906135dc565b83017f222c20226465736372697074696f6e223a20224120646f6d61696e206f6e2074602a8201527f6865204f776c6561726e222c2022696d616765223a2022646174613a696d6167604a8201527f652f7376672b786d6c3b6261736536342c000000000000000000000000000000606a820152615029825180938b607b850191016135dc565b016b1116113632b733ba34111d1160a11b607b820152615052825180938a6087850191016135dc565b0161227d60f01b608782015203606981018452018261375c565b60405194827f646174613a6170706c69636174696f6e2f6a736f6e3b6261736536342c0000008794850152825192839186860191016135dc565b810103601d81018452018261375c565b600019019083906f181899199a1a9b1b9c1cb0b131b232b360811b8282061a8353049182156150e757919082614f1b565b614f20565b9360010193614f04565b9390606460029104910193614ef9565b60049195920491019338614eee565b60089195920491019338614ee1565b60109195920491019338614ed2565b60209195920491019338614ec0565b604095508104915038614ea7565b80511561528257604051615163816136f2565b604081527f4142434445464748494a4b4c4d4e4f505152535455565758595a61626364656660208201527f6768696a6b6c6d6e6f707172737475767778797a303132333435363738392b2f6040820152815160029283820180921161439c576003918290046001600160fe1b038116810361439c576151e5908594951b614145565b936020850193829183518401925b838110615231575050505051068060011461521e57600214615213575090565b603d90600019015390565b50603d9081600019820153600119015390565b85600491979293949701918251600190603f9082828260121c16880101518453828282600c1c16880101518385015382828260061c16880101518885015316850101518782015301959291906151f3565b5060405161528f81613724565b600081529056fea26469706673582212209014e2261a10b70071131f83ba95946769f2204e965cc247e819df269605d6a364736f6c63430008130033",
  "devdoc": {
    "author": "Dhruv <contact.dhruvagarwal@gmail.com>",
    "events": {
      "AdminChanged(address,address)": {
        "details": "Emitted when the admin account has changed."
      },
      "Approval(address,address,uint256)": {
        "details": "Emitted when `owner` enables `approved` to manage the `tokenId` token."
      },
      "ApprovalForAll(address,address,bool)": {
        "details": "Emitted when `owner` enables or disables (`approved`) `operator` to manage all of its assets."
      },
      "BatchMetadataUpdate(uint256,uint256)": {
        "details": "This event emits when the metadata of a range of tokens is changed. So that the third-party platforms such as NFT market could timely update the images and related attributes of the NFTs."
      },
      "BeaconUpgraded(address)": {
        "details": "Emitted when the beacon is changed."
      },
      "Initialized(uint8)": {
        "details": "Triggered when the contract has been initialized or reinitialized."
      },
      "MetadataUpdate(uint256)": {
        "details": "This event emits when the metadata of a token is changed. So that the third-party platforms such as NFT market could timely update the images and related attributes of the NFT."
      },
      "Transfer(address,address,uint256)": {
        "details": "Emitted when `tokenId` token is transferred from `from` to `to`."
      },
      "Upgraded(address)": {
        "details": "Emitted when the implementation is upgraded."
      }
    },
    "kind": "dev",
    "methods": {
      "approve(address,uint256)": {
        "details": "See {IERC721-approve}."
      },
      "balanceOf(address)": {
        "details": "See {IERC721-balanceOf}."
      },
      "checkAllowlist(bytes32[],address)": {
        "details": "checks if the user if allowed to Mint from the allowlist",
        "params": {
          "proof": "proof for the verification",
          "user": "user address"
        },
        "returns": {
          "isAllowed": "if the user is allowed"
        }
      },
      "checkHandle(string)": {
        "details": "to check if the handle is eligible",
        "params": {
          "_username": "domain Name to mint"
        },
        "returns": {
          "isEligible": "if the username is eligible"
        }
      },
      "checkLensHandle(address)": {
        "details": "check if the user owns a lens handle",
        "params": {
          "user": "user address"
        },
        "returns": {
          "ownsLensHandle": "if the user owns any lens handle"
        }
      },
      "constructor": {
        "details": "Lock implementation contract"
      },
      "getApproved(uint256)": {
        "details": "See {IERC721-getApproved}."
      },
      "getNameRecord(string)": {
        "details": "get the name record",
        "params": {
          "_username": "domain Name to fetch for"
        },
        "returns": {
          "_0": "Record domain Name record"
        }
      },
      "getNameRecordFromAddress(address)": {
        "details": "get the name record from Address",
        "params": {
          "user": "domain Name to fetch for"
        },
        "returns": {
          "_0": "recordId domain Name record Id"
        }
      },
      "getPrice(string,address)": {
        "details": "to get the Price for minting a new domain",
        "params": {
          "_username": "domain Name to mint"
        },
        "returns": {
          "_0": "amount amount to be paid for minting"
        }
      },
      "initialize(string,address,bytes32,bytes32)": {
        "details": "The constructor sets NFT Implementation and the TLD",
        "params": {
          "_tld": "the domain name extension"
        }
      },
      "isApprovedForAll(address,address)": {
        "details": "See {IERC721-isApprovedForAll}."
      },
      "name()": {
        "details": "See {IERC721Metadata-name}."
      },
      "owner()": {
        "details": "Returns the address of the current owner."
      },
      "ownerOf(uint256)": {
        "details": "See {IERC721-ownerOf}."
      },
      "proxiableUUID()": {
        "details": "Implementation of the ERC1822 {proxiableUUID} function. This returns the storage slot used by the implementation. It is used to validate the implementation's compatibility when performing an upgrade. IMPORTANT: A proxy pointing at a proxiable contract should not be considered proxiable itself, because this risks bricking a proxy that upgrades to it, by delegating to itself until out of gas. Thus it is critical that this function revert if invoked through a proxy. This is guaranteed by the `notDelegated` modifier."
      },
      "registerOwlId(string,bytes32[],bytes32[])": {
        "details": "to get the Price for minting a new domain",
        "params": {
          "_username": "domain Name to mint"
        },
        "returns": {
          "recordID": "amount to be paid for minting"
        }
      },
      "renounceOwnership()": {
        "details": "Leaves the contract without owner. It will not be possible to call `onlyOwner` functions. Can only be called by the current owner. NOTE: Renouncing ownership will leave the contract without an owner, thereby disabling any functionality that is only available to the owner."
      },
      "safeTransferFrom(address,address,uint256)": {
        "details": "See {IERC721-safeTransferFrom}."
      },
      "safeTransferFrom(address,address,uint256,bytes)": {
        "details": "See {IERC721-safeTransferFrom}."
      },
      "setApprovalForAll(address,bool)": {
        "details": "See {IERC721-setApprovalForAll}."
      },
      "supportsInterface(bytes4)": {
        "details": "See {IERC165-supportsInterface}"
      },
      "switchIsAllowlistEnabled(bool)": {
        "details": "update the isAllowListEnabled to switch the Allowlist method on or Off",
        "params": {
          "_isAllowListEnabled": "The switch status : TRUE or FALSE"
        }
      },
      "switchIsBlackListEnabled(bool)": {
        "details": "update the isBlackListEnabled to switch the fees on or Off",
        "params": {
          "_isBlackListEnabled": "The switch status : TRUE or FALSE"
        }
      },
      "switchIsFeeEnabled(bool)": {
        "details": "update the isFeeEnabled to switch the fees on or Off",
        "params": {
          "_isFeeEnabled": "The switch status : TRUE or FALSE"
        }
      },
      "symbol()": {
        "details": "See {IERC721Metadata-symbol}."
      },
      "tokenURI(uint256)": {
        "details": "See {IERC721Metadata-tokenURI}."
      },
      "transferFrom(address,address,uint256)": {
        "details": "See {IERC721-transferFrom}."
      },
      "transferOwnership(address)": {
        "details": "Transfers ownership of the contract to a new account (`newOwner`). Can only be called by the current owner."
      },
      "updateAllowlistMerkleRoot(bytes32)": {
        "details": "update the allowlistMerkleRoot to add new addresses to the allowlist",
        "params": {
          "_allowListmerkleRoot": "The updated merkle Root"
        }
      },
      "updateBlacklistNameMerkleRoot(bytes32)": {
        "details": "update the blackListNameMerkleRoot to add new names to the blacklist",
        "params": {
          "_blackListNameMerkleRoot": "The updated merkle Root"
        }
      },
      "upgradeTo(address)": {
        "custom:oz-upgrades-unsafe-allow-reachable": "delegatecall",
        "details": "Upgrade the implementation of the proxy to `newImplementation`. Calls {_authorizeUpgrade}. Emits an {Upgraded} event."
      },
      "upgradeToAndCall(address,bytes)": {
        "custom:oz-upgrades-unsafe-allow-reachable": "delegatecall",
        "details": "Upgrade the implementation of the proxy to `newImplementation`, and subsequently execute the function call encoded in `data`. Calls {_authorizeUpgrade}. Emits an {Upgraded} event."
      },
      "withdraw()": {
        "details": "withdraw the funds collected"
      }
    },
    "title": "OwlearnID",
    "version": 1
  },
  "userdoc": {
    "kind": "user",
    "methods": {
      "registerOwlId(string,bytes32[],bytes32[])": {
        "notice": "Payable function to send the price for minting the domain"
      },
      "switchIsAllowlistEnabled(bool)": {
        "notice": "restricted only for the owner"
      },
      "switchIsBlackListEnabled(bool)": {
        "notice": "restricted only for the owner"
      },
      "switchIsFeeEnabled(bool)": {
        "notice": "restricted only for the owner"
      },
      "updateAllowlistMerkleRoot(bytes32)": {
        "notice": "restricted only for the owner"
      },
      "updateBlacklistNameMerkleRoot(bytes32)": {
        "notice": "restricted only for the owner"
      },
      "withdraw()": {
        "notice": "restricted only for the owner"
      }
    },
    "notice": "A namespace NFT contract that mints unique user handles.",
    "version": 1
  },
  "storageLayout": {
    "storage": [
      {
        "astId": 11058,
        "contract": "src/OwlearnId/OwlearnId.sol:OwlearnId",
        "label": "_initialized",
        "offset": 0,
        "slot": "0",
        "type": "t_uint8"
      },
      {
        "astId": 11061,
        "contract": "src/OwlearnId/OwlearnId.sol:OwlearnId",
        "label": "_initializing",
        "offset": 1,
        "slot": "0",
        "type": "t_bool"
      },
      {
        "astId": 14866,
        "contract": "src/OwlearnId/OwlearnId.sol:OwlearnId",
        "label": "__gap",
        "offset": 0,
        "slot": "1",
        "type": "t_array(t_uint256)50_storage"
      },
      {
        "astId": 15851,
        "contract": "src/OwlearnId/OwlearnId.sol:OwlearnId",
        "label": "__gap",
        "offset": 0,
        "slot": "51",
        "type": "t_array(t_uint256)50_storage"
      },
      {
        "astId": 13188,
        "contract": "src/OwlearnId/OwlearnId.sol:OwlearnId",
        "label": "_name",
        "offset": 0,
        "slot": "101",
        "type": "t_string_storage"
      },
      {
        "astId": 13190,
        "contract": "src/OwlearnId/OwlearnId.sol:OwlearnId",
        "label": "_symbol",
        "offset": 0,
        "slot": "102",
        "type": "t_string_storage"
      },
      {
        "astId": 13194,
        "contract": "src/OwlearnId/OwlearnId.sol:OwlearnId",
        "label": "_owners",
        "offset": 0,
        "slot": "103",
        "type": "t_mapping(t_uint256,t_address)"
      },
      {
        "astId": 13198,
        "contract": "src/OwlearnId/OwlearnId.sol:OwlearnId",
        "label": "_balances",
        "offset": 0,
        "slot": "104",
        "type": "t_mapping(t_address,t_uint256)"
      },
      {
        "astId": 13202,
        "contract": "src/OwlearnId/OwlearnId.sol:OwlearnId",
        "label": "_tokenApprovals",
        "offset": 0,
        "slot": "105",
        "type": "t_mapping(t_uint256,t_address)"
      },
      {
        "astId": 13208,
        "contract": "src/OwlearnId/OwlearnId.sol:OwlearnId",
        "label": "_operatorApprovals",
        "offset": 0,
        "slot": "106",
        "type": "t_mapping(t_address,t_mapping(t_address,t_bool))"
      },
      {
        "astId": 14110,
        "contract": "src/OwlearnId/OwlearnId.sol:OwlearnId",
        "label": "__gap",
        "offset": 0,
        "slot": "107",
        "type": "t_array(t_uint256)44_storage"
      },
      {
        "astId": 14276,
        "contract": "src/OwlearnId/OwlearnId.sol:OwlearnId",
        "label": "_tokenURIs",
        "offset": 0,
        "slot": "151",
        "type": "t_mapping(t_uint256,t_string_storage)"
      },
      {
        "astId": 14420,
        "contract": "src/OwlearnId/OwlearnId.sol:OwlearnId",
        "label": "__gap",
        "offset": 0,
        "slot": "152",
        "type": "t_array(t_uint256)49_storage"
      },
      {
        "astId": 10537,
        "contract": "src/OwlearnId/OwlearnId.sol:OwlearnId",
        "label": "_owner",
        "offset": 0,
        "slot": "201",
        "type": "t_address"
      },
      {
        "astId": 10657,
        "contract": "src/OwlearnId/OwlearnId.sol:OwlearnId",
        "label": "__gap",
        "offset": 0,
        "slot": "202",
        "type": "t_array(t_uint256)49_storage"
      },
      {
        "astId": 20550,
        "contract": "src/OwlearnId/OwlearnId.sol:OwlearnId",
        "label": "domainRecords",
        "offset": 0,
        "slot": "251",
        "type": "t_mapping(t_address,t_string_storage)"
      },
      {
        "astId": 20555,
        "contract": "src/OwlearnId/OwlearnId.sol:OwlearnId",
        "label": "domainNames",
        "offset": 0,
        "slot": "252",
        "type": "t_mapping(t_string_memory_ptr,t_struct(Record)20546_storage)"
      },
      {
        "astId": 20557,
        "contract": "src/OwlearnId/OwlearnId.sol:OwlearnId",
        "label": "tld",
        "offset": 0,
        "slot": "253",
        "type": "t_string_storage"
      },
      {
        "astId": 20560,
        "contract": "src/OwlearnId/OwlearnId.sol:OwlearnId",
        "label": "lensHub",
        "offset": 0,
        "slot": "254",
        "type": "t_contract(ILensHub)20646"
      },
      {
        "astId": 20562,
        "contract": "src/OwlearnId/OwlearnId.sol:OwlearnId",
        "label": "allowlistMerkleRoot",
        "offset": 0,
        "slot": "255",
        "type": "t_bytes32"
      },
      {
        "astId": 20564,
        "contract": "src/OwlearnId/OwlearnId.sol:OwlearnId",
        "label": "blackListNameMerkleRoot",
        "offset": 0,
        "slot": "256",
        "type": "t_bytes32"
      },
      {
        "astId": 20566,
        "contract": "src/OwlearnId/OwlearnId.sol:OwlearnId",
        "label": "_svgPartOne",
        "offset": 0,
        "slot": "257",
        "type": "t_string_storage"
      },
      {
        "astId": 20568,
        "contract": "src/OwlearnId/OwlearnId.sol:OwlearnId",
        "label": "_svgPartTwo",
        "offset": 0,
        "slot": "258",
        "type": "t_string_storage"
      },
      {
        "astId": 20570,
        "contract": "src/OwlearnId/OwlearnId.sol:OwlearnId",
        "label": "isFeeEnabled",
        "offset": 0,
        "slot": "259",
        "type": "t_bool"
      },
      {
        "astId": 20572,
        "contract": "src/OwlearnId/OwlearnId.sol:OwlearnId",
        "label": "isAllowListEnabled",
        "offset": 1,
        "slot": "259",
        "type": "t_bool"
      },
      {
        "astId": 20574,
        "contract": "src/OwlearnId/OwlearnId.sol:OwlearnId",
        "label": "isBlackListEnabled",
        "offset": 2,
        "slot": "259",
        "type": "t_bool"
      },
      {
        "astId": 20578,
        "contract": "src/OwlearnId/OwlearnId.sol:OwlearnId",
        "label": "__gap",
        "offset": 0,
        "slot": "260",
        "type": "t_array(t_uint256)50_storage"
      },
      {
        "astId": 11040,
        "contract": "src/OwlearnId/OwlearnId.sol:OwlearnId",
        "label": "__gap",
        "offset": 0,
        "slot": "310",
        "type": "t_array(t_uint256)50_storage"
      },
      {
        "astId": 11355,
        "contract": "src/OwlearnId/OwlearnId.sol:OwlearnId",
        "label": "__gap",
        "offset": 0,
        "slot": "360",
        "type": "t_array(t_uint256)50_storage"
      },
      {
        "astId": 19669,
        "contract": "src/OwlearnId/OwlearnId.sol:OwlearnId",
        "label": "_tokenIds",
        "offset": 0,
        "slot": "410",
        "type": "t_struct(Counter)14873_storage"
      }
    ],
    "types": {
      "t_address": {
        "encoding": "inplace",
        "label": "address",
        "numberOfBytes": "20"
      },
      "t_array(t_uint256)44_storage": {
        "base": "t_uint256",
        "encoding": "inplace",
        "label": "uint256[44]",
        "numberOfBytes": "1408"
      },
      "t_array(t_uint256)49_storage": {
        "base": "t_uint256",
        "encoding": "inplace",
        "label": "uint256[49]",
        "numberOfBytes": "1568"
      },
      "t_array(t_uint256)50_storage": {
        "base": "t_uint256",
        "encoding": "inplace",
        "label": "uint256[50]",
        "numberOfBytes": "1600"
      },
      "t_bool": {
        "encoding": "inplace",
        "label": "bool",
        "numberOfBytes": "1"
      },
      "t_bytes32": {
        "encoding": "inplace",
        "label": "bytes32",
        "numberOfBytes": "32"
      },
      "t_contract(ILensHub)20646": {
        "encoding": "inplace",
        "label": "contract ILensHub",
        "numberOfBytes": "20"
      },
      "t_mapping(t_address,t_bool)": {
        "encoding": "mapping",
        "key": "t_address",
        "label": "mapping(address => bool)",
        "numberOfBytes": "32",
        "value": "t_bool"
      },
      "t_mapping(t_address,t_mapping(t_address,t_bool))": {
        "encoding": "mapping",
        "key": "t_address",
        "label": "mapping(address => mapping(address => bool))",
        "numberOfBytes": "32",
        "value": "t_mapping(t_address,t_bool)"
      },
      "t_mapping(t_address,t_string_storage)": {
        "encoding": "mapping",
        "key": "t_address",
        "label": "mapping(address => string)",
        "numberOfBytes": "32",
        "value": "t_string_storage"
      },
      "t_mapping(t_address,t_uint256)": {
        "encoding": "mapping",
        "key": "t_address",
        "label": "mapping(address => uint256)",
        "numberOfBytes": "32",
        "value": "t_uint256"
      },
      "t_mapping(t_string_memory_ptr,t_struct(Record)20546_storage)": {
        "encoding": "mapping",
        "key": "t_string_memory_ptr",
        "label": "mapping(string => struct OwlearnIdStorage.Record)",
        "numberOfBytes": "32",
        "value": "t_struct(Record)20546_storage"
      },
      "t_mapping(t_uint256,t_address)": {
        "encoding": "mapping",
        "key": "t_uint256",
        "label": "mapping(uint256 => address)",
        "numberOfBytes": "32",
        "value": "t_address"
      },
      "t_mapping(t_uint256,t_string_storage)": {
        "encoding": "mapping",
        "key": "t_uint256",
        "label": "mapping(uint256 => string)",
        "numberOfBytes": "32",
        "value": "t_string_storage"
      },
      "t_string_memory_ptr": {
        "encoding": "bytes",
        "label": "string",
        "numberOfBytes": "32"
      },
      "t_string_storage": {
        "encoding": "bytes",
        "label": "string",
        "numberOfBytes": "32"
      },
      "t_struct(Counter)14873_storage": {
        "encoding": "inplace",
        "label": "struct CountersUpgradeable.Counter",
        "members": [
          {
            "astId": 14872,
            "contract": "src/OwlearnId/OwlearnId.sol:OwlearnId",
            "label": "_value",
            "offset": 0,
            "slot": "0",
            "type": "t_uint256"
          }
        ],
        "numberOfBytes": "32"
      },
      "t_struct(Record)20546_storage": {
        "encoding": "inplace",
        "label": "struct OwlearnIdStorage.Record",
        "members": [
          {
            "astId": 20541,
            "contract": "src/OwlearnId/OwlearnId.sol:OwlearnId",
            "label": "domain",
            "offset": 0,
            "slot": "0",
            "type": "t_string_storage"
          },
          {
            "astId": 20543,
            "contract": "src/OwlearnId/OwlearnId.sol:OwlearnId",
            "label": "user",
            "offset": 0,
            "slot": "1",
            "type": "t_address"
          },
          {
            "astId": 20545,
            "contract": "src/OwlearnId/OwlearnId.sol:OwlearnId",
            "label": "tokenId",
            "offset": 0,
            "slot": "2",
            "type": "t_uint256"
          }
        ],
        "numberOfBytes": "96"
      },
      "t_uint256": {
        "encoding": "inplace",
        "label": "uint256",
        "numberOfBytes": "32"
      },
      "t_uint8": {
        "encoding": "inplace",
        "label": "uint8",
        "numberOfBytes": "1"
      }
    }
  }
}