{
  "address": "0x15490C19BD78A4E9A24FbB88c6B9fA82e00893e3",
  "abi": [
    {
      "inputs": [],
      "stateMutability": "nonpayable",
      "type": "constructor"
    },
    {
      "anonymous": false,
      "inputs": [
        {
          "indexed": false,
          "internalType": "address",
          "name": "previousAdmin",
          "type": "address"
        },
        {
          "indexed": false,
          "internalType": "address",
          "name": "newAdmin",
          "type": "address"
        }
      ],
      "name": "AdminChanged",
      "type": "event"
    },
    {
      "anonymous": false,
      "inputs": [
        {
          "indexed": true,
          "internalType": "address",
          "name": "owner",
          "type": "address"
        },
        {
          "indexed": true,
          "internalType": "address",
          "name": "approved",
          "type": "address"
        },
        {
          "indexed": true,
          "internalType": "uint256",
          "name": "tokenId",
          "type": "uint256"
        }
      ],
      "name": "Approval",
      "type": "event"
    },
    {
      "anonymous": false,
      "inputs": [
        {
          "indexed": true,
          "internalType": "address",
          "name": "owner",
          "type": "address"
        },
        {
          "indexed": true,
          "internalType": "address",
          "name": "operator",
          "type": "address"
        },
        {
          "indexed": false,
          "internalType": "bool",
          "name": "approved",
          "type": "bool"
        }
      ],
      "name": "ApprovalForAll",
      "type": "event"
    },
    {
      "anonymous": false,
      "inputs": [
        {
          "indexed": true,
          "internalType": "address",
          "name": "beacon",
          "type": "address"
        }
      ],
      "name": "BeaconUpgraded",
      "type": "event"
    },
    {
      "anonymous": false,
      "inputs": [
        {
          "indexed": false,
          "internalType": "uint8",
          "name": "version",
          "type": "uint8"
        }
      ],
      "name": "Initialized",
      "type": "event"
    },
    {
      "anonymous": false,
      "inputs": [
        {
          "indexed": true,
          "internalType": "address",
          "name": "previousOwner",
          "type": "address"
        },
        {
          "indexed": true,
          "internalType": "address",
          "name": "newOwner",
          "type": "address"
        }
      ],
      "name": "OwnershipTransferred",
      "type": "event"
    },
    {
      "anonymous": false,
      "inputs": [
        {
          "indexed": true,
          "internalType": "address",
          "name": "from",
          "type": "address"
        },
        {
          "indexed": true,
          "internalType": "address",
          "name": "to",
          "type": "address"
        },
        {
          "indexed": true,
          "internalType": "uint256",
          "name": "tokenId",
          "type": "uint256"
        }
      ],
      "name": "Transfer",
      "type": "event"
    },
    {
      "anonymous": false,
      "inputs": [
        {
          "indexed": true,
          "internalType": "address",
          "name": "implementation",
          "type": "address"
        }
      ],
      "name": "Upgraded",
      "type": "event"
    },
    {
      "inputs": [
        {
          "internalType": "address",
          "name": "to",
          "type": "address"
        },
        {
          "internalType": "uint256",
          "name": "tokenId",
          "type": "uint256"
        }
      ],
      "name": "approve",
      "outputs": [],
      "stateMutability": "nonpayable",
      "type": "function"
    },
    {
      "inputs": [
        {
          "internalType": "address",
          "name": "owner",
          "type": "address"
        }
      ],
      "name": "balanceOf",
      "outputs": [
        {
          "internalType": "uint256",
          "name": "",
          "type": "uint256"
        }
      ],
      "stateMutability": "view",
      "type": "function"
    },
    {
      "inputs": [],
      "name": "baseURI",
      "outputs": [
        {
          "internalType": "string",
          "name": "",
          "type": "string"
        }
      ],
      "stateMutability": "view",
      "type": "function"
    },
    {
      "inputs": [
        {
          "internalType": "uint256",
          "name": "tokenId",
          "type": "uint256"
        }
      ],
      "name": "burn",
      "outputs": [],
      "stateMutability": "nonpayable",
      "type": "function"
    },
    {
      "inputs": [
        {
          "internalType": "uint256",
          "name": "tokenId",
          "type": "uint256"
        }
      ],
      "name": "getApproved",
      "outputs": [
        {
          "internalType": "address",
          "name": "",
          "type": "address"
        }
      ],
      "stateMutability": "view",
      "type": "function"
    },
    {
      "inputs": [
        {
          "internalType": "string",
          "name": "courseCertificateName",
          "type": "string"
        },
        {
          "internalType": "string",
          "name": "courseCertificateSymbol",
          "type": "string"
        },
        {
          "internalType": "string",
          "name": "certificateBaseURI",
          "type": "string"
        },
        {
          "internalType": "address",
          "name": "courseCreator",
          "type": "address"
        }
      ],
      "name": "initialize",
      "outputs": [],
      "stateMutability": "payable",
      "type": "function"
    },
    {
      "inputs": [
        {
          "internalType": "address",
          "name": "owner",
          "type": "address"
        },
        {
          "internalType": "address",
          "name": "operator",
          "type": "address"
        }
      ],
      "name": "isApprovedForAll",
      "outputs": [
        {
          "internalType": "bool",
          "name": "",
          "type": "bool"
        }
      ],
      "stateMutability": "view",
      "type": "function"
    },
    {
      "inputs": [],
      "name": "manager",
      "outputs": [
        {
          "internalType": "address",
          "name": "",
          "type": "address"
        }
      ],
      "stateMutability": "view",
      "type": "function"
    },
    {
      "inputs": [],
      "name": "name",
      "outputs": [
        {
          "internalType": "string",
          "name": "",
          "type": "string"
        }
      ],
      "stateMutability": "view",
      "type": "function"
    },
    {
      "inputs": [],
      "name": "owner",
      "outputs": [
        {
          "internalType": "address",
          "name": "",
          "type": "address"
        }
      ],
      "stateMutability": "view",
      "type": "function"
    },
    {
      "inputs": [
        {
          "internalType": "uint256",
          "name": "tokenId",
          "type": "uint256"
        }
      ],
      "name": "ownerOf",
      "outputs": [
        {
          "internalType": "address",
          "name": "",
          "type": "address"
        }
      ],
      "stateMutability": "view",
      "type": "function"
    },
    {
      "inputs": [],
      "name": "proxiableUUID",
      "outputs": [
        {
          "internalType": "bytes32",
          "name": "",
          "type": "bytes32"
        }
      ],
      "stateMutability": "view",
      "type": "function"
    },
    {
      "inputs": [],
      "name": "renounceOwnership",
      "outputs": [],
      "stateMutability": "nonpayable",
      "type": "function"
    },
    {
      "inputs": [
        {
          "internalType": "uint256",
          "name": "tokenId",
          "type": "uint256"
        }
      ],
      "name": "revoke",
      "outputs": [],
      "stateMutability": "nonpayable",
      "type": "function"
    },
    {
      "inputs": [
        {
          "internalType": "address",
          "name": "to",
          "type": "address"
        }
      ],
      "name": "safeMint",
      "outputs": [
        {
          "internalType": "uint256",
          "name": "",
          "type": "uint256"
        }
      ],
      "stateMutability": "nonpayable",
      "type": "function"
    },
    {
      "inputs": [
        {
          "internalType": "address",
          "name": "from",
          "type": "address"
        },
        {
          "internalType": "address",
          "name": "to",
          "type": "address"
        },
        {
          "internalType": "uint256",
          "name": "tokenId",
          "type": "uint256"
        }
      ],
      "name": "safeTransferFrom",
      "outputs": [],
      "stateMutability": "nonpayable",
      "type": "function"
    },
    {
      "inputs": [
        {
          "internalType": "address",
          "name": "from",
          "type": "address"
        },
        {
          "internalType": "address",
          "name": "to",
          "type": "address"
        },
        {
          "internalType": "uint256",
          "name": "tokenId",
          "type": "uint256"
        },
        {
          "internalType": "bytes",
          "name": "data",
          "type": "bytes"
        }
      ],
      "name": "safeTransferFrom",
      "outputs": [],
      "stateMutability": "nonpayable",
      "type": "function"
    },
    {
      "inputs": [
        {
          "internalType": "address",
          "name": "operator",
          "type": "address"
        },
        {
          "internalType": "bool",
          "name": "approved",
          "type": "bool"
        }
      ],
      "name": "setApprovalForAll",
      "outputs": [],
      "stateMutability": "nonpayable",
      "type": "function"
    },
    {
      "inputs": [
        {
          "internalType": "string",
          "name": "newURI",
          "type": "string"
        }
      ],
      "name": "setBaseURI",
      "outputs": [],
      "stateMutability": "nonpayable",
      "type": "function"
    },
    {
      "inputs": [
        {
          "internalType": "bytes4",
          "name": "interfaceId",
          "type": "bytes4"
        }
      ],
      "name": "supportsInterface",
      "outputs": [
        {
          "internalType": "bool",
          "name": "",
          "type": "bool"
        }
      ],
      "stateMutability": "view",
      "type": "function"
    },
    {
      "inputs": [],
      "name": "symbol",
      "outputs": [
        {
          "internalType": "string",
          "name": "",
          "type": "string"
        }
      ],
      "stateMutability": "view",
      "type": "function"
    },
    {
      "inputs": [
        {
          "internalType": "uint256",
          "name": "tokenId",
          "type": "uint256"
        }
      ],
      "name": "tokenURI",
      "outputs": [
        {
          "internalType": "string",
          "name": "",
          "type": "string"
        }
      ],
      "stateMutability": "view",
      "type": "function"
    },
    {
      "inputs": [
        {
          "internalType": "address",
          "name": "from",
          "type": "address"
        },
        {
          "internalType": "address",
          "name": "to",
          "type": "address"
        },
        {
          "internalType": "uint256",
          "name": "tokenId",
          "type": "uint256"
        }
      ],
      "name": "transferFrom",
      "outputs": [],
      "stateMutability": "nonpayable",
      "type": "function"
    },
    {
      "inputs": [
        {
          "internalType": "address",
          "name": "newOwner",
          "type": "address"
        }
      ],
      "name": "transferOwnership",
      "outputs": [],
      "stateMutability": "nonpayable",
      "type": "function"
    },
    {
      "inputs": [
        {
          "internalType": "address",
          "name": "newImplementation",
          "type": "address"
        }
      ],
      "name": "upgradeTo",
      "outputs": [],
      "stateMutability": "nonpayable",
      "type": "function"
    },
    {
      "inputs": [
        {
          "internalType": "address",
          "name": "newImplementation",
          "type": "address"
        },
        {
          "internalType": "bytes",
          "name": "data",
          "type": "bytes"
        }
      ],
      "name": "upgradeToAndCall",
      "outputs": [],
      "stateMutability": "payable",
      "type": "function"
    }
  ],
  "transactionHash": "0xc9dd7fab1e886d40e12e99e7905bc9c5a7ed004e4819889b24892e34bb88b735",
  "args": [],
  "numDeployments": 1,
  "solcInputHash": "5e1d42fca518fa5135f6b1c2e32a0005",
  "bytecode": "0x60a06040523060805234801561001457600080fd5b506080516128f261004c60003960008181610828015281816108ad01528181610ab001528181610b350152610c1f01526128f26000f3fe6080604052600436106101a15760003560e01c806355f804b3116100e15780638da5cb5b1161008a578063b88d4fde11610064578063b88d4fde1461045d578063c87b56dd1461047d578063e985e9c51461049d578063f2fde38b146104e657600080fd5b80638da5cb5b1461040a57806395d89b4114610428578063a22cb4651461043d57600080fd5b80636c0360eb116100bb5780636c0360eb146103c057806370a08231146103d5578063715018a6146103f557600080fd5b806355f804b31461036d5780635c6d8da11461038d5780636352211e146103a057600080fd5b80633659cfe61161014e57806342966c681161012857806342966c6814610305578063481c6a75146103255780634f1ef2861461034557806352d1902d1461035857600080fd5b80633659cfe61461029757806340d097c3146102b757806342842e0e146102e557600080fd5b8063095ea7b31161017f578063095ea7b31461023557806320c5429b1461025757806323b872dd1461027757600080fd5b806301ffc9a7146101a657806306fdde03146101db578063081812fc146101fd575b600080fd5b3480156101b257600080fd5b506101c66101c13660046122d3565b610506565b60405190151581526020015b60405180910390f35b3480156101e757600080fd5b506101f06105a3565b6040516101d29190612340565b34801561020957600080fd5b5061021d610218366004612353565b610635565b6040516001600160a01b0390911681526020016101d2565b34801561024157600080fd5b50610255610250366004612383565b61065c565b005b34801561026357600080fd5b50610255610272366004612353565b610792565b34801561028357600080fd5b506102556102923660046123ad565b6107a6565b3480156102a357600080fd5b506102556102b23660046123e9565b61081e565b3480156102c357600080fd5b506102d76102d23660046123e9565b610996565b6040519081526020016101d2565b3480156102f157600080fd5b506102556103003660046123ad565b610a20565b34801561031157600080fd5b50610255610320366004612353565b610a3b565b34801561033157600080fd5b5060cb5461021d906001600160a01b031681565b6102556103533660046124a7565b610aa6565b34801561036457600080fd5b506102d7610c12565b34801561037957600080fd5b506102556103883660046124f5565b610cd7565b61025561039b36600461252a565b610ceb565b3480156103ac57600080fd5b5061021d6103bb366004612353565b610e41565b3480156103cc57600080fd5b506101f0610ea6565b3480156103e157600080fd5b506102d76103f03660046123e9565b610f34565b34801561040157600080fd5b50610255610fce565b34801561041657600080fd5b506097546001600160a01b031661021d565b34801561043457600080fd5b506101f0610fe2565b34801561044957600080fd5b506102556104583660046125c3565b610ff1565b34801561046957600080fd5b506102556104783660046125ff565b610ffc565b34801561048957600080fd5b506101f0610498366004612353565b61107a565b3480156104a957600080fd5b506101c66104b8366004612667565b6001600160a01b039182166000908152606a6020908152604080832093909416825291909152205460ff1690565b3480156104f257600080fd5b506102556105013660046123e9565b6110e1565b60006001600160e01b031982167f80ac58cd00000000000000000000000000000000000000000000000000000000148061056957506001600160e01b031982167f5b5e139f00000000000000000000000000000000000000000000000000000000145b8061059d57507f01ffc9a7000000000000000000000000000000000000000000000000000000006001600160e01b03198316145b92915050565b6060606580546105b29061269a565b80601f01602080910402602001604051908101604052809291908181526020018280546105de9061269a565b801561062b5780601f106106005761010080835404028352916020019161062b565b820191906000526020600020905b81548152906001019060200180831161060e57829003601f168201915b5050505050905090565b60006106408261116e565b506000908152606960205260409020546001600160a01b031690565b600061066782610e41565b9050806001600160a01b0316836001600160a01b0316036106f55760405162461bcd60e51b815260206004820152602160248201527f4552433732313a20617070726f76616c20746f2063757272656e74206f776e6560448201527f720000000000000000000000000000000000000000000000000000000000000060648201526084015b60405180910390fd5b336001600160a01b0382161480610711575061071181336104b8565b6107835760405162461bcd60e51b815260206004820152603d60248201527f4552433732313a20617070726f76652063616c6c6572206973206e6f7420746f60448201527f6b656e206f776e6572206f7220617070726f76656420666f7220616c6c00000060648201526084016106ec565b61078d83836111d2565b505050565b61079a611240565b6107a38161129a565b50565b6107b1335b8261133d565b6108135760405162461bcd60e51b815260206004820152602d60248201527f4552433732313a2063616c6c6572206973206e6f7420746f6b656e206f776e6560448201526c1c881bdc88185c1c1c9bdd9959609a1b60648201526084016106ec565b61078d8383836113bc565b6001600160a01b037f00000000000000000000000000000000000000000000000000000000000000001630036108ab5760405162461bcd60e51b815260206004820152602c60248201527f46756e6374696f6e206d7573742062652063616c6c6564207468726f7567682060448201526b19195b1959d85d1958d85b1b60a21b60648201526084016106ec565b7f00000000000000000000000000000000000000000000000000000000000000006001600160a01b03166109067f360894a13ba1a3210667c828492db98dca3e2076cc3735a920a3ca505d382bbc546001600160a01b031690565b6001600160a01b0316146109715760405162461bcd60e51b815260206004820152602c60248201527f46756e6374696f6e206d7573742062652063616c6c6564207468726f7567682060448201526b6163746976652070726f787960a01b60648201526084016106ec565b61097a816115c2565b604080516000808252602082019092526107a3918391906115ca565b60cb546000906001600160a01b031633146109f35760405162461bcd60e51b815260206004820152601760248201527f4f4e4c59204d414e4147455220415554484f524953454400000000000000000060448201526064016106ec565b610a0160c980546001019055565b6000610a0c60c95490565b9050610a18838261176a565b90505b919050565b61078d83838360405180602001604052806000815250610ffc565b610a44336107ab565b61079a5760405162461bcd60e51b815260206004820152602d60248201527f4552433732313a2063616c6c6572206973206e6f7420746f6b656e206f776e6560448201526c1c881bdc88185c1c1c9bdd9959609a1b60648201526084016106ec565b6001600160a01b037f0000000000000000000000000000000000000000000000000000000000000000163003610b335760405162461bcd60e51b815260206004820152602c60248201527f46756e6374696f6e206d7573742062652063616c6c6564207468726f7567682060448201526b19195b1959d85d1958d85b1b60a21b60648201526084016106ec565b7f00000000000000000000000000000000000000000000000000000000000000006001600160a01b0316610b8e7f360894a13ba1a3210667c828492db98dca3e2076cc3735a920a3ca505d382bbc546001600160a01b031690565b6001600160a01b031614610bf95760405162461bcd60e51b815260206004820152602c60248201527f46756e6374696f6e206d7573742062652063616c6c6564207468726f7567682060448201526b6163746976652070726f787960a01b60648201526084016106ec565b610c02826115c2565b610c0e828260016115ca565b5050565b6000306001600160a01b037f00000000000000000000000000000000000000000000000000000000000000001614610cb25760405162461bcd60e51b815260206004820152603860248201527f555550535570677261646561626c653a206d757374206e6f742062652063616c60448201527f6c6564207468726f7567682064656c656761746563616c6c000000000000000060648201526084016106ec565b507f360894a13ba1a3210667c828492db98dca3e2076cc3735a920a3ca505d382bbc90565b610cdf611240565b60ca610c0e8282612722565b600054610100900460ff1615808015610d0b5750600054600160ff909116105b80610d255750303b158015610d25575060005460ff166001145b610d975760405162461bcd60e51b815260206004820152602e60248201527f496e697469616c697a61626c653a20636f6e747261637420697320616c72656160448201527f647920696e697469616c697a656400000000000000000000000000000000000060648201526084016106ec565b6000805460ff191660011790558015610dba576000805461ff0019166101001790555b610dc48585611784565b610dcc6117f9565b60ca610dd88482612722565b5060cb80546001600160a01b03191633179055610df48261186c565b8015610e3a576000805461ff0019169055604051600181527f7f26b83ff96e1f2b6a682f133852f6798a09c465da95921460cefb38474024989060200160405180910390a15b5050505050565b6000818152606760205260408120546001600160a01b031680610a185760405162461bcd60e51b815260206004820152601860248201527f4552433732313a20696e76616c696420746f6b656e204944000000000000000060448201526064016106ec565b60ca8054610eb39061269a565b80601f0160208091040260200160405190810160405280929190818152602001828054610edf9061269a565b8015610f2c5780601f10610f0157610100808354040283529160200191610f2c565b820191906000526020600020905b815481529060010190602001808311610f0f57829003601f168201915b505050505081565b60006001600160a01b038216610fb25760405162461bcd60e51b815260206004820152602960248201527f4552433732313a2061646472657373207a65726f206973206e6f74206120766160448201527f6c6964206f776e6572000000000000000000000000000000000000000000000060648201526084016106ec565b506001600160a01b031660009081526068602052604090205490565b610fd6611240565b610fe0600061186c565b565b6060606680546105b29061269a565b610c0e3383836118be565b611006338361133d565b6110685760405162461bcd60e51b815260206004820152602d60248201527f4552433732313a2063616c6c6572206973206e6f7420746f6b656e206f776e6560448201526c1c881bdc88185c1c1c9bdd9959609a1b60648201526084016106ec565b6110748484848461198c565b50505050565b60606110858261116e565b600061108f611a0a565b905060008151116110af57604051806020016040528060008152506110da565b806110b984611a19565b6040516020016110ca9291906127e2565b6040516020818303038152906040525b9392505050565b6110e9611240565b6001600160a01b0381166111655760405162461bcd60e51b815260206004820152602660248201527f4f776e61626c653a206e6577206f776e657220697320746865207a65726f206160448201527f646472657373000000000000000000000000000000000000000000000000000060648201526084016106ec565b6107a38161186c565b6000818152606760205260409020546001600160a01b03166107a35760405162461bcd60e51b815260206004820152601860248201527f4552433732313a20696e76616c696420746f6b656e204944000000000000000060448201526064016106ec565b600081815260696020526040902080546001600160a01b0319166001600160a01b038416908117909155819061120782610e41565b6001600160a01b03167f8c5be1e5ebec7d5bd14f71427d1e84f3dd0314c0f7b2291e5b200ac8c7c3b92560405160405180910390a45050565b6097546001600160a01b03163314610fe05760405162461bcd60e51b815260206004820181905260248201527f4f776e61626c653a2063616c6c6572206973206e6f7420746865206f776e657260448201526064016106ec565b60006112a582610e41565b90506112b5816000846001611ab9565b6112be82610e41565b600083815260696020908152604080832080546001600160a01b03199081169091556001600160a01b0385168085526068845282852080546000190190558785526067909352818420805490911690555192935084927fddf252ad1be2c89b69c2b068fc378daa952ba7f163c4a11628f55a4df523b3ef908390a45050565b60008061134983610e41565b9050806001600160a01b0316846001600160a01b0316148061139057506001600160a01b038082166000908152606a602090815260408083209388168352929052205460ff165b806113b45750836001600160a01b03166113a984610635565b6001600160a01b0316145b949350505050565b826001600160a01b03166113cf82610e41565b6001600160a01b0316146114335760405162461bcd60e51b815260206004820152602560248201527f4552433732313a207472616e736665722066726f6d20696e636f72726563742060448201526437bbb732b960d91b60648201526084016106ec565b6001600160a01b0382166114ae5760405162461bcd60e51b8152602060048201526024808201527f4552433732313a207472616e7366657220746f20746865207a65726f2061646460448201527f726573730000000000000000000000000000000000000000000000000000000060648201526084016106ec565b6114bb8383836001611ab9565b826001600160a01b03166114ce82610e41565b6001600160a01b0316146115325760405162461bcd60e51b815260206004820152602560248201527f4552433732313a207472616e736665722066726f6d20696e636f72726563742060448201526437bbb732b960d91b60648201526084016106ec565b600081815260696020908152604080832080546001600160a01b03199081169091556001600160a01b0387811680865260688552838620805460001901905590871680865283862080546001019055868652606790945282852080549092168417909155905184937fddf252ad1be2c89b69c2b068fc378daa952ba7f163c4a11628f55a4df523b3ef91a4505050565b6107a3611240565b7f4910fdfa16fed3260ed0e7147f7cc6da11a60208b5b9406d12a635614ffd91435460ff16156115fd5761078d83611b22565b826001600160a01b03166352d1902d6040518163ffffffff1660e01b8152600401602060405180830381865afa925050508015611657575060408051601f3d908101601f1916820190925261165491810190612811565b60015b6116c95760405162461bcd60e51b815260206004820152602e60248201527f45524331393637557067726164653a206e657720696d706c656d656e7461746960448201527f6f6e206973206e6f74205555505300000000000000000000000000000000000060648201526084016106ec565b7f360894a13ba1a3210667c828492db98dca3e2076cc3735a920a3ca505d382bbc811461175e5760405162461bcd60e51b815260206004820152602960248201527f45524331393637557067726164653a20756e737570706f727465642070726f7860448201527f6961626c6555554944000000000000000000000000000000000000000000000060648201526084016106ec565b5061078d838383611be0565b610c0e828260405180602001604052806000815250611c05565b600054610100900460ff166117ef5760405162461bcd60e51b815260206004820152602b60248201527f496e697469616c697a61626c653a20636f6e7472616374206973206e6f74206960448201526a6e697469616c697a696e6760a81b60648201526084016106ec565b610c0e8282611c83565b600054610100900460ff166118645760405162461bcd60e51b815260206004820152602b60248201527f496e697469616c697a61626c653a20636f6e7472616374206973206e6f74206960448201526a6e697469616c697a696e6760a81b60648201526084016106ec565b610fe0611d07565b609780546001600160a01b038381166001600160a01b0319831681179093556040519116919082907f8be0079c531659141344cd1fd0a4f28419497f9722a3daafe3b4186f6b6457e090600090a35050565b816001600160a01b0316836001600160a01b03160361191f5760405162461bcd60e51b815260206004820152601960248201527f4552433732313a20617070726f766520746f2063616c6c65720000000000000060448201526064016106ec565b6001600160a01b038381166000818152606a6020908152604080832094871680845294825291829020805460ff191686151590811790915591519182527f17307eab39ab6107e8899845ad3d59bd9653f200f220920489ca2b5937696c31910160405180910390a3505050565b6119978484846113bc565b6119a384848484611d7b565b6110745760405162461bcd60e51b815260206004820152603260248201527f4552433732313a207472616e7366657220746f206e6f6e20455243373231526560448201527131b2b4bb32b91034b6b83632b6b2b73a32b960711b60648201526084016106ec565b606060ca80546105b29061269a565b60606000611a2683611ec7565b600101905060008167ffffffffffffffff811115611a4657611a46612404565b6040519080825280601f01601f191660200182016040528015611a70576020820181803683370190505b5090508181016020015b600019017f3031323334353637383961626364656600000000000000000000000000000000600a86061a8153600a8504945084611a7a57509392505050565b6001600160a01b0383161580611ad657506001600160a01b038416155b6110745760405162461bcd60e51b815260206004820152601c60248201527f546865204e4654206973206e6f6e207472616e736665727261626c650000000060448201526064016106ec565b6001600160a01b0381163b611b9f5760405162461bcd60e51b815260206004820152602d60248201527f455243313936373a206e657720696d706c656d656e746174696f6e206973206e60448201527f6f74206120636f6e74726163740000000000000000000000000000000000000060648201526084016106ec565b7f360894a13ba1a3210667c828492db98dca3e2076cc3735a920a3ca505d382bbc80546001600160a01b0319166001600160a01b0392909216919091179055565b611be983611fa9565b600082511180611bf65750805b1561078d576110748383611fe9565b611c0f838361200e565b611c1c6000848484611d7b565b61078d5760405162461bcd60e51b815260206004820152603260248201527f4552433732313a207472616e7366657220746f206e6f6e20455243373231526560448201527131b2b4bb32b91034b6b83632b6b2b73a32b960711b60648201526084016106ec565b600054610100900460ff16611cee5760405162461bcd60e51b815260206004820152602b60248201527f496e697469616c697a61626c653a20636f6e7472616374206973206e6f74206960448201526a6e697469616c697a696e6760a81b60648201526084016106ec565b6065611cfa8382612722565b50606661078d8282612722565b600054610100900460ff16611d725760405162461bcd60e51b815260206004820152602b60248201527f496e697469616c697a61626c653a20636f6e7472616374206973206e6f74206960448201526a6e697469616c697a696e6760a81b60648201526084016106ec565b610fe03361186c565b60006001600160a01b0384163b15611ebc57604051630a85bd0160e11b81526001600160a01b0385169063150b7a0290611dbf90339089908890889060040161282a565b6020604051808303816000875af1925050508015611dfa575060408051601f3d908101601f19168201909252611df79181019061285c565b60015b611ea2573d808015611e28576040519150601f19603f3d011682016040523d82523d6000602084013e611e2d565b606091505b508051600003611e9a5760405162461bcd60e51b815260206004820152603260248201527f4552433732313a207472616e7366657220746f206e6f6e20455243373231526560448201527131b2b4bb32b91034b6b83632b6b2b73a32b960711b60648201526084016106ec565b805181602001fd5b6001600160e01b031916630a85bd0160e11b1490506113b4565b506001949350505050565b6000807a184f03e93ff9f4daa797ed6e38ed64bf6a1f0100000000000000008310611f10577a184f03e93ff9f4daa797ed6e38ed64bf6a1f010000000000000000830492506040015b6d04ee2d6d415b85acef81000000008310611f3c576d04ee2d6d415b85acef8100000000830492506020015b662386f26fc100008310611f5a57662386f26fc10000830492506010015b6305f5e1008310611f72576305f5e100830492506008015b6127108310611f8657612710830492506004015b60648310611f98576064830492506002015b600a8310610a185760010192915050565b611fb281611b22565b6040516001600160a01b038216907fbc7cd75a20ee27fd9adebab32041f755214dbc6bffa90cc0225b39da2e5c2d3b90600090a250565b60606110da8383604051806060016040528060278152602001612896602791396121a7565b6001600160a01b0382166120645760405162461bcd60e51b815260206004820181905260248201527f4552433732313a206d696e7420746f20746865207a65726f206164647265737360448201526064016106ec565b6000818152606760205260409020546001600160a01b0316156120c95760405162461bcd60e51b815260206004820152601c60248201527f4552433732313a20746f6b656e20616c7265616479206d696e7465640000000060448201526064016106ec565b6120d7600083836001611ab9565b6000818152606760205260409020546001600160a01b03161561213c5760405162461bcd60e51b815260206004820152601c60248201527f4552433732313a20746f6b656e20616c7265616479206d696e7465640000000060448201526064016106ec565b6001600160a01b038216600081815260686020908152604080832080546001019055848352606790915280822080546001600160a01b0319168417905551839291907fddf252ad1be2c89b69c2b068fc378daa952ba7f163c4a11628f55a4df523b3ef908290a45050565b6060600080856001600160a01b0316856040516121c49190612879565b600060405180830381855af49150503d80600081146121ff576040519150601f19603f3d011682016040523d82523d6000602084013e612204565b606091505b50915091506122158683838761221f565b9695505050505050565b6060831561228e578251600003612287576001600160a01b0385163b6122875760405162461bcd60e51b815260206004820152601d60248201527f416464726573733a2063616c6c20746f206e6f6e2d636f6e747261637400000060448201526064016106ec565b50816113b4565b6113b483838151156122a35781518083602001fd5b8060405162461bcd60e51b81526004016106ec9190612340565b6001600160e01b0319811681146107a357600080fd5b6000602082840312156122e557600080fd5b81356110da816122bd565b60005b8381101561230b5781810151838201526020016122f3565b50506000910152565b6000815180845261232c8160208601602086016122f0565b601f01601f19169290920160200192915050565b6020815260006110da6020830184612314565b60006020828403121561236557600080fd5b5035919050565b80356001600160a01b0381168114610a1b57600080fd5b6000806040838503121561239657600080fd5b61239f8361236c565b946020939093013593505050565b6000806000606084860312156123c257600080fd5b6123cb8461236c565b92506123d96020850161236c565b9150604084013590509250925092565b6000602082840312156123fb57600080fd5b6110da8261236c565b634e487b7160e01b600052604160045260246000fd5b600082601f83011261242b57600080fd5b813567ffffffffffffffff8082111561244657612446612404565b604051601f8301601f19908116603f0116810190828211818310171561246e5761246e612404565b8160405283815286602085880101111561248757600080fd5b836020870160208301376000602085830101528094505050505092915050565b600080604083850312156124ba57600080fd5b6124c38361236c565b9150602083013567ffffffffffffffff8111156124df57600080fd5b6124eb8582860161241a565b9150509250929050565b60006020828403121561250757600080fd5b813567ffffffffffffffff81111561251e57600080fd5b6113b48482850161241a565b6000806000806080858703121561254057600080fd5b843567ffffffffffffffff8082111561255857600080fd5b6125648883890161241a565b9550602087013591508082111561257a57600080fd5b6125868883890161241a565b9450604087013591508082111561259c57600080fd5b506125a98782880161241a565b9250506125b86060860161236c565b905092959194509250565b600080604083850312156125d657600080fd5b6125df8361236c565b9150602083013580151581146125f457600080fd5b809150509250929050565b6000806000806080858703121561261557600080fd5b61261e8561236c565b935061262c6020860161236c565b925060408501359150606085013567ffffffffffffffff81111561264f57600080fd5b61265b8782880161241a565b91505092959194509250565b6000806040838503121561267a57600080fd5b6126838361236c565b91506126916020840161236c565b90509250929050565b600181811c908216806126ae57607f821691505b6020821081036126ce57634e487b7160e01b600052602260045260246000fd5b50919050565b601f82111561078d57600081815260208120601f850160051c810160208610156126fb5750805b601f850160051c820191505b8181101561271a57828155600101612707565b505050505050565b815167ffffffffffffffff81111561273c5761273c612404565b6127508161274a845461269a565b846126d4565b602080601f831160018114612785576000841561276d5750858301515b600019600386901b1c1916600185901b17855561271a565b600085815260208120601f198616915b828110156127b457888601518255948401946001909101908401612795565b50858210156127d25787850151600019600388901b60f8161c191681555b5050505050600190811b01905550565b600083516127f48184602088016122f0565b8351908301906128088183602088016122f0565b01949350505050565b60006020828403121561282357600080fd5b5051919050565b60006001600160a01b038087168352808616602084015250836040830152608060608301526122156080830184612314565b60006020828403121561286e57600080fd5b81516110da816122bd565b6000825161288b8184602087016122f0565b919091019291505056fe416464726573733a206c6f772d6c6576656c2064656c65676174652063616c6c206661696c6564a2646970667358221220ab50ca895986c0089ac3d375f22c6ecb1d4efca83cf262b036849eb02a74a02164736f6c63430008130033",
  "devdoc": {
    "author": "Dhruv <contact.dhruvagarwal@gmail.com>",
    "events": {
      "AdminChanged(address,address)": {
        "details": "Emitted when the admin account has changed."
      },
      "Approval(address,address,uint256)": {
        "details": "Emitted when `owner` enables `approved` to manage the `tokenId` token."
      },
      "ApprovalForAll(address,address,bool)": {
        "details": "Emitted when `owner` enables or disables (`approved`) `operator` to manage all of its assets."
      },
      "BeaconUpgraded(address)": {
        "details": "Emitted when the beacon is changed."
      },
      "Initialized(uint8)": {
        "details": "Triggered when the contract has been initialized or reinitialized."
      },
      "Transfer(address,address,uint256)": {
        "details": "Emitted when `tokenId` token is transferred from `from` to `to`."
      },
      "Upgraded(address)": {
        "details": "Emitted when the implementation is upgraded."
      }
    },
    "kind": "dev",
    "methods": {
      "approve(address,uint256)": {
        "details": "See {IERC721-approve}."
      },
      "balanceOf(address)": {
        "details": "See {IERC721-balanceOf}."
      },
      "burn(uint256)": {
        "details": "burn an NFT",
        "params": {
          "tokenId": "tokenID to be minted"
        }
      },
      "constructor": {
        "details": "Lock implementation contract"
      },
      "getApproved(uint256)": {
        "details": "See {IERC721-getApproved}."
      },
      "initialize(string,string,string,address)": {
        "details": "Intialise the Course Certificate Contracts",
        "params": {
          "certificateBaseURI": "NFT URI , dynamic , off-chain server link , fetching progree & certificates for a Course Learner",
          "courseCertificateName": "Name of the Course Certificate, will also be the name of NFT Collection",
          "courseCertificateSymbol": "Symbol of the Course Certificate, will be the symbol of NFT Collection",
          "courseCreator": "creator of the Course , who will also control the Collection"
        }
      },
      "isApprovedForAll(address,address)": {
        "details": "See {IERC721-isApprovedForAll}."
      },
      "name()": {
        "details": "See {IERC721Metadata-name}."
      },
      "owner()": {
        "details": "Returns the address of the current owner."
      },
      "ownerOf(uint256)": {
        "details": "See {IERC721-ownerOf}."
      },
      "proxiableUUID()": {
        "details": "Implementation of the ERC1822 {proxiableUUID} function. This returns the storage slot used by the implementation. It is used to validate the implementation's compatibility when performing an upgrade. IMPORTANT: A proxy pointing at a proxiable contract should not be considered proxiable itself, because this risks bricking a proxy that upgrades to it, by delegating to itself until out of gas. Thus it is critical that this function revert if invoked through a proxy. This is guaranteed by the `notDelegated` modifier."
      },
      "renounceOwnership()": {
        "details": "Leaves the contract without owner. It will not be possible to call `onlyOwner` functions. Can only be called by the current owner. NOTE: Renouncing ownership will leave the contract without an owner, thereby disabling any functionality that is only available to the owner."
      },
      "revoke(uint256)": {
        "details": "Revoke a Certificate NFT , in Case of issues",
        "params": {
          "tokenId": "tokenID to be minted"
        }
      },
      "safeMint(address)": {
        "details": "Safe Mint a Certificate to a learnerAnother restrictions could be added like a fees Minted by a manager , or need to be whitelisted restricted to manager for now , as the safeMint will be called from the OwlearnCourse.sol",
        "params": {
          "to": "Address to which NFT is to be minted"
        }
      },
      "safeTransferFrom(address,address,uint256)": {
        "details": "See {IERC721-safeTransferFrom}."
      },
      "safeTransferFrom(address,address,uint256,bytes)": {
        "details": "See {IERC721-safeTransferFrom}."
      },
      "setApprovalForAll(address,bool)": {
        "details": "See {IERC721-setApprovalForAll}."
      },
      "setBaseURI(string)": {
        "details": "Set a base URI for the NFT collection if needed",
        "params": {
          "newURI": "New Base URI to be set"
        }
      },
      "supportsInterface(bytes4)": {
        "details": "See {IERC165-supportsInterface}."
      },
      "symbol()": {
        "details": "See {IERC721Metadata-symbol}."
      },
      "tokenURI(uint256)": {
        "details": "See {IERC721Metadata-tokenURI}."
      },
      "transferFrom(address,address,uint256)": {
        "details": "See {IERC721-transferFrom}."
      },
      "transferOwnership(address)": {
        "details": "Transfers ownership of the contract to a new account (`newOwner`). Can only be called by the current owner."
      },
      "upgradeTo(address)": {
        "custom:oz-upgrades-unsafe-allow-reachable": "delegatecall",
        "details": "Upgrade the implementation of the proxy to `newImplementation`. Calls {_authorizeUpgrade}. Emits an {Upgraded} event."
      },
      "upgradeToAndCall(address,bytes)": {
        "custom:oz-upgrades-unsafe-allow-reachable": "delegatecall",
        "details": "Upgrade the implementation of the proxy to `newImplementation`, and subsequently execute the function call encoded in `data`. Calls {_authorizeUpgrade}. Emits an {Upgraded} event."
      }
    },
    "title": "OwlearnCourseCertificates",
    "version": 1
  },
  "userdoc": {
    "kind": "user",
    "methods": {},
    "notice": "ERC721 NFT Contract responsible for course certificates with Dynamic URI",
    "version": 1
  },
  "storageLayout": {
    "storage": [
      {
        "astId": 11058,
        "contract": "src/OwlearnCourse/Certificates/OwlearnCourseCertificates.sol:OwlearnCourseCertificates",
        "label": "_initialized",
        "offset": 0,
        "slot": "0",
        "type": "t_uint8"
      },
      {
        "astId": 11061,
        "contract": "src/OwlearnCourse/Certificates/OwlearnCourseCertificates.sol:OwlearnCourseCertificates",
        "label": "_initializing",
        "offset": 1,
        "slot": "0",
        "type": "t_bool"
      },
      {
        "astId": 14866,
        "contract": "src/OwlearnCourse/Certificates/OwlearnCourseCertificates.sol:OwlearnCourseCertificates",
        "label": "__gap",
        "offset": 0,
        "slot": "1",
        "type": "t_array(t_uint256)50_storage"
      },
      {
        "astId": 15323,
        "contract": "src/OwlearnCourse/Certificates/OwlearnCourseCertificates.sol:OwlearnCourseCertificates",
        "label": "__gap",
        "offset": 0,
        "slot": "51",
        "type": "t_array(t_uint256)50_storage"
      },
      {
        "astId": 13188,
        "contract": "src/OwlearnCourse/Certificates/OwlearnCourseCertificates.sol:OwlearnCourseCertificates",
        "label": "_name",
        "offset": 0,
        "slot": "101",
        "type": "t_string_storage"
      },
      {
        "astId": 13190,
        "contract": "src/OwlearnCourse/Certificates/OwlearnCourseCertificates.sol:OwlearnCourseCertificates",
        "label": "_symbol",
        "offset": 0,
        "slot": "102",
        "type": "t_string_storage"
      },
      {
        "astId": 13194,
        "contract": "src/OwlearnCourse/Certificates/OwlearnCourseCertificates.sol:OwlearnCourseCertificates",
        "label": "_owners",
        "offset": 0,
        "slot": "103",
        "type": "t_mapping(t_uint256,t_address)"
      },
      {
        "astId": 13198,
        "contract": "src/OwlearnCourse/Certificates/OwlearnCourseCertificates.sol:OwlearnCourseCertificates",
        "label": "_balances",
        "offset": 0,
        "slot": "104",
        "type": "t_mapping(t_address,t_uint256)"
      },
      {
        "astId": 13202,
        "contract": "src/OwlearnCourse/Certificates/OwlearnCourseCertificates.sol:OwlearnCourseCertificates",
        "label": "_tokenApprovals",
        "offset": 0,
        "slot": "105",
        "type": "t_mapping(t_uint256,t_address)"
      },
      {
        "astId": 13208,
        "contract": "src/OwlearnCourse/Certificates/OwlearnCourseCertificates.sol:OwlearnCourseCertificates",
        "label": "_operatorApprovals",
        "offset": 0,
        "slot": "106",
        "type": "t_mapping(t_address,t_mapping(t_address,t_bool))"
      },
      {
        "astId": 14110,
        "contract": "src/OwlearnCourse/Certificates/OwlearnCourseCertificates.sol:OwlearnCourseCertificates",
        "label": "__gap",
        "offset": 0,
        "slot": "107",
        "type": "t_array(t_uint256)44_storage"
      },
      {
        "astId": 10537,
        "contract": "src/OwlearnCourse/Certificates/OwlearnCourseCertificates.sol:OwlearnCourseCertificates",
        "label": "_owner",
        "offset": 0,
        "slot": "151",
        "type": "t_address"
      },
      {
        "astId": 10657,
        "contract": "src/OwlearnCourse/Certificates/OwlearnCourseCertificates.sol:OwlearnCourseCertificates",
        "label": "__gap",
        "offset": 0,
        "slot": "152",
        "type": "t_array(t_uint256)49_storage"
      },
      {
        "astId": 21966,
        "contract": "src/OwlearnCourse/Certificates/OwlearnCourseCertificates.sol:OwlearnCourseCertificates",
        "label": "_tokenIdCounter",
        "offset": 0,
        "slot": "201",
        "type": "t_struct(Counter)14873_storage"
      },
      {
        "astId": 21968,
        "contract": "src/OwlearnCourse/Certificates/OwlearnCourseCertificates.sol:OwlearnCourseCertificates",
        "label": "baseURI",
        "offset": 0,
        "slot": "202",
        "type": "t_string_storage"
      },
      {
        "astId": 21970,
        "contract": "src/OwlearnCourse/Certificates/OwlearnCourseCertificates.sol:OwlearnCourseCertificates",
        "label": "manager",
        "offset": 0,
        "slot": "203",
        "type": "t_address"
      },
      {
        "astId": 21974,
        "contract": "src/OwlearnCourse/Certificates/OwlearnCourseCertificates.sol:OwlearnCourseCertificates",
        "label": "__gap",
        "offset": 0,
        "slot": "204",
        "type": "t_array(t_uint256)50_storage"
      },
      {
        "astId": 11040,
        "contract": "src/OwlearnCourse/Certificates/OwlearnCourseCertificates.sol:OwlearnCourseCertificates",
        "label": "__gap",
        "offset": 0,
        "slot": "254",
        "type": "t_array(t_uint256)50_storage"
      },
      {
        "astId": 11355,
        "contract": "src/OwlearnCourse/Certificates/OwlearnCourseCertificates.sol:OwlearnCourseCertificates",
        "label": "__gap",
        "offset": 0,
        "slot": "304",
        "type": "t_array(t_uint256)50_storage"
      }
    ],
    "types": {
      "t_address": {
        "encoding": "inplace",
        "label": "address",
        "numberOfBytes": "20"
      },
      "t_array(t_uint256)44_storage": {
        "base": "t_uint256",
        "encoding": "inplace",
        "label": "uint256[44]",
        "numberOfBytes": "1408"
      },
      "t_array(t_uint256)49_storage": {
        "base": "t_uint256",
        "encoding": "inplace",
        "label": "uint256[49]",
        "numberOfBytes": "1568"
      },
      "t_array(t_uint256)50_storage": {
        "base": "t_uint256",
        "encoding": "inplace",
        "label": "uint256[50]",
        "numberOfBytes": "1600"
      },
      "t_bool": {
        "encoding": "inplace",
        "label": "bool",
        "numberOfBytes": "1"
      },
      "t_mapping(t_address,t_bool)": {
        "encoding": "mapping",
        "key": "t_address",
        "label": "mapping(address => bool)",
        "numberOfBytes": "32",
        "value": "t_bool"
      },
      "t_mapping(t_address,t_mapping(t_address,t_bool))": {
        "encoding": "mapping",
        "key": "t_address",
        "label": "mapping(address => mapping(address => bool))",
        "numberOfBytes": "32",
        "value": "t_mapping(t_address,t_bool)"
      },
      "t_mapping(t_address,t_uint256)": {
        "encoding": "mapping",
        "key": "t_address",
        "label": "mapping(address => uint256)",
        "numberOfBytes": "32",
        "value": "t_uint256"
      },
      "t_mapping(t_uint256,t_address)": {
        "encoding": "mapping",
        "key": "t_uint256",
        "label": "mapping(uint256 => address)",
        "numberOfBytes": "32",
        "value": "t_address"
      },
      "t_string_storage": {
        "encoding": "bytes",
        "label": "string",
        "numberOfBytes": "32"
      },
      "t_struct(Counter)14873_storage": {
        "encoding": "inplace",
        "label": "struct CountersUpgradeable.Counter",
        "members": [
          {
            "astId": 14872,
            "contract": "src/OwlearnCourse/Certificates/OwlearnCourseCertificates.sol:OwlearnCourseCertificates",
            "label": "_value",
            "offset": 0,
            "slot": "0",
            "type": "t_uint256"
          }
        ],
        "numberOfBytes": "32"
      },
      "t_uint256": {
        "encoding": "inplace",
        "label": "uint256",
        "numberOfBytes": "32"
      },
      "t_uint8": {
        "encoding": "inplace",
        "label": "uint8",
        "numberOfBytes": "1"
      }
    }
  }
}