{
  "address": "0xB26dfA3f1F78083aAbc9B4e07A659CE25BDf8135",
  "abi": [
    {
      "inputs": [],
      "stateMutability": "nonpayable",
      "type": "constructor"
    },
    {
      "anonymous": false,
      "inputs": [
        {
          "indexed": false,
          "internalType": "address",
          "name": "previousAdmin",
          "type": "address"
        },
        {
          "indexed": false,
          "internalType": "address",
          "name": "newAdmin",
          "type": "address"
        }
      ],
      "name": "AdminChanged",
      "type": "event"
    },
    {
      "anonymous": false,
      "inputs": [
        {
          "indexed": true,
          "internalType": "address",
          "name": "account",
          "type": "address"
        },
        {
          "indexed": true,
          "internalType": "address",
          "name": "operator",
          "type": "address"
        },
        {
          "indexed": false,
          "internalType": "bool",
          "name": "approved",
          "type": "bool"
        }
      ],
      "name": "ApprovalForAll",
      "type": "event"
    },
    {
      "anonymous": false,
      "inputs": [
        {
          "indexed": true,
          "internalType": "address",
          "name": "beacon",
          "type": "address"
        }
      ],
      "name": "BeaconUpgraded",
      "type": "event"
    },
    {
      "anonymous": false,
      "inputs": [
        {
          "indexed": false,
          "internalType": "address",
          "name": "educator",
          "type": "address"
        },
        {
          "indexed": false,
          "internalType": "uint256",
          "name": "creatorId",
          "type": "uint256"
        }
      ],
      "name": "EducatorRegistered",
      "type": "event"
    },
    {
      "anonymous": false,
      "inputs": [
        {
          "indexed": false,
          "internalType": "uint8",
          "name": "version",
          "type": "uint8"
        }
      ],
      "name": "Initialized",
      "type": "event"
    },
    {
      "anonymous": false,
      "inputs": [
        {
          "indexed": true,
          "internalType": "address",
          "name": "previousOwner",
          "type": "address"
        },
        {
          "indexed": true,
          "internalType": "address",
          "name": "newOwner",
          "type": "address"
        }
      ],
      "name": "OwnershipTransferred",
      "type": "event"
    },
    {
      "anonymous": false,
      "inputs": [
        {
          "indexed": true,
          "internalType": "address",
          "name": "operator",
          "type": "address"
        },
        {
          "indexed": true,
          "internalType": "address",
          "name": "from",
          "type": "address"
        },
        {
          "indexed": true,
          "internalType": "address",
          "name": "to",
          "type": "address"
        },
        {
          "indexed": false,
          "internalType": "uint256[]",
          "name": "ids",
          "type": "uint256[]"
        },
        {
          "indexed": false,
          "internalType": "uint256[]",
          "name": "values",
          "type": "uint256[]"
        }
      ],
      "name": "TransferBatch",
      "type": "event"
    },
    {
      "anonymous": false,
      "inputs": [
        {
          "indexed": true,
          "internalType": "address",
          "name": "operator",
          "type": "address"
        },
        {
          "indexed": true,
          "internalType": "address",
          "name": "from",
          "type": "address"
        },
        {
          "indexed": true,
          "internalType": "address",
          "name": "to",
          "type": "address"
        },
        {
          "indexed": false,
          "internalType": "uint256",
          "name": "id",
          "type": "uint256"
        },
        {
          "indexed": false,
          "internalType": "uint256",
          "name": "value",
          "type": "uint256"
        }
      ],
      "name": "TransferSingle",
      "type": "event"
    },
    {
      "anonymous": false,
      "inputs": [
        {
          "indexed": false,
          "internalType": "string",
          "name": "value",
          "type": "string"
        },
        {
          "indexed": true,
          "internalType": "uint256",
          "name": "id",
          "type": "uint256"
        }
      ],
      "name": "URI",
      "type": "event"
    },
    {
      "anonymous": false,
      "inputs": [
        {
          "indexed": true,
          "internalType": "address",
          "name": "implementation",
          "type": "address"
        }
      ],
      "name": "Upgraded",
      "type": "event"
    },
    {
      "inputs": [
        {
          "internalType": "address",
          "name": "account",
          "type": "address"
        },
        {
          "internalType": "uint256",
          "name": "id",
          "type": "uint256"
        }
      ],
      "name": "balanceOf",
      "outputs": [
        {
          "internalType": "uint256",
          "name": "",
          "type": "uint256"
        }
      ],
      "stateMutability": "view",
      "type": "function"
    },
    {
      "inputs": [
        {
          "internalType": "address[]",
          "name": "accounts",
          "type": "address[]"
        },
        {
          "internalType": "uint256[]",
          "name": "ids",
          "type": "uint256[]"
        }
      ],
      "name": "balanceOfBatch",
      "outputs": [
        {
          "internalType": "uint256[]",
          "name": "",
          "type": "uint256[]"
        }
      ],
      "stateMutability": "view",
      "type": "function"
    },
    {
      "inputs": [
        {
          "internalType": "address",
          "name": "account",
          "type": "address"
        },
        {
          "internalType": "uint256",
          "name": "id",
          "type": "uint256"
        },
        {
          "internalType": "uint256",
          "name": "value",
          "type": "uint256"
        }
      ],
      "name": "burn",
      "outputs": [],
      "stateMutability": "nonpayable",
      "type": "function"
    },
    {
      "inputs": [
        {
          "internalType": "address",
          "name": "account",
          "type": "address"
        },
        {
          "internalType": "uint256[]",
          "name": "ids",
          "type": "uint256[]"
        },
        {
          "internalType": "uint256[]",
          "name": "values",
          "type": "uint256[]"
        }
      ],
      "name": "burnBatch",
      "outputs": [],
      "stateMutability": "nonpayable",
      "type": "function"
    },
    {
      "inputs": [
        {
          "internalType": "address",
          "name": "",
          "type": "address"
        }
      ],
      "name": "creatorIdByAddress",
      "outputs": [
        {
          "internalType": "uint256",
          "name": "",
          "type": "uint256"
        }
      ],
      "stateMutability": "view",
      "type": "function"
    },
    {
      "inputs": [
        {
          "internalType": "uint256",
          "name": "id",
          "type": "uint256"
        }
      ],
      "name": "exists",
      "outputs": [
        {
          "internalType": "bool",
          "name": "",
          "type": "bool"
        }
      ],
      "stateMutability": "view",
      "type": "function"
    },
    {
      "inputs": [
        {
          "internalType": "string",
          "name": "token0URI",
          "type": "string"
        },
        {
          "internalType": "address",
          "name": "owlIdAddress",
          "type": "address"
        }
      ],
      "name": "initialize",
      "outputs": [],
      "stateMutability": "nonpayable",
      "type": "function"
    },
    {
      "inputs": [
        {
          "internalType": "address",
          "name": "account",
          "type": "address"
        },
        {
          "internalType": "address",
          "name": "operator",
          "type": "address"
        }
      ],
      "name": "isApprovedForAll",
      "outputs": [
        {
          "internalType": "bool",
          "name": "",
          "type": "bool"
        }
      ],
      "stateMutability": "view",
      "type": "function"
    },
    {
      "inputs": [
        {
          "internalType": "address",
          "name": "account",
          "type": "address"
        },
        {
          "internalType": "uint256",
          "name": "tokenId",
          "type": "uint256"
        }
      ],
      "name": "mintEducatorBadges",
      "outputs": [],
      "stateMutability": "nonpayable",
      "type": "function"
    },
    {
      "inputs": [],
      "name": "owlearnId",
      "outputs": [
        {
          "internalType": "contract OwlearnId",
          "name": "",
          "type": "address"
        }
      ],
      "stateMutability": "view",
      "type": "function"
    },
    {
      "inputs": [],
      "name": "owner",
      "outputs": [
        {
          "internalType": "address",
          "name": "",
          "type": "address"
        }
      ],
      "stateMutability": "view",
      "type": "function"
    },
    {
      "inputs": [],
      "name": "proxiableUUID",
      "outputs": [
        {
          "internalType": "bytes32",
          "name": "",
          "type": "bytes32"
        }
      ],
      "stateMutability": "view",
      "type": "function"
    },
    {
      "inputs": [
        {
          "internalType": "uint256",
          "name": "owlId",
          "type": "uint256"
        }
      ],
      "name": "registerAsEducator",
      "outputs": [],
      "stateMutability": "nonpayable",
      "type": "function"
    },
    {
      "inputs": [],
      "name": "renounceOwnership",
      "outputs": [],
      "stateMutability": "nonpayable",
      "type": "function"
    },
    {
      "inputs": [
        {
          "internalType": "address",
          "name": "from",
          "type": "address"
        },
        {
          "internalType": "address",
          "name": "to",
          "type": "address"
        },
        {
          "internalType": "uint256[]",
          "name": "ids",
          "type": "uint256[]"
        },
        {
          "internalType": "uint256[]",
          "name": "amounts",
          "type": "uint256[]"
        },
        {
          "internalType": "bytes",
          "name": "data",
          "type": "bytes"
        }
      ],
      "name": "safeBatchTransferFrom",
      "outputs": [],
      "stateMutability": "nonpayable",
      "type": "function"
    },
    {
      "inputs": [
        {
          "internalType": "address",
          "name": "from",
          "type": "address"
        },
        {
          "internalType": "address",
          "name": "to",
          "type": "address"
        },
        {
          "internalType": "uint256",
          "name": "id",
          "type": "uint256"
        },
        {
          "internalType": "uint256",
          "name": "amount",
          "type": "uint256"
        },
        {
          "internalType": "bytes",
          "name": "data",
          "type": "bytes"
        }
      ],
      "name": "safeTransferFrom",
      "outputs": [],
      "stateMutability": "nonpayable",
      "type": "function"
    },
    {
      "inputs": [
        {
          "internalType": "address",
          "name": "operator",
          "type": "address"
        },
        {
          "internalType": "bool",
          "name": "approved",
          "type": "bool"
        }
      ],
      "name": "setApprovalForAll",
      "outputs": [],
      "stateMutability": "nonpayable",
      "type": "function"
    },
    {
      "inputs": [
        {
          "internalType": "uint256",
          "name": "tokenId",
          "type": "uint256"
        },
        {
          "internalType": "string",
          "name": "tokenURI",
          "type": "string"
        }
      ],
      "name": "setURI",
      "outputs": [],
      "stateMutability": "nonpayable",
      "type": "function"
    },
    {
      "inputs": [
        {
          "internalType": "bytes4",
          "name": "interfaceId",
          "type": "bytes4"
        }
      ],
      "name": "supportsInterface",
      "outputs": [
        {
          "internalType": "bool",
          "name": "",
          "type": "bool"
        }
      ],
      "stateMutability": "view",
      "type": "function"
    },
    {
      "inputs": [
        {
          "internalType": "uint256",
          "name": "id",
          "type": "uint256"
        }
      ],
      "name": "totalSupply",
      "outputs": [
        {
          "internalType": "uint256",
          "name": "",
          "type": "uint256"
        }
      ],
      "stateMutability": "view",
      "type": "function"
    },
    {
      "inputs": [
        {
          "internalType": "address",
          "name": "newOwner",
          "type": "address"
        }
      ],
      "name": "transferOwnership",
      "outputs": [],
      "stateMutability": "nonpayable",
      "type": "function"
    },
    {
      "inputs": [
        {
          "internalType": "contract OwlearnId",
          "name": "owlearnIdNew",
          "type": "address"
        }
      ],
      "name": "updateOwlearnId",
      "outputs": [],
      "stateMutability": "nonpayable",
      "type": "function"
    },
    {
      "inputs": [
        {
          "internalType": "address",
          "name": "newImplementation",
          "type": "address"
        }
      ],
      "name": "upgradeTo",
      "outputs": [],
      "stateMutability": "nonpayable",
      "type": "function"
    },
    {
      "inputs": [
        {
          "internalType": "address",
          "name": "newImplementation",
          "type": "address"
        },
        {
          "internalType": "bytes",
          "name": "data",
          "type": "bytes"
        }
      ],
      "name": "upgradeToAndCall",
      "outputs": [],
      "stateMutability": "payable",
      "type": "function"
    },
    {
      "inputs": [
        {
          "internalType": "uint256",
          "name": "tokenId",
          "type": "uint256"
        }
      ],
      "name": "uri",
      "outputs": [
        {
          "internalType": "string",
          "name": "",
          "type": "string"
        }
      ],
      "stateMutability": "view",
      "type": "function"
    }
  ],
  "numDeployments": 6,
  "solcInputHash": "a2496cbb5711e7192c16f35b24945071",
  "bytecode": "0x60a080604052346100315730608052613141908161003782396080518181816117e8015281816119120152611d5b0152f35b600080fdfe6080604052600436101561001257600080fd5b60003560e01c8062fdd58e1461255457806301ffc9a7146124e65780630e89341c146124c757806318296e55146122e35780632eb2c2d614611f055780633659cfe614611d355780634e1273f414611b925780634f1ef286146118d25780634f558e79146118a357806352d1902d146117cd5780636b20c45414611560578063715018a61461150c5780637899675d146114e45780637ab4339d14610e07578063862440e214610c3c5780638da5cb5b14610c15578063a22cb46514610b31578063a4642fa214610af6578063b7f4cca014610aa6578063bd85b03914610a79578063e985e9c514610a22578063ecd501b2146107e4578063f242432a146103e7578063f2fde38b1461035a5763f5298aca1461012e57600080fd5b3461035557606036600319011261035557610147612583565b602490813560446001600160a01b038135931691338314801561032c575b61016e90612a45565b82159261017b8415612d0e565b61018482612ce9565b9161018e86612ce9565b94600060405161019d816125f7565b526102d1575b60005b8351811015610252576101b98185612a31565b516101c48288612a31565b51908060005261012d6020818152604060002054928484106101fe57906101f9959493929160005252036040600020556129ff565b6101a6565b506084907f455243313135353a206275726e20616d6f756e74206578636565647320746f748a60288f6040519462461bcd60e51b8652600486015284015282015267616c537570706c7960c01b6064820152fd5b600083838981845260976020526040842083855260205280604085205461027b82821015612d66565b83865260976020526040862085875260205203604085205560405191825260208201527fc3d58168c5ae7397731d063d5bbf3d657854427343f4c083240f7aacaa2d0f6260403392a46102cf6040516125f7565b005b949195929060005b875181101561032157806102f061031c9288612a31565b516102fb828b612a31565b5160005261012d6020526103156040600020918254612b61565b90556129ff565b6102d9565b5090929591946101a3565b5082600052609860205260406000203360005260205261016e60ff604060002054169050610165565b600080fd5b3461035557602036600319011261035557610373612583565b61037b61277a565b6001600160a01b03811615610393576102cf906127d2565b60405162461bcd60e51b815260206004820152602660248201527f4f776e61626c653a206e6577206f776e657220697320746865207a65726f206160448201526564647265737360d01b6064820152608490fd5b346103555760a036600319011261035557610400612583565b610408612599565b906084803567ffffffffffffffff81116103555761042a9036906004016126ff565b906001600160a01b0391338385161480156107b9575b61044990612a45565b828516156104578115612aa8565b610462604435612ce9565b61046d606435612ce9565b9185871615610779575b6106b7575b505060443560005260209460978652604060002084861660005286526040600020546104ac606435821015612b02565b60443560005260978752604060002085871660005287526064359003604060002055604435600052609786526040600020848216600052865260406000206104f76064358254612b61565b905560405160443581526064358782015284821690858716907fc3d58168c5ae7397731d063d5bbf3d657854427343f4c083240f7aacaa2d0f6260403392a4803b61053e57005b60a06000610588958895604051978896879586938563f23a6e6160e01b9d8e87523360048801521660248601526044356044860152606435606486015284015260a48301906125d2565b0393165af160009181610688575b5061065e5750506001906105a8612c5c565b6308c379a014610629575b506105ba57005b60405162461bcd60e51b815260206004820152603460248201527f455243313135353a207472616e7366657220746f206e6f6e2d4552433131353560448201527f526563656976657220696d706c656d656e7465720000000000000000000000006064820152608490fd5b0390fd5b610631612c7a565b908161063d57506105b3565b61062560405192839262461bcd60e51b8452600484015260248301906125d2565b6001600160e01b0319161490506102cf5760405162461bcd60e51b81528061062560048201612c13565b6106a9919250843d86116106b0575b6106a1818361264b565b810190612bf3565b9084610596565b503d610697565b92959194909360005b845181101561076a576106d38186612a31565b51906106df8188612a31565b518260005261012d602052604060002054818110610715576107109360005261012d602052036040600020556129ff565b6106c0565b60405162461bcd60e51b815260206004820152602860248201527f455243313135353a206275726e20616d6f756e74206578636565647320746f74604482015267616c537570706c7960c01b60648201528b90fd5b5093509390949150858061047c565b959260009794919592975b86518110156107ab578061079b6107a6928b612a31565b516102fb828a612a31565b610784565b509295969194909396610477565b50828416600052609860205260406000203360005260205261044960ff604060002054169050610440565b34610355576040366003190112610355576107fd612583565b60243561080861277a565b60405190610815826125f7565b600082526001600160a01b0383169182156109d35761083382612ce9565b92604051946108418661262f565b600180958188526020978836818301378261085b82612a0e565b526000835b61098d575b50505050836000526097865260406000208260005286526040600020805490868201809211610977575581600060405186815287898201527fc3d58168c5ae7397731d063d5bbf3d657854427343f4c083240f7aacaa2d0f6260403392a43b6108ca57005b61090f859160009360405194858094819363f23a6e6160e01b998a845233600485015284602485015260448401528a606484015260a0608484015260a48301906125d2565b03925af160009181610958575b5061092c575050906105a8612c5c565b6001600160e01b0319161491506102cf90505760405162461bcd60e51b81528061062560048201612c13565b610970919250853d87116106b0576106a1818361264b565b908561091c565b634e487b7160e01b600052601160045260246000fd5b82518110156109ce57806109a46109c89284612a31565b516109af8286612a31565b5160005261012d8c526103156040600020918254612b61565b83610860565b610865565b60405162461bcd60e51b815260206004820152602160248201527f455243313135353a206d696e7420746f20746865207a65726f206164647265736044820152607360f81b6064820152608490fd5b3461035557604036600319011261035557610a3b612583565b610a43612599565b906001600160a01b03809116600052609860205260406000209116600052602052602060ff604060002054166040519015158152f35b346103555760203660031901126103555760043560005261012d6020526020604060002054604051908152f35b34610355576020366003190112610355576004356001600160a01b03811680910361035557610ad361277a565b6101c3805473ffffffffffffffffffffffffffffffffffffffff19169091179055005b34610355576020366003190112610355576001600160a01b03610b17612583565b166000526101c46020526020604060002054604051908152f35b3461035557604036600319011261035557610b4a612583565b60243590811515809203610355576001600160a01b031690813314610bbe57336000526098602052604060002082600052602052604060002060ff1981541660ff83161790556040519081527f17307eab39ab6107e8899845ad3d59bd9653f200f220920489ca2b5937696c3160203392a3005b60405162461bcd60e51b815260206004820152602960248201527f455243313135353a2073657474696e6720617070726f76616c20737461747573604482015268103337b91039b2b63360b91b6064820152608490fd5b346103555760003660031901126103555760206001600160a01b0360335416604051908152f35b346103555760403660031901126103555767ffffffffffffffff60043560243582811161035557610c719036906004016126ff565b91610c7a61277a565b8160005260209060ca82526040600020908451908111610df157610c9e8254612e93565b601f8111610dab575b5082601f8211600114610d245781907f6bb7ff708619ba0610cba295a58592e0451dee2622938c8755667688daf3529b9596600092610d19575b50508160011b916000199060031b1c19161790555b610cff83612ecd565b90610d146040519282849384528301906125d2565b0390a2005b015190508680610ce1565b601f1982169583600052846000209660005b818110610d945750917f6bb7ff708619ba0610cba295a58592e0451dee2622938c8755667688daf3529b969791846001959410610d7b575b505050811b019055610cf6565b015160001960f88460031b161c19169055868080610d6e565b838301518955600190980197928601928601610d36565b8260005283600020601f830160051c810191858410610de7575b601f0160051c01905b818110610ddb5750610ca7565b60008155600101610dce565b9091508190610dc5565b634e487b7160e01b600052604160045260246000fd5b346103555760403660031901126103555760043567ffffffffffffffff811161035557610e389036906004016126ff565b610e40612599565b9060005460ff8160081c1615908180926114d7575b80156114c0575b156114645760ff19811660011760005581611452575b50610e8d60ff60005460081c16610e8881612e33565b612e33565b610e96336127d2565b60405192610ea38461262f565b60048452631395531360e21b6020850152610ec960ff60005460081c16610e8881612e33565b835167ffffffffffffffff8111610df157610ee5609954612e93565b601f81116113e5575b50602094601f821160011461137357948192939495600092611368575b50508160011b916000199060031b1c1916176099555b600160005260ca60205282517fffdc4fad4cae5b6def485eb2915a8a59a963e8bdfb9e32cab695f7ae652f88b49067ffffffffffffffff8111610df157610f688254612e93565b601f8111611320575b50602094601f82116001146112ba579481929394956000926112af575b50508160011b916000199060031b1c19161790555b6001600090815260ca6020526040517fffdc4fad4cae5b6def485eb2915a8a59a963e8bdfb9e32cab695f7ae652f88b48054928290610fe185612e93565b9283835260208301956001811690816000146112905750600114611249575b5061100d9250038261264b565b805115611178576040519160009160c95461102781612e93565b906001811690811561115457506001146110f8575b509261108781847f6bb7ff708619ba0610cba295a58592e0451dee2622938c8755667688daf3529b9561107861109b96600199519384916125af565b0103601f19810183528261264b565b6040519182916020835260208301906125d2565b0390a26001600160a01b036101c391166001600160a01b03198254161790556110c057005b61ff0019600054166000557f7f26b83ff96e1f2b6a682f133852f6798a09c465da95921460cefb3847402498602060405160018152a1005b9091925060c96000527f66be4f155c5ef2ebd3772b228f2f00681e4ed5826cdb3b1943cc11ad15ad1d286000905b82821061113e5750508301602001919061108761103c565b6001816020925483858a01015201910190611126565b60ff191660208088019190915282151590920286019091019350611087905061103c565b5050604051600060995461118b81612e93565b808452906001811690811561122557506001146111dc575b5061109b826111d76001947f6bb7ff708619ba0610cba295a58592e0451dee2622938c8755667688daf3529b94038261264b565b611087565b6099600090815291506000805160206130ec8339815191525b81831061120b575050810160200161109b6111a3565b6001816020929493945483858801015201910191906111f5565b60ff191660208086019190915291151560051b8401909101915061109b90506111a3565b90506000929192526020600020906000915b81831061127457505090602061100d9282010187611000565b602091935080600191548385880101520191019091839261125b565b60ff191687525061100d93151560051b83016020019150889050611000565b015190508580610f8e565b601f198216958360005260206000209160005b888110611308575083600195969798106112ef575b505050811b019055610fa3565b015160001960f88460031b161c191690558580806112e2565b919260206001819286850151815501940192016112cd565b826000526020600020601f830160051c8101916020841061135e575b601f0160051c01905b8181106113525750610f71565b60008155600101611345565b909150819061133c565b015190508580610f0b565b601f1982169560996000526000805160206130ec8339815191529160005b8881106113cd575083600195969798106113b4575b505050811b01609955610f21565b015160001960f88460031b161c191690558580806113a6565b91926020600181928685015181550194019201611391565b6099600052601f820160051c6000805160206130ec83398151915201906020831061143c575b601f0160051c6000805160206130ec83398151915201905b8181106114305750610eee565b60008155600101611423565b6000805160206130ec833981519152915061140b565b61ffff19166101011760005583610e72565b60405162461bcd60e51b815260206004820152602e60248201527f496e697469616c697a61626c653a20636f6e747261637420697320616c72656160448201526d191e481a5b9a5d1a585b1a5e995960921b6064820152608490fd5b50303b158015610e5c5750600160ff821614610e5c565b50600160ff821610610e55565b346103555760003660031901126103555760206001600160a01b036101c35416604051908152f35b346103555760003660031901126103555761152561277a565b60006001600160a01b0360335481198116603355167f8be0079c531659141344cd1fd0a4f28419497f9722a3daafe3b4186f6b6457e08280a3005b3461035557606036600319011261035557611579612583565b60249067ffffffffffffffff9082358281116103555761159d903690600401612685565b916044908135908111610355576115c06001600160a01b03913690600401612685565b92169233841480156117a4575b6115d690612a45565b83156115e28115612d0e565b6115ef8251855114612b6e565b60006040516115fd816125f7565b5261176c575b60005b81518110156116b2576116198183612a31565b516116248286612a31565b51908060005261012d60208181526040600020549284841061165e5790611659959493929160005252036040600020556129ff565b611606565b60405162461bcd60e51b8152600481018390526028818d01527f455243313135353a206275726e20616d6f756e74206578636565647320746f74818a015267616c537570706c7960c01b6064820152608490fd5b83828660005b825181101561172757806116cf6117229285612a31565b516116da8287612a31565b519080600052609760209080825260406000208760005282526040600020549261170685851015612d66565b60005281526040600020908660005252036040600020556129ff565b6116b8565b50907f4a39dc06d4c0dbc64b70af90fd698a233a518aa5d07e595d983b8c0526c8f7fb61175e600094604051918291339583612bcb565b0390a46102cf6040516125f7565b9260009491945b845181101561179a578061178a6117959286612a31565b516102fb8288612a31565b611773565b5092939093611603565b508360005260986020526040600020336000526020526115d660ff6040600020541690506115cd565b34610355576000366003190112610355576001600160a01b037f00000000000000000000000000000000000000000000000000000000000000001630036118385760206040517f360894a13ba1a3210667c828492db98dca3e2076cc3735a920a3ca505d382bbc8152f35b60405162461bcd60e51b815260206004820152603860248201527f555550535570677261646561626c653a206d757374206e6f742062652063616c60448201527f6c6564207468726f7567682064656c656761746563616c6c00000000000000006064820152608490fd5b346103555760203660031901126103555760043560005261012d60205260206040600020541515604051908152f35b6040366003190112610355576118e6612583565b60243567ffffffffffffffff8111610355576119069036906004016126ff565b6001600160a01b0390817f0000000000000000000000000000000000000000000000000000000000000000169161193f8330141561281a565b61196e7f360894a13ba1a3210667c828492db98dca3e2076cc3735a920a3ca505d382bbc93828554161461287b565b61197661277a565b7f4910fdfa16fed3260ed0e7147f7cc6da11a60208b5b9406d12a635614ffd91435460ff16156119ac575050506102cf906128dc565b8316604051926352d1902d60e01b84526020938481600481865afa60009181611b63575b50611a315760405162461bcd60e51b815260048101869052602e60248201527f45524331393637557067726164653a206e657720696d706c656d656e7461746960448201526d6f6e206973206e6f74205555505360901b6064820152608490fd5b93929303611b0c57611a42846128dc565b7fbc7cd75a20ee27fd9adebab32041f755214dbc6bffa90cc0225b39da2e5c2d3b600080a2815115801590611b04575b611a7857005b6102cf9260008060405194611a8c86612613565b602786527f416464726573733a206c6f772d6c6576656c2064656c65676174652063616c6c85870152660819985a5b195960ca1b60408701528481519101845af4903d15611afb573d611ade816126e3565b90611aec604051928361264b565b8152600081943d92013e612dbe565b60609250612dbe565b506001611a72565b60405162461bcd60e51b815260048101839052602960248201527f45524331393637557067726164653a20756e737570706f727465642070726f786044820152681a58589b195555525160ba1b6064820152608490fd5b9091508581813d8311611b8b575b611b7b818361264b565b81010312610355575190876119d0565b503d611b71565b346103555760403660031901126103555760043567ffffffffffffffff808211610355573660238301121561035557816004013590611bd08261266d565b92611bde604051948561264b565b82845260209260248486019160051b8301019136831161035557602401905b828210611d165750505060243590811161035557611c1f903690600401612685565b8251815103611cbf57825192611c348461266d565b93611c42604051958661264b565b808552611c51601f199161266d565b01368486013760005b8151811015611ca45780611c8f6001600160a01b03611c7c611c9f9486612a31565b5116611c888387612a31565b519061297a565b611c998288612a31565b526129ff565b611c5a565b505050611cbb604051928284938452830190612746565b0390f35b60405162461bcd60e51b815260048101839052602960248201527f455243313135353a206163636f756e747320616e6420696473206c656e677468604482015268040dad2e6dac2e8c6d60bb1b6064820152608490fd5b81356001600160a01b0381168103610355578152908401908401611bfd565b346103555760208060031936011261035557611d4f612583565b906001600160a01b03807f000000000000000000000000000000000000000000000000000000000000000016611d878130141561281a565b611db67f360894a13ba1a3210667c828492db98dca3e2076cc3735a920a3ca505d382bbc91838354161461287b565b611dbe61277a565b60405191611dcb836125f7565b600083527f4910fdfa16fed3260ed0e7147f7cc6da11a60208b5b9406d12a635614ffd91435460ff1615611e0657505050506102cf906128dc565b8416906040516352d1902d60e01b81528481600481865afa60009181611ed6575b50611e885760405162461bcd60e51b815260048101869052602e60248201527f45524331393637557067726164653a206e657720696d706c656d656e7461746960448201526d6f6e206973206e6f74205555505360901b6064820152608490fd5b93929303611b0c57611e99846128dc565b7fbc7cd75a20ee27fd9adebab32041f755214dbc6bffa90cc0225b39da2e5c2d3b600080a2815115801590611ece57611a7857005b506000611a72565b9091508581813d8311611efe575b611eee818361264b565b8101031261035557519087611e27565b503d611ee4565b346103555760031960a03682011261035557611f1f612583565b90611f28612599565b67ffffffffffffffff9060443582811161035557611f4a903690600401612685565b9160643581811161035557611f63903690600401612685565b92608491823590811161035557611f7e9036906004016126ff565b916001600160a01b0392338489161480156122b8575b611f9d90612a45565b611faa8351875114612b6e565b83851615611fb88115612aa8565b8489161561227a575b6121bb575b60005b835181101561205e5780611fe06120599286612a31565b518a611fec838b612a31565b5191806000526097908360209383855260406000208c821660005285526040600020549061201c83831015612b02565b836000528486528c604060002091166000528552036040600020556000528152604060002090888a16600052526103156040600020918254612b61565b611fc9565b50909594939460405184871690858a16907f4a39dc06d4c0dbc64b70af90fd698a233a518aa5d07e595d983b8c0526c8f7fb33918061209e8b8a83612bcb565b0390a4853b6120a957005b60405163bc197c8160e01b808252336004830152988516602482015260a0604482015296879586946120df9060a4870190612746565b838682030160648701526120f291612746565b918483030190840152612104916125d2565b03921691815a602094600091f16000918161219b575b50612173575050600161212b612c5c565b6308c379a01461213c575b6105ba57005b612144612c7a565b8061214f5750612136565b60405162461bcd60e51b8152602060048201529081906106259060248301906125d2565b6001600160e01b031916146102cf5760405162461bcd60e51b81528061062560048201612c13565b6121b491925060203d81116106b0576106a1818361264b565b908361211a565b95919390969260005b855181101561226e576121d78187612a31565b51906121e38189612a31565b518260005261012d602052604060002054818110612219576122149360005261012d602052036040600020556129ff565b6121c4565b60405162461bcd60e51b815260206004820152602860248201527f455243313135353a206275726e20616d6f756e74206578636565647320746f74604482015267616c537570706c7960c01b60648201528c90fd5b50929690939195611fc6565b9794929693919060005b88518110156122ab578061229b6122a6928a612a31565b516102fb828c612a31565b612284565b5090919396929497611fc1565b508388166000526098602052604060002033600052602052611f9d60ff604060002054169050611f94565b34610355576020806003193601126103555760043560246001600160a01b0383816101c35416604051938480926331a9108f60e11b82528760048301525afa9182156124bb57600092612483575b503391160361243e5733156123e65760016000526097825260406000203360005282526001604060002054036123a1577fb6c24576ab3000be752df233cf31bd06d9f85287fd7c15cb7b862f793c6e34f691604091336000526101c48252808360002055825191338352820152a1005b60405162461bcd60e51b815260048101839052601b60248201527f4f4e4c59204544554341544f522042414447455220484f4c44455200000000006044820152606490fd5b60405162461bcd60e51b815260048101839052602a60248201527f455243313135353a2061646472657373207a65726f206973206e6f742061207660448201526930b634b21037bbb732b960b11b6064820152608490fd5b60405162461bcd60e51b815260048101839052601260248201527f4f4e4c59204f574c204944204f574e45522000000000000000000000000000006044820152606490fd5b9091508381813d83116124b4575b61249b818361264b565b8101031261035557518181168103610355579084612331565b503d612491565b6040513d6000823e3d90fd5b3461035557602036600319011261035557611cbb611087600435612ecd565b346103555760203660031901126103555760043563ffffffff60e01b811680910361035557602090636cdb3d1360e11b8114908115612543575b8115612532575b506040519015158152f35b6301ffc9a760e01b14905082612527565b6303a24d0760e21b81149150612520565b3461035557604036600319011261035557602061257b612572612583565b6024359061297a565b604051908152f35b600435906001600160a01b038216820361035557565b602435906001600160a01b038216820361035557565b60005b8381106125c25750506000910152565b81810151838201526020016125b2565b906020916125eb815180928185528580860191016125af565b601f01601f1916010190565b6020810190811067ffffffffffffffff821117610df157604052565b6060810190811067ffffffffffffffff821117610df157604052565b6040810190811067ffffffffffffffff821117610df157604052565b90601f8019910116810190811067ffffffffffffffff821117610df157604052565b67ffffffffffffffff8111610df15760051b60200190565b81601f820112156103555780359161269c8361266d565b926126aa604051948561264b565b808452602092838086019260051b820101928311610355578301905b8282106126d4575050505090565b813581529083019083016126c6565b67ffffffffffffffff8111610df157601f01601f191660200190565b81601f8201121561035557803590612716826126e3565b92612724604051948561264b565b8284526020838301011161035557816000926020809301838601378301015290565b90815180825260208080930193019160005b828110612766575050505090565b835185529381019392810192600101612758565b6001600160a01b0360335416330361278e57565b606460405162461bcd60e51b815260206004820152602060248201527f4f776e61626c653a2063616c6c6572206973206e6f7420746865206f776e65726044820152fd5b603354906001600160a01b0380911691826001600160a01b0319821617603355167f8be0079c531659141344cd1fd0a4f28419497f9722a3daafe3b4186f6b6457e0600080a3565b1561282157565b60405162461bcd60e51b815260206004820152602c60248201527f46756e6374696f6e206d7573742062652063616c6c6564207468726f7567682060448201526b19195b1959d85d1958d85b1b60a21b6064820152608490fd5b1561288257565b60405162461bcd60e51b815260206004820152602c60248201527f46756e6374696f6e206d7573742062652063616c6c6564207468726f7567682060448201526b6163746976652070726f787960a01b6064820152608490fd5b803b1561291f576001600160a01b037f360894a13ba1a3210667c828492db98dca3e2076cc3735a920a3ca505d382bbc91166001600160a01b0319825416179055565b60405162461bcd60e51b815260206004820152602d60248201527f455243313936373a206e657720696d706c656d656e746174696f6e206973206e60448201526c1bdd08184818dbdb9d1c9858dd609a1b6064820152608490fd5b6001600160a01b03169081156129a757600052609760205260406000209060005260205260406000205490565b60405162461bcd60e51b815260206004820152602a60248201527f455243313135353a2061646472657373207a65726f206973206e6f742061207660448201526930b634b21037bbb732b960b11b6064820152608490fd5b60001981146109775760010190565b805115612a1b5760200190565b634e487b7160e01b600052603260045260246000fd5b8051821015612a1b5760209160051b010190565b15612a4c57565b60405162461bcd60e51b815260206004820152602e60248201527f455243313135353a2063616c6c6572206973206e6f7420746f6b656e206f776e60448201526d195c881bdc88185c1c1c9bdd995960921b6064820152608490fd5b15612aaf57565b60405162461bcd60e51b815260206004820152602560248201527f455243313135353a207472616e7366657220746f20746865207a65726f206164604482015264647265737360d81b6064820152608490fd5b15612b0957565b60405162461bcd60e51b815260206004820152602a60248201527f455243313135353a20696e73756666696369656e742062616c616e636520666f60448201526939103a3930b739b332b960b11b6064820152608490fd5b9190820180921161097757565b15612b7557565b60405162461bcd60e51b815260206004820152602860248201527f455243313135353a2069647320616e6420616d6f756e7473206c656e677468206044820152670dad2e6dac2e8c6d60c31b6064820152608490fd5b9091612be2612bf093604084526040840190612746565b916020818403910152612746565b90565b9081602091031261035557516001600160e01b0319811681036103555790565b60809060208152602860208201527f455243313135353a204552433131353552656365697665722072656a656374656040820152676420746f6b656e7360c01b60608201520190565b60009060033d11612c6957565b905060046000803e60005160e01c90565b600060443d10612bf057604051600319913d83016004833e815167ffffffffffffffff918282113d602484011117612cd857818401948551938411612ce0573d85010160208487010111612cd85750612bf09291016020019061264b565b949350505050565b50949350505050565b60405190612cf68261262f565b6001825260203681840137612d0a82612a0e565b5290565b15612d1557565b60405162461bcd60e51b815260206004820152602360248201527f455243313135353a206275726e2066726f6d20746865207a65726f206164647260448201526265737360e81b6064820152608490fd5b15612d6d57565b60405162461bcd60e51b8152602060048201526024808201527f455243313135353a206275726e20616d6f756e7420657863656564732062616c604482015263616e636560e01b6064820152608490fd5b91929015612e205750815115612dd2575090565b3b15612ddb5790565b60405162461bcd60e51b815260206004820152601d60248201527f416464726573733a2063616c6c20746f206e6f6e2d636f6e74726163740000006044820152606490fd5b82519091501561214f5750805190602001fd5b15612e3a57565b60405162461bcd60e51b815260206004820152602b60248201527f496e697469616c697a61626c653a20636f6e7472616374206973206e6f74206960448201526a6e697469616c697a696e6760a81b6064820152608490fd5b90600182811c92168015612ec3575b6020831014612ead57565b634e487b7160e01b600052602260045260246000fd5b91607f1691612ea2565b600090815260209060ca8252604081209060405190809183549281612ef185612e93565b91828252878201966001968988821691826000146130cd57505060011461308f575b50612f209250038261264b565b805115612fe6576040519485938360c95491612f3b83612e93565b92818116908115612fc55750600114612f65575b50505050611078612bf0948392519384916125af565b90919296945060c982527f66be4f155c5ef2ebd3772b228f2f00681e4ed5826cdb3b1943cc11ad15ad1d285b838310612faf57505050612bf0946110789185010192943880612f4f565b8054898401890152889650918701918101612f91565b60ff191688860152505050801515028401019150611078612bf03880612f4f565b5060405160995490949350849282612ffd83612e93565b8086529282811690811561306d5750600114613023575b505050612bf09250038261264b565b609981526000805160206130ec83398151915295935091905b818310613055575050612bf09350820101388080613014565b8554878401850152948501948694509183019161303c565b92505050612bf094925060ff191682840152151560051b820101388080613014565b915050835281868085208686915b8583106130b4575050612f20935082010138612f13565b809192945054838588010152019101879086859361309d565b60ff19168a52612f2095151560051b8501019250389150612f13905056fe72a152ddfb8e864297c917af52ea6c1c68aead0fee1a62673fcc7e0c94979d00a2646970667358221220d2eff8e335d09c505d4564e5b48243e0962cba4fef79fb0d08ad4f6cfe470bf664736f6c63430008130033",
  "devdoc": {
    "author": "Dhruv <contact.dhruvagarwal@gmail.com> Basic Educator Badge - Id - 1",
    "events": {
      "AdminChanged(address,address)": {
        "details": "Emitted when the admin account has changed."
      },
      "ApprovalForAll(address,address,bool)": {
        "details": "Emitted when `account` grants or revokes permission to `operator` to transfer their tokens, according to `approved`."
      },
      "BeaconUpgraded(address)": {
        "details": "Emitted when the beacon is changed."
      },
      "Initialized(uint8)": {
        "details": "Triggered when the contract has been initialized or reinitialized."
      },
      "TransferBatch(address,address,address,uint256[],uint256[])": {
        "details": "Equivalent to multiple {TransferSingle} events, where `operator`, `from` and `to` are the same for all transfers."
      },
      "TransferSingle(address,address,address,uint256,uint256)": {
        "details": "Emitted when `value` tokens of token type `id` are transferred from `from` to `to` by `operator`."
      },
      "URI(string,uint256)": {
        "details": "Emitted when the URI for token type `id` changes to `value`, if it is a non-programmatic URI. If an {URI} event was emitted for `id`, the standard https://eips.ethereum.org/EIPS/eip-1155#metadata-extensions[guarantees] that `value` will equal the value returned by {IERC1155MetadataURI-uri}."
      },
      "Upgraded(address)": {
        "details": "Emitted when the implementation is upgraded."
      }
    },
    "kind": "dev",
    "methods": {
      "balanceOf(address,uint256)": {
        "details": "See {IERC1155-balanceOf}. Requirements: - `account` cannot be the zero address."
      },
      "balanceOfBatch(address[],uint256[])": {
        "details": "See {IERC1155-balanceOfBatch}. Requirements: - `accounts` and `ids` must have the same length."
      },
      "constructor": {
        "details": "Lock implementation contract"
      },
      "exists(uint256)": {
        "details": "Indicates whether any token exist with a given id, or not."
      },
      "initialize(string,address)": {
        "details": "Intialise the Educator Badge NFT Collections",
        "params": {
          "token0URI": "token URI of the Basic Educator badge id-0"
        }
      },
      "isApprovedForAll(address,address)": {
        "details": "See {IERC1155-isApprovedForAll}."
      },
      "mintEducatorBadges(address,uint256)": {
        "details": "Mint New Educator badges for the Educators",
        "params": {
          "account": "address to which the badge to be minted",
          "tokenId": "token Id of the badge to be minted"
        }
      },
      "owner()": {
        "details": "Returns the address of the current owner."
      },
      "proxiableUUID()": {
        "details": "Implementation of the ERC1822 {proxiableUUID} function. This returns the storage slot used by the implementation. It is used to validate the implementation's compatibility when performing an upgrade. IMPORTANT: A proxy pointing at a proxiable contract should not be considered proxiable itself, because this risks bricking a proxy that upgrades to it, by delegating to itself until out of gas. Thus it is critical that this function revert if invoked through a proxy. This is guaranteed by the `notDelegated` modifier."
      },
      "registerAsEducator(uint256)": {
        "details": "Registers the educator on the Owl Platform after minting the badge",
        "params": {
          "owlId": "owlId to which educator wants to associate"
        }
      },
      "renounceOwnership()": {
        "details": "Leaves the contract without owner. It will not be possible to call `onlyOwner` functions. Can only be called by the current owner. NOTE: Renouncing ownership will leave the contract without an owner, thereby disabling any functionality that is only available to the owner."
      },
      "safeBatchTransferFrom(address,address,uint256[],uint256[],bytes)": {
        "details": "See {IERC1155-safeBatchTransferFrom}."
      },
      "safeTransferFrom(address,address,uint256,uint256,bytes)": {
        "details": "See {IERC1155-safeTransferFrom}."
      },
      "setApprovalForAll(address,bool)": {
        "details": "See {IERC1155-setApprovalForAll}."
      },
      "setURI(uint256,string)": {
        "details": "Set URI for a NFT Badge",
        "params": {
          "tokenId": "token Id of the badge for which URI has to be sets",
          "tokenURI": "token URI of the new Badge to be set"
        }
      },
      "supportsInterface(bytes4)": {
        "details": "See {IERC165-supportsInterface}."
      },
      "totalSupply(uint256)": {
        "details": "Total amount of tokens in with a given id."
      },
      "transferOwnership(address)": {
        "details": "Transfers ownership of the contract to a new account (`newOwner`). Can only be called by the current owner."
      },
      "updateOwlearnId(address)": {
        "details": "Update the OwlearnID In Case needed",
        "params": {
          "owlearnIdNew": "- new owlearnId Contract Address"
        }
      },
      "upgradeTo(address)": {
        "custom:oz-upgrades-unsafe-allow-reachable": "delegatecall",
        "details": "Upgrade the implementation of the proxy to `newImplementation`. Calls {_authorizeUpgrade}. Emits an {Upgraded} event."
      },
      "upgradeToAndCall(address,bytes)": {
        "custom:oz-upgrades-unsafe-allow-reachable": "delegatecall",
        "details": "Upgrade the implementation of the proxy to `newImplementation`, and subsequently execute the function call encoded in `data`. Calls {_authorizeUpgrade}. Emits an {Upgraded} event."
      },
      "uri(uint256)": {
        "details": "Get Token URI for the badge",
        "params": {
          "tokenId": "token Id of the badge for which URI to be fetched"
        }
      }
    },
    "title": "OwlearnEducatorBadge",
    "version": 1
  },
  "userdoc": {
    "kind": "user",
    "methods": {},
    "notice": "An ERC1155 Contract as an Educator badge to all the educators on the platform , along with the badge Levels",
    "version": 1
  },
  "storageLayout": {
    "storage": [
      {
        "astId": 11058,
        "contract": "src/EducatorBadge/OwlearnEducatorBadge.sol:OwlearnEducatorBadge",
        "label": "_initialized",
        "offset": 0,
        "slot": "0",
        "type": "t_uint8"
      },
      {
        "astId": 11061,
        "contract": "src/EducatorBadge/OwlearnEducatorBadge.sol:OwlearnEducatorBadge",
        "label": "_initializing",
        "offset": 1,
        "slot": "0",
        "type": "t_bool"
      },
      {
        "astId": 14866,
        "contract": "src/EducatorBadge/OwlearnEducatorBadge.sol:OwlearnEducatorBadge",
        "label": "__gap",
        "offset": 0,
        "slot": "1",
        "type": "t_array(t_uint256)50_storage"
      },
      {
        "astId": 10537,
        "contract": "src/EducatorBadge/OwlearnEducatorBadge.sol:OwlearnEducatorBadge",
        "label": "_owner",
        "offset": 0,
        "slot": "51",
        "type": "t_address"
      },
      {
        "astId": 10657,
        "contract": "src/EducatorBadge/OwlearnEducatorBadge.sol:OwlearnEducatorBadge",
        "label": "__gap",
        "offset": 0,
        "slot": "52",
        "type": "t_array(t_uint256)49_storage"
      },
      {
        "astId": 15851,
        "contract": "src/EducatorBadge/OwlearnEducatorBadge.sol:OwlearnEducatorBadge",
        "label": "__gap",
        "offset": 0,
        "slot": "101",
        "type": "t_array(t_uint256)50_storage"
      },
      {
        "astId": 11385,
        "contract": "src/EducatorBadge/OwlearnEducatorBadge.sol:OwlearnEducatorBadge",
        "label": "_balances",
        "offset": 0,
        "slot": "151",
        "type": "t_mapping(t_uint256,t_mapping(t_address,t_uint256))"
      },
      {
        "astId": 11391,
        "contract": "src/EducatorBadge/OwlearnEducatorBadge.sol:OwlearnEducatorBadge",
        "label": "_operatorApprovals",
        "offset": 0,
        "slot": "152",
        "type": "t_mapping(t_address,t_mapping(t_address,t_bool))"
      },
      {
        "astId": 11393,
        "contract": "src/EducatorBadge/OwlearnEducatorBadge.sol:OwlearnEducatorBadge",
        "label": "_uri",
        "offset": 0,
        "slot": "153",
        "type": "t_string_storage"
      },
      {
        "astId": 12600,
        "contract": "src/EducatorBadge/OwlearnEducatorBadge.sol:OwlearnEducatorBadge",
        "label": "__gap",
        "offset": 0,
        "slot": "154",
        "type": "t_array(t_uint256)47_storage"
      },
      {
        "astId": 13064,
        "contract": "src/EducatorBadge/OwlearnEducatorBadge.sol:OwlearnEducatorBadge",
        "label": "_baseURI",
        "offset": 0,
        "slot": "201",
        "type": "t_string_storage"
      },
      {
        "astId": 13068,
        "contract": "src/EducatorBadge/OwlearnEducatorBadge.sol:OwlearnEducatorBadge",
        "label": "_tokenURIs",
        "offset": 0,
        "slot": "202",
        "type": "t_mapping(t_uint256,t_string_storage)"
      },
      {
        "astId": 13143,
        "contract": "src/EducatorBadge/OwlearnEducatorBadge.sol:OwlearnEducatorBadge",
        "label": "__gap",
        "offset": 0,
        "slot": "203",
        "type": "t_array(t_uint256)48_storage"
      },
      {
        "astId": 12852,
        "contract": "src/EducatorBadge/OwlearnEducatorBadge.sol:OwlearnEducatorBadge",
        "label": "__gap",
        "offset": 0,
        "slot": "251",
        "type": "t_array(t_uint256)50_storage"
      },
      {
        "astId": 12878,
        "contract": "src/EducatorBadge/OwlearnEducatorBadge.sol:OwlearnEducatorBadge",
        "label": "_totalSupply",
        "offset": 0,
        "slot": "301",
        "type": "t_mapping(t_uint256,t_uint256)"
      },
      {
        "astId": 13029,
        "contract": "src/EducatorBadge/OwlearnEducatorBadge.sol:OwlearnEducatorBadge",
        "label": "__gap",
        "offset": 0,
        "slot": "302",
        "type": "t_array(t_uint256)49_storage"
      },
      {
        "astId": 11040,
        "contract": "src/EducatorBadge/OwlearnEducatorBadge.sol:OwlearnEducatorBadge",
        "label": "__gap",
        "offset": 0,
        "slot": "351",
        "type": "t_array(t_uint256)50_storage"
      },
      {
        "astId": 11355,
        "contract": "src/EducatorBadge/OwlearnEducatorBadge.sol:OwlearnEducatorBadge",
        "label": "__gap",
        "offset": 0,
        "slot": "401",
        "type": "t_array(t_uint256)50_storage"
      },
      {
        "astId": 17737,
        "contract": "src/EducatorBadge/OwlearnEducatorBadge.sol:OwlearnEducatorBadge",
        "label": "owlearnId",
        "offset": 0,
        "slot": "451",
        "type": "t_contract(OwlearnId)20534"
      },
      {
        "astId": 17747,
        "contract": "src/EducatorBadge/OwlearnEducatorBadge.sol:OwlearnEducatorBadge",
        "label": "creatorIdByAddress",
        "offset": 0,
        "slot": "452",
        "type": "t_mapping(t_address,t_uint256)"
      }
    ],
    "types": {
      "t_address": {
        "encoding": "inplace",
        "label": "address",
        "numberOfBytes": "20"
      },
      "t_array(t_uint256)47_storage": {
        "base": "t_uint256",
        "encoding": "inplace",
        "label": "uint256[47]",
        "numberOfBytes": "1504"
      },
      "t_array(t_uint256)48_storage": {
        "base": "t_uint256",
        "encoding": "inplace",
        "label": "uint256[48]",
        "numberOfBytes": "1536"
      },
      "t_array(t_uint256)49_storage": {
        "base": "t_uint256",
        "encoding": "inplace",
        "label": "uint256[49]",
        "numberOfBytes": "1568"
      },
      "t_array(t_uint256)50_storage": {
        "base": "t_uint256",
        "encoding": "inplace",
        "label": "uint256[50]",
        "numberOfBytes": "1600"
      },
      "t_bool": {
        "encoding": "inplace",
        "label": "bool",
        "numberOfBytes": "1"
      },
      "t_contract(OwlearnId)20534": {
        "encoding": "inplace",
        "label": "contract OwlearnId",
        "numberOfBytes": "20"
      },
      "t_mapping(t_address,t_bool)": {
        "encoding": "mapping",
        "key": "t_address",
        "label": "mapping(address => bool)",
        "numberOfBytes": "32",
        "value": "t_bool"
      },
      "t_mapping(t_address,t_mapping(t_address,t_bool))": {
        "encoding": "mapping",
        "key": "t_address",
        "label": "mapping(address => mapping(address => bool))",
        "numberOfBytes": "32",
        "value": "t_mapping(t_address,t_bool)"
      },
      "t_mapping(t_address,t_uint256)": {
        "encoding": "mapping",
        "key": "t_address",
        "label": "mapping(address => uint256)",
        "numberOfBytes": "32",
        "value": "t_uint256"
      },
      "t_mapping(t_uint256,t_mapping(t_address,t_uint256))": {
        "encoding": "mapping",
        "key": "t_uint256",
        "label": "mapping(uint256 => mapping(address => uint256))",
        "numberOfBytes": "32",
        "value": "t_mapping(t_address,t_uint256)"
      },
      "t_mapping(t_uint256,t_string_storage)": {
        "encoding": "mapping",
        "key": "t_uint256",
        "label": "mapping(uint256 => string)",
        "numberOfBytes": "32",
        "value": "t_string_storage"
      },
      "t_mapping(t_uint256,t_uint256)": {
        "encoding": "mapping",
        "key": "t_uint256",
        "label": "mapping(uint256 => uint256)",
        "numberOfBytes": "32",
        "value": "t_uint256"
      },
      "t_string_storage": {
        "encoding": "bytes",
        "label": "string",
        "numberOfBytes": "32"
      },
      "t_uint256": {
        "encoding": "inplace",
        "label": "uint256",
        "numberOfBytes": "32"
      },
      "t_uint8": {
        "encoding": "inplace",
        "label": "uint8",
        "numberOfBytes": "1"
      }
    }
  }
}