{
  "address": "0x49262E39AC94054Cb8FBa2B4012a54a6A2cA65E1",
  "abi": [
    {
      "inputs": [],
      "stateMutability": "nonpayable",
      "type": "constructor"
    },
    {
      "anonymous": false,
      "inputs": [
        {
          "indexed": false,
          "internalType": "address",
          "name": "previousAdmin",
          "type": "address"
        },
        {
          "indexed": false,
          "internalType": "address",
          "name": "newAdmin",
          "type": "address"
        }
      ],
      "name": "AdminChanged",
      "type": "event"
    },
    {
      "anonymous": false,
      "inputs": [
        {
          "indexed": true,
          "internalType": "address",
          "name": "account",
          "type": "address"
        },
        {
          "indexed": true,
          "internalType": "address",
          "name": "operator",
          "type": "address"
        },
        {
          "indexed": false,
          "internalType": "bool",
          "name": "approved",
          "type": "bool"
        }
      ],
      "name": "ApprovalForAll",
      "type": "event"
    },
    {
      "anonymous": false,
      "inputs": [
        {
          "indexed": true,
          "internalType": "address",
          "name": "beacon",
          "type": "address"
        }
      ],
      "name": "BeaconUpgraded",
      "type": "event"
    },
    {
      "anonymous": false,
      "inputs": [
        {
          "indexed": false,
          "internalType": "uint8",
          "name": "version",
          "type": "uint8"
        }
      ],
      "name": "Initialized",
      "type": "event"
    },
    {
      "anonymous": false,
      "inputs": [
        {
          "indexed": true,
          "internalType": "address",
          "name": "previousOwner",
          "type": "address"
        },
        {
          "indexed": true,
          "internalType": "address",
          "name": "newOwner",
          "type": "address"
        }
      ],
      "name": "OwnershipTransferred",
      "type": "event"
    },
    {
      "anonymous": false,
      "inputs": [
        {
          "indexed": true,
          "internalType": "address",
          "name": "operator",
          "type": "address"
        },
        {
          "indexed": true,
          "internalType": "address",
          "name": "from",
          "type": "address"
        },
        {
          "indexed": true,
          "internalType": "address",
          "name": "to",
          "type": "address"
        },
        {
          "indexed": false,
          "internalType": "uint256[]",
          "name": "ids",
          "type": "uint256[]"
        },
        {
          "indexed": false,
          "internalType": "uint256[]",
          "name": "values",
          "type": "uint256[]"
        }
      ],
      "name": "TransferBatch",
      "type": "event"
    },
    {
      "anonymous": false,
      "inputs": [
        {
          "indexed": true,
          "internalType": "address",
          "name": "operator",
          "type": "address"
        },
        {
          "indexed": true,
          "internalType": "address",
          "name": "from",
          "type": "address"
        },
        {
          "indexed": true,
          "internalType": "address",
          "name": "to",
          "type": "address"
        },
        {
          "indexed": false,
          "internalType": "uint256",
          "name": "id",
          "type": "uint256"
        },
        {
          "indexed": false,
          "internalType": "uint256",
          "name": "value",
          "type": "uint256"
        }
      ],
      "name": "TransferSingle",
      "type": "event"
    },
    {
      "anonymous": false,
      "inputs": [
        {
          "indexed": false,
          "internalType": "string",
          "name": "value",
          "type": "string"
        },
        {
          "indexed": true,
          "internalType": "uint256",
          "name": "id",
          "type": "uint256"
        }
      ],
      "name": "URI",
      "type": "event"
    },
    {
      "anonymous": false,
      "inputs": [
        {
          "indexed": true,
          "internalType": "address",
          "name": "implementation",
          "type": "address"
        }
      ],
      "name": "Upgraded",
      "type": "event"
    },
    {
      "inputs": [
        {
          "internalType": "address",
          "name": "account",
          "type": "address"
        },
        {
          "internalType": "uint256",
          "name": "id",
          "type": "uint256"
        }
      ],
      "name": "balanceOf",
      "outputs": [
        {
          "internalType": "uint256",
          "name": "",
          "type": "uint256"
        }
      ],
      "stateMutability": "view",
      "type": "function"
    },
    {
      "inputs": [
        {
          "internalType": "address[]",
          "name": "accounts",
          "type": "address[]"
        },
        {
          "internalType": "uint256[]",
          "name": "ids",
          "type": "uint256[]"
        }
      ],
      "name": "balanceOfBatch",
      "outputs": [
        {
          "internalType": "uint256[]",
          "name": "",
          "type": "uint256[]"
        }
      ],
      "stateMutability": "view",
      "type": "function"
    },
    {
      "inputs": [
        {
          "internalType": "address",
          "name": "account",
          "type": "address"
        },
        {
          "internalType": "uint256",
          "name": "id",
          "type": "uint256"
        },
        {
          "internalType": "uint256",
          "name": "value",
          "type": "uint256"
        }
      ],
      "name": "burn",
      "outputs": [],
      "stateMutability": "nonpayable",
      "type": "function"
    },
    {
      "inputs": [
        {
          "internalType": "address",
          "name": "account",
          "type": "address"
        },
        {
          "internalType": "uint256[]",
          "name": "ids",
          "type": "uint256[]"
        },
        {
          "internalType": "uint256[]",
          "name": "values",
          "type": "uint256[]"
        }
      ],
      "name": "burnBatch",
      "outputs": [],
      "stateMutability": "nonpayable",
      "type": "function"
    },
    {
      "inputs": [
        {
          "internalType": "uint256",
          "name": "id",
          "type": "uint256"
        }
      ],
      "name": "exists",
      "outputs": [
        {
          "internalType": "bool",
          "name": "",
          "type": "bool"
        }
      ],
      "stateMutability": "view",
      "type": "function"
    },
    {
      "inputs": [
        {
          "internalType": "string",
          "name": "token0URI",
          "type": "string"
        }
      ],
      "name": "initialize",
      "outputs": [],
      "stateMutability": "nonpayable",
      "type": "function"
    },
    {
      "inputs": [
        {
          "internalType": "address",
          "name": "account",
          "type": "address"
        },
        {
          "internalType": "address",
          "name": "operator",
          "type": "address"
        }
      ],
      "name": "isApprovedForAll",
      "outputs": [
        {
          "internalType": "bool",
          "name": "",
          "type": "bool"
        }
      ],
      "stateMutability": "view",
      "type": "function"
    },
    {
      "inputs": [
        {
          "internalType": "address",
          "name": "account",
          "type": "address"
        },
        {
          "internalType": "uint256",
          "name": "tokenId",
          "type": "uint256"
        }
      ],
      "name": "mintEducatorBadges",
      "outputs": [],
      "stateMutability": "nonpayable",
      "type": "function"
    },
    {
      "inputs": [],
      "name": "owner",
      "outputs": [
        {
          "internalType": "address",
          "name": "",
          "type": "address"
        }
      ],
      "stateMutability": "view",
      "type": "function"
    },
    {
      "inputs": [],
      "name": "proxiableUUID",
      "outputs": [
        {
          "internalType": "bytes32",
          "name": "",
          "type": "bytes32"
        }
      ],
      "stateMutability": "view",
      "type": "function"
    },
    {
      "inputs": [],
      "name": "renounceOwnership",
      "outputs": [],
      "stateMutability": "nonpayable",
      "type": "function"
    },
    {
      "inputs": [
        {
          "internalType": "address",
          "name": "from",
          "type": "address"
        },
        {
          "internalType": "address",
          "name": "to",
          "type": "address"
        },
        {
          "internalType": "uint256[]",
          "name": "ids",
          "type": "uint256[]"
        },
        {
          "internalType": "uint256[]",
          "name": "amounts",
          "type": "uint256[]"
        },
        {
          "internalType": "bytes",
          "name": "data",
          "type": "bytes"
        }
      ],
      "name": "safeBatchTransferFrom",
      "outputs": [],
      "stateMutability": "nonpayable",
      "type": "function"
    },
    {
      "inputs": [
        {
          "internalType": "address",
          "name": "from",
          "type": "address"
        },
        {
          "internalType": "address",
          "name": "to",
          "type": "address"
        },
        {
          "internalType": "uint256",
          "name": "id",
          "type": "uint256"
        },
        {
          "internalType": "uint256",
          "name": "amount",
          "type": "uint256"
        },
        {
          "internalType": "bytes",
          "name": "data",
          "type": "bytes"
        }
      ],
      "name": "safeTransferFrom",
      "outputs": [],
      "stateMutability": "nonpayable",
      "type": "function"
    },
    {
      "inputs": [
        {
          "internalType": "address",
          "name": "operator",
          "type": "address"
        },
        {
          "internalType": "bool",
          "name": "approved",
          "type": "bool"
        }
      ],
      "name": "setApprovalForAll",
      "outputs": [],
      "stateMutability": "nonpayable",
      "type": "function"
    },
    {
      "inputs": [
        {
          "internalType": "uint256",
          "name": "tokenId",
          "type": "uint256"
        },
        {
          "internalType": "string",
          "name": "tokenURI",
          "type": "string"
        }
      ],
      "name": "setURI",
      "outputs": [],
      "stateMutability": "nonpayable",
      "type": "function"
    },
    {
      "inputs": [
        {
          "internalType": "bytes4",
          "name": "interfaceId",
          "type": "bytes4"
        }
      ],
      "name": "supportsInterface",
      "outputs": [
        {
          "internalType": "bool",
          "name": "",
          "type": "bool"
        }
      ],
      "stateMutability": "view",
      "type": "function"
    },
    {
      "inputs": [
        {
          "internalType": "uint256",
          "name": "id",
          "type": "uint256"
        }
      ],
      "name": "totalSupply",
      "outputs": [
        {
          "internalType": "uint256",
          "name": "",
          "type": "uint256"
        }
      ],
      "stateMutability": "view",
      "type": "function"
    },
    {
      "inputs": [
        {
          "internalType": "address",
          "name": "newOwner",
          "type": "address"
        }
      ],
      "name": "transferOwnership",
      "outputs": [],
      "stateMutability": "nonpayable",
      "type": "function"
    },
    {
      "inputs": [
        {
          "internalType": "address",
          "name": "newImplementation",
          "type": "address"
        }
      ],
      "name": "upgradeTo",
      "outputs": [],
      "stateMutability": "nonpayable",
      "type": "function"
    },
    {
      "inputs": [
        {
          "internalType": "address",
          "name": "newImplementation",
          "type": "address"
        },
        {
          "internalType": "bytes",
          "name": "data",
          "type": "bytes"
        }
      ],
      "name": "upgradeToAndCall",
      "outputs": [],
      "stateMutability": "payable",
      "type": "function"
    },
    {
      "inputs": [
        {
          "internalType": "uint256",
          "name": "tokenId",
          "type": "uint256"
        }
      ],
      "name": "uri",
      "outputs": [
        {
          "internalType": "string",
          "name": "",
          "type": "string"
        }
      ],
      "stateMutability": "view",
      "type": "function"
    }
  ],
  "numDeployments": 1,
  "solcInputHash": "5e1d42fca518fa5135f6b1c2e32a0005",
  "bytecode": "0x60a06040523060805234801561001457600080fd5b5060805161310661004c6000396000818161066a015281816106ef01528181610923015281816109a80152610a9201526131066000f3fe6080604052600436106101695760003560e01c8063715018a6116100cb578063e985e9c51161007f578063f2fde38b11610059578063f2fde38b14610419578063f5298aca14610439578063f62d18881461045957600080fd5b8063e985e9c514610390578063ecd501b2146103d9578063f242432a146103f957600080fd5b80638da5cb5b116100b05780638da5cb5b1461031a578063a22cb46514610342578063bd85b0391461036257600080fd5b8063715018a6146102e5578063862440e2146102fa57600080fd5b80634e1273f4116101225780634f558e79116101075780634f558e791461028057806352d1902d146102b05780636b20c454146102c557600080fd5b80634e1273f4146102405780634f1ef2861461026d57600080fd5b80630e89341c116101535780630e89341c146101d15780632eb2c2d6146101fe5780633659cfe61461022057600080fd5b8062fdd58e1461016e57806301ffc9a7146101a1575b600080fd5b34801561017a57600080fd5b5061018e61018936600461269c565b610479565b6040519081526020015b60405180910390f35b3480156101ad57600080fd5b506101c16101bc3660046126dc565b610527565b6040519015158152602001610198565b3480156101dd57600080fd5b506101f16101ec3660046126f9565b6105c2565b6040516101989190612762565b34801561020a57600080fd5b5061021e6102193660046128c1565b6105cd565b005b34801561022c57600080fd5b5061021e61023b36600461296b565b610660565b34801561024c57600080fd5b5061026061025b366004612986565b6107db565b6040516101989190612a8c565b61021e61027b366004612a9f565b610919565b34801561028c57600080fd5b506101c161029b3660046126f9565b600090815261012d6020526040902054151590565b3480156102bc57600080fd5b5061018e610a85565b3480156102d157600080fd5b5061021e6102e0366004612ae3565b610b4b565b3480156102f157600080fd5b5061021e610bda565b34801561030657600080fd5b5061021e610315366004612b57565b610bee565b34801561032657600080fd5b506033546040516001600160a01b039091168152602001610198565b34801561034e57600080fd5b5061021e61035d366004612b88565b610c00565b34801561036e57600080fd5b5061018e61037d3660046126f9565b600090815261012d602052604090205490565b34801561039c57600080fd5b506101c16103ab366004612bc4565b6001600160a01b03918216600090815260986020908152604080832093909416825291909152205460ff1690565b3480156103e557600080fd5b5061021e6103f436600461269c565b610c0b565b34801561040557600080fd5b5061021e610414366004612bf7565b610c2f565b34801561042557600080fd5b5061021e61043436600461296b565b610cbb565b34801561044557600080fd5b5061021e610454366004612c5c565b610d48565b34801561046557600080fd5b5061021e610474366004612c8f565b610dd2565b60006001600160a01b0383166104fc5760405162461bcd60e51b815260206004820152602a60248201527f455243313135353a2061646472657373207a65726f206973206e6f742061207660448201527f616c6964206f776e65720000000000000000000000000000000000000000000060648201526084015b60405180910390fd5b5060008181526097602090815260408083206001600160a01b03861684529091529020545b92915050565b60006001600160e01b031982167fd9b67a2600000000000000000000000000000000000000000000000000000000148061058a57506001600160e01b031982167f0e89341c00000000000000000000000000000000000000000000000000000000145b8061052157507f01ffc9a7000000000000000000000000000000000000000000000000000000006001600160e01b0319831614610521565b606061052182610f3b565b6001600160a01b0385163314806105e957506105e985336103ab565b61064c5760405162461bcd60e51b815260206004820152602e60248201527f455243313135353a2063616c6c6572206973206e6f7420746f6b656e206f776e60448201526d195c881bdc88185c1c1c9bdd995960921b60648201526084016104f3565b610659858585858561101b565b5050505050565b6001600160a01b037f00000000000000000000000000000000000000000000000000000000000000001630036106ed5760405162461bcd60e51b815260206004820152602c60248201527f46756e6374696f6e206d7573742062652063616c6c6564207468726f7567682060448201526b19195b1959d85d1958d85b1b60a21b60648201526084016104f3565b7f00000000000000000000000000000000000000000000000000000000000000006001600160a01b03166107487f360894a13ba1a3210667c828492db98dca3e2076cc3735a920a3ca505d382bbc546001600160a01b031690565b6001600160a01b0316146107b35760405162461bcd60e51b815260206004820152602c60248201527f46756e6374696f6e206d7573742062652063616c6c6564207468726f7567682060448201526b6163746976652070726f787960a01b60648201526084016104f3565b6107bc8161128a565b604080516000808252602082019092526107d891839190611292565b50565b606081518351146108545760405162461bcd60e51b815260206004820152602960248201527f455243313135353a206163636f756e747320616e6420696473206c656e67746860448201527f206d69736d61746368000000000000000000000000000000000000000000000060648201526084016104f3565b6000835167ffffffffffffffff81111561087057610870612775565b604051908082528060200260200182016040528015610899578160200160208202803683370190505b50905060005b8451811015610911576108e48582815181106108bd576108bd612cc4565b60200260200101518583815181106108d7576108d7612cc4565b6020026020010151610479565b8282815181106108f6576108f6612cc4565b602090810291909101015261090a81612cf0565b905061089f565b509392505050565b6001600160a01b037f00000000000000000000000000000000000000000000000000000000000000001630036109a65760405162461bcd60e51b815260206004820152602c60248201527f46756e6374696f6e206d7573742062652063616c6c6564207468726f7567682060448201526b19195b1959d85d1958d85b1b60a21b60648201526084016104f3565b7f00000000000000000000000000000000000000000000000000000000000000006001600160a01b0316610a017f360894a13ba1a3210667c828492db98dca3e2076cc3735a920a3ca505d382bbc546001600160a01b031690565b6001600160a01b031614610a6c5760405162461bcd60e51b815260206004820152602c60248201527f46756e6374696f6e206d7573742062652063616c6c6564207468726f7567682060448201526b6163746976652070726f787960a01b60648201526084016104f3565b610a758261128a565b610a8182826001611292565b5050565b6000306001600160a01b037f00000000000000000000000000000000000000000000000000000000000000001614610b255760405162461bcd60e51b815260206004820152603860248201527f555550535570677261646561626c653a206d757374206e6f742062652063616c60448201527f6c6564207468726f7567682064656c656761746563616c6c000000000000000060648201526084016104f3565b507f360894a13ba1a3210667c828492db98dca3e2076cc3735a920a3ca505d382bbc5b90565b6001600160a01b038316331480610b675750610b6783336103ab565b610bca5760405162461bcd60e51b815260206004820152602e60248201527f455243313135353a2063616c6c6572206973206e6f7420746f6b656e206f776e60448201526d195c881bdc88185c1c1c9bdd995960921b60648201526084016104f3565b610bd5838383611432565b505050565b610be261168c565b610bec60006116e6565b565b610bf661168c565b610a818282611745565b610a813383836117a2565b610c1361168c565b610a818282600160405180602001604052806000815250611896565b6001600160a01b038516331480610c4b5750610c4b85336103ab565b610cae5760405162461bcd60e51b815260206004820152602e60248201527f455243313135353a2063616c6c6572206973206e6f7420746f6b656e206f776e60448201526d195c881bdc88185c1c1c9bdd995960921b60648201526084016104f3565b61065985858585856119d7565b610cc361168c565b6001600160a01b038116610d3f5760405162461bcd60e51b815260206004820152602660248201527f4f776e61626c653a206e6577206f776e657220697320746865207a65726f206160448201527f646472657373000000000000000000000000000000000000000000000000000060648201526084016104f3565b6107d8816116e6565b6001600160a01b038316331480610d645750610d6483336103ab565b610dc75760405162461bcd60e51b815260206004820152602e60248201527f455243313135353a2063616c6c6572206973206e6f7420746f6b656e206f776e60448201526d195c881bdc88185c1c1c9bdd995960921b60648201526084016104f3565b610bd5838383611b94565b600054610100900460ff1615808015610df25750600054600160ff909116105b80610e0c5750303b158015610e0c575060005460ff166001145b610e7e5760405162461bcd60e51b815260206004820152602e60248201527f496e697469616c697a61626c653a20636f6e747261637420697320616c72656160448201527f647920696e697469616c697a656400000000000000000000000000000000000060648201526084016104f3565b6000805460ff191660011790558015610ea1576000805461ff0019166101001790555b610ea9611d28565b610ee76040518060400160405280600481526020017f4e554c4c00000000000000000000000000000000000000000000000000000000815250611d9b565b610ef2600183611745565b8015610a81576000805461ff0019169055604051600181527f7f26b83ff96e1f2b6a682f133852f6798a09c465da95921460cefb38474024989060200160405180910390a15050565b600081815260ca6020526040812080546060929190610f5990612d09565b80601f0160208091040260200160405190810160405280929190818152602001828054610f8590612d09565b8015610fd25780601f10610fa757610100808354040283529160200191610fd2565b820191906000526020600020905b815481529060010190602001808311610fb557829003601f168201915b505050505090506000815111610ff057610feb83611e0f565b611014565b60c981604051602001611004929190612d43565b6040516020818303038152906040525b9392505050565b815183511461107d5760405162461bcd60e51b815260206004820152602860248201527f455243313135353a2069647320616e6420616d6f756e7473206c656e677468206044820152670dad2e6dac2e8c6d60c31b60648201526084016104f3565b6001600160a01b0384166110e15760405162461bcd60e51b815260206004820152602560248201527f455243313135353a207472616e7366657220746f20746865207a65726f206164604482015264647265737360d81b60648201526084016104f3565b336110f0818787878787611ea3565b60005b845181101561121c57600085828151811061111057611110612cc4565b60200260200101519050600085838151811061112e5761112e612cc4565b60209081029190910181015160008481526097835260408082206001600160a01b038e1683529093529190912054909150818110156111c25760405162461bcd60e51b815260206004820152602a60248201527f455243313135353a20696e73756666696369656e742062616c616e636520666f60448201526939103a3930b739b332b960b11b60648201526084016104f3565b60008381526097602090815260408083206001600160a01b038e8116855292528083208585039055908b16825281208054849290611201908490612dca565b925050819055505050508061121590612cf0565b90506110f3565b50846001600160a01b0316866001600160a01b0316826001600160a01b03167f4a39dc06d4c0dbc64b70af90fd698a233a518aa5d07e595d983b8c0526c8f7fb878760405161126c929190612ddd565b60405180910390a4611282818787878787611eb1565b505050505050565b6107d861168c565b7f4910fdfa16fed3260ed0e7147f7cc6da11a60208b5b9406d12a635614ffd91435460ff16156112c557610bd583612056565b826001600160a01b03166352d1902d6040518163ffffffff1660e01b8152600401602060405180830381865afa92505050801561131f575060408051601f3d908101601f1916820190925261131c91810190612e0b565b60015b6113915760405162461bcd60e51b815260206004820152602e60248201527f45524331393637557067726164653a206e657720696d706c656d656e7461746960448201527f6f6e206973206e6f74205555505300000000000000000000000000000000000060648201526084016104f3565b7f360894a13ba1a3210667c828492db98dca3e2076cc3735a920a3ca505d382bbc81146114265760405162461bcd60e51b815260206004820152602960248201527f45524331393637557067726164653a20756e737570706f727465642070726f7860448201527f6961626c6555554944000000000000000000000000000000000000000000000060648201526084016104f3565b50610bd5838383612121565b6001600160a01b0383166114945760405162461bcd60e51b815260206004820152602360248201527f455243313135353a206275726e2066726f6d20746865207a65726f206164647260448201526265737360e81b60648201526084016104f3565b80518251146114f65760405162461bcd60e51b815260206004820152602860248201527f455243313135353a2069647320616e6420616d6f756e7473206c656e677468206044820152670dad2e6dac2e8c6d60c31b60648201526084016104f3565b600033905061151981856000868660405180602001604052806000815250611ea3565b60005b835181101561161d57600084828151811061153957611539612cc4565b60200260200101519050600084838151811061155757611557612cc4565b60209081029190910181015160008481526097835260408082206001600160a01b038c1683529093529190912054909150818110156115e45760405162461bcd60e51b8152602060048201526024808201527f455243313135353a206275726e20616d6f756e7420657863656564732062616c604482015263616e636560e01b60648201526084016104f3565b60009283526097602090815260408085206001600160a01b038b168652909152909220910390558061161581612cf0565b91505061151c565b5060006001600160a01b0316846001600160a01b0316826001600160a01b03167f4a39dc06d4c0dbc64b70af90fd698a233a518aa5d07e595d983b8c0526c8f7fb868660405161166e929190612ddd565b60405180910390a46040805160208101909152600090525b50505050565b6033546001600160a01b03163314610bec5760405162461bcd60e51b815260206004820181905260248201527f4f776e61626c653a2063616c6c6572206973206e6f7420746865206f776e657260448201526064016104f3565b603380546001600160a01b0383811673ffffffffffffffffffffffffffffffffffffffff19831681179093556040519116919082907f8be0079c531659141344cd1fd0a4f28419497f9722a3daafe3b4186f6b6457e090600090a35050565b600082815260ca6020526040902061175d8282612e6a565b50817f6bb7ff708619ba0610cba295a58592e0451dee2622938c8755667688daf3529b611789846105c2565b6040516117969190612762565b60405180910390a25050565b816001600160a01b0316836001600160a01b0316036118295760405162461bcd60e51b815260206004820152602960248201527f455243313135353a2073657474696e6720617070726f76616c2073746174757360448201527f20666f722073656c66000000000000000000000000000000000000000000000060648201526084016104f3565b6001600160a01b03838116600081815260986020908152604080832094871680845294825291829020805460ff191686151590811790915591519182527f17307eab39ab6107e8899845ad3d59bd9653f200f220920489ca2b5937696c31910160405180910390a3505050565b6001600160a01b0384166119125760405162461bcd60e51b815260206004820152602160248201527f455243313135353a206d696e7420746f20746865207a65726f2061646472657360448201527f730000000000000000000000000000000000000000000000000000000000000060648201526084016104f3565b33600061191e85612146565b9050600061192b85612146565b905061193c83600089858589611ea3565b60008681526097602090815260408083206001600160a01b038b1684529091528120805487929061196e908490612dca565b909155505060408051878152602081018790526001600160a01b03808a1692600092918716917fc3d58168c5ae7397731d063d5bbf3d657854427343f4c083240f7aacaa2d0f62910160405180910390a46119ce83600089898989612191565b50505050505050565b6001600160a01b038416611a3b5760405162461bcd60e51b815260206004820152602560248201527f455243313135353a207472616e7366657220746f20746865207a65726f206164604482015264647265737360d81b60648201526084016104f3565b336000611a4785612146565b90506000611a5485612146565b9050611a64838989858589611ea3565b60008681526097602090815260408083206001600160a01b038c16845290915290205485811015611aea5760405162461bcd60e51b815260206004820152602a60248201527f455243313135353a20696e73756666696369656e742062616c616e636520666f60448201526939103a3930b739b332b960b11b60648201526084016104f3565b60008781526097602090815260408083206001600160a01b038d8116855292528083208985039055908a16825281208054889290611b29908490612dca565b909155505060408051888152602081018890526001600160a01b03808b16928c821692918816917fc3d58168c5ae7397731d063d5bbf3d657854427343f4c083240f7aacaa2d0f62910160405180910390a4611b89848a8a8a8a8a612191565b505050505050505050565b6001600160a01b038316611bf65760405162461bcd60e51b815260206004820152602360248201527f455243313135353a206275726e2066726f6d20746865207a65726f206164647260448201526265737360e81b60648201526084016104f3565b336000611c0284612146565b90506000611c0f84612146565b9050611c2f83876000858560405180602001604052806000815250611ea3565b60008581526097602090815260408083206001600160a01b038a16845290915290205484811015611cae5760405162461bcd60e51b8152602060048201526024808201527f455243313135353a206275726e20616d6f756e7420657863656564732062616c604482015263616e636560e01b60648201526084016104f3565b60008681526097602090815260408083206001600160a01b038b81168086529184528285208a8703905582518b81529384018a90529092908816917fc3d58168c5ae7397731d063d5bbf3d657854427343f4c083240f7aacaa2d0f62910160405180910390a46040805160208101909152600090526119ce565b600054610100900460ff16611d935760405162461bcd60e51b815260206004820152602b60248201527f496e697469616c697a61626c653a20636f6e7472616374206973206e6f74206960448201526a6e697469616c697a696e6760a81b60648201526084016104f3565b610bec61228d565b600054610100900460ff16611e065760405162461bcd60e51b815260206004820152602b60248201527f496e697469616c697a61626c653a20636f6e7472616374206973206e6f74206960448201526a6e697469616c697a696e6760a81b60648201526084016104f3565b6107d881612301565b606060998054611e1e90612d09565b80601f0160208091040260200160405190810160405280929190818152602001828054611e4a90612d09565b8015611e975780601f10611e6c57610100808354040283529160200191611e97565b820191906000526020600020905b815481529060010190602001808311611e7a57829003601f168201915b50505050509050919050565b611282868686868686612375565b6001600160a01b0384163b156112825760405163bc197c8160e01b81526001600160a01b0385169063bc197c8190611ef59089908990889088908890600401612f2a565b6020604051808303816000875af1925050508015611f30575060408051601f3d908101601f19168201909252611f2d91810190612f88565b60015b611fe557611f3c612fa5565b806308c379a003611f755750611f50612fc0565b80611f5b5750611f77565b8060405162461bcd60e51b81526004016104f39190612762565b505b60405162461bcd60e51b815260206004820152603460248201527f455243313135353a207472616e7366657220746f206e6f6e2d4552433131353560448201527f526563656976657220696d706c656d656e74657200000000000000000000000060648201526084016104f3565b6001600160e01b0319811663bc197c8160e01b146119ce5760405162461bcd60e51b815260206004820152602860248201527f455243313135353a204552433131353552656365697665722072656a656374656044820152676420746f6b656e7360c01b60648201526084016104f3565b6001600160a01b0381163b6120d35760405162461bcd60e51b815260206004820152602d60248201527f455243313936373a206e657720696d706c656d656e746174696f6e206973206e60448201527f6f74206120636f6e74726163740000000000000000000000000000000000000060648201526084016104f3565b7f360894a13ba1a3210667c828492db98dca3e2076cc3735a920a3ca505d382bbc805473ffffffffffffffffffffffffffffffffffffffff19166001600160a01b0392909216919091179055565b61212a83612506565b6000825111806121375750805b15610bd5576116868383612546565b6040805160018082528183019092526060916000919060208083019080368337019050509050828160008151811061218057612180612cc4565b602090810291909101015292915050565b6001600160a01b0384163b156112825760405163f23a6e6160e01b81526001600160a01b0385169063f23a6e61906121d5908990899088908890889060040161304a565b6020604051808303816000875af1925050508015612210575060408051601f3d908101601f1916820190925261220d91810190612f88565b60015b61221c57611f3c612fa5565b6001600160e01b0319811663f23a6e6160e01b146119ce5760405162461bcd60e51b815260206004820152602860248201527f455243313135353a204552433131353552656365697665722072656a656374656044820152676420746f6b656e7360c01b60648201526084016104f3565b600054610100900460ff166122f85760405162461bcd60e51b815260206004820152602b60248201527f496e697469616c697a61626c653a20636f6e7472616374206973206e6f74206960448201526a6e697469616c697a696e6760a81b60648201526084016104f3565b610bec336116e6565b600054610100900460ff1661236c5760405162461bcd60e51b815260206004820152602b60248201527f496e697469616c697a61626c653a20636f6e7472616374206973206e6f74206960448201526a6e697469616c697a696e6760a81b60648201526084016104f3565b6107d88161256b565b6001600160a01b0385166123fd5760005b83518110156123fb578281815181106123a1576123a1612cc4565b602002602001015161012d60008684815181106123c0576123c0612cc4565b6020026020010151815260200190815260200160002060008282546123e59190612dca565b909155506123f4905081612cf0565b9050612386565b505b6001600160a01b0384166112825760005b83518110156119ce57600084828151811061242b5761242b612cc4565b60200260200101519050600084838151811061244957612449612cc4565b60200260200101519050600061012d6000848152602001908152602001600020549050818110156124e25760405162461bcd60e51b815260206004820152602860248201527f455243313135353a206275726e20616d6f756e74206578636565647320746f7460448201527f616c537570706c7900000000000000000000000000000000000000000000000060648201526084016104f3565b600092835261012d6020526040909220910390556124ff81612cf0565b905061240e565b61250f81612056565b6040516001600160a01b038216907fbc7cd75a20ee27fd9adebab32041f755214dbc6bffa90cc0225b39da2e5c2d3b90600090a250565b606061101483836040518060600160405280602781526020016130aa60279139612577565b6099610a818282612e6a565b6060600080856001600160a01b031685604051612594919061308d565b600060405180830381855af49150503d80600081146125cf576040519150601f19603f3d011682016040523d82523d6000602084013e6125d4565b606091505b50915091506125e5868383876125ef565b9695505050505050565b6060831561265e578251600003612657576001600160a01b0385163b6126575760405162461bcd60e51b815260206004820152601d60248201527f416464726573733a2063616c6c20746f206e6f6e2d636f6e747261637400000060448201526064016104f3565b5081612668565b6126688383612670565b949350505050565b815115611f5b5781518083602001fd5b80356001600160a01b038116811461269757600080fd5b919050565b600080604083850312156126af57600080fd5b6126b883612680565b946020939093013593505050565b6001600160e01b0319811681146107d857600080fd5b6000602082840312156126ee57600080fd5b8135611014816126c6565b60006020828403121561270b57600080fd5b5035919050565b60005b8381101561272d578181015183820152602001612715565b50506000910152565b6000815180845261274e816020860160208601612712565b601f01601f19169290920160200192915050565b6020815260006110146020830184612736565b634e487b7160e01b600052604160045260246000fd5b601f8201601f1916810167ffffffffffffffff811182821017156127b1576127b1612775565b6040525050565b600067ffffffffffffffff8211156127d2576127d2612775565b5060051b60200190565b600082601f8301126127ed57600080fd5b813560206127fa826127b8565b604051612807828261278b565b83815260059390931b850182019282810191508684111561282757600080fd5b8286015b84811015612842578035835291830191830161282b565b509695505050505050565b600082601f83011261285e57600080fd5b813567ffffffffffffffff81111561287857612878612775565b60405161288f601f8301601f19166020018261278b565b8181528460208386010111156128a457600080fd5b816020850160208301376000918101602001919091529392505050565b600080600080600060a086880312156128d957600080fd5b6128e286612680565b94506128f060208701612680565b9350604086013567ffffffffffffffff8082111561290d57600080fd5b61291989838a016127dc565b9450606088013591508082111561292f57600080fd5b61293b89838a016127dc565b9350608088013591508082111561295157600080fd5b5061295e8882890161284d565b9150509295509295909350565b60006020828403121561297d57600080fd5b61101482612680565b6000806040838503121561299957600080fd5b823567ffffffffffffffff808211156129b157600080fd5b818501915085601f8301126129c557600080fd5b813560206129d2826127b8565b6040516129df828261278b565b83815260059390931b85018201928281019150898411156129ff57600080fd5b948201945b83861015612a2457612a1586612680565b82529482019490820190612a04565b96505086013592505080821115612a3a57600080fd5b50612a47858286016127dc565b9150509250929050565b600081518084526020808501945080840160005b83811015612a8157815187529582019590820190600101612a65565b509495945050505050565b6020815260006110146020830184612a51565b60008060408385031215612ab257600080fd5b612abb83612680565b9150602083013567ffffffffffffffff811115612ad757600080fd5b612a478582860161284d565b600080600060608486031215612af857600080fd5b612b0184612680565b9250602084013567ffffffffffffffff80821115612b1e57600080fd5b612b2a878388016127dc565b93506040860135915080821115612b4057600080fd5b50612b4d868287016127dc565b9150509250925092565b60008060408385031215612b6a57600080fd5b82359150602083013567ffffffffffffffff811115612ad757600080fd5b60008060408385031215612b9b57600080fd5b612ba483612680565b915060208301358015158114612bb957600080fd5b809150509250929050565b60008060408385031215612bd757600080fd5b612be083612680565b9150612bee60208401612680565b90509250929050565b600080600080600060a08688031215612c0f57600080fd5b612c1886612680565b9450612c2660208701612680565b93506040860135925060608601359150608086013567ffffffffffffffff811115612c5057600080fd5b61295e8882890161284d565b600080600060608486031215612c7157600080fd5b612c7a84612680565b95602085013595506040909401359392505050565b600060208284031215612ca157600080fd5b813567ffffffffffffffff811115612cb857600080fd5b6126688482850161284d565b634e487b7160e01b600052603260045260246000fd5b634e487b7160e01b600052601160045260246000fd5b600060018201612d0257612d02612cda565b5060010190565b600181811c90821680612d1d57607f821691505b602082108103612d3d57634e487b7160e01b600052602260045260246000fd5b50919050565b6000808454612d5181612d09565b60018281168015612d695760018114612d7e57612dad565b60ff1984168752821515830287019450612dad565b8860005260208060002060005b85811015612da45781548a820152908401908201612d8b565b50505082870194505b505050508351612dc1818360208801612712565b01949350505050565b8082018082111561052157610521612cda565b604081526000612df06040830185612a51565b8281036020840152612e028185612a51565b95945050505050565b600060208284031215612e1d57600080fd5b5051919050565b601f821115610bd557600081815260208120601f850160051c81016020861015612e4b5750805b601f850160051c820191505b8181101561128257828155600101612e57565b815167ffffffffffffffff811115612e8457612e84612775565b612e9881612e928454612d09565b84612e24565b602080601f831160018114612ecd5760008415612eb55750858301515b600019600386901b1c1916600185901b178555611282565b600085815260208120601f198616915b82811015612efc57888601518255948401946001909101908401612edd565b5085821015612f1a5787850151600019600388901b60f8161c191681555b5050505050600190811b01905550565b60006001600160a01b03808816835280871660208401525060a06040830152612f5660a0830186612a51565b8281036060840152612f688186612a51565b90508281036080840152612f7c8185612736565b98975050505050505050565b600060208284031215612f9a57600080fd5b8151611014816126c6565b600060033d1115610b485760046000803e5060005160e01c90565b600060443d1015612fce5790565b6040516003193d81016004833e81513d67ffffffffffffffff8160248401118184111715612ffe57505050505090565b82850191508151818111156130165750505050505090565b843d87010160208285010111156130305750505050505090565b61303f6020828601018761278b565b509095945050505050565b60006001600160a01b03808816835280871660208401525084604083015283606083015260a0608083015261308260a0830184612736565b979650505050505050565b6000825161309f818460208701612712565b919091019291505056fe416464726573733a206c6f772d6c6576656c2064656c65676174652063616c6c206661696c6564a264697066735822122094f8f71e013ad5a28fa2f049c83e7dc904a66f848f730b421a51a901ec7fe33b64736f6c63430008130033",
  "devdoc": {
    "author": "Dhruv <contact.dhruvagarwal@gmail.com> Basic Educator Badge - Id - 1",
    "events": {
      "AdminChanged(address,address)": {
        "details": "Emitted when the admin account has changed."
      },
      "ApprovalForAll(address,address,bool)": {
        "details": "Emitted when `account` grants or revokes permission to `operator` to transfer their tokens, according to `approved`."
      },
      "BeaconUpgraded(address)": {
        "details": "Emitted when the beacon is changed."
      },
      "Initialized(uint8)": {
        "details": "Triggered when the contract has been initialized or reinitialized."
      },
      "TransferBatch(address,address,address,uint256[],uint256[])": {
        "details": "Equivalent to multiple {TransferSingle} events, where `operator`, `from` and `to` are the same for all transfers."
      },
      "TransferSingle(address,address,address,uint256,uint256)": {
        "details": "Emitted when `value` tokens of token type `id` are transferred from `from` to `to` by `operator`."
      },
      "URI(string,uint256)": {
        "details": "Emitted when the URI for token type `id` changes to `value`, if it is a non-programmatic URI. If an {URI} event was emitted for `id`, the standard https://eips.ethereum.org/EIPS/eip-1155#metadata-extensions[guarantees] that `value` will equal the value returned by {IERC1155MetadataURI-uri}."
      },
      "Upgraded(address)": {
        "details": "Emitted when the implementation is upgraded."
      }
    },
    "kind": "dev",
    "methods": {
      "balanceOf(address,uint256)": {
        "details": "See {IERC1155-balanceOf}. Requirements: - `account` cannot be the zero address."
      },
      "balanceOfBatch(address[],uint256[])": {
        "details": "See {IERC1155-balanceOfBatch}. Requirements: - `accounts` and `ids` must have the same length."
      },
      "constructor": {
        "details": "Lock implementation contract"
      },
      "exists(uint256)": {
        "details": "Indicates whether any token exist with a given id, or not."
      },
      "initialize(string)": {
        "details": "Intialise the Educator Badge NFT Collections",
        "params": {
          "token0URI": "token URI of the Basic Educator badge id-0"
        }
      },
      "isApprovedForAll(address,address)": {
        "details": "See {IERC1155-isApprovedForAll}."
      },
      "mintEducatorBadges(address,uint256)": {
        "details": "Mint New Educator badges for the Educators",
        "params": {
          "account": "address to which the badge to be minted",
          "tokenId": "token Id of the badge to be minted"
        }
      },
      "owner()": {
        "details": "Returns the address of the current owner."
      },
      "proxiableUUID()": {
        "details": "Implementation of the ERC1822 {proxiableUUID} function. This returns the storage slot used by the implementation. It is used to validate the implementation's compatibility when performing an upgrade. IMPORTANT: A proxy pointing at a proxiable contract should not be considered proxiable itself, because this risks bricking a proxy that upgrades to it, by delegating to itself until out of gas. Thus it is critical that this function revert if invoked through a proxy. This is guaranteed by the `notDelegated` modifier."
      },
      "renounceOwnership()": {
        "details": "Leaves the contract without owner. It will not be possible to call `onlyOwner` functions. Can only be called by the current owner. NOTE: Renouncing ownership will leave the contract without an owner, thereby disabling any functionality that is only available to the owner."
      },
      "safeBatchTransferFrom(address,address,uint256[],uint256[],bytes)": {
        "details": "See {IERC1155-safeBatchTransferFrom}."
      },
      "safeTransferFrom(address,address,uint256,uint256,bytes)": {
        "details": "See {IERC1155-safeTransferFrom}."
      },
      "setApprovalForAll(address,bool)": {
        "details": "See {IERC1155-setApprovalForAll}."
      },
      "setURI(uint256,string)": {
        "details": "Set URI for a NFT Badge",
        "params": {
          "tokenId": "token Id of the badge for which URI has to be sets",
          "tokenURI": "token URI of the new Badge to be set"
        }
      },
      "supportsInterface(bytes4)": {
        "details": "See {IERC165-supportsInterface}."
      },
      "totalSupply(uint256)": {
        "details": "Total amount of tokens in with a given id."
      },
      "transferOwnership(address)": {
        "details": "Transfers ownership of the contract to a new account (`newOwner`). Can only be called by the current owner."
      },
      "upgradeTo(address)": {
        "custom:oz-upgrades-unsafe-allow-reachable": "delegatecall",
        "details": "Upgrade the implementation of the proxy to `newImplementation`. Calls {_authorizeUpgrade}. Emits an {Upgraded} event."
      },
      "upgradeToAndCall(address,bytes)": {
        "custom:oz-upgrades-unsafe-allow-reachable": "delegatecall",
        "details": "Upgrade the implementation of the proxy to `newImplementation`, and subsequently execute the function call encoded in `data`. Calls {_authorizeUpgrade}. Emits an {Upgraded} event."
      },
      "uri(uint256)": {
        "details": "Get Token URI for the badge",
        "params": {
          "tokenId": "token Id of the badge for which URI to be fetched"
        }
      }
    },
    "title": "OwlearnEducatorBadge",
    "version": 1
  },
  "userdoc": {
    "kind": "user",
    "methods": {},
    "notice": "An ERC1155 Contract as an Educator badge to all the educators on the platform , along with the badge Levels",
    "version": 1
  },
  "storageLayout": {
    "storage": [
      {
        "astId": 11058,
        "contract": "src/EducatorBadge/OwlearnEducatorBadge.sol:OwlearnEducatorBadge",
        "label": "_initialized",
        "offset": 0,
        "slot": "0",
        "type": "t_uint8"
      },
      {
        "astId": 11061,
        "contract": "src/EducatorBadge/OwlearnEducatorBadge.sol:OwlearnEducatorBadge",
        "label": "_initializing",
        "offset": 1,
        "slot": "0",
        "type": "t_bool"
      },
      {
        "astId": 14866,
        "contract": "src/EducatorBadge/OwlearnEducatorBadge.sol:OwlearnEducatorBadge",
        "label": "__gap",
        "offset": 0,
        "slot": "1",
        "type": "t_array(t_uint256)50_storage"
      },
      {
        "astId": 10537,
        "contract": "src/EducatorBadge/OwlearnEducatorBadge.sol:OwlearnEducatorBadge",
        "label": "_owner",
        "offset": 0,
        "slot": "51",
        "type": "t_address"
      },
      {
        "astId": 10657,
        "contract": "src/EducatorBadge/OwlearnEducatorBadge.sol:OwlearnEducatorBadge",
        "label": "__gap",
        "offset": 0,
        "slot": "52",
        "type": "t_array(t_uint256)49_storage"
      },
      {
        "astId": 15323,
        "contract": "src/EducatorBadge/OwlearnEducatorBadge.sol:OwlearnEducatorBadge",
        "label": "__gap",
        "offset": 0,
        "slot": "101",
        "type": "t_array(t_uint256)50_storage"
      },
      {
        "astId": 11385,
        "contract": "src/EducatorBadge/OwlearnEducatorBadge.sol:OwlearnEducatorBadge",
        "label": "_balances",
        "offset": 0,
        "slot": "151",
        "type": "t_mapping(t_uint256,t_mapping(t_address,t_uint256))"
      },
      {
        "astId": 11391,
        "contract": "src/EducatorBadge/OwlearnEducatorBadge.sol:OwlearnEducatorBadge",
        "label": "_operatorApprovals",
        "offset": 0,
        "slot": "152",
        "type": "t_mapping(t_address,t_mapping(t_address,t_bool))"
      },
      {
        "astId": 11393,
        "contract": "src/EducatorBadge/OwlearnEducatorBadge.sol:OwlearnEducatorBadge",
        "label": "_uri",
        "offset": 0,
        "slot": "153",
        "type": "t_string_storage"
      },
      {
        "astId": 12600,
        "contract": "src/EducatorBadge/OwlearnEducatorBadge.sol:OwlearnEducatorBadge",
        "label": "__gap",
        "offset": 0,
        "slot": "154",
        "type": "t_array(t_uint256)47_storage"
      },
      {
        "astId": 13064,
        "contract": "src/EducatorBadge/OwlearnEducatorBadge.sol:OwlearnEducatorBadge",
        "label": "_baseURI",
        "offset": 0,
        "slot": "201",
        "type": "t_string_storage"
      },
      {
        "astId": 13068,
        "contract": "src/EducatorBadge/OwlearnEducatorBadge.sol:OwlearnEducatorBadge",
        "label": "_tokenURIs",
        "offset": 0,
        "slot": "202",
        "type": "t_mapping(t_uint256,t_string_storage)"
      },
      {
        "astId": 13143,
        "contract": "src/EducatorBadge/OwlearnEducatorBadge.sol:OwlearnEducatorBadge",
        "label": "__gap",
        "offset": 0,
        "slot": "203",
        "type": "t_array(t_uint256)48_storage"
      },
      {
        "astId": 12852,
        "contract": "src/EducatorBadge/OwlearnEducatorBadge.sol:OwlearnEducatorBadge",
        "label": "__gap",
        "offset": 0,
        "slot": "251",
        "type": "t_array(t_uint256)50_storage"
      },
      {
        "astId": 12878,
        "contract": "src/EducatorBadge/OwlearnEducatorBadge.sol:OwlearnEducatorBadge",
        "label": "_totalSupply",
        "offset": 0,
        "slot": "301",
        "type": "t_mapping(t_uint256,t_uint256)"
      },
      {
        "astId": 13029,
        "contract": "src/EducatorBadge/OwlearnEducatorBadge.sol:OwlearnEducatorBadge",
        "label": "__gap",
        "offset": 0,
        "slot": "302",
        "type": "t_array(t_uint256)49_storage"
      },
      {
        "astId": 11040,
        "contract": "src/EducatorBadge/OwlearnEducatorBadge.sol:OwlearnEducatorBadge",
        "label": "__gap",
        "offset": 0,
        "slot": "351",
        "type": "t_array(t_uint256)50_storage"
      },
      {
        "astId": 11355,
        "contract": "src/EducatorBadge/OwlearnEducatorBadge.sol:OwlearnEducatorBadge",
        "label": "__gap",
        "offset": 0,
        "slot": "401",
        "type": "t_array(t_uint256)50_storage"
      }
    ],
    "types": {
      "t_address": {
        "encoding": "inplace",
        "label": "address",
        "numberOfBytes": "20"
      },
      "t_array(t_uint256)47_storage": {
        "base": "t_uint256",
        "encoding": "inplace",
        "label": "uint256[47]",
        "numberOfBytes": "1504"
      },
      "t_array(t_uint256)48_storage": {
        "base": "t_uint256",
        "encoding": "inplace",
        "label": "uint256[48]",
        "numberOfBytes": "1536"
      },
      "t_array(t_uint256)49_storage": {
        "base": "t_uint256",
        "encoding": "inplace",
        "label": "uint256[49]",
        "numberOfBytes": "1568"
      },
      "t_array(t_uint256)50_storage": {
        "base": "t_uint256",
        "encoding": "inplace",
        "label": "uint256[50]",
        "numberOfBytes": "1600"
      },
      "t_bool": {
        "encoding": "inplace",
        "label": "bool",
        "numberOfBytes": "1"
      },
      "t_mapping(t_address,t_bool)": {
        "encoding": "mapping",
        "key": "t_address",
        "label": "mapping(address => bool)",
        "numberOfBytes": "32",
        "value": "t_bool"
      },
      "t_mapping(t_address,t_mapping(t_address,t_bool))": {
        "encoding": "mapping",
        "key": "t_address",
        "label": "mapping(address => mapping(address => bool))",
        "numberOfBytes": "32",
        "value": "t_mapping(t_address,t_bool)"
      },
      "t_mapping(t_address,t_uint256)": {
        "encoding": "mapping",
        "key": "t_address",
        "label": "mapping(address => uint256)",
        "numberOfBytes": "32",
        "value": "t_uint256"
      },
      "t_mapping(t_uint256,t_mapping(t_address,t_uint256))": {
        "encoding": "mapping",
        "key": "t_uint256",
        "label": "mapping(uint256 => mapping(address => uint256))",
        "numberOfBytes": "32",
        "value": "t_mapping(t_address,t_uint256)"
      },
      "t_mapping(t_uint256,t_string_storage)": {
        "encoding": "mapping",
        "key": "t_uint256",
        "label": "mapping(uint256 => string)",
        "numberOfBytes": "32",
        "value": "t_string_storage"
      },
      "t_mapping(t_uint256,t_uint256)": {
        "encoding": "mapping",
        "key": "t_uint256",
        "label": "mapping(uint256 => uint256)",
        "numberOfBytes": "32",
        "value": "t_uint256"
      },
      "t_string_storage": {
        "encoding": "bytes",
        "label": "string",
        "numberOfBytes": "32"
      },
      "t_uint256": {
        "encoding": "inplace",
        "label": "uint256",
        "numberOfBytes": "32"
      },
      "t_uint8": {
        "encoding": "inplace",
        "label": "uint8",
        "numberOfBytes": "1"
      }
    }
  }
}