{
  "address": "0xb98Bd951352a2301E2F53e364a2CC0E3aD830a8c",
  "abi": [
    {
      "inputs": [],
      "stateMutability": "nonpayable",
      "type": "constructor"
    },
    {
      "anonymous": false,
      "inputs": [
        {
          "indexed": false,
          "internalType": "address",
          "name": "previousAdmin",
          "type": "address"
        },
        {
          "indexed": false,
          "internalType": "address",
          "name": "newAdmin",
          "type": "address"
        }
      ],
      "name": "AdminChanged",
      "type": "event"
    },
    {
      "anonymous": false,
      "inputs": [
        {
          "indexed": true,
          "internalType": "address",
          "name": "owner",
          "type": "address"
        },
        {
          "indexed": true,
          "internalType": "address",
          "name": "approved",
          "type": "address"
        },
        {
          "indexed": true,
          "internalType": "uint256",
          "name": "tokenId",
          "type": "uint256"
        }
      ],
      "name": "Approval",
      "type": "event"
    },
    {
      "anonymous": false,
      "inputs": [
        {
          "indexed": true,
          "internalType": "address",
          "name": "owner",
          "type": "address"
        },
        {
          "indexed": true,
          "internalType": "address",
          "name": "operator",
          "type": "address"
        },
        {
          "indexed": false,
          "internalType": "bool",
          "name": "approved",
          "type": "bool"
        }
      ],
      "name": "ApprovalForAll",
      "type": "event"
    },
    {
      "anonymous": false,
      "inputs": [
        {
          "indexed": true,
          "internalType": "address",
          "name": "beacon",
          "type": "address"
        }
      ],
      "name": "BeaconUpgraded",
      "type": "event"
    },
    {
      "anonymous": false,
      "inputs": [
        {
          "indexed": false,
          "internalType": "uint256",
          "name": "tokenId",
          "type": "uint256"
        }
      ],
      "name": "CertificateBurned",
      "type": "event"
    },
    {
      "anonymous": false,
      "inputs": [
        {
          "indexed": false,
          "internalType": "address",
          "name": "to",
          "type": "address"
        },
        {
          "indexed": false,
          "internalType": "uint256",
          "name": "tokenID",
          "type": "uint256"
        }
      ],
      "name": "CertificateMinted",
      "type": "event"
    },
    {
      "anonymous": false,
      "inputs": [
        {
          "indexed": false,
          "internalType": "string",
          "name": "newBaseURI",
          "type": "string"
        }
      ],
      "name": "CertificateURIUpdated",
      "type": "event"
    },
    {
      "anonymous": false,
      "inputs": [
        {
          "indexed": false,
          "internalType": "string",
          "name": "courseCertificateName",
          "type": "string"
        },
        {
          "indexed": false,
          "internalType": "string",
          "name": "courseCertificateSymbol",
          "type": "string"
        },
        {
          "indexed": false,
          "internalType": "string",
          "name": "certificateBaseURI",
          "type": "string"
        }
      ],
      "name": "CourseCertificateIntialised",
      "type": "event"
    },
    {
      "anonymous": false,
      "inputs": [
        {
          "indexed": false,
          "internalType": "uint8",
          "name": "version",
          "type": "uint8"
        }
      ],
      "name": "Initialized",
      "type": "event"
    },
    {
      "anonymous": false,
      "inputs": [
        {
          "indexed": true,
          "internalType": "address",
          "name": "previousOwner",
          "type": "address"
        },
        {
          "indexed": true,
          "internalType": "address",
          "name": "newOwner",
          "type": "address"
        }
      ],
      "name": "OwnershipTransferred",
      "type": "event"
    },
    {
      "anonymous": false,
      "inputs": [
        {
          "indexed": true,
          "internalType": "address",
          "name": "from",
          "type": "address"
        },
        {
          "indexed": true,
          "internalType": "address",
          "name": "to",
          "type": "address"
        },
        {
          "indexed": true,
          "internalType": "uint256",
          "name": "tokenId",
          "type": "uint256"
        }
      ],
      "name": "Transfer",
      "type": "event"
    },
    {
      "anonymous": false,
      "inputs": [
        {
          "indexed": true,
          "internalType": "address",
          "name": "implementation",
          "type": "address"
        }
      ],
      "name": "Upgraded",
      "type": "event"
    },
    {
      "inputs": [
        {
          "internalType": "address",
          "name": "to",
          "type": "address"
        },
        {
          "internalType": "uint256",
          "name": "tokenId",
          "type": "uint256"
        }
      ],
      "name": "approve",
      "outputs": [],
      "stateMutability": "nonpayable",
      "type": "function"
    },
    {
      "inputs": [
        {
          "internalType": "address",
          "name": "owner",
          "type": "address"
        }
      ],
      "name": "balanceOf",
      "outputs": [
        {
          "internalType": "uint256",
          "name": "",
          "type": "uint256"
        }
      ],
      "stateMutability": "view",
      "type": "function"
    },
    {
      "inputs": [],
      "name": "baseURI",
      "outputs": [
        {
          "internalType": "string",
          "name": "",
          "type": "string"
        }
      ],
      "stateMutability": "view",
      "type": "function"
    },
    {
      "inputs": [
        {
          "internalType": "uint256",
          "name": "tokenId",
          "type": "uint256"
        }
      ],
      "name": "burn",
      "outputs": [],
      "stateMutability": "nonpayable",
      "type": "function"
    },
    {
      "inputs": [
        {
          "internalType": "uint256",
          "name": "tokenId",
          "type": "uint256"
        }
      ],
      "name": "getApproved",
      "outputs": [
        {
          "internalType": "address",
          "name": "",
          "type": "address"
        }
      ],
      "stateMutability": "view",
      "type": "function"
    },
    {
      "inputs": [],
      "name": "implRegistery",
      "outputs": [
        {
          "internalType": "contract ImplementationRegistery",
          "name": "",
          "type": "address"
        }
      ],
      "stateMutability": "view",
      "type": "function"
    },
    {
      "inputs": [
        {
          "internalType": "string",
          "name": "courseCertificateName",
          "type": "string"
        },
        {
          "internalType": "string",
          "name": "courseCertificateSymbol",
          "type": "string"
        },
        {
          "internalType": "string",
          "name": "certificateBaseURI",
          "type": "string"
        },
        {
          "internalType": "address",
          "name": "courseCreator",
          "type": "address"
        },
        {
          "internalType": "address",
          "name": "implmRegisteryAddress",
          "type": "address"
        }
      ],
      "name": "initialize",
      "outputs": [],
      "stateMutability": "payable",
      "type": "function"
    },
    {
      "inputs": [
        {
          "internalType": "address",
          "name": "owner",
          "type": "address"
        },
        {
          "internalType": "address",
          "name": "operator",
          "type": "address"
        }
      ],
      "name": "isApprovedForAll",
      "outputs": [
        {
          "internalType": "bool",
          "name": "",
          "type": "bool"
        }
      ],
      "stateMutability": "view",
      "type": "function"
    },
    {
      "inputs": [],
      "name": "manager",
      "outputs": [
        {
          "internalType": "address",
          "name": "",
          "type": "address"
        }
      ],
      "stateMutability": "view",
      "type": "function"
    },
    {
      "inputs": [],
      "name": "name",
      "outputs": [
        {
          "internalType": "string",
          "name": "",
          "type": "string"
        }
      ],
      "stateMutability": "view",
      "type": "function"
    },
    {
      "inputs": [],
      "name": "owner",
      "outputs": [
        {
          "internalType": "address",
          "name": "",
          "type": "address"
        }
      ],
      "stateMutability": "view",
      "type": "function"
    },
    {
      "inputs": [
        {
          "internalType": "uint256",
          "name": "tokenId",
          "type": "uint256"
        }
      ],
      "name": "ownerOf",
      "outputs": [
        {
          "internalType": "address",
          "name": "",
          "type": "address"
        }
      ],
      "stateMutability": "view",
      "type": "function"
    },
    {
      "inputs": [],
      "name": "proxiableUUID",
      "outputs": [
        {
          "internalType": "bytes32",
          "name": "",
          "type": "bytes32"
        }
      ],
      "stateMutability": "view",
      "type": "function"
    },
    {
      "inputs": [],
      "name": "renounceOwnership",
      "outputs": [],
      "stateMutability": "nonpayable",
      "type": "function"
    },
    {
      "inputs": [
        {
          "internalType": "uint256",
          "name": "tokenId",
          "type": "uint256"
        }
      ],
      "name": "revoke",
      "outputs": [],
      "stateMutability": "nonpayable",
      "type": "function"
    },
    {
      "inputs": [
        {
          "internalType": "address",
          "name": "to",
          "type": "address"
        }
      ],
      "name": "safeMint",
      "outputs": [
        {
          "internalType": "uint256",
          "name": "",
          "type": "uint256"
        }
      ],
      "stateMutability": "nonpayable",
      "type": "function"
    },
    {
      "inputs": [
        {
          "internalType": "address",
          "name": "from",
          "type": "address"
        },
        {
          "internalType": "address",
          "name": "to",
          "type": "address"
        },
        {
          "internalType": "uint256",
          "name": "tokenId",
          "type": "uint256"
        }
      ],
      "name": "safeTransferFrom",
      "outputs": [],
      "stateMutability": "nonpayable",
      "type": "function"
    },
    {
      "inputs": [
        {
          "internalType": "address",
          "name": "from",
          "type": "address"
        },
        {
          "internalType": "address",
          "name": "to",
          "type": "address"
        },
        {
          "internalType": "uint256",
          "name": "tokenId",
          "type": "uint256"
        },
        {
          "internalType": "bytes",
          "name": "data",
          "type": "bytes"
        }
      ],
      "name": "safeTransferFrom",
      "outputs": [],
      "stateMutability": "nonpayable",
      "type": "function"
    },
    {
      "inputs": [
        {
          "internalType": "address",
          "name": "operator",
          "type": "address"
        },
        {
          "internalType": "bool",
          "name": "approved",
          "type": "bool"
        }
      ],
      "name": "setApprovalForAll",
      "outputs": [],
      "stateMutability": "nonpayable",
      "type": "function"
    },
    {
      "inputs": [
        {
          "internalType": "string",
          "name": "newURI",
          "type": "string"
        }
      ],
      "name": "setBaseURI",
      "outputs": [],
      "stateMutability": "nonpayable",
      "type": "function"
    },
    {
      "inputs": [
        {
          "internalType": "bytes4",
          "name": "interfaceId",
          "type": "bytes4"
        }
      ],
      "name": "supportsInterface",
      "outputs": [
        {
          "internalType": "bool",
          "name": "",
          "type": "bool"
        }
      ],
      "stateMutability": "view",
      "type": "function"
    },
    {
      "inputs": [],
      "name": "symbol",
      "outputs": [
        {
          "internalType": "string",
          "name": "",
          "type": "string"
        }
      ],
      "stateMutability": "view",
      "type": "function"
    },
    {
      "inputs": [
        {
          "internalType": "uint256",
          "name": "tokenId",
          "type": "uint256"
        }
      ],
      "name": "tokenURI",
      "outputs": [
        {
          "internalType": "string",
          "name": "",
          "type": "string"
        }
      ],
      "stateMutability": "view",
      "type": "function"
    },
    {
      "inputs": [
        {
          "internalType": "address",
          "name": "from",
          "type": "address"
        },
        {
          "internalType": "address",
          "name": "to",
          "type": "address"
        },
        {
          "internalType": "uint256",
          "name": "tokenId",
          "type": "uint256"
        }
      ],
      "name": "transferFrom",
      "outputs": [],
      "stateMutability": "nonpayable",
      "type": "function"
    },
    {
      "inputs": [
        {
          "internalType": "address",
          "name": "newOwner",
          "type": "address"
        }
      ],
      "name": "transferOwnership",
      "outputs": [],
      "stateMutability": "nonpayable",
      "type": "function"
    },
    {
      "inputs": [
        {
          "internalType": "address",
          "name": "newImplementation",
          "type": "address"
        }
      ],
      "name": "upgradeTo",
      "outputs": [],
      "stateMutability": "nonpayable",
      "type": "function"
    },
    {
      "inputs": [
        {
          "internalType": "address",
          "name": "newImplementation",
          "type": "address"
        },
        {
          "internalType": "bytes",
          "name": "data",
          "type": "bytes"
        }
      ],
      "name": "upgradeToAndCall",
      "outputs": [],
      "stateMutability": "payable",
      "type": "function"
    }
  ],
  "transactionHash": "0x254c2ec69f59fa4b3f700a21bc7226ce48f00ecc2b7301744b444f506398b5fc",
  "args": [],
  "numDeployments": 3,
  "solcInputHash": "a3e588bc19884ca33ea0d5ce829ba8e4",
  "bytecode": "0x60a0806040523461003157306080526128e1908161003782396080518181816111a40152818161129f015261184c0152f35b600080fdfe608080604052600436101561001357600080fd5b60003560e01c90816301ffc9a714611d4a5750806306fdde0314611ca4578063081812fc14611c86578063095ea7b314611b0c57806320c5429b14611acd57806323b872dd14611aa95780633659cfe61461182657806340d097c31461166357806342842e0e1461163057806342966c68146115da578063481c6a75146115b35780634f1ef2861461125f57806352d1902d1461118957806355f804b314610fda5780636352211e14610fab5780636c0360eb14610f1757806370a0823114610e80578063715018a614610e2c5780638da5cb5b14610e0557806395d89b4114610d235780639b760d0414610cfc578063a22cb46514610c2a578063b88d4fde14610bb5578063c87b56dd146108f5578063d6d0faee14610233578063e985e9c5146101dc5763f2fde38b1461014857600080fd5b346101d75760203660031901126101d757610161611dfd565b610169611f55565b6001600160a01b038116156101835761018190611fad565b005b60405162461bcd60e51b815260206004820152602660248201527f4f776e61626c653a206e6577206f776e657220697320746865207a65726f206160448201526564647265737360d01b6064820152608490fd5b600080fd5b346101d75760403660031901126101d7576101f5611dfd565b6101fd611e13565b906001600160a01b03809116600052606a60205260406000209116600052602052602060ff604060002054166040519015158152f35b60a03660031901126101d75760043567ffffffffffffffff81116101d75761025f903690600401611ed4565b60243567ffffffffffffffff81116101d75761027f903690600401611ed4565b9060443567ffffffffffffffff81116101d7576102a0903690600401611ed4565b6001600160a01b03928360643516606435036101d75760843584811681036101d7576000549460ff8660081c1615958680976108e8575b80156108d1575b156108755760ff19811660011760005586610863575b5061030f60ff60005460081c1661030a8161275d565b61275d565b845167ffffffffffffffff81116105e95761032b606554611f1b565b601f81116107c0575b50806020601f821160011461073c57600091610731575b508160011b916000199060031b1c1916176065555b825167ffffffffffffffff81116105e95761037c606654611f1b565b601f811161068e575b50806020601f821160011461060a576000916105ff575b508160011b916000199060031b1c1916176066555b6103c660ff60005460081c1661030a8161275d565b6103cf33611fad565b835167ffffffffffffffff81116105e9576103eb60cb54611f1b565b601f8111610596575b506020601f82116001146104f657936104aa9361048e96938361049c947f0ddeb88b796296b27c82ef4ad0fe24dbc35773ab83b3680767cdcb215b16fd4e9a986000916104eb575b508160011b916000199060031b1c19161760cb555b6001600160a01b031991338360cc54161760cc55610470606435611fad565b169060ca54161760ca55604051958695606087526060870190611dd8565b908582036020870152611dd8565b908382036040850152611dd8565b0390a16104b357005b61ff0019600054166000557f7f26b83ff96e1f2b6a682f133852f6798a09c465da95921460cefb3847402498602060405160018152a1005b90508601518c61043c565b601f1982169060cb60005260008051602061288c8339815191529160005b81811061057e5750936001847f0ddeb88b796296b27c82ef4ad0fe24dbc35773ab83b3680767cdcb215b16fd4e9a98946104aa989461049c9761048e9c9910610565575b5050811b0160cb55610451565b88015160001960f88460031b161c191690558c80610558565b9192602060018192868c015181550194019201610514565b60cb60005260008051602061288c833981519152601f830160051c810191602084106105df575b601f0160051c01905b8181106105d357506103f4565b600081556001016105c6565b90915081906105bd565b634e487b7160e01b600052604160045260246000fd5b90508401518861039c565b606660009081527f46501879b8ca8525e8c2fd519e2fbfcfa2ebea26501294aa02cbfcfb12e943549250601f198416905b8181106106765750908360019493921061065d575b5050811b016066556103b1565b86015160001960f88460031b161c191690558880610650565b9192602060018192868b01518155019401920161063b565b6066600052601f820160051c7f46501879b8ca8525e8c2fd519e2fbfcfa2ebea26501294aa02cbfcfb12e94354019060208310610709575b601f0160051c7f46501879b8ca8525e8c2fd519e2fbfcfa2ebea26501294aa02cbfcfb12e9435401905b8181106106fd5750610385565b600081556001016106f0565b7f46501879b8ca8525e8c2fd519e2fbfcfa2ebea26501294aa02cbfcfb12e9435491506106c6565b90508601518861034b565b606560009081527f8ff97419363ffd7000167f130ef7168fbea05faf9251824ca5043f113cc6a7c79250601f198416905b8181106107a85750908360019493921061078f575b5050811b01606555610360565b88015160001960f88460031b161c191690558880610782565b9192602060018192868d01518155019401920161076d565b6065600052601f820160051c7f8ff97419363ffd7000167f130ef7168fbea05faf9251824ca5043f113cc6a7c701906020831061083b575b601f0160051c7f8ff97419363ffd7000167f130ef7168fbea05faf9251824ca5043f113cc6a7c701905b81811061082f5750610334565b60008155600101610822565b7f8ff97419363ffd7000167f130ef7168fbea05faf9251824ca5043f113cc6a7c791506107f8565b61ffff191661010117600055866102f4565b60405162461bcd60e51b815260206004820152602e60248201527f496e697469616c697a61626c653a20636f6e747261637420697320616c72656160448201526d191e481a5b9a5d1a585b1a5e995960921b6064820152608490fd5b50303b1580156102de5750600160ff8216146102de565b50600160ff8216106102d7565b346101d7576020806003193601126101d75760043561093261092d8260005260676020526001600160a01b0360406000205416151590565b612155565b81604051600060cb549061094582611f1b565b8084528385810192600194878682169182600014610b9a575050600114610b4e575b61097392500384611e96565b825115610b3357600094807a184f03e93ff9f4daa797ed6e38ed64bf6a1f0100000000000000008181811015610b25575b50506d04ee2d6d415b85acef810000000080831015610b17575b50662386f26fc1000080831015610b08575b506305f5e10080831015610af9575b5061271080831015610aea575b506064821015610ada575b600a80921015610ad1575b9280870193816021610a2c610a1688611eb8565b97610a24604051998a611e96565b808952611eb8565b878a019a90601f1901368c37870101905b610a9b575b5050505093610a81939291610a75610a669660405197889551809288880190611db5565b84019151809386840190611db5565b01038084520182611e96565b905b610a97604051928284938452830190611dd8565b0390f35b600019019083906f181899199a1a9b1b9c1cb0b131b232b360811b8282061a835304918215610acc57919082610a3d565b610a42565b95830195610a02565b95906064600291049101956109f7565b600491979204910195886109ec565b600891979204910195886109df565b601091979204910195886109d0565b8691979204910195886109be565b6040985004915088806109a4565b5050505050604051610b4481611e5e565b6000815290610a83565b505060cb600052838560008051602061288c833981519152856000915b858310610b815750506109739350820101610967565b80919294505483858a0101520191018690858793610b6b565b60ff1916865261097394151560051b84010191506109679050565b346101d75760803660031901126101d757610bce611dfd565b610bd6611e13565b906064359060443567ffffffffffffffff83116101d75761018193610c02610c25943690600401611ed4565b92610c15610c1084336122d0565b612203565b610c20838383612398565b612663565b612265565b346101d75760403660031901126101d757610c43611dfd565b602435908115158092036101d7576001600160a01b031690813314610cb75733600052606a602052604060002082600052602052604060002060ff1981541660ff83161790556040519081527f17307eab39ab6107e8899845ad3d59bd9653f200f220920489ca2b5937696c3160203392a3005b60405162461bcd60e51b815260206004820152601960248201527f4552433732313a20617070726f766520746f2063616c6c6572000000000000006044820152606490fd5b346101d75760003660031901126101d75760206001600160a01b0360ca5416604051908152f35b346101d75760003660031901126101d7576040516000606654610d4581611f1b565b80845290600190818116908115610dde5750600114610d83575b610a9784610d6f81860382611e96565b604051918291602083526020830190611dd8565b6066600090815292507f46501879b8ca8525e8c2fd519e2fbfcfa2ebea26501294aa02cbfcfb12e943545b828410610dc6575050508101602001610d6f82610d5f565b80546020858701810191909152909301928101610dae565b60ff191660208087019190915292151560051b85019092019250610d6f9150839050610d5f565b346101d75760003660031901126101d75760206001600160a01b0360975416604051908152f35b346101d75760003660031901126101d757610e45611f55565b60006001600160a01b0360975481198116609755167f8be0079c531659141344cd1fd0a4f28419497f9722a3daafe3b4186f6b6457e08280a3005b346101d75760203660031901126101d7576001600160a01b03610ea1611dfd565b168015610ec05760005260686020526020604060002054604051908152f35b60405162461bcd60e51b815260206004820152602960248201527f4552433732313a2061646472657373207a65726f206973206e6f7420612076616044820152683634b21037bbb732b960b91b6064820152608490fd5b346101d75760003660031901126101d757604051600060cb54610f3981611f1b565b80845290600190818116908115610dde5750600114610f6257610a9784610d6f81860382611e96565b60cb6000908152925060008051602061288c8339815191525b828410610f93575050508101602001610d6f82610d5f565b80546020858701810191909152909301928101610f7b565b346101d75760203660031901126101d7576020610fc96004356121a1565b6001600160a01b0360405191168152f35b346101d7576020806003193601126101d75767ffffffffffffffff906004358281116101d75761100e903690600401611ed4565b90611017611f55565b81519283116105e95761102b60cb54611f1b565b601f8111611137575b508092601f81116001146110a657807fa8aa772a675cb7c8bea670d2fad08c31455d8f32379eac88542423d25cb0b9219460009161109b575b508160011b916000199060031b1c19161760cb555b611096604051928284938452830190611dd8565b0390a1005b90508301518561106d565b601f1981169360cb60005260008051602061288c8339815191529460005b81811061112057509482916001937fa8aa772a675cb7c8bea670d2fad08c31455d8f32379eac88542423d25cb0b9219710611107575b5050811b0160cb55611082565b85015160001960f88460031b161c1916905585806110fa565b8583015187556001909601959184019184016110c4565b60cb60005260008051602061288c833981519152601f850160051c81019183861061117f575b601f0160051c01905b8181106111735750611034565b60008155600101611166565b909150819061115d565b346101d75760003660031901126101d7576001600160a01b037f00000000000000000000000000000000000000000000000000000000000000001630036111f45760206040517f360894a13ba1a3210667c828492db98dca3e2076cc3735a920a3ca505d382bbc8152f35b60405162461bcd60e51b815260206004820152603860248201527f555550535570677261646561626c653a206d757374206e6f742062652063616c60448201527f6c6564207468726f7567682064656c656761746563616c6c00000000000000006064820152608490fd5b60403660031901126101d757611273611dfd565b60243567ffffffffffffffff81116101d757611293903690600401611ed4565b906001600160a01b03807f0000000000000000000000000000000000000000000000000000000000000000166112cb81301415611ff5565b6112fa7f360894a13ba1a3210667c828492db98dca3e2076cc3735a920a3ca505d382bbc918383541614612056565b8160ca54169060405180936302093f1d60e01b825285169283600483015281602460209687935afa9081156115a757600091611571575b501561152c5761133f611f55565b7f4910fdfa16fed3260ed0e7147f7cc6da11a60208b5b9406d12a635614ffd91435460ff16156113765750505061018191506120b7565b6040516352d1902d60e01b81529293928481600481865afa600091816114fd575b506113f85760405162461bcd60e51b815260048101869052602e60248201527f45524331393637557067726164653a206e657720696d706c656d656e7461746960448201526d6f6e206973206e6f74205555505360901b6064820152608490fd5b036114a657611406826120b7565b7fbc7cd75a20ee27fd9adebab32041f755214dbc6bffa90cc0225b39da2e5c2d3b600080a282511580159061149e575b61143c57005b600080610181946040519461145086611e7a565b602786527f416464726573733a206c6f772d6c6576656c2064656c65676174652063616c6c81870152660819985a5b195960ca1b604087015281519101845af46114986124f1565b916126c4565b506001611436565b60405162461bcd60e51b815260048101849052602960248201527f45524331393637557067726164653a20756e737570706f727465642070726f786044820152681a58589b195555525160ba1b6064820152608490fd5b9091508581813d8311611525575b6115158183611e96565b810103126101d757519087611397565b503d61150b565b60405162461bcd60e51b815260048101849052601c60248201527f494d504c454d454e45544154494f4e204e4f5420415050524f564544000000006044820152606490fd5b90508381813d83116115a0575b6115888183611e96565b810103126101d7575180151581036101d75786611331565b503d61157e565b6040513d6000823e3d90fd5b346101d75760003660031901126101d75760206001600160a01b0360cc5416604051908152f35b346101d75760203660031901126101d7577fb5b5ff4ec0735adc942b77efd721b86b1b579d7afac0c1ae614681eead1dfbe3602060043561161e610c1082336122d0565b61162781612809565b604051908152a1005b346101d757610181610c2561164436611e29565b906040519261165284611e5e565b60008452610c15610c1084336122d0565b346101d7576020806003193601126101d75761167d611dfd565b6001600160a01b03908160cc541633036117e157600160c95401918260c955604051906116a982611e5e565b60008252821691821561179e579161178b610c25604093867fe351802b022b8ba03353eafd05148198c0dc13061427df4dbbbbfc5c726a1b9e9661170c6117068360005260676020526001600160a01b0360406000205416151590565b156127bd565b61172f6117068360005260676020526001600160a01b0360406000205416151590565b8560005260688a5286600020600181540190558160005260678a5286600020866001600160a01b0319825416179055818660007fddf252ad1be2c89b69c2b068fc378daa952ba7f163c4a11628f55a4df523b3ef8180a4612521565b81519081528385820152a1604051908152f35b6064856040519062461bcd60e51b825280600483015260248201527f4552433732313a206d696e7420746f20746865207a65726f20616464726573736044820152fd5b60405162461bcd60e51b815260048101849052601760248201527f4f4e4c59204d414e4147455220415554484f52495345440000000000000000006044820152606490fd5b346101d7576020806003193601126101d757611840611dfd565b6001600160a01b0391827f0000000000000000000000000000000000000000000000000000000000000000169261187984301415611ff5565b6118a87f360894a13ba1a3210667c828492db98dca3e2076cc3735a920a3ca505d382bbc948286541614612056565b6024828260ca541692604051928380926302093f1d60e01b82528816958660048301525afa9081156115a757600091611a73575b5015611a2e576118ea611f55565b604051936118f785611e5e565b600085527f4910fdfa16fed3260ed0e7147f7cc6da11a60208b5b9406d12a635614ffd91435460ff16156119325750505061018191506120b7565b6040516352d1902d60e01b81529293928481600481865afa600091816119ff575b506119b45760405162461bcd60e51b815260048101869052602e60248201527f45524331393637557067726164653a206e657720696d706c656d656e7461746960448201526d6f6e206973206e6f74205555505360901b6064820152608490fd5b036114a6576119c2826120b7565b7fbc7cd75a20ee27fd9adebab32041f755214dbc6bffa90cc0225b39da2e5c2d3b600080a28251158015906119f75761143c57005b506000611436565b9091508581813d8311611a27575b611a178183611e96565b810103126101d757519087611953565b503d611a0d565b60405162461bcd60e51b815260048101839052601c60248201527f494d504c454d454e45544154494f4e204e4f5420415050524f564544000000006044820152606490fd5b90508281813d8311611aa2575b611a8a8183611e96565b810103126101d7575180151581036101d757856118dc565b503d611a80565b346101d757610181611aba36611e29565b91611ac8610c1084336122d0565b612398565b346101d75760203660031901126101d7577fb5b5ff4ec0735adc942b77efd721b86b1b579d7afac0c1ae614681eead1dfbe3602060043561161e611f55565b346101d75760403660031901126101d757611b25611dfd565b602435906001600160a01b038080611b3c856121a1565b16921691808314611c3757803314908115611c12575b5015611ba7578260005260696020526040600020826001600160a01b0319825416179055611b7f836121a1565b167f8c5be1e5ebec7d5bd14f71427d1e84f3dd0314c0f7b2291e5b200ac8c7c3b925600080a4005b60405162461bcd60e51b815260206004820152603d60248201527f4552433732313a20617070726f76652063616c6c6572206973206e6f7420746f60448201527f6b656e206f776e6572206f7220617070726f76656420666f7220616c6c0000006064820152608490fd5b9050600052606a60205260406000203360005260205260ff6040600020541684611b52565b60405162461bcd60e51b815260206004820152602160248201527f4552433732313a20617070726f76616c20746f2063757272656e74206f776e656044820152603960f91b6064820152608490fd5b346101d75760203660031901126101d7576020610fc96004356121c6565b346101d75760003660031901126101d7576040516000606554611cc681611f1b565b80845290600190818116908115610dde5750600114611cef57610a9784610d6f81860382611e96565b6065600090815292507f8ff97419363ffd7000167f130ef7168fbea05faf9251824ca5043f113cc6a7c75b828410611d32575050508101602001610d6f82610d5f565b80546020858701810191909152909301928101611d1a565b346101d75760203660031901126101d7576004359063ffffffff60e01b82168092036101d7576020916380ac58cd60e01b8114908115611da4575b8115611d93575b5015158152f35b6301ffc9a760e01b14905083611d8c565b635b5e139f60e01b81149150611d85565b60005b838110611dc85750506000910152565b8181015183820152602001611db8565b90602091611df181518092818552858086019101611db5565b601f01601f1916010190565b600435906001600160a01b03821682036101d757565b602435906001600160a01b03821682036101d757565b60609060031901126101d7576001600160a01b039060043582811681036101d7579160243590811681036101d7579060443590565b6020810190811067ffffffffffffffff8211176105e957604052565b6060810190811067ffffffffffffffff8211176105e957604052565b90601f8019910116810190811067ffffffffffffffff8211176105e957604052565b67ffffffffffffffff81116105e957601f01601f191660200190565b81601f820112156101d757803590611eeb82611eb8565b92611ef96040519485611e96565b828452602083830101116101d757816000926020809301838601378301015290565b90600182811c92168015611f4b575b6020831014611f3557565b634e487b7160e01b600052602260045260246000fd5b91607f1691611f2a565b6001600160a01b03609754163303611f6957565b606460405162461bcd60e51b815260206004820152602060248201527f4f776e61626c653a2063616c6c6572206973206e6f7420746865206f776e65726044820152fd5b609754906001600160a01b0380911691826001600160a01b0319821617609755167f8be0079c531659141344cd1fd0a4f28419497f9722a3daafe3b4186f6b6457e0600080a3565b15611ffc57565b60405162461bcd60e51b815260206004820152602c60248201527f46756e6374696f6e206d7573742062652063616c6c6564207468726f7567682060448201526b19195b1959d85d1958d85b1b60a21b6064820152608490fd5b1561205d57565b60405162461bcd60e51b815260206004820152602c60248201527f46756e6374696f6e206d7573742062652063616c6c6564207468726f7567682060448201526b6163746976652070726f787960a01b6064820152608490fd5b803b156120fa576001600160a01b037f360894a13ba1a3210667c828492db98dca3e2076cc3735a920a3ca505d382bbc91166001600160a01b0319825416179055565b60405162461bcd60e51b815260206004820152602d60248201527f455243313936373a206e657720696d706c656d656e746174696f6e206973206e60448201526c1bdd08184818dbdb9d1c9858dd609a1b6064820152608490fd5b1561215c57565b60405162461bcd60e51b815260206004820152601860248201527f4552433732313a20696e76616c696420746f6b656e20494400000000000000006044820152606490fd5b60005260676020526001600160a01b03604060002054166121c3811515612155565b90565b6121e961092d8260005260676020526001600160a01b0360406000205416151590565b60005260696020526001600160a01b036040600020541690565b1561220a57565b60405162461bcd60e51b815260206004820152602d60248201527f4552433732313a2063616c6c6572206973206e6f7420746f6b656e206f776e6560448201526c1c881bdc88185c1c1c9bdd9959609a1b6064820152608490fd5b1561226c57565b60405162461bcd60e51b815260206004820152603260248201527f4552433732313a207472616e7366657220746f206e6f6e20455243373231526560448201527131b2b4bb32b91034b6b83632b6b2b73a32b960711b6064820152608490fd5b0390fd5b906001600160a01b0380806122e4846121a1565b16931691838314938415612317575b508315612301575b50505090565b61230d919293506121c6565b16143880806122fb565b909350600052606a60205260406000208260005260205260ff6040600020541692386122f3565b1561234557565b60405162461bcd60e51b815260206004820152602560248201527f4552433732313a207472616e736665722066726f6d20696e636f72726563742060448201526437bbb732b960d91b6064820152608490fd5b906123c0916123a6846121a1565b916001600160a01b0393849384809416948591161461233e565b169182156124a0578161245b57816123e2916123db866121a1565b161461233e565b7fddf252ad1be2c89b69c2b068fc378daa952ba7f163c4a11628f55a4df523b3ef60008481526069602052604081206001600160a01b03199081815416905583825260686020526040822060001981540190558482526040822060018154019055858252606760205284604083209182541617905580a4565b60405162461bcd60e51b815260206004820152601c60248201527f546865204e4654206973206e6f6e207472616e736665727261626c65000000006044820152606490fd5b60405162461bcd60e51b8152602060048201526024808201527f4552433732313a207472616e7366657220746f20746865207a65726f206164646044820152637265737360e01b6064820152608490fd5b3d1561251c573d9061250282611eb8565b916125106040519384611e96565b82523d6000602084013e565b606090565b9091600091803b1561265a576125746020916001600160a01b039385604051958680958194630a85bd0160e11b9b8c84523360048501528560248501526044840152608060648401526084830190611dd8565b0393165af19082908261260b575b50506125fd576125906124f1565b805190816125f85760405162461bcd60e51b815260206004820152603260248201527f4552433732313a207472616e7366657220746f206e6f6e20455243373231526560448201527131b2b4bb32b91034b6b83632b6b2b73a32b960711b6064820152608490fd5b602001fd5b6001600160e01b0319161490565b909192506020813d8211612652575b8161262760209383611e96565b8101031261264e5751906001600160e01b03198216820361264b5750903880612582565b80fd5b5080fd5b3d915061261a565b50505050600190565b91926000929190813b156126ba576020916125749185604051958680958194630a85bd0160e11b9b8c84523360048501526001600160a01b0380951660248501526044840152608060648401526084830190611dd8565b5050505050600190565b9192901561272657508151156126d8575090565b3b156126e15790565b60405162461bcd60e51b815260206004820152601d60248201527f416464726573733a2063616c6c20746f206e6f6e2d636f6e74726163740000006044820152606490fd5b8251909150156127395750805190602001fd5b60405162461bcd60e51b8152602060048201529081906122cc906024830190611dd8565b1561276457565b60405162461bcd60e51b815260206004820152602b60248201527f496e697469616c697a61626c653a20636f6e7472616374206973206e6f74206960448201526a6e697469616c697a696e6760a81b6064820152608490fd5b156127c457565b60405162461bcd60e51b815260206004820152601c60248201527f4552433732313a20746f6b656e20616c7265616479206d696e746564000000006044820152606490fd5b612812816121a1565b5061281c816121a1565b60009082825260696020526001600160a01b036040832091811992838154169055169081835260686020526040832060001981540190558383526067602052604083209081541690557fddf252ad1be2c89b69c2b068fc378daa952ba7f163c4a11628f55a4df523b3ef8280a456fea7ce836d032b2bf62b7e2097a8e0a6d8aeb35405ad15271e96d3b0188a1d06fba2646970667358221220c7e50f72fad41e509c3160f58885aabbdd828b3ed735ee032f30d25a6b1917c164736f6c63430008130033",
  "devdoc": {
    "author": "Dhruv <contact.dhruvagarwal@gmail.com>",
    "events": {
      "AdminChanged(address,address)": {
        "details": "Emitted when the admin account has changed."
      },
      "Approval(address,address,uint256)": {
        "details": "Emitted when `owner` enables `approved` to manage the `tokenId` token."
      },
      "ApprovalForAll(address,address,bool)": {
        "details": "Emitted when `owner` enables or disables (`approved`) `operator` to manage all of its assets."
      },
      "BeaconUpgraded(address)": {
        "details": "Emitted when the beacon is changed."
      },
      "Initialized(uint8)": {
        "details": "Triggered when the contract has been initialized or reinitialized."
      },
      "Transfer(address,address,uint256)": {
        "details": "Emitted when `tokenId` token is transferred from `from` to `to`."
      },
      "Upgraded(address)": {
        "details": "Emitted when the implementation is upgraded."
      }
    },
    "kind": "dev",
    "methods": {
      "approve(address,uint256)": {
        "details": "See {IERC721-approve}."
      },
      "balanceOf(address)": {
        "details": "See {IERC721-balanceOf}."
      },
      "burn(uint256)": {
        "details": "burn an NFT",
        "params": {
          "tokenId": "tokenID to be minted"
        }
      },
      "constructor": {
        "details": "Lock implementation contract"
      },
      "getApproved(uint256)": {
        "details": "See {IERC721-getApproved}."
      },
      "initialize(string,string,string,address,address)": {
        "details": "Intialise the Course Certificate Contracts",
        "params": {
          "certificateBaseURI": "NFT URI , dynamic , off-chain server link , fetching progree & certificates for a Course Learner",
          "courseCertificateName": "Name of the Course Certificate, will also be the name of NFT Collection",
          "courseCertificateSymbol": "Symbol of the Course Certificate, will be the symbol of NFT Collection",
          "courseCreator": "creator of the Course , who will also control the Collection",
          "implmRegisteryAddress": "implm Registery for the Owlearn Protocol , only set by courseFactory"
        }
      },
      "isApprovedForAll(address,address)": {
        "details": "See {IERC721-isApprovedForAll}."
      },
      "name()": {
        "details": "See {IERC721Metadata-name}."
      },
      "owner()": {
        "details": "Returns the address of the current owner."
      },
      "ownerOf(uint256)": {
        "details": "See {IERC721-ownerOf}."
      },
      "proxiableUUID()": {
        "details": "Implementation of the ERC1822 {proxiableUUID} function. This returns the storage slot used by the implementation. It is used to validate the implementation's compatibility when performing an upgrade. IMPORTANT: A proxy pointing at a proxiable contract should not be considered proxiable itself, because this risks bricking a proxy that upgrades to it, by delegating to itself until out of gas. Thus it is critical that this function revert if invoked through a proxy. This is guaranteed by the `notDelegated` modifier."
      },
      "renounceOwnership()": {
        "details": "Leaves the contract without owner. It will not be possible to call `onlyOwner` functions. Can only be called by the current owner. NOTE: Renouncing ownership will leave the contract without an owner, thereby disabling any functionality that is only available to the owner."
      },
      "revoke(uint256)": {
        "details": "Revoke a Certificate NFT , in Case of issues",
        "params": {
          "tokenId": "tokenID to be minted"
        }
      },
      "safeMint(address)": {
        "details": "Safe Mint a Certificate to a learnerAnother restrictions could be added like a fees Minted by a manager , or need to be whitelisted restricted to manager for now , as the safeMint will be called from the OwlearnCourse.sol",
        "params": {
          "to": "Address to which NFT is to be minted"
        }
      },
      "safeTransferFrom(address,address,uint256)": {
        "details": "See {IERC721-safeTransferFrom}."
      },
      "safeTransferFrom(address,address,uint256,bytes)": {
        "details": "See {IERC721-safeTransferFrom}."
      },
      "setApprovalForAll(address,bool)": {
        "details": "See {IERC721-setApprovalForAll}."
      },
      "setBaseURI(string)": {
        "details": "Set a base URI for the NFT collection if needed",
        "params": {
          "newURI": "New Base URI to be set"
        }
      },
      "supportsInterface(bytes4)": {
        "details": "See {IERC165-supportsInterface}."
      },
      "symbol()": {
        "details": "See {IERC721Metadata-symbol}."
      },
      "tokenURI(uint256)": {
        "details": "See {IERC721Metadata-tokenURI}."
      },
      "transferFrom(address,address,uint256)": {
        "details": "See {IERC721-transferFrom}."
      },
      "transferOwnership(address)": {
        "details": "Transfers ownership of the contract to a new account (`newOwner`). Can only be called by the current owner."
      },
      "upgradeTo(address)": {
        "custom:oz-upgrades-unsafe-allow-reachable": "delegatecall",
        "details": "Upgrade the implementation of the proxy to `newImplementation`. Calls {_authorizeUpgrade}. Emits an {Upgraded} event."
      },
      "upgradeToAndCall(address,bytes)": {
        "custom:oz-upgrades-unsafe-allow-reachable": "delegatecall",
        "details": "Upgrade the implementation of the proxy to `newImplementation`, and subsequently execute the function call encoded in `data`. Calls {_authorizeUpgrade}. Emits an {Upgraded} event."
      }
    },
    "title": "OwlearnCourseCertificates",
    "version": 1
  },
  "userdoc": {
    "kind": "user",
    "methods": {},
    "notice": "ERC721 NFT Contract responsible for course certificates with Dynamic URI",
    "version": 1
  },
  "storageLayout": {
    "storage": [
      {
        "astId": 11058,
        "contract": "src/OwlearnCourse/Certificates/OwlearnCourseCertificates.sol:OwlearnCourseCertificates",
        "label": "_initialized",
        "offset": 0,
        "slot": "0",
        "type": "t_uint8"
      },
      {
        "astId": 11061,
        "contract": "src/OwlearnCourse/Certificates/OwlearnCourseCertificates.sol:OwlearnCourseCertificates",
        "label": "_initializing",
        "offset": 1,
        "slot": "0",
        "type": "t_bool"
      },
      {
        "astId": 14866,
        "contract": "src/OwlearnCourse/Certificates/OwlearnCourseCertificates.sol:OwlearnCourseCertificates",
        "label": "__gap",
        "offset": 0,
        "slot": "1",
        "type": "t_array(t_uint256)50_storage"
      },
      {
        "astId": 15323,
        "contract": "src/OwlearnCourse/Certificates/OwlearnCourseCertificates.sol:OwlearnCourseCertificates",
        "label": "__gap",
        "offset": 0,
        "slot": "51",
        "type": "t_array(t_uint256)50_storage"
      },
      {
        "astId": 13188,
        "contract": "src/OwlearnCourse/Certificates/OwlearnCourseCertificates.sol:OwlearnCourseCertificates",
        "label": "_name",
        "offset": 0,
        "slot": "101",
        "type": "t_string_storage"
      },
      {
        "astId": 13190,
        "contract": "src/OwlearnCourse/Certificates/OwlearnCourseCertificates.sol:OwlearnCourseCertificates",
        "label": "_symbol",
        "offset": 0,
        "slot": "102",
        "type": "t_string_storage"
      },
      {
        "astId": 13194,
        "contract": "src/OwlearnCourse/Certificates/OwlearnCourseCertificates.sol:OwlearnCourseCertificates",
        "label": "_owners",
        "offset": 0,
        "slot": "103",
        "type": "t_mapping(t_uint256,t_address)"
      },
      {
        "astId": 13198,
        "contract": "src/OwlearnCourse/Certificates/OwlearnCourseCertificates.sol:OwlearnCourseCertificates",
        "label": "_balances",
        "offset": 0,
        "slot": "104",
        "type": "t_mapping(t_address,t_uint256)"
      },
      {
        "astId": 13202,
        "contract": "src/OwlearnCourse/Certificates/OwlearnCourseCertificates.sol:OwlearnCourseCertificates",
        "label": "_tokenApprovals",
        "offset": 0,
        "slot": "105",
        "type": "t_mapping(t_uint256,t_address)"
      },
      {
        "astId": 13208,
        "contract": "src/OwlearnCourse/Certificates/OwlearnCourseCertificates.sol:OwlearnCourseCertificates",
        "label": "_operatorApprovals",
        "offset": 0,
        "slot": "106",
        "type": "t_mapping(t_address,t_mapping(t_address,t_bool))"
      },
      {
        "astId": 14110,
        "contract": "src/OwlearnCourse/Certificates/OwlearnCourseCertificates.sol:OwlearnCourseCertificates",
        "label": "__gap",
        "offset": 0,
        "slot": "107",
        "type": "t_array(t_uint256)44_storage"
      },
      {
        "astId": 10537,
        "contract": "src/OwlearnCourse/Certificates/OwlearnCourseCertificates.sol:OwlearnCourseCertificates",
        "label": "_owner",
        "offset": 0,
        "slot": "151",
        "type": "t_address"
      },
      {
        "astId": 10657,
        "contract": "src/OwlearnCourse/Certificates/OwlearnCourseCertificates.sol:OwlearnCourseCertificates",
        "label": "__gap",
        "offset": 0,
        "slot": "152",
        "type": "t_array(t_uint256)49_storage"
      },
      {
        "astId": 23385,
        "contract": "src/OwlearnCourse/Certificates/OwlearnCourseCertificates.sol:OwlearnCourseCertificates",
        "label": "_tokenIdCounter",
        "offset": 0,
        "slot": "201",
        "type": "t_struct(Counter)14873_storage"
      },
      {
        "astId": 23388,
        "contract": "src/OwlearnCourse/Certificates/OwlearnCourseCertificates.sol:OwlearnCourseCertificates",
        "label": "implRegistery",
        "offset": 0,
        "slot": "202",
        "type": "t_contract(ImplementationRegistery)23360"
      },
      {
        "astId": 23390,
        "contract": "src/OwlearnCourse/Certificates/OwlearnCourseCertificates.sol:OwlearnCourseCertificates",
        "label": "baseURI",
        "offset": 0,
        "slot": "203",
        "type": "t_string_storage"
      },
      {
        "astId": 23392,
        "contract": "src/OwlearnCourse/Certificates/OwlearnCourseCertificates.sol:OwlearnCourseCertificates",
        "label": "manager",
        "offset": 0,
        "slot": "204",
        "type": "t_address"
      },
      {
        "astId": 23396,
        "contract": "src/OwlearnCourse/Certificates/OwlearnCourseCertificates.sol:OwlearnCourseCertificates",
        "label": "__gap",
        "offset": 0,
        "slot": "205",
        "type": "t_array(t_uint256)50_storage"
      },
      {
        "astId": 11040,
        "contract": "src/OwlearnCourse/Certificates/OwlearnCourseCertificates.sol:OwlearnCourseCertificates",
        "label": "__gap",
        "offset": 0,
        "slot": "255",
        "type": "t_array(t_uint256)50_storage"
      },
      {
        "astId": 11355,
        "contract": "src/OwlearnCourse/Certificates/OwlearnCourseCertificates.sol:OwlearnCourseCertificates",
        "label": "__gap",
        "offset": 0,
        "slot": "305",
        "type": "t_array(t_uint256)50_storage"
      }
    ],
    "types": {
      "t_address": {
        "encoding": "inplace",
        "label": "address",
        "numberOfBytes": "20"
      },
      "t_array(t_uint256)44_storage": {
        "base": "t_uint256",
        "encoding": "inplace",
        "label": "uint256[44]",
        "numberOfBytes": "1408"
      },
      "t_array(t_uint256)49_storage": {
        "base": "t_uint256",
        "encoding": "inplace",
        "label": "uint256[49]",
        "numberOfBytes": "1568"
      },
      "t_array(t_uint256)50_storage": {
        "base": "t_uint256",
        "encoding": "inplace",
        "label": "uint256[50]",
        "numberOfBytes": "1600"
      },
      "t_bool": {
        "encoding": "inplace",
        "label": "bool",
        "numberOfBytes": "1"
      },
      "t_contract(ImplementationRegistery)23360": {
        "encoding": "inplace",
        "label": "contract ImplementationRegistery",
        "numberOfBytes": "20"
      },
      "t_mapping(t_address,t_bool)": {
        "encoding": "mapping",
        "key": "t_address",
        "label": "mapping(address => bool)",
        "numberOfBytes": "32",
        "value": "t_bool"
      },
      "t_mapping(t_address,t_mapping(t_address,t_bool))": {
        "encoding": "mapping",
        "key": "t_address",
        "label": "mapping(address => mapping(address => bool))",
        "numberOfBytes": "32",
        "value": "t_mapping(t_address,t_bool)"
      },
      "t_mapping(t_address,t_uint256)": {
        "encoding": "mapping",
        "key": "t_address",
        "label": "mapping(address => uint256)",
        "numberOfBytes": "32",
        "value": "t_uint256"
      },
      "t_mapping(t_uint256,t_address)": {
        "encoding": "mapping",
        "key": "t_uint256",
        "label": "mapping(uint256 => address)",
        "numberOfBytes": "32",
        "value": "t_address"
      },
      "t_string_storage": {
        "encoding": "bytes",
        "label": "string",
        "numberOfBytes": "32"
      },
      "t_struct(Counter)14873_storage": {
        "encoding": "inplace",
        "label": "struct CountersUpgradeable.Counter",
        "members": [
          {
            "astId": 14872,
            "contract": "src/OwlearnCourse/Certificates/OwlearnCourseCertificates.sol:OwlearnCourseCertificates",
            "label": "_value",
            "offset": 0,
            "slot": "0",
            "type": "t_uint256"
          }
        ],
        "numberOfBytes": "32"
      },
      "t_uint256": {
        "encoding": "inplace",
        "label": "uint256",
        "numberOfBytes": "32"
      },
      "t_uint8": {
        "encoding": "inplace",
        "label": "uint8",
        "numberOfBytes": "1"
      }
    }
  }
}