{
  "address": "0x78eAE42Eb24d4794A8FA0E9dF9846aF65d87BF29",
  "abi": [
    {
      "inputs": [],
      "stateMutability": "nonpayable",
      "type": "constructor"
    },
    {
      "inputs": [],
      "name": "AlreadyRegistered",
      "type": "error"
    },
    {
      "inputs": [
        {
          "internalType": "string",
          "name": "name",
          "type": "string"
        }
      ],
      "name": "InvalidName",
      "type": "error"
    },
    {
      "inputs": [],
      "name": "Unauthorized",
      "type": "error"
    },
    {
      "inputs": [],
      "name": "notAllowlisted",
      "type": "error"
    },
    {
      "inputs": [],
      "name": "usernameBlackListed",
      "type": "error"
    },
    {
      "anonymous": false,
      "inputs": [
        {
          "indexed": false,
          "internalType": "address",
          "name": "previousAdmin",
          "type": "address"
        },
        {
          "indexed": false,
          "internalType": "address",
          "name": "newAdmin",
          "type": "address"
        }
      ],
      "name": "AdminChanged",
      "type": "event"
    },
    {
      "anonymous": false,
      "inputs": [
        {
          "indexed": true,
          "internalType": "address",
          "name": "owner",
          "type": "address"
        },
        {
          "indexed": true,
          "internalType": "address",
          "name": "approved",
          "type": "address"
        },
        {
          "indexed": true,
          "internalType": "uint256",
          "name": "tokenId",
          "type": "uint256"
        }
      ],
      "name": "Approval",
      "type": "event"
    },
    {
      "anonymous": false,
      "inputs": [
        {
          "indexed": true,
          "internalType": "address",
          "name": "owner",
          "type": "address"
        },
        {
          "indexed": true,
          "internalType": "address",
          "name": "operator",
          "type": "address"
        },
        {
          "indexed": false,
          "internalType": "bool",
          "name": "approved",
          "type": "bool"
        }
      ],
      "name": "ApprovalForAll",
      "type": "event"
    },
    {
      "anonymous": false,
      "inputs": [
        {
          "indexed": false,
          "internalType": "uint256",
          "name": "_fromTokenId",
          "type": "uint256"
        },
        {
          "indexed": false,
          "internalType": "uint256",
          "name": "_toTokenId",
          "type": "uint256"
        }
      ],
      "name": "BatchMetadataUpdate",
      "type": "event"
    },
    {
      "anonymous": false,
      "inputs": [
        {
          "indexed": true,
          "internalType": "address",
          "name": "beacon",
          "type": "address"
        }
      ],
      "name": "BeaconUpgraded",
      "type": "event"
    },
    {
      "anonymous": false,
      "inputs": [
        {
          "indexed": false,
          "internalType": "uint8",
          "name": "version",
          "type": "uint8"
        }
      ],
      "name": "Initialized",
      "type": "event"
    },
    {
      "anonymous": false,
      "inputs": [
        {
          "indexed": false,
          "internalType": "uint256",
          "name": "_tokenId",
          "type": "uint256"
        }
      ],
      "name": "MetadataUpdate",
      "type": "event"
    },
    {
      "anonymous": false,
      "inputs": [
        {
          "indexed": false,
          "internalType": "address",
          "name": "user",
          "type": "address"
        },
        {
          "indexed": false,
          "internalType": "string",
          "name": "name",
          "type": "string"
        },
        {
          "indexed": false,
          "internalType": "uint256",
          "name": "tokenId",
          "type": "uint256"
        }
      ],
      "name": "OwlIdRegistered",
      "type": "event"
    },
    {
      "anonymous": false,
      "inputs": [
        {
          "indexed": true,
          "internalType": "address",
          "name": "previousOwner",
          "type": "address"
        },
        {
          "indexed": true,
          "internalType": "address",
          "name": "newOwner",
          "type": "address"
        }
      ],
      "name": "OwnershipTransferred",
      "type": "event"
    },
    {
      "anonymous": false,
      "inputs": [
        {
          "indexed": true,
          "internalType": "address",
          "name": "from",
          "type": "address"
        },
        {
          "indexed": true,
          "internalType": "address",
          "name": "to",
          "type": "address"
        },
        {
          "indexed": true,
          "internalType": "uint256",
          "name": "tokenId",
          "type": "uint256"
        }
      ],
      "name": "Transfer",
      "type": "event"
    },
    {
      "anonymous": false,
      "inputs": [
        {
          "indexed": true,
          "internalType": "address",
          "name": "implementation",
          "type": "address"
        }
      ],
      "name": "Upgraded",
      "type": "event"
    },
    {
      "inputs": [],
      "name": "FOUR_LETTER_MULTIPLIER",
      "outputs": [
        {
          "internalType": "uint256",
          "name": "",
          "type": "uint256"
        }
      ],
      "stateMutability": "view",
      "type": "function"
    },
    {
      "inputs": [],
      "name": "ONE_LETTER_MULTIPLIER",
      "outputs": [
        {
          "internalType": "uint256",
          "name": "",
          "type": "uint256"
        }
      ],
      "stateMutability": "view",
      "type": "function"
    },
    {
      "inputs": [],
      "name": "PRICE_MULTIPLIER",
      "outputs": [
        {
          "internalType": "uint256",
          "name": "",
          "type": "uint256"
        }
      ],
      "stateMutability": "view",
      "type": "function"
    },
    {
      "inputs": [],
      "name": "THREE_LETTER_MULTIPLIER",
      "outputs": [
        {
          "internalType": "uint256",
          "name": "",
          "type": "uint256"
        }
      ],
      "stateMutability": "view",
      "type": "function"
    },
    {
      "inputs": [],
      "name": "TWO_LETTER_MULTIPLIER",
      "outputs": [
        {
          "internalType": "uint256",
          "name": "",
          "type": "uint256"
        }
      ],
      "stateMutability": "view",
      "type": "function"
    },
    {
      "inputs": [],
      "name": "allowlistMerkleRoot",
      "outputs": [
        {
          "internalType": "bytes32",
          "name": "",
          "type": "bytes32"
        }
      ],
      "stateMutability": "view",
      "type": "function"
    },
    {
      "inputs": [
        {
          "internalType": "address",
          "name": "to",
          "type": "address"
        },
        {
          "internalType": "uint256",
          "name": "tokenId",
          "type": "uint256"
        }
      ],
      "name": "approve",
      "outputs": [],
      "stateMutability": "nonpayable",
      "type": "function"
    },
    {
      "inputs": [
        {
          "internalType": "address",
          "name": "owner",
          "type": "address"
        }
      ],
      "name": "balanceOf",
      "outputs": [
        {
          "internalType": "uint256",
          "name": "",
          "type": "uint256"
        }
      ],
      "stateMutability": "view",
      "type": "function"
    },
    {
      "inputs": [],
      "name": "blackListNameMerkleRoot",
      "outputs": [
        {
          "internalType": "bytes32",
          "name": "",
          "type": "bytes32"
        }
      ],
      "stateMutability": "view",
      "type": "function"
    },
    {
      "inputs": [
        {
          "internalType": "bytes32[]",
          "name": "proof",
          "type": "bytes32[]"
        },
        {
          "internalType": "address",
          "name": "user",
          "type": "address"
        }
      ],
      "name": "checkAllowlist",
      "outputs": [
        {
          "internalType": "bool",
          "name": "isAllowed",
          "type": "bool"
        }
      ],
      "stateMutability": "view",
      "type": "function"
    },
    {
      "inputs": [
        {
          "internalType": "bytes32[]",
          "name": "proof",
          "type": "bytes32[]"
        },
        {
          "internalType": "string",
          "name": "_username",
          "type": "string"
        }
      ],
      "name": "checkBlackListName",
      "outputs": [
        {
          "internalType": "bool",
          "name": "isAllowed",
          "type": "bool"
        }
      ],
      "stateMutability": "view",
      "type": "function"
    },
    {
      "inputs": [
        {
          "internalType": "string",
          "name": "_username",
          "type": "string"
        }
      ],
      "name": "checkHandle",
      "outputs": [
        {
          "internalType": "bool",
          "name": "isEligible",
          "type": "bool"
        }
      ],
      "stateMutability": "view",
      "type": "function"
    },
    {
      "inputs": [
        {
          "internalType": "address",
          "name": "user",
          "type": "address"
        }
      ],
      "name": "checkLensHandle",
      "outputs": [
        {
          "internalType": "bool",
          "name": "ownsLensHandle",
          "type": "bool"
        }
      ],
      "stateMutability": "view",
      "type": "function"
    },
    {
      "inputs": [
        {
          "internalType": "string",
          "name": "",
          "type": "string"
        }
      ],
      "name": "domainNames",
      "outputs": [
        {
          "internalType": "string",
          "name": "domain",
          "type": "string"
        },
        {
          "internalType": "address",
          "name": "user",
          "type": "address"
        },
        {
          "internalType": "uint256",
          "name": "tokenId",
          "type": "uint256"
        }
      ],
      "stateMutability": "view",
      "type": "function"
    },
    {
      "inputs": [
        {
          "internalType": "address",
          "name": "",
          "type": "address"
        }
      ],
      "name": "domainRecords",
      "outputs": [
        {
          "internalType": "string",
          "name": "",
          "type": "string"
        }
      ],
      "stateMutability": "view",
      "type": "function"
    },
    {
      "inputs": [
        {
          "internalType": "uint256",
          "name": "tokenId",
          "type": "uint256"
        }
      ],
      "name": "getApproved",
      "outputs": [
        {
          "internalType": "address",
          "name": "",
          "type": "address"
        }
      ],
      "stateMutability": "view",
      "type": "function"
    },
    {
      "inputs": [
        {
          "internalType": "string",
          "name": "_username",
          "type": "string"
        }
      ],
      "name": "getNameRecord",
      "outputs": [
        {
          "components": [
            {
              "internalType": "string",
              "name": "domain",
              "type": "string"
            },
            {
              "internalType": "address",
              "name": "user",
              "type": "address"
            },
            {
              "internalType": "uint256",
              "name": "tokenId",
              "type": "uint256"
            }
          ],
          "internalType": "struct OwlearnIdStorage.Record",
          "name": "",
          "type": "tuple"
        }
      ],
      "stateMutability": "view",
      "type": "function"
    },
    {
      "inputs": [
        {
          "internalType": "address",
          "name": "user",
          "type": "address"
        }
      ],
      "name": "getNameRecordFromAddress",
      "outputs": [
        {
          "internalType": "string",
          "name": "",
          "type": "string"
        }
      ],
      "stateMutability": "view",
      "type": "function"
    },
    {
      "inputs": [
        {
          "internalType": "string",
          "name": "_username",
          "type": "string"
        },
        {
          "internalType": "address",
          "name": "user",
          "type": "address"
        }
      ],
      "name": "getPrice",
      "outputs": [
        {
          "internalType": "uint256",
          "name": "",
          "type": "uint256"
        }
      ],
      "stateMutability": "view",
      "type": "function"
    },
    {
      "inputs": [
        {
          "internalType": "string",
          "name": "_tld",
          "type": "string"
        },
        {
          "internalType": "address",
          "name": "_lensHub",
          "type": "address"
        },
        {
          "internalType": "bytes32",
          "name": "_allowListmerkleRoot",
          "type": "bytes32"
        },
        {
          "internalType": "bytes32",
          "name": "_blackListNameMerkleRoot",
          "type": "bytes32"
        }
      ],
      "name": "initialize",
      "outputs": [],
      "stateMutability": "payable",
      "type": "function"
    },
    {
      "inputs": [
        {
          "internalType": "address",
          "name": "owner",
          "type": "address"
        },
        {
          "internalType": "address",
          "name": "operator",
          "type": "address"
        }
      ],
      "name": "isApprovedForAll",
      "outputs": [
        {
          "internalType": "bool",
          "name": "",
          "type": "bool"
        }
      ],
      "stateMutability": "view",
      "type": "function"
    },
    {
      "inputs": [],
      "name": "lensHub",
      "outputs": [
        {
          "internalType": "contract ILensHub",
          "name": "",
          "type": "address"
        }
      ],
      "stateMutability": "view",
      "type": "function"
    },
    {
      "inputs": [],
      "name": "name",
      "outputs": [
        {
          "internalType": "string",
          "name": "",
          "type": "string"
        }
      ],
      "stateMutability": "view",
      "type": "function"
    },
    {
      "inputs": [],
      "name": "owner",
      "outputs": [
        {
          "internalType": "address",
          "name": "",
          "type": "address"
        }
      ],
      "stateMutability": "view",
      "type": "function"
    },
    {
      "inputs": [
        {
          "internalType": "uint256",
          "name": "tokenId",
          "type": "uint256"
        }
      ],
      "name": "ownerOf",
      "outputs": [
        {
          "internalType": "address",
          "name": "",
          "type": "address"
        }
      ],
      "stateMutability": "view",
      "type": "function"
    },
    {
      "inputs": [],
      "name": "proxiableUUID",
      "outputs": [
        {
          "internalType": "bytes32",
          "name": "",
          "type": "bytes32"
        }
      ],
      "stateMutability": "view",
      "type": "function"
    },
    {
      "inputs": [
        {
          "internalType": "string",
          "name": "_username",
          "type": "string"
        },
        {
          "internalType": "bytes32[]",
          "name": "allowListProof",
          "type": "bytes32[]"
        },
        {
          "internalType": "bytes32[]",
          "name": "blackListProof",
          "type": "bytes32[]"
        }
      ],
      "name": "registerOwlId",
      "outputs": [
        {
          "internalType": "uint256",
          "name": "recordID",
          "type": "uint256"
        }
      ],
      "stateMutability": "payable",
      "type": "function"
    },
    {
      "inputs": [
        {
          "internalType": "address",
          "name": "to",
          "type": "address"
        },
        {
          "internalType": "string",
          "name": "_username",
          "type": "string"
        },
        {
          "internalType": "bytes32[]",
          "name": "proof",
          "type": "bytes32[]"
        }
      ],
      "name": "registerRestrictedNames",
      "outputs": [
        {
          "internalType": "uint256",
          "name": "recordID",
          "type": "uint256"
        }
      ],
      "stateMutability": "payable",
      "type": "function"
    },
    {
      "inputs": [],
      "name": "renounceOwnership",
      "outputs": [],
      "stateMutability": "nonpayable",
      "type": "function"
    },
    {
      "inputs": [
        {
          "internalType": "address",
          "name": "from",
          "type": "address"
        },
        {
          "internalType": "address",
          "name": "to",
          "type": "address"
        },
        {
          "internalType": "uint256",
          "name": "tokenId",
          "type": "uint256"
        }
      ],
      "name": "safeTransferFrom",
      "outputs": [],
      "stateMutability": "nonpayable",
      "type": "function"
    },
    {
      "inputs": [
        {
          "internalType": "address",
          "name": "from",
          "type": "address"
        },
        {
          "internalType": "address",
          "name": "to",
          "type": "address"
        },
        {
          "internalType": "uint256",
          "name": "tokenId",
          "type": "uint256"
        },
        {
          "internalType": "bytes",
          "name": "data",
          "type": "bytes"
        }
      ],
      "name": "safeTransferFrom",
      "outputs": [],
      "stateMutability": "nonpayable",
      "type": "function"
    },
    {
      "inputs": [
        {
          "internalType": "address",
          "name": "operator",
          "type": "address"
        },
        {
          "internalType": "bool",
          "name": "approved",
          "type": "bool"
        }
      ],
      "name": "setApprovalForAll",
      "outputs": [],
      "stateMutability": "nonpayable",
      "type": "function"
    },
    {
      "inputs": [
        {
          "internalType": "bytes4",
          "name": "interfaceId",
          "type": "bytes4"
        }
      ],
      "name": "supportsInterface",
      "outputs": [
        {
          "internalType": "bool",
          "name": "",
          "type": "bool"
        }
      ],
      "stateMutability": "view",
      "type": "function"
    },
    {
      "inputs": [],
      "name": "symbol",
      "outputs": [
        {
          "internalType": "string",
          "name": "",
          "type": "string"
        }
      ],
      "stateMutability": "view",
      "type": "function"
    },
    {
      "inputs": [],
      "name": "tld",
      "outputs": [
        {
          "internalType": "string",
          "name": "",
          "type": "string"
        }
      ],
      "stateMutability": "view",
      "type": "function"
    },
    {
      "inputs": [
        {
          "internalType": "uint256",
          "name": "tokenId",
          "type": "uint256"
        }
      ],
      "name": "tokenURI",
      "outputs": [
        {
          "internalType": "string",
          "name": "",
          "type": "string"
        }
      ],
      "stateMutability": "view",
      "type": "function"
    },
    {
      "inputs": [
        {
          "internalType": "address",
          "name": "from",
          "type": "address"
        },
        {
          "internalType": "address",
          "name": "to",
          "type": "address"
        },
        {
          "internalType": "uint256",
          "name": "tokenId",
          "type": "uint256"
        }
      ],
      "name": "transferFrom",
      "outputs": [],
      "stateMutability": "nonpayable",
      "type": "function"
    },
    {
      "inputs": [
        {
          "internalType": "address",
          "name": "newOwner",
          "type": "address"
        }
      ],
      "name": "transferOwnership",
      "outputs": [],
      "stateMutability": "nonpayable",
      "type": "function"
    },
    {
      "inputs": [
        {
          "internalType": "bytes32",
          "name": "_allowListmerkleRoot",
          "type": "bytes32"
        }
      ],
      "name": "updateAllowlistMerkleRoot",
      "outputs": [],
      "stateMutability": "nonpayable",
      "type": "function"
    },
    {
      "inputs": [
        {
          "internalType": "bytes32",
          "name": "_blackListNameMerkleRoot",
          "type": "bytes32"
        }
      ],
      "name": "updateBlacklistNameMerkleRoot",
      "outputs": [],
      "stateMutability": "nonpayable",
      "type": "function"
    },
    {
      "inputs": [
        {
          "internalType": "address",
          "name": "newImplementation",
          "type": "address"
        }
      ],
      "name": "upgradeTo",
      "outputs": [],
      "stateMutability": "nonpayable",
      "type": "function"
    },
    {
      "inputs": [
        {
          "internalType": "address",
          "name": "newImplementation",
          "type": "address"
        },
        {
          "internalType": "bytes",
          "name": "data",
          "type": "bytes"
        }
      ],
      "name": "upgradeToAndCall",
      "outputs": [],
      "stateMutability": "payable",
      "type": "function"
    },
    {
      "inputs": [],
      "name": "withdraw",
      "outputs": [],
      "stateMutability": "nonpayable",
      "type": "function"
    }
  ],
  "numDeployments": 6,
  "solcInputHash": "1ae6a10028eeaab013c520242dce2dc7",
  "bytecode": "0x60a08060405234610031573060805261516e908161003782396080518181816128fa015281816129f30152612e160152f35b600080fdfe60806040818152600436101561001457600080fd5b600091823560e01c90816301ffc9a71461336d5750806306fdde03146132c4578063081812fc1461329c578063095ea7b31461312157806310e84ec614613106578063113990b8146130eb57806314fe58291461302757806323b872dd14613002578063293108e014612fe45780632d55143214612fc75780633659cfe614612dee578063392cb46614612da85780633ccfd60b14612d27578063403f966614612c9157806342842e0e14612c5e5780634f1ef286146129b257806352d1902d146128dd5780635bb90ab1146128c25780636352211e1461289257806369cf4c56146124c757806370a08231146127ff578063715018a6146127ab5780638b5c2504146127905780638da5cb5b14612769578063919facca1461274657806394a764711461272757806395d89b4114612643578063967e971b14612628578063a22cb4651461255f578063a8239d0b14612512578063abcc6e7b146124c7578063b02cfdc3146124a0578063b88d4fde1461242a578063bde9afa5146123eb578063c87b56dd14612374578063ccad5ab91461234f578063e54a330414611fd1578063e57fb7c71461072e578063e694c8be1461070a578063e985e9c5146106bd578063ea3f36ac146102f9578063f17481961461028f5763f2fde38b146101fb57600080fd5b3461028b57602036600319011261028b5761021461343c565b9061021d61379a565b6001600160a01b038216156102395750610236906137f2565b80f35b5162461bcd60e51b815260206004820152602660248201527f4f776e61626c653a206e6577206f776e657220697320746865207a65726f206160448201526564647265737360d01b6064820152608490fd5b5080fd5b503461028b578060031936011261028b5767ffffffffffffffff9160043583811161028b576102c29036906004016136f8565b9390916024359182116102f65750926102ed916102e5602095369060040161346d565b9290916143da565b90519015158152f35b80fd5b509060603660031901126102f65767ffffffffffffffff916004358381116106b95761032990369060040161346d565b6024929192358581116106b5576103449036906004016136f8565b6044358781116106b15761035f6103699136906004016136f8565b9390923391614349565b156106a0578461037a9284926143da565b61068f576103888184614412565b1561067e576103a361039b3383866140c5565b3410156144e1565b6103ad8184614a37565b926101996104226103e68254966103df886103c661452d565b6103d1368a8a613745565b6103d9613596565b916146ce565b8585614c83565b6103f66103f161458c565b6146a0565b610407816104026145eb565b613fdc565b6104126103f1614615565b61041c873361473d565b8661489d565b835161042d8161350a565b610438368585613745565b81526020978882019033825286830198888a5233815260fb8b528781208288116105fa576104708861046a83546134d0565b83613f97565b87828d601f83116001146106195750839161060e575b508860011b906000198a60031b1c19161790555b8751878782378b8189810160fc815203019020935180519283116105fa576104cc836104c687546134d0565b87613f97565b8b91601f841160011461056d57926002949281927f4f7b030b13ad1e7f83970740f723ce3d718b9472443b4b2a75f535a79e973ce79b9c9d9592610562575b50508160011b916000199060031b1c19161784555b6001600160a01b03600185019151166001600160a01b031982541617905551910155600181540190556105598585519384933385614674565b0390a151908152f35b01519050388061050b565b8581528c8120929190601f198516908e5b8282106105e25750509260019285927f4f7b030b13ad1e7f83970740f723ce3d718b9472443b4b2a75f535a79e973ce79c9d9e9660029896106105c9575b505050811b018455610520565b015160001960f88460031b161c191690553880806105bc565b8060018697829497870151815501960194019061057e565b634e487b7160e01b82526041600452602482fd5b905087013538610486565b91601f1981168486528386209386905b8c8383106106635750505010610649575b5050600188811b01905561049a565b88013560001960038b901b60f8161c19169055388061063a565b8501358655600190950194938401938d935090810190610629565b8151630ea075bf60e21b8152600490fd5b815163097e8be960e01b8152600490fd5b8351639693bf4760e01b8152600490fd5b8680fd5b8480fd5b8280fd5b503461028b578060031936011261028b5760ff816020936106dc61343c565b6106e4613457565b6001600160a01b039182168352606a875283832091168252855220549151911615158152f35b82346102f65760203660031901126102f65761072461379a565b6004356101005580f35b50608036600319011261028b5760043567ffffffffffffffff81116106b95761075b90369060040161377c565b610763613457565b9083549160ff8360081c161592838094611fc4575b8015611fad575b15611f525760ff198116600117865583611f41575b5083516107a081613558565b600a81526913dddb19585c9b88125960b21b602082015284516107c281613558565b6005918282526413d5d3125160da1b60208301526107ef60ff895460081c166107ea81614044565b614044565b80519067ffffffffffffffff8211611f2d57819061080e6065546134d0565b601f8111611ed6575b50602090601f8311600114611e4e578a92611e43575b50508160011b916000199060031b1c1916176065555b80519067ffffffffffffffff8211611e2f5781906108626066546134d0565b601f8111611dd8575b50602090601f8311600114611d55578992611d4a575b50508160011b916000199060031b1c1916176066555b6108ab60ff875460081c166107ea81614044565b6108b4336137f2565b825167ffffffffffffffff8111611d36576108d060fd546134d0565b601f8111611cdf575b50806020601f8211600114611c5e578891611c53575b508160011b916000199060031b1c19161760fd555b61010161091181546134d0565b601f8111611bf2575b506110d7815586527f3c73766720786d6c6e733d22687474703a2f2f7777772e77332e6f72672f32307f109ea3cebb188b9c1b9fc5bb3920be60dfdc8699098dff92f3d80daaca747689557f30302f737667222077696474683d2232373022206865696768743d22323730227f109ea3cebb188b9c1b9fc5bb3920be60dfdc8699098dff92f3d80daaca74768a557f2066696c6c3d226e6f6e65223e3c706174682066696c6c3d2275726c282342297f109ea3cebb188b9c1b9fc5bb3920be60dfdc8699098dff92f3d80daaca74768b557f2220643d224d302030683237307632373048307a222f3e3c646566733e3c66697f109ea3cebb188b9c1b9fc5bb3920be60dfdc8699098dff92f3d80daaca74768c557f6c7465722069643d22412220636f6c6f722d696e746572706f6c6174696f6e2d7f109ea3cebb188b9c1b9fc5bb3920be60dfdc8699098dff92f3d80daaca74768d557f66696c746572733d2273524742222066696c746572556e6974733d22757365727f109ea3cebb188b9c1b9fc5bb3920be60dfdc8699098dff92f3d80daaca74768e557f53706163654f6e55736522206865696768743d22323730222077696474683d227f109ea3cebb188b9c1b9fc5bb3920be60dfdc8699098dff92f3d80daaca74768f557f323730223e3c666544726f70536861646f772064783d2230222064793d2231227f109ea3cebb188b9c1b9fc5bb3920be60dfdc8699098dff92f3d80daaca747690557f20737464446576696174696f6e3d22322220666c6f6f642d6f7061636974793d7f109ea3cebb188b9c1b9fc5bb3920be60dfdc8699098dff92f3d80daaca747691557f222e323235222077696474683d223230302522206865696768743d22323030257f109ea3cebb188b9c1b9fc5bb3920be60dfdc8699098dff92f3d80daaca747692557f222f3e3c2f66696c7465723e3c2f646566733e3c7061746820643d224d37322e7f109ea3cebb188b9c1b9fc5bb3920be60dfdc8699098dff92f3d80daaca747693557f3836332034322e393439632d2e3636382d2e3338372d312e3432362d2e35392d7f109ea3cebb188b9c1b9fc5bb3920be60dfdc8699098dff92f3d80daaca747694557f322e3139372d2e3539732d312e3532392e3230342d322e3139372e35396c2d317f109ea3cebb188b9c1b9fc5bb3920be60dfdc8699098dff92f3d80daaca747695557f302e30383120362e3033322d362e383520332e3933342d31302e30383120362e7f109ea3cebb188b9c1b9fc5bb3920be60dfdc8699098dff92f3d80daaca747696557f303332632d2e3636382e3338372d312e3432362e35392d322e3139372e3539737f109ea3cebb188b9c1b9fc5bb3920be60dfdc8699098dff92f3d80daaca747697557f2d312e3532392d2e3230342d322e3139372d2e35396c2d382e3031332d342e377f109ea3cebb188b9c1b9fc5bb3920be60dfdc8699098dff92f3d80daaca747698557f323161342e353220342e35322030203020312d312e3538392d312e363136632d7f109ea3cebb188b9c1b9fc5bb3920be60dfdc8699098dff92f3d80daaca747699557f2e3338342d2e3636352d2e3539342d312e3431382d2e3630382d322e313837767f109ea3cebb188b9c1b9fc5bb3920be60dfdc8699098dff92f3d80daaca74769a557f2d392e3331632d2e3031332d2e3737352e3138352d312e3533382e3537322d327f109ea3cebb188b9c1b9fc5bb3920be60dfdc8699098dff92f3d80daaca74769b557f2e32303861342e323520342e323520302030203120312e3632352d312e3539357f109ea3cebb188b9c1b9fc5bb3920be60dfdc8699098dff92f3d80daaca74769c557f6c372e3838342d342e3539632e3636382d2e33383720312e3432362d2e3539207f109ea3cebb188b9c1b9fc5bb3920be60dfdc8699098dff92f3d80daaca74769d557f322e3139372d2e353973312e3532392e32303420322e3139372e35396c372e387f109ea3cebb188b9c1b9fc5bb3920be60dfdc8699098dff92f3d80daaca74769e557f383420342e353961342e353220342e353220302030203120312e35383920312e7f109ea3cebb188b9c1b9fc5bb3920be60dfdc8699098dff92f3d80daaca74769f557f363136632e3338342e3636352e35393420312e3431382e36303820322e3138377f109ea3cebb188b9c1b9fc5bb3920be60dfdc8699098dff92f3d80daaca7476a0557f76362e3033326c362e38352d342e303635762d362e303332632e3031332d2e377f109ea3cebb188b9c1b9fc5bb3920be60dfdc8699098dff92f3d80daaca7476a1557f37352d2e3138352d312e3533382d2e3537322d322e32303861342e323520342e7f109ea3cebb188b9c1b9fc5bb3920be60dfdc8699098dff92f3d80daaca7476a2557f32352030203020302d312e3632352d312e3539354c34312e3435362032342e357f109ea3cebb188b9c1b9fc5bb3920be60dfdc8699098dff92f3d80daaca7476a3557f39632d2e3636382d2e3338372d312e3432362d2e35392d322e3139372d2e35397f109ea3cebb188b9c1b9fc5bb3920be60dfdc8699098dff92f3d80daaca7476a4557f732d312e3532392e3230342d322e3139372e35396c2d31342e38363420382e367f109ea3cebb188b9c1b9fc5bb3920be60dfdc8699098dff92f3d80daaca7476a5557f353561342e323520342e32352030203020302d312e36323520312e353935632d7f109ea3cebb188b9c1b9fc5bb3920be60dfdc8699098dff92f3d80daaca7476a6557f2e3338372e36372d2e35383520312e3433342d2e35373220322e3230387631377f109ea3cebb188b9c1b9fc5bb3920be60dfdc8699098dff92f3d80daaca7476a7557f2e343431632d2e3031332e3737352e31383520312e3533382e35373220322e327f109ea3cebb188b9c1b9fc5bb3920be60dfdc8699098dff92f3d80daaca7476a8557f303861342e323520342e323520302030203020312e36323520312e3539356c317f109ea3cebb188b9c1b9fc5bb3920be60dfdc8699098dff92f3d80daaca7476a9557f342e38363420382e363535632e3636382e33383720312e3432362e353920322e7f109ea3cebb188b9c1b9fc5bb3920be60dfdc8699098dff92f3d80daaca7476aa557f3139372e353973312e3532392d2e32303420322e3139372d2e35396c31302e307f109ea3cebb188b9c1b9fc5bb3920be60dfdc8699098dff92f3d80daaca7476ab557f38312d352e39303120362e38352d342e3036352031302e3038312d352e3930317f109ea3cebb188b9c1b9fc5bb3920be60dfdc8699098dff92f3d80daaca7476ac557f632e3636382d2e33383720312e3432362d2e353920322e3139372d2e353973317f109ea3cebb188b9c1b9fc5bb3920be60dfdc8699098dff92f3d80daaca7476ad557f2e3532392e32303420322e3139372e35396c372e38383420342e353961342e357f109ea3cebb188b9c1b9fc5bb3920be60dfdc8699098dff92f3d80daaca7476ae557f3220342e353220302030203120312e35383920312e363136632e3338342e36367f109ea3cebb188b9c1b9fc5bb3920be60dfdc8699098dff92f3d80daaca7476af557f352e35393420312e3431382e36303820322e31383776392e333131632e3031337f109ea3cebb188b9c1b9fc5bb3920be60dfdc8699098dff92f3d80daaca7476b0557f2e3737352d2e31383520312e3533382d2e35373220322e32303861342e3235207f109ea3cebb188b9c1b9fc5bb3920be60dfdc8699098dff92f3d80daaca7476b1557f342e32352030203020312d312e36323520312e3539356c2d372e38383420342e7f109ea3cebb188b9c1b9fc5bb3920be60dfdc8699098dff92f3d80daaca7476b2557f373231632d2e3636382e3338372d312e3432362e35392d322e3139372e3539737f109ea3cebb188b9c1b9fc5bb3920be60dfdc8699098dff92f3d80daaca7476b3557f2d312e3532392d2e3230342d322e3139372d2e35396c2d372e3838342d342e357f109ea3cebb188b9c1b9fc5bb3920be60dfdc8699098dff92f3d80daaca7476b4557f3961342e353220342e35322030203020312d312e3538392d312e363136632d2e7f109ea3cebb188b9c1b9fc5bb3920be60dfdc8699098dff92f3d80daaca7476b5557f3338352d2e3636352d2e3539342d312e3431382d2e3630382d322e313837762d7f109ea3cebb188b9c1b9fc5bb3920be60dfdc8699098dff92f3d80daaca7476b6557f362e3033326c2d362e383520342e30363576362e303332632d2e3031332e37377f109ea3cebb188b9c1b9fc5bb3920be60dfdc8699098dff92f3d80daaca7476b7557f352e31383520312e3533382e35373220322e32303861342e323520342e3235207f109ea3cebb188b9c1b9fc5bb3920be60dfdc8699098dff92f3d80daaca7476b8557f302030203020312e36323520312e3539356c31342e38363420382e363535632e7f109ea3cebb188b9c1b9fc5bb3920be60dfdc8699098dff92f3d80daaca7476b9557f3636382e33383720312e3432362e353920322e3139372e353973312e3532392d7f109ea3cebb188b9c1b9fc5bb3920be60dfdc8699098dff92f3d80daaca7476ba557f2e32303420322e3139372d2e35396c31342e3836342d382e363535632e3635377f109ea3cebb188b9c1b9fc5bb3920be60dfdc8699098dff92f3d80daaca7476bb557f2d2e33393420312e3230342d2e393520312e3538392d312e363136732e3539347f109ea3cebb188b9c1b9fc5bb3920be60dfdc8699098dff92f3d80daaca7476bc557f2d312e3431382e3630392d322e3138375635352e353338632e3031332d2e37377f109ea3cebb188b9c1b9fc5bb3920be60dfdc8699098dff92f3d80daaca7476bd557f352d2e3138352d312e3533382d2e3537322d322e32303861342e323520342e327f109ea3cebb188b9c1b9fc5bb3920be60dfdc8699098dff92f3d80daaca7476be557f352030203020302d312e3632352d312e3539356c2d31342e3939332d382e37387f109ea3cebb188b9c1b9fc5bb3920be60dfdc8699098dff92f3d80daaca7476bf557f367a222066696c6c3d2223666666222f3e3c646566733e3c6c696e65617247727f109ea3cebb188b9c1b9fc5bb3920be60dfdc8699098dff92f3d80daaca7476c0557f616469656e742069643d2242222078313d2230222079313d2230222078323d227f109ea3cebb188b9c1b9fc5bb3920be60dfdc8699098dff92f3d80daaca7476c1557f323730222079323d2232373022206772616469656e74556e6974733d227573657f109ea3cebb188b9c1b9fc5bb3920be60dfdc8699098dff92f3d80daaca7476c2557f7253706163654f6e557365223e3c73746f702073746f702d636f6c6f723d22237f109ea3cebb188b9c1b9fc5bb3920be60dfdc8699098dff92f3d80daaca7476c3557f636235656565222f3e3c73746f70206f66667365743d2231222073746f702d637f109ea3cebb188b9c1b9fc5bb3920be60dfdc8699098dff92f3d80daaca7476c4557f6f6c6f723d2223306364376534222073746f702d6f7061636974793d222e39397f109ea3cebb188b9c1b9fc5bb3920be60dfdc8699098dff92f3d80daaca7476c5557f222f3e3c2f6c696e6561724772616469656e743e3c2f646566733e3c746578747f109ea3cebb188b9c1b9fc5bb3920be60dfdc8699098dff92f3d80daaca7476c6557f20783d2233322e352220793d223233312220666f6e742d73697a653d223237227f109ea3cebb188b9c1b9fc5bb3920be60dfdc8699098dff92f3d80daaca7476c7557f2066696c6c3d2223666666222066696c7465723d2275726c282341292220666f7f109ea3cebb188b9c1b9fc5bb3920be60dfdc8699098dff92f3d80daaca7476c8557f6e742d66616d696c793d22506c7573204a616b617274612053616e732c44656a7f109ea3cebb188b9c1b9fc5bb3920be60dfdc8699098dff92f3d80daaca7476c9557f6156752053616e732c4e6f746f20436f6c6f7220456d6f6a692c4170706c65207f109ea3cebb188b9c1b9fc5bb3920be60dfdc8699098dff92f3d80daaca7476ca557f436f6c6f7220456d6f6a692c73616e732d73657269662220666f6e742d7765697f109ea3cebb188b9c1b9fc5bb3920be60dfdc8699098dff92f3d80daaca7476cb556a33b43a1e913137b632111f60a91b7f109ea3cebb188b9c1b9fc5bb3920be60dfdc8699098dff92f3d80daaca7476cc5561010290611aea82546134d0565b90601f8211611bb1575b5050611b7392916001600160a01b0391601a6c1e17ba32bc3a1f1e17b9bb339f60991b019055166001600160a01b031960fe54161760fe5560443560ff55606435610100558351611b4481613558565b601981527f2573206e616d652073657276696365206465706c6f79656420000000000000006020820152613fdc565b611b7b575080f35b60207f7f26b83ff96e1f2b6a682f133852f6798a09c465da95921460cefb38474024989161ff001984541684555160018152a180f35b828852601f7f93bdaa6a4190909b7c3fbe8d42169ffe1cab19f51dfc8db24c71abf849eced4a9201901c8101905b81811015611af457878155600101611bdf565b601f01821c7f109ea3cebb188b9c1b9fc5bb3920be60dfdc8699098dff92f3d80daaca747689017f109ea3cebb188b9c1b9fc5bb3920be60dfdc8699098dff92f3d80daaca7476cd5b818110611c48575061091a565b888155600101611c3b565b9050840151386108ef565b60fd89527f9346ac6dd7de6b96975fec380d4d994c4c12e6a8897544f22915316cc6cca2809150601f198316895b818110611cc757509083600194939210611cae575b5050811b0160fd55610904565b86015160001960f88460031b161c191690553880611ca1565b9192602060018192868b015181550194019201611c8c565b611d269060fd89527f9346ac6dd7de6b96975fec380d4d994c4c12e6a8897544f22915316cc6cca280601f8401851c81019160208510611d2c575b601f01851c0190613f80565b386108d9565b9091508190611d1a565b634e487b7160e01b87526041600452602487fd5b015190503880610881565b60668a527f46501879b8ca8525e8c2fd519e2fbfcfa2ebea26501294aa02cbfcfb12e943549250601f1984168a5b818110611dc05750908460019594939210611da7575b505050811b01606655610897565b015160001960f88460031b161c19169055388080611d99565b92936020600181928786015181550195019301611d83565b611e1f9060668b527f46501879b8ca8525e8c2fd519e2fbfcfa2ebea26501294aa02cbfcfb12e94354601f8501871c81019160208610611e25575b601f01871c0190613f80565b3861086b565b9091508190611e13565b634e487b7160e01b88526041600452602488fd5b01519050388061082d565b925060658a527f8ff97419363ffd7000167f130ef7168fbea05faf9251824ca5043f113cc6a7c7908a935b601f1984168510611ebb576001945083601f19811610611ea2575b505050811b01606555610843565b015160001960f88460031b161c19169055388080611e94565b81810151835560209485019460019093019290910190611e79565b611f1d9060658c527f8ff97419363ffd7000167f130ef7168fbea05faf9251824ca5043f113cc6a7c7601f8501881c81019160208610611f23575b601f01881c0190613f80565b38610817565b9091508190611f11565b634e487b7160e01b89526041600452602489fd5b61ffff191661010117855538610794565b845162461bcd60e51b815260206004820152602e60248201527f496e697469616c697a61626c653a20636f6e747261637420697320616c72656160448201526d191e481a5b9a5d1a585b1a5e995960921b6064820152608490fd5b50303b15801561077f5750600160ff82161461077f565b50600160ff821610610778565b509060603660031901126102f657611fe761343c565b67ffffffffffffffff9260243584811161234b5761200990369060040161346d565b926044358681116123475784836120276120359336906004016136f8565b9061203061379a565b6143da565b15612336576120448483614412565b156123255761205761039b8286856140c5565b6120618483614a37565b936101996120be61208c8254976120858961207a61452d565b6103d136898c613745565b8487614c83565b6120976103f161458c565b6120a3816104026145eb565b6120ae6103f1614615565b6120b8888661473d565b8761489d565b84516120c98161350a565b6120d4368487613745565b8152602098898201906001600160a01b03908187169a8b84528985019b8b8d52815260fb8d528981208288116105fa57878e61211a8261211485546134d0565b85613f97565b8390601f83116001146122bf575083916122b4575b508860011b906000198a60031b1c19161790555b8951878a82378d8189810160fc81520301902094519081519283116122a057908d916121798461217389546134d0565b89613f97565b82601f851160011461220c575093836002948e9f947f4f7b030b13ad1e7f83970740f723ce3d718b9472443b4b2a75f535a79e973ce79e9f9a98946105599c9a9892612201575b50508160011b916000199060031b1c19161785555b600185019151166001600160a01b03198254161790555191015560018154019055865194859485614674565b0151905038806121c0565b878252808220939291601f198616915b828210612288575050848e9f947f4f7b030b13ad1e7f83970740f723ce3d718b9472443b4b2a75f535a79e973ce79e9f9a98946105599c9a98946002986001951061226f575b505050811b0185556121d5565b015160001960f88460031b161c19169055388080612262565b8060018697829497870151815501960194019061221c565b634e487b7160e01b81526041600452602490fd5b90508a01353861212f565b91601f1981168486528d8487209487915b83831061230957505050106122ef575b5050600188811b019055612143565b8b013560001960038b901b60f8161c1916905538806122e0565b8501358655600190950194938401938d9350908101908f6122d0565b8251630ea075bf60e21b8152600490fd5b825163097e8be960e01b8152600490fd5b8580fd5b8380fd5b503461028b57602036600319011261028b576020906102ed61236f61343c565b614447565b503461028b57602036600319011261028b57906123e7916004356123b66123b18260005260676020526001600160a01b0360406000205416151590565b61399a565b825260976020526123c8818320613654565b9181516123d48161353c565b5251918291602083526020830190613417565b0390f35b503461028b57602036600319011261028b576004359167ffffffffffffffff83116102f657506102ed612424602093369060040161346d565b90614412565b82346102f65760803660031901126102f65761244461343c565b61244c613457565b906064359060443567ffffffffffffffff83116106b5576102369361247861249b94369060040161377c565b9261248b6124868433613b12565b613a45565b612496838383613bda565b613e54565b613aa7565b503461028b578160031936011261028b576020906001600160a01b0360fe54169051908152f35b503461028b57602036600319011261028b576124ff816123e7936001600160a01b036124f161343c565b16815260fb60205220613654565b9051918291602083526020830190613417565b503461028b578060031936011261028b576004359167ffffffffffffffff83116102f6575061255861254a602093369060040161346d565b612552613457565b916140c5565b9051908152f35b503461028b578060031936011261028b5761257861343c565b6024359081151580920361234b576001600160a01b0316918233146125e557338452606a60205280842083855260205280842060ff1981541660ff8416179055519081527f17307eab39ab6107e8899845ad3d59bd9653f200f220920489ca2b5937696c3160203392a380f35b5162461bcd60e51b815260206004820152601960248201527f4552433732313a20617070726f766520746f2063616c6c6572000000000000006044820152606490fd5b503461028b578160031936011261028b576020905160328152f35b503461028b578160031936011261028b5780519082606654612664816134d0565b808552916001918083169081156126ff57506001146126a2575b505050612690826123e7940383613574565b51918291602083526020830190613417565b9450606685527f46501879b8ca8525e8c2fd519e2fbfcfa2ebea26501294aa02cbfcfb12e943545b8286106126e7575050506126908260206123e7958201019461267e565b805460208787018101919091529095019481016126ca565b6123e797508693506020925061269094915060ff191682840152151560051b8201019461267e565b503461028b578160031936011261028b57602090610100549051908152f35b82346102f65760203660031901126102f65761276061379a565b60043560ff5580f35b503461028b578160031936011261028b576020906001600160a01b0360c954169051908152f35b503461028b578160031936011261028b5760209051600a8152f35b82346102f657806003193601126102f6576127c461379a565b806001600160a01b0360c9548119811660c955167f8be0079c531659141344cd1fd0a4f28419497f9722a3daafe3b4186f6b6457e08280a380f35b503461028b57602036600319011261028b576001600160a01b0361282161343c565b16801561283c57828291602094526068845220549051908152f35b815162461bcd60e51b815260206004820152602960248201527f4552433732313a2061646472657373207a65726f206973206e6f7420612076616044820152683634b21037bbb732b960b91b6064820152608490fd5b503461028b57602036600319011261028b576020906001600160a01b036128ba6004356139e6565b915191168152f35b503461028b578160031936011261028b576020905160058152f35b5090346102f657806003193601126102f657506001600160a01b037f000000000000000000000000000000000000000000000000000000000000000016300361294957602090517f360894a13ba1a3210667c828492db98dca3e2076cc3735a920a3ca505d382bbc8152f35b5162461bcd60e51b815260206004820152603860248201527f555550535570677261646561626c653a206d757374206e6f742062652063616c60448201527f6c6564207468726f7567682064656c656761746563616c6c00000000000000006064820152608490fd5b508060031936011261028b576129c661343c565b60243567ffffffffffffffff811161234b576129e690369060040161377c565b916001600160a01b0392837f00000000000000000000000000000000000000000000000000000000000000001693612a208530141561383a565b612a4f7f360894a13ba1a3210667c828492db98dca3e2076cc3735a920a3ca505d382bbc95828754161461389b565b612a5761379a565b7f4910fdfa16fed3260ed0e7147f7cc6da11a60208b5b9406d12a635614ffd91435460ff1615612a8e5750505061023691506138fc565b83919293168351946352d1902d60e01b86526020958681600481865afa889181612c2b575b50612b1357855162461bcd60e51b815260048101889052602e60248201527f45524331393637557067726164653a206e657720696d706c656d656e7461746960448201526d6f6e206973206e6f74205555505360901b6064820152608490fd5b9592939503612bd557908591612b28846138fc565b7fbc7cd75a20ee27fd9adebab32041f755214dbc6bffa90cc0225b39da2e5c2d3b8380a2845115801590612bcd575b612b64575b505050505080f35b612bc2948291660819985a5b195960ca1b865196612b818861350a565b602788527f416464726573733a206c6f772d6c6576656c2064656c65676174652063616c6c8389015287015281519101845af4612bbc613ce9565b91613eb5565b503880808381612b5c565b506001612b57565b835162461bcd60e51b815260048101839052602960248201527f45524331393637557067726164653a20756e737570706f727465642070726f786044820152681a58589b195555525160ba1b6064820152608490fd5b9091508781813d8311612c57575b612c438183613574565b81010312612c5357519038612ab3565b8880fd5b503d612c39565b503461028b5761249b61023691612c743661349b565b91925192612c818461353c565b86845261248b6124868433613b12565b503461028b57602036600319011261028b576004359167ffffffffffffffff83116102f65750612cdf6020612ccd612d1a94369060040161377c565b818451938285809451938492016133f4565b810160fc815203019020612cf281613654565b9160026001600160a01b03600184015416920154908051948594606086526060860190613417565b9260208501528301520390f35b503461028b578160031936011261028b57612d4061379a565b81808080476001600160a01b0360c954165af1612d5b613ce9565b5015612d65575080f35b5162461bcd60e51b815260206004820152601860248201527f4661696c656420746f207769746864726177204d6174696300000000000000006044820152606490fd5b503461028b578060031936011261028b576004359167ffffffffffffffff83116102f657506102ed612de060209336906004016136f8565b612de8613457565b91614349565b503461028b57602090816003193601126106b957612e0a61343c565b906001600160a01b03807f000000000000000000000000000000000000000000000000000000000000000016612e428130141561383a565b612e717f360894a13ba1a3210667c828492db98dca3e2076cc3735a920a3ca505d382bbc91838354161461389b565b612e7961379a565b825191612e858361353c565b8683527f4910fdfa16fed3260ed0e7147f7cc6da11a60208b5b9406d12a635614ffd91435460ff1615612ec0575050505061023691506138fc565b84929394169084516352d1902d60e01b81528681600481865afa889181612f98575b50612f4257855162461bcd60e51b815260048101889052602e60248201527f45524331393637557067726164653a206e657720696d706c656d656e7461746960448201526d6f6e206973206e6f74205555505360901b6064820152608490fd5b9592939503612bd557908591612f57846138fc565b7fbc7cd75a20ee27fd9adebab32041f755214dbc6bffa90cc0225b39da2e5c2d3b8380a2845115801590612f9157612b6457505050505080f35b5081612b57565b9091508781813d8311612fc0575b612fb08183613574565b81010312612c5357519038612ee2565b503d612fa6565b503461028b578160031936011261028b576123e7906124ff613596565b503461028b578160031936011261028b5760209060ff549051908152f35b82346102f6576102366130143661349b565b916130226124868433613b12565b613bda565b503461028b576020806003193601126106b95760043567ffffffffffffffff811161234b57928161305e606095369060040161346d565b9285805161306b8161350a565b888152828582015201528285519384928337810160fc815203019020908251926130948461350a565b61309d83613654565b84526001600160a01b036130da60028260018701541695858801968752015493838701948552835197889782895251918801526080870190613417565b935116908401525160608301520390f35b503461028b578160031936011261028b576020905160018152f35b503461028b578160031936011261028b576020905160198152f35b503461028b578060031936011261028b5761313a61343c565b602435916001600160a01b03908180613152866139e6565b1693169280841461324e5780331490811561322f575b50156131c65783855260696020528420805473ffffffffffffffffffffffffffffffffffffffff19168317905561319e836139e6565b167f8c5be1e5ebec7d5bd14f71427d1e84f3dd0314c0f7b2291e5b200ac8c7c3b9258480a480f35b5162461bcd60e51b815260206004820152603d60248201527f4552433732313a20617070726f76652063616c6c6572206973206e6f7420746f60448201527f6b656e206f776e6572206f7220617070726f76656420666f7220616c6c0000006064820152608490fd5b90508552606a60205280852033865260205260ff818620541638613168565b815162461bcd60e51b815260206004820152602160248201527f4552433732313a20617070726f76616c20746f2063757272656e74206f776e656044820152603960f91b6064820152608490fd5b503461028b57602036600319011261028b576020906001600160a01b036128ba600435613a08565b503461028b578160031936011261028b57805190826065546132e5816134d0565b808552916001918083169081156126ff575060011461331057505050612690826123e7940383613574565b9450606585527f8ff97419363ffd7000167f130ef7168fbea05faf9251824ca5043f113cc6a7c75b828610613355575050506126908260206123e7958201019461267e565b80546020878701810191909152909501948101613338565b83903461028b57602036600319011261028b5760043563ffffffff60e01b81168091036106b95760209250632483248360e11b81149081156133b1575b5015158152f35b6380ac58cd60e01b8114915081156133e3575b81156133d2575b50836133aa565b6301ffc9a760e01b149050836133cb565b635b5e139f60e01b811491506133c4565b60005b8381106134075750506000910152565b81810151838201526020016133f7565b90602091613430815180928185528580860191016133f4565b601f01601f1916010190565b600435906001600160a01b038216820361345257565b600080fd5b602435906001600160a01b038216820361345257565b9181601f840112156134525782359167ffffffffffffffff8311613452576020838186019501011161345257565b6060906003190112613452576001600160a01b0390600435828116810361345257916024359081168103613452579060443590565b90600182811c92168015613500575b60208310146134ea57565b634e487b7160e01b600052602260045260246000fd5b91607f16916134df565b6060810190811067ffffffffffffffff82111761352657604052565b634e487b7160e01b600052604160045260246000fd5b6020810190811067ffffffffffffffff82111761352657604052565b6040810190811067ffffffffffffffff82111761352657604052565b90601f8019910116810190811067ffffffffffffffff82111761352657604052565b6040519060008260fd54916135aa836134d0565b8083529260019081811690811561363257506001146135d3575b506135d192500383613574565b565b60fd600090815291507f9346ac6dd7de6b96975fec380d4d994c4c12e6a8897544f22915316cc6cca2805b84831061361757506135d19350508101602001386135c4565b81935090816020925483858a010152019101909185926135fe565b9050602092506135d194915060ff191682840152151560051b820101386135c4565b9060405191826000825492613668846134d0565b9081845260019485811690816000146136d55750600114613692575b50506135d192500383613574565b9093915060005260209081600020936000915b8183106136bd5750506135d193508201013880613684565b855488840185015294850194879450918301916136a5565b9150506135d194506020925060ff191682840152151560051b8201013880613684565b9181601f840112156134525782359167ffffffffffffffff8311613452576020808501948460051b01011161345257565b67ffffffffffffffff811161352657601f01601f191660200190565b92919261375182613729565b9161375f6040519384613574565b829481845281830111613452578281602093846000960137010152565b9080601f830112156134525781602061379793359101613745565b90565b6001600160a01b0360c9541633036137ae57565b606460405162461bcd60e51b815260206004820152602060248201527f4f776e61626c653a2063616c6c6572206973206e6f7420746865206f776e65726044820152fd5b60c954906001600160a01b0380911691826001600160a01b031982161760c955167f8be0079c531659141344cd1fd0a4f28419497f9722a3daafe3b4186f6b6457e0600080a3565b1561384157565b60405162461bcd60e51b815260206004820152602c60248201527f46756e6374696f6e206d7573742062652063616c6c6564207468726f7567682060448201526b19195b1959d85d1958d85b1b60a21b6064820152608490fd5b156138a257565b60405162461bcd60e51b815260206004820152602c60248201527f46756e6374696f6e206d7573742062652063616c6c6564207468726f7567682060448201526b6163746976652070726f787960a01b6064820152608490fd5b803b1561393f576001600160a01b037f360894a13ba1a3210667c828492db98dca3e2076cc3735a920a3ca505d382bbc91166001600160a01b0319825416179055565b60405162461bcd60e51b815260206004820152602d60248201527f455243313936373a206e657720696d706c656d656e746174696f6e206973206e60448201526c1bdd08184818dbdb9d1c9858dd609a1b6064820152608490fd5b156139a157565b60405162461bcd60e51b815260206004820152601860248201527f4552433732313a20696e76616c696420746f6b656e20494400000000000000006044820152606490fd5b60005260676020526001600160a01b036040600020541661379781151561399a565b613a2b6123b18260005260676020526001600160a01b0360406000205416151590565b60005260696020526001600160a01b036040600020541690565b15613a4c57565b60405162461bcd60e51b815260206004820152602d60248201527f4552433732313a2063616c6c6572206973206e6f7420746f6b656e206f776e6560448201526c1c881bdc88185c1c1c9bdd9959609a1b6064820152608490fd5b15613aae57565b60405162461bcd60e51b815260206004820152603260248201527f4552433732313a207472616e7366657220746f206e6f6e20455243373231526560448201527131b2b4bb32b91034b6b83632b6b2b73a32b960711b6064820152608490fd5b0390fd5b906001600160a01b038080613b26846139e6565b16931691838314938415613b59575b508315613b43575b50505090565b613b4f91929350613a08565b1614388080613b3d565b909350600052606a60205260406000208260005260205260ff604060002054169238613b35565b15613b8757565b60405162461bcd60e51b815260206004820152602560248201527f4552433732313a207472616e736665722066726f6d20696e636f72726563742060448201526437bbb732b960d91b6064820152608490fd5b90613c0291613be8846139e6565b916001600160a01b03938493848094169485911614613b80565b16918215613c985781613c1f91613c18866139e6565b1614613b80565b7fddf252ad1be2c89b69c2b068fc378daa952ba7f163c4a11628f55a4df523b3ef60008481526069602052604081206001600160a01b03199081815416905583825260686020526040822060001981540190558482526040822060018154019055858252606760205284604083209182541617905580a4565b60405162461bcd60e51b8152602060048201526024808201527f4552433732313a207472616e7366657220746f20746865207a65726f206164646044820152637265737360e01b6064820152608490fd5b3d15613d14573d90613cfa82613729565b91613d086040519384613574565b82523d6000602084013e565b606090565b9091600091803b15613e4b57613d6c6020916001600160a01b039385604051958680958194630a85bd0160e11b9b8c84523360048501528560248501526044840152608060648401526084830190613417565b0393165af190829082613e03575b5050613df557613d88613ce9565b80519081613df05760405162461bcd60e51b815260206004820152603260248201527f4552433732313a207472616e7366657220746f206e6f6e20455243373231526560448201527131b2b4bb32b91034b6b83632b6b2b73a32b960711b6064820152608490fd5b602001fd5b6001600160e01b0319161490565b909192506020813d8211613e43575b81613e1f60209383613574565b8101031261028b5751906001600160e01b0319821682036102f65750903880613d7a565b3d9150613e12565b50505050600190565b91926000929190813b15613eab57602091613d6c9185604051958680958194630a85bd0160e11b9b8c84523360048501526001600160a01b0380951660248501526044840152608060648401526084830190613417565b5050505050600190565b91929015613f175750815115613ec9575090565b3b15613ed25790565b60405162461bcd60e51b815260206004820152601d60248201527f416464726573733a2063616c6c20746f206e6f6e2d636f6e74726163740000006044820152606490fd5b825190915015613f2a5750805190602001fd5b60405162461bcd60e51b815260206004820152908190613b0e906024830190613417565b90613f5882613729565b613f656040519182613574565b8281528092613f76601f1991613729565b0190602036910137565b818110613f8b575050565b60008155600101613f80565b9190601f8111613fa657505050565b6135d1926000526020600020906020601f840160051c83019310613fd2575b601f0160051c0190613f80565b9091508190613fc5565b6000919061402361403184936040519283916140116020840196634b5c427760e01b8852604060248601526064850190613417565b83810360231901604485015290613417565b03601f198101835282613574565b51906a636f6e736f6c652e6c6f675afa50565b1561404b57565b60405162461bcd60e51b815260206004820152602b60248201527f496e697469616c697a61626c653a20636f6e7472616374206973206e6f74206960448201526a6e697469616c697a696e6760a81b6064820152608490fd5b908060209392818452848401376000828201840152601f01601f1916010190565b9290916140db6140d6368587613745565b6141bb565b80614108575050604051637f19f48d60e01b815260206004820152928392613b0e925060248401916140a4565b91935091506001810361413457506141296802b5e3af16b188000091614447565b156137975760011c90565b60028103614150575061412968015af1d78b58c4000091614447565b6003810361416b5750614129678ac7230489e8000091614447565b60040361418457614129674563918244f4000091614447565b614129670de0b6b3a764000091614447565b60001981146141a55760010190565b634e487b7160e01b600052601160045260246000fd5b6000815191815b8381106141d0575050905090565b81518110156142dc57818101602001517fff0000000000000000000000000000000000000000000000000000000000000016600160ff1b81101561422a5750600181018091116141a5576142249092614196565b916141c2565b600760fd1b81101561424c5750600281018091116141a5576142249092614196565b600f60fc1b81101561426e5750600381018091116141a5576142249092614196565b601f60fb1b8110156142a75750600480820180921161429257506142249092614196565b601190634e487b7160e01b6000525260246000fd5b603f60fa1b11156142c757600581018091116141a5576142249092614196565b600681018091116141a5576142249092614196565b634e487b7160e01b600052603260045260246000fd5b90929167ffffffffffffffff8411613526578360051b604051926020809461431c82850182613574565b809781520191810192831161345257905b82821061433a5750505050565b8135815290830190830161432d565b90614380613797936040516001600160a01b0360208201921682526020815261437181613558565b5190209260ff549236916142f2565b9091906000915b81518310156143d3576020808460051b840101519160008382106000146143c25750600052526143bc60406000205b92614196565b91614387565b906040926143bc94835252206143b6565b9150501490565b91613797936140236144026143809360405192839160208301956020875260408401916140a4565b51902092610100549236916142f2565b6001600160a01b0391602060019282604051938492833760fc908201908152030190200154161561444257600090565b600190565b60fe546001600160a01b03908116919082156144d957602460209260405194859384926370a0823160e01b84521660048301525afa9081156144cd5760009161449c575b506000906001116137975750600190565b906020823d82116144c5575b816144b560209383613574565b810103126102f65750513861448b565b3d91506144a8565b6040513d6000823e3d90fd5b505050600090565b156144e857565b60405162461bcd60e51b815260206004820152601560248201527f4e4f5420454e4f554748204d41544943205041494400000000000000000000006044820152606490fd5b6040519061453a8261350a565b603182527f74207769746820746f6b656e49442025640000000000000000000000000000006040837f5265676973746572696e672025732e2573206f6e2074686520636f6e7472616360208201520152565b604051906145998261350a565b603982527f2d2d2d2d2d2d2d2d2d2d2d2d2d2d2d2d2d2d2d2d2d2d2d2d2d000000000000006040837f0a2d2d2d2d2d2d2d2d2d2d2d2d2d2d2d2d2d2d2d2d2d2d2d2d2d2d2d2d2d2d2d60208201520152565b604051906145f882613558565b600e82526d46696e616c20746f6b656e55524960901b6020830152565b604051906146228261350a565b603982527f2d2d2d2d2d2d2d2d2d2d2d2d2d2d2d2d2d2d2d2d2d2d2d2d0a000000000000006040837f2d2d2d2d2d2d2d2d2d2d2d2d2d2d2d2d2d2d2d2d2d2d2d2d2d2d2d2d2d2d2d2d60208201520152565b949392916040926001600160a01b0361469b931687526060602088015260608701916140a4565b930152565b6000809160405161403181614023602082019463104c13eb60e21b8652602060248401526044830190613417565b9061403160009493859461472960405194859361471a6147076020870199639fd009f560e01b8b526080602489015260a4880190613417565b6023199384888303016044890152613417565b91858303016064860152613417565b90608483015203601f198101835282613574565b6040516147498161353c565b6000928382526001600160a01b03831692831561480d578161249b946135d19661479261478c8460005260676020526001600160a01b0360406000205416151590565b15614851565b6147b561478c8460005260676020526001600160a01b0360406000205416151590565b81815260686020526040812060018154019055828152606760205260408120826001600160a01b03198254161790557fddf252ad1be2c89b69c2b068fc378daa952ba7f163c4a11628f55a4df523b3ef8180a4613d19565b606460405162461bcd60e51b815260206004820152602060248201527f4552433732313a206d696e7420746f20746865207a65726f20616464726573736044820152fd5b1561485857565b60405162461bcd60e51b815260206004820152601c60248201527f4552433732313a20746f6b656e20616c7265616479206d696e746564000000006044820152606490fd5b9190916148c08160005260676020526001600160a01b0360406000205416151590565b156149db5760009080825260209160978352604081209085519067ffffffffffffffff82116122a0576148f78261211485546134d0565b8490601f831160011461495757907ff8e1a15aba9398e019f0b49df1a4fde98ee17ae345cb5f6b5e2c27f5033e8ce796978361494c575b50508160011b916000199060031b1c19161790555b604051908152a1565b01519050388061492e565b9196601f198816848452868420935b8181106149c457509160019391897ff8e1a15aba9398e019f0b49df1a4fde98ee17ae345cb5f6b5e2c27f5033e8ce7999a94106149ab575b505050811b019055614943565b015160001960f88460031b161c1916905538808061499e565b929387600181928786015181550195019301614966565b60405162461bcd60e51b815260206004820152602e60248201527f45524337323155524953746f726167653a2055524920736574206f66206e6f6e60448201526d32bc34b9ba32b73a103a37b5b2b760911b6064820152608490fd5b906040519160209180838501928337830190601760f91b8383015283600060fd5493614a62856134d0565b906001958681169081600014614c655750600114614c05575b50500391614a91601f1993848101875286613574565b604051948592600091610101805490614aa9826134d0565b91898782169182600014614be3575050600114614b87575b50508291614ad291519384916133f4565b0160009461010292835493614ae6856134d0565b94828116908115614b685750600114614b0f575b50505050506137979203908101835282613574565b60009081527f93bdaa6a4190909b7c3fbe8d42169ffe1cab19f51dfc8db24c71abf849eced4a9750905b848210614b525750505001925061379738808080614afa565b8754848301529687019688955090820190614b39565b60ff191685525050505081151590910201925061379738808080614afa565b88929394506000527f109ea3cebb188b9c1b9fc5bb3920be60dfdc8699098dff92f3d80daaca7476896000905b828210614bcb5750508501019190614ad238614ac1565b80548b83018501528a97508993909101908601614bb4565b60ff19168982015283151590930288019092019450614ad29150389050614ac1565b90915060fd6000527f9346ac6dd7de6b96975fec380d4d994c4c12e6a8897544f22915316cc6cca28086866000925b858410614c4a5750505050016021013880614a7b565b8054858501602101528a965092909101918891889101614c34565b90506021935060ff9291921916838301528015150201013880614a7b565b919091614c946140d6368584613745565b9081926000937a184f03e93ff9f4daa797ed6e38ed64bf6a1f01000000000000000080851015614fe4575b506d04ee2d6d415b85acef810000000080821015614fd7575b50662386f26fc1000080821015614fca575b506305f5e10080821015614fbd575b5061271080821015614fb0575b506064811015614fa2575b600a80911015614f98575b600190614d2a828701613f4e565b948260218098880101905b614f69575b5050506040519460209680888801958637860191601760f91b8884015260009260fd5491614d67836134d0565b92818116908115614f485750600114614eec575b50505050614dad608986603d96614edc9996614db2614ea297614dad6137979c614dd89903601f198101875286613574565b614ff2565b90604051968794693d913730b6b2911d101160b11b8b870152518092602a8701906133f4565b83017f222c20226465736372697074696f6e223a20224120646f6d61696e206f6e2074602a8201527f6865204f776c6561726e222c2022696d616765223a2022646174613a696d6167604a8201527f652f7376672b786d6c3b6261736536342c000000000000000000000000000000606a820152614e5f825180938b607b850191016133f4565b016b1116113632b733ba34111d1160a11b607b820152614e88825180938a6087850191016133f4565b0161227d60f01b6087820152036069810184520182613574565b60405194827f646174613a6170706c69636174696f6e2f6a736f6e3b6261736536342c0000008794850152825192839186860191016133f4565b810103601d810184520182613574565b909192935060fd6000527f9346ac6dd7de6b96975fec380d4d994c4c12e6a8897544f22915316cc6cca280906000915b848310614f35575050500101614dad608986603d614d7b565b8054848401870152918a01918101614f1c565b60ff191683860152505081151590910201019050614dad608986603d614d7b565b600019019082906f181899199a1a9b1b9c1cb0b131b232b360811b8282061a835304908382614d355750614d3a565b9360010193614d1c565b606460029104940193614d11565b6004910494019338614d06565b6008910494019338614cf9565b6010910494019338614cea565b6020910494019338614cd8565b604095508404905038614cbf565b805115615124576040516150058161350a565b604081527f4142434445464748494a4b4c4d4e4f505152535455565758595a61626364656660208201527f6768696a6b6c6d6e6f707172737475767778797a303132333435363738392b2f604082015281516002928382018092116141a5576003918290046001600160fe1b03811681036141a557615087908594951b613f4e565b936020850193829183518401925b8381106150d357505050505106806001146150c0576002146150b5575090565b603d90600019015390565b50603d9081600019820153600119015390565b85600491979293949701918251600190603f9082828260121c16880101518453828282600c1c16880101518385015382828260061c1688010151888501531685010151878201530195929190615095565b506040516151318161353c565b600081529056fea2646970667358221220bf6f31066b43839c714855f7c5aa4cc21400990a94855cd8ec6747c322b59edb64736f6c63430008130033",
  "devdoc": {
    "author": "Dhruv <contact.dhruvagarwal@gmail.com>",
    "events": {
      "AdminChanged(address,address)": {
        "details": "Emitted when the admin account has changed."
      },
      "Approval(address,address,uint256)": {
        "details": "Emitted when `owner` enables `approved` to manage the `tokenId` token."
      },
      "ApprovalForAll(address,address,bool)": {
        "details": "Emitted when `owner` enables or disables (`approved`) `operator` to manage all of its assets."
      },
      "BatchMetadataUpdate(uint256,uint256)": {
        "details": "This event emits when the metadata of a range of tokens is changed. So that the third-party platforms such as NFT market could timely update the images and related attributes of the NFTs."
      },
      "BeaconUpgraded(address)": {
        "details": "Emitted when the beacon is changed."
      },
      "Initialized(uint8)": {
        "details": "Triggered when the contract has been initialized or reinitialized."
      },
      "MetadataUpdate(uint256)": {
        "details": "This event emits when the metadata of a token is changed. So that the third-party platforms such as NFT market could timely update the images and related attributes of the NFT."
      },
      "Transfer(address,address,uint256)": {
        "details": "Emitted when `tokenId` token is transferred from `from` to `to`."
      },
      "Upgraded(address)": {
        "details": "Emitted when the implementation is upgraded."
      }
    },
    "kind": "dev",
    "methods": {
      "approve(address,uint256)": {
        "details": "See {IERC721-approve}."
      },
      "balanceOf(address)": {
        "details": "See {IERC721-balanceOf}."
      },
      "checkAllowlist(bytes32[],address)": {
        "details": "checks if the user if allowed to Mint from the allowlist",
        "params": {
          "proof": "proof for the verification",
          "user": "user address"
        },
        "returns": {
          "isAllowed": "if the user is allowed"
        }
      },
      "checkHandle(string)": {
        "details": "to check if the handle is eligible",
        "params": {
          "_username": "domain Name to mint"
        },
        "returns": {
          "isEligible": "if the username is eligible"
        }
      },
      "checkLensHandle(address)": {
        "details": "check if the user owns a lens handle",
        "params": {
          "user": "user address"
        },
        "returns": {
          "ownsLensHandle": "if the user owns any lens handle"
        }
      },
      "constructor": {
        "details": "Lock implementation contract"
      },
      "getApproved(uint256)": {
        "details": "See {IERC721-getApproved}."
      },
      "getNameRecord(string)": {
        "details": "get the name record",
        "params": {
          "_username": "domain Name to fetch for"
        },
        "returns": {
          "_0": "Record domain Name record"
        }
      },
      "getNameRecordFromAddress(address)": {
        "details": "get the name record from Address",
        "params": {
          "user": "domain Name to fetch for"
        },
        "returns": {
          "_0": "recordId domain Name record Id"
        }
      },
      "getPrice(string,address)": {
        "details": "to get the Price for minting a new domain",
        "params": {
          "_username": "domain Name to mint"
        },
        "returns": {
          "_0": "amount amount to be paid for minting"
        }
      },
      "initialize(string,address,bytes32,bytes32)": {
        "details": "The constructor sets NFT Implementation and the TLD",
        "params": {
          "_tld": "the domain name extension"
        }
      },
      "isApprovedForAll(address,address)": {
        "details": "See {IERC721-isApprovedForAll}."
      },
      "name()": {
        "details": "See {IERC721Metadata-name}."
      },
      "owner()": {
        "details": "Returns the address of the current owner."
      },
      "ownerOf(uint256)": {
        "details": "See {IERC721-ownerOf}."
      },
      "proxiableUUID()": {
        "details": "Implementation of the ERC1822 {proxiableUUID} function. This returns the storage slot used by the implementation. It is used to validate the implementation's compatibility when performing an upgrade. IMPORTANT: A proxy pointing at a proxiable contract should not be considered proxiable itself, because this risks bricking a proxy that upgrades to it, by delegating to itself until out of gas. Thus it is critical that this function revert if invoked through a proxy. This is guaranteed by the `notDelegated` modifier."
      },
      "registerOwlId(string,bytes32[],bytes32[])": {
        "details": "to get the Price for minting a new domain",
        "params": {
          "_username": "domain Name to mint"
        },
        "returns": {
          "recordID": "amount to be paid for minting"
        }
      },
      "renounceOwnership()": {
        "details": "Leaves the contract without owner. It will not be possible to call `onlyOwner` functions. Can only be called by the current owner. NOTE: Renouncing ownership will leave the contract without an owner, thereby disabling any functionality that is only available to the owner."
      },
      "safeTransferFrom(address,address,uint256)": {
        "details": "See {IERC721-safeTransferFrom}."
      },
      "safeTransferFrom(address,address,uint256,bytes)": {
        "details": "See {IERC721-safeTransferFrom}."
      },
      "setApprovalForAll(address,bool)": {
        "details": "See {IERC721-setApprovalForAll}."
      },
      "supportsInterface(bytes4)": {
        "details": "See {IERC165-supportsInterface}"
      },
      "symbol()": {
        "details": "See {IERC721Metadata-symbol}."
      },
      "tokenURI(uint256)": {
        "details": "See {IERC721Metadata-tokenURI}."
      },
      "transferFrom(address,address,uint256)": {
        "details": "See {IERC721-transferFrom}."
      },
      "transferOwnership(address)": {
        "details": "Transfers ownership of the contract to a new account (`newOwner`). Can only be called by the current owner."
      },
      "updateAllowlistMerkleRoot(bytes32)": {
        "details": "update the allowlistMerkleRoot to add new addresses to the allowlist",
        "params": {
          "_allowListmerkleRoot": "The updated merkle Root"
        }
      },
      "updateBlacklistNameMerkleRoot(bytes32)": {
        "details": "update the blackListNameMerkleRoot to add new names to the blacklist",
        "params": {
          "_blackListNameMerkleRoot": "The updated merkle Root"
        }
      },
      "upgradeTo(address)": {
        "custom:oz-upgrades-unsafe-allow-reachable": "delegatecall",
        "details": "Upgrade the implementation of the proxy to `newImplementation`. Calls {_authorizeUpgrade}. Emits an {Upgraded} event."
      },
      "upgradeToAndCall(address,bytes)": {
        "custom:oz-upgrades-unsafe-allow-reachable": "delegatecall",
        "details": "Upgrade the implementation of the proxy to `newImplementation`, and subsequently execute the function call encoded in `data`. Calls {_authorizeUpgrade}. Emits an {Upgraded} event."
      },
      "withdraw()": {
        "details": "withdraw the funds collected"
      }
    },
    "title": "OwlearnID",
    "version": 1
  },
  "userdoc": {
    "kind": "user",
    "methods": {
      "registerOwlId(string,bytes32[],bytes32[])": {
        "notice": "Payable function to send the price for minting the domain"
      },
      "updateAllowlistMerkleRoot(bytes32)": {
        "notice": "restricted only for the owner"
      },
      "updateBlacklistNameMerkleRoot(bytes32)": {
        "notice": "restricted only for the owner"
      },
      "withdraw()": {
        "notice": "restricted only for the owner"
      }
    },
    "notice": "A namespace NFT contract that mints unique user handles.",
    "version": 1
  },
  "storageLayout": {
    "storage": [
      {
        "astId": 11058,
        "contract": "src/OwlearnId/OwlearnId.sol:OwlearnId",
        "label": "_initialized",
        "offset": 0,
        "slot": "0",
        "type": "t_uint8"
      },
      {
        "astId": 11061,
        "contract": "src/OwlearnId/OwlearnId.sol:OwlearnId",
        "label": "_initializing",
        "offset": 1,
        "slot": "0",
        "type": "t_bool"
      },
      {
        "astId": 14866,
        "contract": "src/OwlearnId/OwlearnId.sol:OwlearnId",
        "label": "__gap",
        "offset": 0,
        "slot": "1",
        "type": "t_array(t_uint256)50_storage"
      },
      {
        "astId": 15851,
        "contract": "src/OwlearnId/OwlearnId.sol:OwlearnId",
        "label": "__gap",
        "offset": 0,
        "slot": "51",
        "type": "t_array(t_uint256)50_storage"
      },
      {
        "astId": 13188,
        "contract": "src/OwlearnId/OwlearnId.sol:OwlearnId",
        "label": "_name",
        "offset": 0,
        "slot": "101",
        "type": "t_string_storage"
      },
      {
        "astId": 13190,
        "contract": "src/OwlearnId/OwlearnId.sol:OwlearnId",
        "label": "_symbol",
        "offset": 0,
        "slot": "102",
        "type": "t_string_storage"
      },
      {
        "astId": 13194,
        "contract": "src/OwlearnId/OwlearnId.sol:OwlearnId",
        "label": "_owners",
        "offset": 0,
        "slot": "103",
        "type": "t_mapping(t_uint256,t_address)"
      },
      {
        "astId": 13198,
        "contract": "src/OwlearnId/OwlearnId.sol:OwlearnId",
        "label": "_balances",
        "offset": 0,
        "slot": "104",
        "type": "t_mapping(t_address,t_uint256)"
      },
      {
        "astId": 13202,
        "contract": "src/OwlearnId/OwlearnId.sol:OwlearnId",
        "label": "_tokenApprovals",
        "offset": 0,
        "slot": "105",
        "type": "t_mapping(t_uint256,t_address)"
      },
      {
        "astId": 13208,
        "contract": "src/OwlearnId/OwlearnId.sol:OwlearnId",
        "label": "_operatorApprovals",
        "offset": 0,
        "slot": "106",
        "type": "t_mapping(t_address,t_mapping(t_address,t_bool))"
      },
      {
        "astId": 14110,
        "contract": "src/OwlearnId/OwlearnId.sol:OwlearnId",
        "label": "__gap",
        "offset": 0,
        "slot": "107",
        "type": "t_array(t_uint256)44_storage"
      },
      {
        "astId": 14276,
        "contract": "src/OwlearnId/OwlearnId.sol:OwlearnId",
        "label": "_tokenURIs",
        "offset": 0,
        "slot": "151",
        "type": "t_mapping(t_uint256,t_string_storage)"
      },
      {
        "astId": 14420,
        "contract": "src/OwlearnId/OwlearnId.sol:OwlearnId",
        "label": "__gap",
        "offset": 0,
        "slot": "152",
        "type": "t_array(t_uint256)49_storage"
      },
      {
        "astId": 10537,
        "contract": "src/OwlearnId/OwlearnId.sol:OwlearnId",
        "label": "_owner",
        "offset": 0,
        "slot": "201",
        "type": "t_address"
      },
      {
        "astId": 10657,
        "contract": "src/OwlearnId/OwlearnId.sol:OwlearnId",
        "label": "__gap",
        "offset": 0,
        "slot": "202",
        "type": "t_array(t_uint256)49_storage"
      },
      {
        "astId": 20463,
        "contract": "src/OwlearnId/OwlearnId.sol:OwlearnId",
        "label": "domainRecords",
        "offset": 0,
        "slot": "251",
        "type": "t_mapping(t_address,t_string_storage)"
      },
      {
        "astId": 20468,
        "contract": "src/OwlearnId/OwlearnId.sol:OwlearnId",
        "label": "domainNames",
        "offset": 0,
        "slot": "252",
        "type": "t_mapping(t_string_memory_ptr,t_struct(Record)20459_storage)"
      },
      {
        "astId": 20470,
        "contract": "src/OwlearnId/OwlearnId.sol:OwlearnId",
        "label": "tld",
        "offset": 0,
        "slot": "253",
        "type": "t_string_storage"
      },
      {
        "astId": 20473,
        "contract": "src/OwlearnId/OwlearnId.sol:OwlearnId",
        "label": "lensHub",
        "offset": 0,
        "slot": "254",
        "type": "t_contract(ILensHub)20553"
      },
      {
        "astId": 20475,
        "contract": "src/OwlearnId/OwlearnId.sol:OwlearnId",
        "label": "allowlistMerkleRoot",
        "offset": 0,
        "slot": "255",
        "type": "t_bytes32"
      },
      {
        "astId": 20477,
        "contract": "src/OwlearnId/OwlearnId.sol:OwlearnId",
        "label": "blackListNameMerkleRoot",
        "offset": 0,
        "slot": "256",
        "type": "t_bytes32"
      },
      {
        "astId": 20479,
        "contract": "src/OwlearnId/OwlearnId.sol:OwlearnId",
        "label": "_svgPartOne",
        "offset": 0,
        "slot": "257",
        "type": "t_string_storage"
      },
      {
        "astId": 20481,
        "contract": "src/OwlearnId/OwlearnId.sol:OwlearnId",
        "label": "_svgPartTwo",
        "offset": 0,
        "slot": "258",
        "type": "t_string_storage"
      },
      {
        "astId": 20485,
        "contract": "src/OwlearnId/OwlearnId.sol:OwlearnId",
        "label": "__gap",
        "offset": 0,
        "slot": "259",
        "type": "t_array(t_uint256)50_storage"
      },
      {
        "astId": 11040,
        "contract": "src/OwlearnId/OwlearnId.sol:OwlearnId",
        "label": "__gap",
        "offset": 0,
        "slot": "309",
        "type": "t_array(t_uint256)50_storage"
      },
      {
        "astId": 11355,
        "contract": "src/OwlearnId/OwlearnId.sol:OwlearnId",
        "label": "__gap",
        "offset": 0,
        "slot": "359",
        "type": "t_array(t_uint256)50_storage"
      },
      {
        "astId": 19645,
        "contract": "src/OwlearnId/OwlearnId.sol:OwlearnId",
        "label": "_tokenIds",
        "offset": 0,
        "slot": "409",
        "type": "t_struct(Counter)14873_storage"
      }
    ],
    "types": {
      "t_address": {
        "encoding": "inplace",
        "label": "address",
        "numberOfBytes": "20"
      },
      "t_array(t_uint256)44_storage": {
        "base": "t_uint256",
        "encoding": "inplace",
        "label": "uint256[44]",
        "numberOfBytes": "1408"
      },
      "t_array(t_uint256)49_storage": {
        "base": "t_uint256",
        "encoding": "inplace",
        "label": "uint256[49]",
        "numberOfBytes": "1568"
      },
      "t_array(t_uint256)50_storage": {
        "base": "t_uint256",
        "encoding": "inplace",
        "label": "uint256[50]",
        "numberOfBytes": "1600"
      },
      "t_bool": {
        "encoding": "inplace",
        "label": "bool",
        "numberOfBytes": "1"
      },
      "t_bytes32": {
        "encoding": "inplace",
        "label": "bytes32",
        "numberOfBytes": "32"
      },
      "t_contract(ILensHub)20553": {
        "encoding": "inplace",
        "label": "contract ILensHub",
        "numberOfBytes": "20"
      },
      "t_mapping(t_address,t_bool)": {
        "encoding": "mapping",
        "key": "t_address",
        "label": "mapping(address => bool)",
        "numberOfBytes": "32",
        "value": "t_bool"
      },
      "t_mapping(t_address,t_mapping(t_address,t_bool))": {
        "encoding": "mapping",
        "key": "t_address",
        "label": "mapping(address => mapping(address => bool))",
        "numberOfBytes": "32",
        "value": "t_mapping(t_address,t_bool)"
      },
      "t_mapping(t_address,t_string_storage)": {
        "encoding": "mapping",
        "key": "t_address",
        "label": "mapping(address => string)",
        "numberOfBytes": "32",
        "value": "t_string_storage"
      },
      "t_mapping(t_address,t_uint256)": {
        "encoding": "mapping",
        "key": "t_address",
        "label": "mapping(address => uint256)",
        "numberOfBytes": "32",
        "value": "t_uint256"
      },
      "t_mapping(t_string_memory_ptr,t_struct(Record)20459_storage)": {
        "encoding": "mapping",
        "key": "t_string_memory_ptr",
        "label": "mapping(string => struct OwlearnIdStorage.Record)",
        "numberOfBytes": "32",
        "value": "t_struct(Record)20459_storage"
      },
      "t_mapping(t_uint256,t_address)": {
        "encoding": "mapping",
        "key": "t_uint256",
        "label": "mapping(uint256 => address)",
        "numberOfBytes": "32",
        "value": "t_address"
      },
      "t_mapping(t_uint256,t_string_storage)": {
        "encoding": "mapping",
        "key": "t_uint256",
        "label": "mapping(uint256 => string)",
        "numberOfBytes": "32",
        "value": "t_string_storage"
      },
      "t_string_memory_ptr": {
        "encoding": "bytes",
        "label": "string",
        "numberOfBytes": "32"
      },
      "t_string_storage": {
        "encoding": "bytes",
        "label": "string",
        "numberOfBytes": "32"
      },
      "t_struct(Counter)14873_storage": {
        "encoding": "inplace",
        "label": "struct CountersUpgradeable.Counter",
        "members": [
          {
            "astId": 14872,
            "contract": "src/OwlearnId/OwlearnId.sol:OwlearnId",
            "label": "_value",
            "offset": 0,
            "slot": "0",
            "type": "t_uint256"
          }
        ],
        "numberOfBytes": "32"
      },
      "t_struct(Record)20459_storage": {
        "encoding": "inplace",
        "label": "struct OwlearnIdStorage.Record",
        "members": [
          {
            "astId": 20454,
            "contract": "src/OwlearnId/OwlearnId.sol:OwlearnId",
            "label": "domain",
            "offset": 0,
            "slot": "0",
            "type": "t_string_storage"
          },
          {
            "astId": 20456,
            "contract": "src/OwlearnId/OwlearnId.sol:OwlearnId",
            "label": "user",
            "offset": 0,
            "slot": "1",
            "type": "t_address"
          },
          {
            "astId": 20458,
            "contract": "src/OwlearnId/OwlearnId.sol:OwlearnId",
            "label": "tokenId",
            "offset": 0,
            "slot": "2",
            "type": "t_uint256"
          }
        ],
        "numberOfBytes": "96"
      },
      "t_uint256": {
        "encoding": "inplace",
        "label": "uint256",
        "numberOfBytes": "32"
      },
      "t_uint8": {
        "encoding": "inplace",
        "label": "uint8",
        "numberOfBytes": "1"
      }
    }
  }
}