{
  "address": "0x2250F8D3202EbB641197A1451C68eF673E8d553f",
  "abi": [
    {
      "inputs": [],
      "stateMutability": "nonpayable",
      "type": "constructor"
    },
    {
      "inputs": [],
      "name": "AlreadyRegistered",
      "type": "error"
    },
    {
      "inputs": [
        {
          "internalType": "string",
          "name": "name",
          "type": "string"
        }
      ],
      "name": "InvalidName",
      "type": "error"
    },
    {
      "inputs": [],
      "name": "Unauthorized",
      "type": "error"
    },
    {
      "anonymous": false,
      "inputs": [
        {
          "indexed": false,
          "internalType": "address",
          "name": "previousAdmin",
          "type": "address"
        },
        {
          "indexed": false,
          "internalType": "address",
          "name": "newAdmin",
          "type": "address"
        }
      ],
      "name": "AdminChanged",
      "type": "event"
    },
    {
      "anonymous": false,
      "inputs": [
        {
          "indexed": true,
          "internalType": "address",
          "name": "owner",
          "type": "address"
        },
        {
          "indexed": true,
          "internalType": "address",
          "name": "approved",
          "type": "address"
        },
        {
          "indexed": true,
          "internalType": "uint256",
          "name": "tokenId",
          "type": "uint256"
        }
      ],
      "name": "Approval",
      "type": "event"
    },
    {
      "anonymous": false,
      "inputs": [
        {
          "indexed": true,
          "internalType": "address",
          "name": "owner",
          "type": "address"
        },
        {
          "indexed": true,
          "internalType": "address",
          "name": "operator",
          "type": "address"
        },
        {
          "indexed": false,
          "internalType": "bool",
          "name": "approved",
          "type": "bool"
        }
      ],
      "name": "ApprovalForAll",
      "type": "event"
    },
    {
      "anonymous": false,
      "inputs": [
        {
          "indexed": false,
          "internalType": "uint256",
          "name": "_fromTokenId",
          "type": "uint256"
        },
        {
          "indexed": false,
          "internalType": "uint256",
          "name": "_toTokenId",
          "type": "uint256"
        }
      ],
      "name": "BatchMetadataUpdate",
      "type": "event"
    },
    {
      "anonymous": false,
      "inputs": [
        {
          "indexed": true,
          "internalType": "address",
          "name": "beacon",
          "type": "address"
        }
      ],
      "name": "BeaconUpgraded",
      "type": "event"
    },
    {
      "anonymous": false,
      "inputs": [
        {
          "indexed": false,
          "internalType": "uint8",
          "name": "version",
          "type": "uint8"
        }
      ],
      "name": "Initialized",
      "type": "event"
    },
    {
      "anonymous": false,
      "inputs": [
        {
          "indexed": false,
          "internalType": "uint256",
          "name": "_tokenId",
          "type": "uint256"
        }
      ],
      "name": "MetadataUpdate",
      "type": "event"
    },
    {
      "anonymous": false,
      "inputs": [
        {
          "indexed": false,
          "internalType": "address",
          "name": "user",
          "type": "address"
        },
        {
          "indexed": false,
          "internalType": "string",
          "name": "name",
          "type": "string"
        },
        {
          "indexed": false,
          "internalType": "uint256",
          "name": "tokenId",
          "type": "uint256"
        }
      ],
      "name": "OwlIdRegistered",
      "type": "event"
    },
    {
      "anonymous": false,
      "inputs": [
        {
          "indexed": true,
          "internalType": "address",
          "name": "previousOwner",
          "type": "address"
        },
        {
          "indexed": true,
          "internalType": "address",
          "name": "newOwner",
          "type": "address"
        }
      ],
      "name": "OwnershipTransferred",
      "type": "event"
    },
    {
      "anonymous": false,
      "inputs": [
        {
          "indexed": true,
          "internalType": "address",
          "name": "from",
          "type": "address"
        },
        {
          "indexed": true,
          "internalType": "address",
          "name": "to",
          "type": "address"
        },
        {
          "indexed": true,
          "internalType": "uint256",
          "name": "tokenId",
          "type": "uint256"
        }
      ],
      "name": "Transfer",
      "type": "event"
    },
    {
      "anonymous": false,
      "inputs": [
        {
          "indexed": true,
          "internalType": "address",
          "name": "implementation",
          "type": "address"
        }
      ],
      "name": "Upgraded",
      "type": "event"
    },
    {
      "inputs": [],
      "name": "FOUR_LETTER_MULTIPLIER",
      "outputs": [
        {
          "internalType": "uint256",
          "name": "",
          "type": "uint256"
        }
      ],
      "stateMutability": "view",
      "type": "function"
    },
    {
      "inputs": [],
      "name": "PRICE_MULTIPLIER",
      "outputs": [
        {
          "internalType": "uint256",
          "name": "",
          "type": "uint256"
        }
      ],
      "stateMutability": "view",
      "type": "function"
    },
    {
      "inputs": [],
      "name": "THREE_LETTER_MULTIPLIER",
      "outputs": [
        {
          "internalType": "uint256",
          "name": "",
          "type": "uint256"
        }
      ],
      "stateMutability": "view",
      "type": "function"
    },
    {
      "inputs": [
        {
          "internalType": "address",
          "name": "to",
          "type": "address"
        },
        {
          "internalType": "uint256",
          "name": "tokenId",
          "type": "uint256"
        }
      ],
      "name": "approve",
      "outputs": [],
      "stateMutability": "nonpayable",
      "type": "function"
    },
    {
      "inputs": [
        {
          "internalType": "address",
          "name": "owner",
          "type": "address"
        }
      ],
      "name": "balanceOf",
      "outputs": [
        {
          "internalType": "uint256",
          "name": "",
          "type": "uint256"
        }
      ],
      "stateMutability": "view",
      "type": "function"
    },
    {
      "inputs": [
        {
          "internalType": "string",
          "name": "",
          "type": "string"
        }
      ],
      "name": "domainNames",
      "outputs": [
        {
          "internalType": "string",
          "name": "domain",
          "type": "string"
        },
        {
          "internalType": "address",
          "name": "user",
          "type": "address"
        },
        {
          "internalType": "uint256",
          "name": "tokenId",
          "type": "uint256"
        }
      ],
      "stateMutability": "view",
      "type": "function"
    },
    {
      "inputs": [
        {
          "internalType": "address",
          "name": "",
          "type": "address"
        }
      ],
      "name": "domainRecords",
      "outputs": [
        {
          "internalType": "string",
          "name": "",
          "type": "string"
        }
      ],
      "stateMutability": "view",
      "type": "function"
    },
    {
      "inputs": [
        {
          "internalType": "uint256",
          "name": "tokenId",
          "type": "uint256"
        }
      ],
      "name": "getApproved",
      "outputs": [
        {
          "internalType": "address",
          "name": "",
          "type": "address"
        }
      ],
      "stateMutability": "view",
      "type": "function"
    },
    {
      "inputs": [
        {
          "internalType": "string",
          "name": "_username",
          "type": "string"
        }
      ],
      "name": "getNameRecord",
      "outputs": [
        {
          "components": [
            {
              "internalType": "string",
              "name": "domain",
              "type": "string"
            },
            {
              "internalType": "address",
              "name": "user",
              "type": "address"
            },
            {
              "internalType": "uint256",
              "name": "tokenId",
              "type": "uint256"
            }
          ],
          "internalType": "struct OwlearnIdStorage.Record",
          "name": "",
          "type": "tuple"
        }
      ],
      "stateMutability": "view",
      "type": "function"
    },
    {
      "inputs": [
        {
          "internalType": "address",
          "name": "user",
          "type": "address"
        }
      ],
      "name": "getNameRecordFromAddress",
      "outputs": [
        {
          "internalType": "string",
          "name": "",
          "type": "string"
        }
      ],
      "stateMutability": "view",
      "type": "function"
    },
    {
      "inputs": [
        {
          "internalType": "string",
          "name": "_tld",
          "type": "string"
        }
      ],
      "name": "initialize",
      "outputs": [],
      "stateMutability": "payable",
      "type": "function"
    },
    {
      "inputs": [
        {
          "internalType": "address",
          "name": "owner",
          "type": "address"
        },
        {
          "internalType": "address",
          "name": "operator",
          "type": "address"
        }
      ],
      "name": "isApprovedForAll",
      "outputs": [
        {
          "internalType": "bool",
          "name": "",
          "type": "bool"
        }
      ],
      "stateMutability": "view",
      "type": "function"
    },
    {
      "inputs": [],
      "name": "name",
      "outputs": [
        {
          "internalType": "string",
          "name": "",
          "type": "string"
        }
      ],
      "stateMutability": "view",
      "type": "function"
    },
    {
      "inputs": [],
      "name": "owner",
      "outputs": [
        {
          "internalType": "address",
          "name": "",
          "type": "address"
        }
      ],
      "stateMutability": "view",
      "type": "function"
    },
    {
      "inputs": [
        {
          "internalType": "uint256",
          "name": "tokenId",
          "type": "uint256"
        }
      ],
      "name": "ownerOf",
      "outputs": [
        {
          "internalType": "address",
          "name": "",
          "type": "address"
        }
      ],
      "stateMutability": "view",
      "type": "function"
    },
    {
      "inputs": [
        {
          "internalType": "string",
          "name": "_username",
          "type": "string"
        }
      ],
      "name": "price",
      "outputs": [
        {
          "internalType": "uint256",
          "name": "amount",
          "type": "uint256"
        }
      ],
      "stateMutability": "pure",
      "type": "function"
    },
    {
      "inputs": [],
      "name": "proxiableUUID",
      "outputs": [
        {
          "internalType": "bytes32",
          "name": "",
          "type": "bytes32"
        }
      ],
      "stateMutability": "view",
      "type": "function"
    },
    {
      "inputs": [
        {
          "internalType": "string",
          "name": "_username",
          "type": "string"
        }
      ],
      "name": "register",
      "outputs": [
        {
          "internalType": "uint256",
          "name": "recordID",
          "type": "uint256"
        }
      ],
      "stateMutability": "payable",
      "type": "function"
    },
    {
      "inputs": [],
      "name": "renounceOwnership",
      "outputs": [],
      "stateMutability": "nonpayable",
      "type": "function"
    },
    {
      "inputs": [
        {
          "internalType": "address",
          "name": "from",
          "type": "address"
        },
        {
          "internalType": "address",
          "name": "to",
          "type": "address"
        },
        {
          "internalType": "uint256",
          "name": "tokenId",
          "type": "uint256"
        }
      ],
      "name": "safeTransferFrom",
      "outputs": [],
      "stateMutability": "nonpayable",
      "type": "function"
    },
    {
      "inputs": [
        {
          "internalType": "address",
          "name": "from",
          "type": "address"
        },
        {
          "internalType": "address",
          "name": "to",
          "type": "address"
        },
        {
          "internalType": "uint256",
          "name": "tokenId",
          "type": "uint256"
        },
        {
          "internalType": "bytes",
          "name": "data",
          "type": "bytes"
        }
      ],
      "name": "safeTransferFrom",
      "outputs": [],
      "stateMutability": "nonpayable",
      "type": "function"
    },
    {
      "inputs": [
        {
          "internalType": "address",
          "name": "operator",
          "type": "address"
        },
        {
          "internalType": "bool",
          "name": "approved",
          "type": "bool"
        }
      ],
      "name": "setApprovalForAll",
      "outputs": [],
      "stateMutability": "nonpayable",
      "type": "function"
    },
    {
      "inputs": [
        {
          "internalType": "bytes4",
          "name": "interfaceId",
          "type": "bytes4"
        }
      ],
      "name": "supportsInterface",
      "outputs": [
        {
          "internalType": "bool",
          "name": "",
          "type": "bool"
        }
      ],
      "stateMutability": "view",
      "type": "function"
    },
    {
      "inputs": [],
      "name": "symbol",
      "outputs": [
        {
          "internalType": "string",
          "name": "",
          "type": "string"
        }
      ],
      "stateMutability": "view",
      "type": "function"
    },
    {
      "inputs": [],
      "name": "tld",
      "outputs": [
        {
          "internalType": "string",
          "name": "",
          "type": "string"
        }
      ],
      "stateMutability": "view",
      "type": "function"
    },
    {
      "inputs": [
        {
          "internalType": "uint256",
          "name": "tokenId",
          "type": "uint256"
        }
      ],
      "name": "tokenURI",
      "outputs": [
        {
          "internalType": "string",
          "name": "",
          "type": "string"
        }
      ],
      "stateMutability": "view",
      "type": "function"
    },
    {
      "inputs": [
        {
          "internalType": "address",
          "name": "from",
          "type": "address"
        },
        {
          "internalType": "address",
          "name": "to",
          "type": "address"
        },
        {
          "internalType": "uint256",
          "name": "tokenId",
          "type": "uint256"
        }
      ],
      "name": "transferFrom",
      "outputs": [],
      "stateMutability": "nonpayable",
      "type": "function"
    },
    {
      "inputs": [
        {
          "internalType": "address",
          "name": "newOwner",
          "type": "address"
        }
      ],
      "name": "transferOwnership",
      "outputs": [],
      "stateMutability": "nonpayable",
      "type": "function"
    },
    {
      "inputs": [
        {
          "internalType": "address",
          "name": "newImplementation",
          "type": "address"
        }
      ],
      "name": "upgradeTo",
      "outputs": [],
      "stateMutability": "nonpayable",
      "type": "function"
    },
    {
      "inputs": [
        {
          "internalType": "address",
          "name": "newImplementation",
          "type": "address"
        },
        {
          "internalType": "bytes",
          "name": "data",
          "type": "bytes"
        }
      ],
      "name": "upgradeToAndCall",
      "outputs": [],
      "stateMutability": "payable",
      "type": "function"
    },
    {
      "inputs": [],
      "name": "withdraw",
      "outputs": [],
      "stateMutability": "nonpayable",
      "type": "function"
    }
  ],
  "numDeployments": 4,
  "solcInputHash": "84b90329013ff1b65955e710dcc03b72",
  "bytecode": "0x60a08060405234610031573060805261464490816100378239608051818181612b1d01528181612c180152612fbc0152f35b600080fdfe608080604052600436101561001357600080fd5b60003560e01c90816301ffc9a7146134aa5750806306fdde0314613404578063081812fc146133e6578063095ea7b31461326c578063113990b81461325057806314fe5829146131a557806323b872dd146131815780632d551432146131655780633659cfe614612f965780633ccfd60b14612f14578063403f966614612ea157806342842e0e14612e6e5780634f1ef28614612bd857806352d1902d14612b025780635bb90ab114612ae65780636352211e14612ab757806369cf4c561461279b57806370a0823114612a20578063715018a6146129cc5780638b5c2504146129b05780638da5cb5b1461298957806395d89b41146128bb578063a22cb465146127e9578063abcc6e7b1461279b578063b88d4fde1461272b578063c87b56dd146126b0578063e985e9c514612659578063f2c298be14611a58578063f2fde38b146119c9578063f62d18881461019a5763fe2c61981461017457600080fd5b3461019557602061018d610187366135a3565b90614213565b604051908152f35b600080fd5b6101a336613887565b6000549060ff90818360081c1615908180926119bd575b80156119a7575b1561194b57600193828560ff19831617600055611939575b50604051926101e784613694565b600a84526020936913dddb19585c9b88125960b21b8582015260405161020c81613694565b6005908181526413d5d3125160da1b878201526102388460005460081c1661023381614192565b614192565b82519067ffffffffffffffff918281116117545780610258606554613622565b95601f968b8882116118e4575b50508a908783116001146118575760009261184c575b5050600019600383901b1c1916908a1b176065555b8051908282116117545781906102a7606654613622565b8a8782116117f7575b505089908683116001146117755760009261176a575b5050600019600383901b1c191690891b176066555b6102ef8460005460081c1661023381614192565b6102f833613939565b84519081116117545761030c60fd54613622565b838111611700575b50808784821160011461168057600091611675575b50600019600383901b1c191690881b1760fd555b8161034960fe54613622565b818111611611575b50506110d760fe5560fe6000527f3c73766720786d6c6e733d22687474703a2f2f7777772e77332e6f72672f32307f54075df80ec1ae6ac9100e1fd0ebf3246c17f5c933137af392011f4c5f61513a557f30302f737667222077696474683d2232373022206865696768743d22323730227f54075df80ec1ae6ac9100e1fd0ebf3246c17f5c933137af392011f4c5f61513b557f2066696c6c3d226e6f6e65223e3c706174682066696c6c3d2275726c282342297f54075df80ec1ae6ac9100e1fd0ebf3246c17f5c933137af392011f4c5f61513c557f2220643d224d302030683237307632373048307a222f3e3c646566733e3c66697f54075df80ec1ae6ac9100e1fd0ebf3246c17f5c933137af392011f4c5f61513d557f6c7465722069643d22412220636f6c6f722d696e746572706f6c6174696f6e2d7f54075df80ec1ae6ac9100e1fd0ebf3246c17f5c933137af392011f4c5f61513e557f66696c746572733d2273524742222066696c746572556e6974733d22757365727f54075df80ec1ae6ac9100e1fd0ebf3246c17f5c933137af392011f4c5f61513f557f53706163654f6e55736522206865696768743d22323730222077696474683d227f54075df80ec1ae6ac9100e1fd0ebf3246c17f5c933137af392011f4c5f615140557f323730223e3c666544726f70536861646f772064783d2230222064793d2231227f54075df80ec1ae6ac9100e1fd0ebf3246c17f5c933137af392011f4c5f615141557f20737464446576696174696f6e3d22322220666c6f6f642d6f7061636974793d7f54075df80ec1ae6ac9100e1fd0ebf3246c17f5c933137af392011f4c5f615142557f222e323235222077696474683d223230302522206865696768743d22323030257f54075df80ec1ae6ac9100e1fd0ebf3246c17f5c933137af392011f4c5f615143557f222f3e3c2f66696c7465723e3c2f646566733e3c7061746820643d224d37322e7f54075df80ec1ae6ac9100e1fd0ebf3246c17f5c933137af392011f4c5f615144557f3836332034322e393439632d2e3636382d2e3338372d312e3432362d2e35392d7f54075df80ec1ae6ac9100e1fd0ebf3246c17f5c933137af392011f4c5f615145557f322e3139372d2e3539732d312e3532392e3230342d322e3139372e35396c2d317f54075df80ec1ae6ac9100e1fd0ebf3246c17f5c933137af392011f4c5f615146557f302e30383120362e3033322d362e383520332e3933342d31302e30383120362e7f54075df80ec1ae6ac9100e1fd0ebf3246c17f5c933137af392011f4c5f615147557f303332632d2e3636382e3338372d312e3432362e35392d322e3139372e3539737f54075df80ec1ae6ac9100e1fd0ebf3246c17f5c933137af392011f4c5f615148557f2d312e3532392d2e3230342d322e3139372d2e35396c2d382e3031332d342e377f54075df80ec1ae6ac9100e1fd0ebf3246c17f5c933137af392011f4c5f615149557f323161342e353220342e35322030203020312d312e3538392d312e363136632d7f54075df80ec1ae6ac9100e1fd0ebf3246c17f5c933137af392011f4c5f61514a557f2e3338342d2e3636352d2e3539342d312e3431382d2e3630382d322e313837767f54075df80ec1ae6ac9100e1fd0ebf3246c17f5c933137af392011f4c5f61514b557f2d392e3331632d2e3031332d2e3737352e3138352d312e3533382e3537322d327f54075df80ec1ae6ac9100e1fd0ebf3246c17f5c933137af392011f4c5f61514c557f2e32303861342e323520342e323520302030203120312e3632352d312e3539357f54075df80ec1ae6ac9100e1fd0ebf3246c17f5c933137af392011f4c5f61514d557f6c372e3838342d342e3539632e3636382d2e33383720312e3432362d2e3539207f54075df80ec1ae6ac9100e1fd0ebf3246c17f5c933137af392011f4c5f61514e557f322e3139372d2e353973312e3532392e32303420322e3139372e35396c372e387f54075df80ec1ae6ac9100e1fd0ebf3246c17f5c933137af392011f4c5f61514f557f383420342e353961342e353220342e353220302030203120312e35383920312e7f54075df80ec1ae6ac9100e1fd0ebf3246c17f5c933137af392011f4c5f615150557f363136632e3338342e3636352e35393420312e3431382e36303820322e3138377f54075df80ec1ae6ac9100e1fd0ebf3246c17f5c933137af392011f4c5f615151557f76362e3033326c362e38352d342e303635762d362e303332632e3031332d2e377f54075df80ec1ae6ac9100e1fd0ebf3246c17f5c933137af392011f4c5f615152557f37352d2e3138352d312e3533382d2e3537322d322e32303861342e323520342e7f54075df80ec1ae6ac9100e1fd0ebf3246c17f5c933137af392011f4c5f615153557f32352030203020302d312e3632352d312e3539354c34312e3435362032342e357f54075df80ec1ae6ac9100e1fd0ebf3246c17f5c933137af392011f4c5f615154557f39632d2e3636382d2e3338372d312e3432362d2e35392d322e3139372d2e35397f54075df80ec1ae6ac9100e1fd0ebf3246c17f5c933137af392011f4c5f615155557f732d312e3532392e3230342d322e3139372e35396c2d31342e38363420382e367f54075df80ec1ae6ac9100e1fd0ebf3246c17f5c933137af392011f4c5f615156557f353561342e323520342e32352030203020302d312e36323520312e353935632d7f54075df80ec1ae6ac9100e1fd0ebf3246c17f5c933137af392011f4c5f615157557f2e3338372e36372d2e35383520312e3433342d2e35373220322e3230387631377f54075df80ec1ae6ac9100e1fd0ebf3246c17f5c933137af392011f4c5f615158557f2e343431632d2e3031332e3737352e31383520312e3533382e35373220322e327f54075df80ec1ae6ac9100e1fd0ebf3246c17f5c933137af392011f4c5f615159557f303861342e323520342e323520302030203020312e36323520312e3539356c317f54075df80ec1ae6ac9100e1fd0ebf3246c17f5c933137af392011f4c5f61515a557f342e38363420382e363535632e3636382e33383720312e3432362e353920322e7f54075df80ec1ae6ac9100e1fd0ebf3246c17f5c933137af392011f4c5f61515b557f3139372e353973312e3532392d2e32303420322e3139372d2e35396c31302e307f54075df80ec1ae6ac9100e1fd0ebf3246c17f5c933137af392011f4c5f61515c557f38312d352e39303120362e38352d342e3036352031302e3038312d352e3930317f54075df80ec1ae6ac9100e1fd0ebf3246c17f5c933137af392011f4c5f61515d557f632e3636382d2e33383720312e3432362d2e353920322e3139372d2e353973317f54075df80ec1ae6ac9100e1fd0ebf3246c17f5c933137af392011f4c5f61515e557f2e3532392e32303420322e3139372e35396c372e38383420342e353961342e357f54075df80ec1ae6ac9100e1fd0ebf3246c17f5c933137af392011f4c5f61515f557f3220342e353220302030203120312e35383920312e363136632e3338342e36367f54075df80ec1ae6ac9100e1fd0ebf3246c17f5c933137af392011f4c5f615160557f352e35393420312e3431382e36303820322e31383776392e333131632e3031337f54075df80ec1ae6ac9100e1fd0ebf3246c17f5c933137af392011f4c5f615161557f2e3737352d2e31383520312e3533382d2e35373220322e32303861342e3235207f54075df80ec1ae6ac9100e1fd0ebf3246c17f5c933137af392011f4c5f615162557f342e32352030203020312d312e36323520312e3539356c2d372e38383420342e7f54075df80ec1ae6ac9100e1fd0ebf3246c17f5c933137af392011f4c5f615163557f373231632d2e3636382e3338372d312e3432362e35392d322e3139372e3539737f54075df80ec1ae6ac9100e1fd0ebf3246c17f5c933137af392011f4c5f615164557f2d312e3532392d2e3230342d322e3139372d2e35396c2d372e3838342d342e357f54075df80ec1ae6ac9100e1fd0ebf3246c17f5c933137af392011f4c5f615165557f3961342e353220342e35322030203020312d312e3538392d312e363136632d2e7f54075df80ec1ae6ac9100e1fd0ebf3246c17f5c933137af392011f4c5f615166557f3338352d2e3636352d2e3539342d312e3431382d2e3630382d322e313837762d7f54075df80ec1ae6ac9100e1fd0ebf3246c17f5c933137af392011f4c5f615167557f362e3033326c2d362e383520342e30363576362e303332632d2e3031332e37377f54075df80ec1ae6ac9100e1fd0ebf3246c17f5c933137af392011f4c5f615168557f352e31383520312e3533382e35373220322e32303861342e323520342e3235207f54075df80ec1ae6ac9100e1fd0ebf3246c17f5c933137af392011f4c5f615169557f302030203020312e36323520312e3539356c31342e38363420382e363535632e7f54075df80ec1ae6ac9100e1fd0ebf3246c17f5c933137af392011f4c5f61516a557f3636382e33383720312e3432362e353920322e3139372e353973312e3532392d7f54075df80ec1ae6ac9100e1fd0ebf3246c17f5c933137af392011f4c5f61516b557f2e32303420322e3139372d2e35396c31342e3836342d382e363535632e3635377f54075df80ec1ae6ac9100e1fd0ebf3246c17f5c933137af392011f4c5f61516c557f2d2e33393420312e3230342d2e393520312e3538392d312e363136732e3539347f54075df80ec1ae6ac9100e1fd0ebf3246c17f5c933137af392011f4c5f61516d557f2d312e3431382e3630392d322e3138375635352e353338632e3031332d2e37377f54075df80ec1ae6ac9100e1fd0ebf3246c17f5c933137af392011f4c5f61516e557f352d2e3138352d312e3533382d2e3537322d322e32303861342e323520342e327f54075df80ec1ae6ac9100e1fd0ebf3246c17f5c933137af392011f4c5f61516f557f352030203020302d312e3632352d312e3539356c2d31342e3939332d382e37387f54075df80ec1ae6ac9100e1fd0ebf3246c17f5c933137af392011f4c5f615170557f367a222066696c6c3d2223666666222f3e3c646566733e3c6c696e65617247727f54075df80ec1ae6ac9100e1fd0ebf3246c17f5c933137af392011f4c5f615171557f616469656e742069643d2242222078313d2230222079313d2230222078323d227f54075df80ec1ae6ac9100e1fd0ebf3246c17f5c933137af392011f4c5f615172557f323730222079323d2232373022206772616469656e74556e6974733d227573657f54075df80ec1ae6ac9100e1fd0ebf3246c17f5c933137af392011f4c5f615173557f7253706163654f6e557365223e3c73746f702073746f702d636f6c6f723d22237f54075df80ec1ae6ac9100e1fd0ebf3246c17f5c933137af392011f4c5f615174557f636235656565222f3e3c73746f70206f66667365743d2231222073746f702d637f54075df80ec1ae6ac9100e1fd0ebf3246c17f5c933137af392011f4c5f615175557f6f6c6f723d2223306364376534222073746f702d6f7061636974793d222e39397f54075df80ec1ae6ac9100e1fd0ebf3246c17f5c933137af392011f4c5f615176557f222f3e3c2f6c696e6561724772616469656e743e3c2f646566733e3c746578747f54075df80ec1ae6ac9100e1fd0ebf3246c17f5c933137af392011f4c5f615177557f20783d2233322e352220793d223233312220666f6e742d73697a653d223237227f54075df80ec1ae6ac9100e1fd0ebf3246c17f5c933137af392011f4c5f615178557f2066696c6c3d2223666666222066696c7465723d2275726c282341292220666f7f54075df80ec1ae6ac9100e1fd0ebf3246c17f5c933137af392011f4c5f615179557f6e742d66616d696c793d22506c7573204a616b617274612053616e732c44656a7f54075df80ec1ae6ac9100e1fd0ebf3246c17f5c933137af392011f4c5f61517a557f6156752053616e732c4e6f746f20436f6c6f7220456d6f6a692c4170706c65207f54075df80ec1ae6ac9100e1fd0ebf3246c17f5c933137af392011f4c5f61517b557f436f6c6f7220456d6f6a692c73616e732d73657269662220666f6e742d7765697f54075df80ec1ae6ac9100e1fd0ebf3246c17f5c933137af392011f4c5f61517c556a33b43a1e913137b632111f60a91b7f54075df80ec1ae6ac9100e1fd0ebf3246c17f5c933137af392011f4c5f61517d556115228354613622565b918083116115cd575b50507f3c2f746578743e3c2f7376673e0000000000000000000000000000000000001a90915550604051611591919061156381613694565b601981527f2573206e616d652073657276696365206465706c6f79656420000000000000008582015261412a565b61159757005b7f7f26b83ff96e1f2b6a682f133852f6798a09c465da95921460cefb38474024989161ff001960005416600055604051908152a1005b908791846000527fe08ec2af2cfc251225e1968fd6ca21e4044f129bffa95bac3503be8bdb30a3679301901c8201915b8281101561152b57600081550186906115fd565b01811c7f54075df80ec1ae6ac9100e1fd0ebf3246c17f5c933137af392011f4c5f61513a01877f54075df80ec1ae6ac9100e1fd0ebf3246c17f5c933137af392011f4c5f61517e5b8281106116695750839150610351565b60008155018890611659565b905085015189610329565b899250601f1982169060fd6000527f9346ac6dd7de6b96975fec380d4d994c4c12e6a8897544f22915316cc6cca2809160005b8b8282106116ea57505083116116d1575b5050811b0160fd5561033d565b87015160001960f88460031b161c1916905589806116c4565b838b015185558d969094019392830192016116b3565b6117459060fd6000527f9346ac6dd7de6b96975fec380d4d994c4c12e6a8897544f22915316cc6cca28085808501861c8201928b861061174b575b01851c01906140ce565b88610314565b9250819261173b565b634e487b7160e01b600052604160045260246000fd5b015190508a806102c6565b908b9350601f1983169160666000527f46501879b8ca8525e8c2fd519e2fbfcfa2ebea26501294aa02cbfcfb12e943549260005b8d8282106117e157505084116117c8575b505050811b016066556102db565b015160001960f88460031b161c191690558a80806117ba565b8385015186558f979095019493840193016117a9565b61183c916066600052887f46501879b8ca8525e8c2fd519e2fbfcfa2ebea26501294aa02cbfcfb12e94354918187018a1c8301938710611843575b01881c01906140ce565b8b8a6102b0565b92508192611832565b015190508b8061027b565b908c9350601f1983169160656000527f8ff97419363ffd7000167f130ef7168fbea05faf9251824ca5043f113cc6a7c7928d6000905b8282106118c457505084116118ab575b505050811b01606555610290565b015160001960f88460031b161c191690558b808061189d565b91929395968291958786015181550195019301908e95949392918e61188d565b611929916065600052897f8ff97419363ffd7000167f130ef7168fbea05faf9251824ca5043f113cc6a7c7918187018b1c8301938710611930575b01891c01906140ce565b8c8b610265565b9250819261191f565b61ffff191661010117600055846101d9565b60405162461bcd60e51b815260206004820152602e60248201527f496e697469616c697a61626c653a20636f6e747261637420697320616c72656160448201526d191e481a5b9a5d1a585b1a5e995960921b6064820152608490fd5b50303b1580156101c157506001838516146101c1565b506001838516106101ba565b34610195576020366003190112610195576119e2613577565b6119ea6138e1565b6001600160a01b03811615611a0457611a0290613939565b005b60405162461bcd60e51b815260206004820152602660248201527f4f776e61626c653a206e6577206f776e657220697320746865207a65726f206160448201526564647265737360d01b6064820152608490fd5b611a61366135a3565b906001600160a01b0360016040518484823760208186810160fc81520301902001541661264757611a928282614213565b3410612602576040516020810183838237611acd82611abf6021878301601760f91b602082015201614439565b03601f1981018452836136b0565b6040519160009060fe54611ae081613622565b90600181169081156125e15750600114612587575b508192611b05915193849161352f565b0181600060ff5492611b1684613622565b936001811690811561256f5750600114612517575b50611b3f925003601f1981018352826136b0565b6101965490600080611be6611c1c604051611b598161365c565b603181527f5265676973746572696e672025732e2573206f6e2074686520636f6e7472616360208201527f74207769746820746f6b656e49442025640000000000000000000000000000006040820152611c08611bb7368b8b613850565b611bbf6136d2565b611bf9604051968795639fd009f560e01b60208801526080602488015260a4870190613552565b6023199384878303016044880152613552565b91848303016064850152613552565b87608483015203601f1981018352826136b0565b6020815191016a636f6e736f6c652e6c6f675afa50611c44611c3f368686613850565b614282565b806000917a184f03e93ff9f4daa797ed6e38ed64bf6a1f01000000000000000080821015612509575b506d04ee2d6d415b85acef8100000000808310156124fa575b50662386f26fc10000808310156124eb575b506305f5e100808310156124dc575b50612710808310156124cd575b5060648210156124bd575b600a809210156124b3575b816021611cd96001860161409c565b948501015b60001901916f181899199a1a9b1b9c1cb0b131b232b360811b8282061a83530490868215611d0e57508290611cde565b88915086611e52611d86611d5a608960218a87611d5f8e611d5a8c611d4c60405197828993602085019889378301601760f91b602082015201614439565b03601f1981018752866136b0565b6144c8565b90604051968794693d913730b6b2911d101160b11b6020870152518092602a87019061352f565b83017f222c20226465736372697074696f6e223a20224120646f6d61696e206f6e2074602a8201527f6865204f776c6561726e222c2022696d616765223a2022646174613a696d6167604a8201527f652f7376672b786d6c3b6261736536342c000000000000000000000000000000606a820152611e0e825180936020607b8501910161352f565b016b1116113632b733ba34111d1160a11b607b820152611e3882518093602060878501910161352f565b0161227d60f01b60878201520360698101845201826136b0565b611ea5603d60405180937f646174613a6170706c69636174696f6e2f6a736f6e3b6261736536342c0000006020830152611e95815180926020868601910161352f565b810103601d8101845201826136b0565b611f09604051611eb48161365c565b603981527f0a2d2d2d2d2d2d2d2d2d2d2d2d2d2d2d2d2d2d2d2d2d2d2d2d2d2d2d2d2d2d2d60208201527f2d2d2d2d2d2d2d2d2d2d2d2d2d2d2d2d2d2d2d2d2d2d2d2d2d0000000000000060408201526143bf565b611f3981604051611f1981613694565b600e81526d46696e616c20746f6b656e55524960901b602082015261412a565b611f9d604051611f488161365c565b603981527f2d2d2d2d2d2d2d2d2d2d2d2d2d2d2d2d2d2d2d2d2d2d2d2d2d2d2d2d2d2d2d2d60208201527f2d2d2d2d2d2d2d2d2d2d2d2d2d2d2d2d2d2d2d2d2d2d2d2d0a0000000000000060408201526143bf565b604051611fa981613678565b60008152331561246f5761206861206d91611fe3611fdd8660005260676020526001600160a01b0360406000205416151590565b156143ed565b612006611fdd8660005260676020526001600160a01b0360406000205416151590565b3360005260686020526040600020600181540190558460005260676020526040600020336001600160a01b0319825416179055843360007fddf252ad1be2c89b69c2b068fc378daa952ba7f163c4a11628f55a4df523b3ef8180a48433613e60565b613bee565b61208d8260005260676020526001600160a01b0360406000205416151590565b156124135781600052609760205260406000209080519067ffffffffffffffff82116117545781906120c9826120c38654613622565b866140e5565b602090601f83116001146123a75760009261239c575b50508160011b916000199060031b1c19161790555b7ff8e1a15aba9398e019f0b49df1a4fde98ee17ae345cb5f6b5e2c27f5033e8ce76020604051838152a16040519161212b8361365c565b612136368583613850565b83523360208401528160408401523360005260fb602052604060002067ffffffffffffffff8511611754576121758561216f8354613622565b836140e5565b846000601f82116001146123375760009161232c575b508560011b906000198760031b1c19161790555b6040518482823760208186810160fc81520301902093835194855167ffffffffffffffff8111611754576020966121e0826121da8554613622565b856140e5565b8790601f831160011461229d5796826002936040937f4f7b030b13ad1e7f83970740f723ce3d718b9472443b4b2a75f535a79e973ce7999a600092612292575b50508160011b916000199060031b1c19161784555b600184016001600160a01b038a830151166001600160a01b03198254161790550151910155600161019654016101965561228160405192839233845260608885015260608401916141f2565b8460408301520390a1604051908152f35b015190508b80612220565b9083600052886000209160005b601f19851681106123155750836040937f4f7b030b13ad1e7f83970740f723ce3d718b9472443b4b2a75f535a79e973ce7999a93600193600297601f198116106122fc575b505050811b018455612235565b015160001960f88460031b161c191690558b80806122ef565b91928a6001819286850151815501940192016122aa565b90508201358661218b565b60008381526020812092505b601f1988168110612384575086601f1981161061236a575b5050600185811b01905561219f565b830135600019600388901b60f8161c19169055858061235b565b90916020600181928588013581550193019101612343565b0151905086806120df565b9250836000526020600020906000935b601f19841685106123f8576001945083601f198116106123df575b505050811b0190556120f4565b015160001960f88460031b161c191690558680806123d2565b818101518355602094850194600190930192909101906123b7565b60405162461bcd60e51b815260206004820152602e60248201527f45524337323155524953746f726167653a2055524920736574206f66206e6f6e60448201526d32bc34b9ba32b73a103a37b5b2b760911b6064820152608490fd5b606460405162461bcd60e51b815260206004820152602060248201527f4552433732313a206d696e7420746f20746865207a65726f20616464726573736044820152fd5b9160010191611cca565b9190606460029104910191611cbf565b60049193920491019187611cb4565b60089193920491019187611ca7565b60109193920491019187611c98565b60209193920491019187611c86565b604093508104915087611c6d565b905060ff6000527fe08ec2af2cfc251225e1968fd6ca21e4044f129bffa95bac3503be8bdb30a3676000905b84821061255857505091611b3f920186611b2b565b805482840152859350602090910190600101612543565b60ff1916825250611b3f938015150201905086611b2b565b90915060fe6000527f54075df80ec1ae6ac9100e1fd0ebf3246c17f5c933137af392011f4c5f61513a6000905b8282106125cb575050830160200190611b05611af5565b6001816020925483858a010152019101906125b4565b611b05939450602092915060ff191682870152801515028501019190611af5565b60405162461bcd60e51b815260206004820152601560248201527f4e4f5420454e4f554748204d41544943205041494400000000000000000000006044820152606490fd5b604051630ea075bf60e21b8152600490fd5b3461019557604036600319011261019557612672613577565b61267a61358d565b906001600160a01b03809116600052606a60205260406000209116600052602052602060ff604060002054166040519015158152f35b34610195576020366003190112610195576004356126ec6126e78260005260676020526001600160a01b0360406000205416151590565b613ae1565b60005260976020526127276127046040600020613790565b600060405161271281613678565b52604051918291602083526020830190613552565b0390f35b3461019557608036600319011261019557612744613577565b61274c61358d565b906064359060443567ffffffffffffffff831161019557611a02936127786120689436906004016138c6565b9261278b6127868433613c59565b613b8c565b612796838383613d21565b613fa2565b34610195576020366003190112610195576001600160a01b036127bc613577565b1660005260fb6020526127276127d56040600020613790565b604051918291602083526020830190613552565b3461019557604036600319011261019557612802613577565b60243590811515809203610195576001600160a01b0316908133146128765733600052606a602052604060002082600052602052604060002060ff1981541660ff83161790556040519081527f17307eab39ab6107e8899845ad3d59bd9653f200f220920489ca2b5937696c3160203392a3005b60405162461bcd60e51b815260206004820152601960248201527f4552433732313a20617070726f766520746f2063616c6c6572000000000000006044820152606490fd5b346101955760003660031901126101955760405160006066546128dd81613622565b808452906001908181169081156129625750600114612907575b612727846127d5818603826136b0565b6066600090815292507f46501879b8ca8525e8c2fd519e2fbfcfa2ebea26501294aa02cbfcfb12e943545b82841061294a5750505081016020016127d5826128f7565b80546020858701810191909152909301928101612932565b60ff191660208087019190915292151560051b850190920192506127d591508390506128f7565b346101955760003660031901126101955760206001600160a01b0360c95416604051908152f35b34610195576000366003190112610195576020604051600a8152f35b34610195576000366003190112610195576129e56138e1565b60006001600160a01b0360c9548119811660c955167f8be0079c531659141344cd1fd0a4f28419497f9722a3daafe3b4186f6b6457e08280a3005b34610195576020366003190112610195576001600160a01b03612a41613577565b168015612a605760005260686020526020604060002054604051908152f35b60405162461bcd60e51b815260206004820152602960248201527f4552433732313a2061646472657373207a65726f206973206e6f7420612076616044820152683634b21037bbb732b960b91b6064820152608490fd5b34610195576020366003190112610195576020612ad5600435613b2d565b6001600160a01b0360405191168152f35b3461019557600036600319011261019557602060405160058152f35b34610195576000366003190112610195576001600160a01b037f0000000000000000000000000000000000000000000000000000000000000000163003612b6d5760206040517f360894a13ba1a3210667c828492db98dca3e2076cc3735a920a3ca505d382bbc8152f35b60405162461bcd60e51b815260206004820152603860248201527f555550535570677261646561626c653a206d757374206e6f742062652063616c60448201527f6c6564207468726f7567682064656c656761746563616c6c00000000000000006064820152608490fd5b604036600319011261019557612bec613577565b60243567ffffffffffffffff811161019557612c0c9036906004016138c6565b906001600160a01b03807f00000000000000000000000000000000000000000000000000000000000000001690612c4582301415613981565b612c747f360894a13ba1a3210667c828492db98dca3e2076cc3735a920a3ca505d382bbc9282845416146139e2565b612c7c6138e1565b7f4910fdfa16fed3260ed0e7147f7cc6da11a60208b5b9406d12a635614ffd91435460ff1615612cb2575050611a029150613a43565b6040516352d1902d60e01b81526020939291831691908481600481865afa60009181612e3f575b50612d3a5760405162461bcd60e51b815260048101869052602e60248201527f45524331393637557067726164653a206e657720696d706c656d656e7461746960448201526d6f6e206973206e6f74205555505360901b6064820152608490fd5b03612de857612d4882613a43565b7fbc7cd75a20ee27fd9adebab32041f755214dbc6bffa90cc0225b39da2e5c2d3b600080a2825115801590612de0575b612d7e57005b600080611a029460405194612d928661365c565b602786527f416464726573733a206c6f772d6c6576656c2064656c65676174652063616c6c81870152660819985a5b195960ca1b604087015281519101845af4612dda613e30565b91614003565b506001612d78565b60405162461bcd60e51b815260048101849052602960248201527f45524331393637557067726164653a20756e737570706f727465642070726f786044820152681a58589b195555525160ba1b6064820152608490fd5b9091508581813d8311612e67575b612e5781836136b0565b8101031261019557519087612cd9565b503d612e4d565b3461019557611a02612068612e82366135ed565b9060405192612e9084613678565b6000845261278b6127868433613c59565b3461019557612f05612eca6020612eb736613887565b816040519382858094519384920161352f565b810160fc815203019020612edd81613790565b9060026001600160a01b03600183015416910154604051938493606085526060850190613552565b91602084015260408301520390f35b3461019557600036600319011261019557612f2d6138e1565b6000808080476001600160a01b0360c954165af1612f49613e30565b5015612f5157005b60405162461bcd60e51b815260206004820152601860248201527f4661696c656420746f207769746864726177204d6174696300000000000000006044820152606490fd5b346101955760208060031936011261019557612fb0613577565b6001600160a01b0391827f000000000000000000000000000000000000000000000000000000000000000016612fe881301415613981565b6130177f360894a13ba1a3210667c828492db98dca3e2076cc3735a920a3ca505d382bbc9185835416146139e2565b61301f6138e1565b6040519361302c85613678565b600085527f4910fdfa16fed3260ed0e7147f7cc6da11a60208b5b9406d12a635614ffd91435460ff161561306757505050611a029150613a43565b83929316906040516352d1902d60e01b81528481600481865afa60009181613136575b506130eb5760405162461bcd60e51b815260048101869052602e60248201527f45524331393637557067726164653a206e657720696d706c656d656e7461746960448201526d6f6e206973206e6f74205555505360901b6064820152608490fd5b03612de8576130f982613a43565b7fbc7cd75a20ee27fd9adebab32041f755214dbc6bffa90cc0225b39da2e5c2d3b600080a282511580159061312e57612d7e57005b506000612d78565b9091508581813d831161315e575b61314e81836136b0565b810103126101955751908761308a565b503d613144565b34610195576000366003190112610195576127276127d56136d2565b3461019557611a02613192366135ed565b916131a06127868433613c59565b613d21565b346101955761323e60206131b8366135a3565b91906000604080516131c98161365c565b6060815282858201520152826040519384928337810160fc815203019020604051906131f48261365c565b6131fd81613790565b82526001600160a01b036002816001840154169260208501938452015490604084019182526040519485946020865251606060208701526080860190613552565b92511660408401525160608301520390f35b3461019557600036600319011261019557602060405160038152f35b3461019557604036600319011261019557613285613577565b602435906001600160a01b03808061329c85613b2d565b1692169180831461339757803314908115613372575b5015613307578260005260696020526040600020826001600160a01b03198254161790556132df83613b2d565b167f8c5be1e5ebec7d5bd14f71427d1e84f3dd0314c0f7b2291e5b200ac8c7c3b925600080a4005b60405162461bcd60e51b815260206004820152603d60248201527f4552433732313a20617070726f76652063616c6c6572206973206e6f7420746f60448201527f6b656e206f776e6572206f7220617070726f76656420666f7220616c6c0000006064820152608490fd5b9050600052606a60205260406000203360005260205260ff60406000205416846132b2565b60405162461bcd60e51b815260206004820152602160248201527f4552433732313a20617070726f76616c20746f2063757272656e74206f776e656044820152603960f91b6064820152608490fd5b34610195576020366003190112610195576020612ad5600435613b4f565b3461019557600036600319011261019557604051600060655461342681613622565b80845290600190818116908115612962575060011461344f57612727846127d5818603826136b0565b6065600090815292507f8ff97419363ffd7000167f130ef7168fbea05faf9251824ca5043f113cc6a7c75b8284106134925750505081016020016127d5826128f7565b8054602085870181019190915290930192810161347a565b34610195576020366003190112610195576004359063ffffffff60e01b821680920361019557602091632483248360e11b81149081156134ec575b5015158152f35b6380ac58cd60e01b81149150811561351e575b811561350d575b50836134e5565b6301ffc9a760e01b14905083613506565b635b5e139f60e01b811491506134ff565b60005b8381106135425750506000910152565b8181015183820152602001613532565b9060209161356b8151809281855285808601910161352f565b601f01601f1916010190565b600435906001600160a01b038216820361019557565b602435906001600160a01b038216820361019557565b9060206003198301126101955760043567ffffffffffffffff9283821161019557806023830112156101955781600401359384116101955760248483010111610195576024019190565b6060906003190112610195576001600160a01b0390600435828116810361019557916024359081168103610195579060443590565b90600182811c92168015613652575b602083101461363c57565b634e487b7160e01b600052602260045260246000fd5b91607f1691613631565b6060810190811067ffffffffffffffff82111761175457604052565b6020810190811067ffffffffffffffff82111761175457604052565b6040810190811067ffffffffffffffff82111761175457604052565b90601f8019910116810190811067ffffffffffffffff82111761175457604052565b6040519060008260fd54916136e683613622565b8083529260019081811690811561376e575060011461370f575b5061370d925003836136b0565b565b60fd600090815291507f9346ac6dd7de6b96975fec380d4d994c4c12e6a8897544f22915316cc6cca2805b848310613753575061370d935050810160200138613700565b81935090816020925483858a0101520191019091859261373a565b90506020925061370d94915060ff191682840152151560051b82010138613700565b90604051918260008254926137a484613622565b90818452600194858116908160001461381157506001146137ce575b505061370d925003836136b0565b9093915060005260209081600020936000915b8183106137f957505061370d935082010138806137c0565b855488840185015294850194879450918301916137e1565b91505061370d94506020925060ff191682840152151560051b82010138806137c0565b67ffffffffffffffff811161175457601f01601f191660200190565b92919261385c82613834565b9161386a60405193846136b0565b829481845281830111610195578281602093846000960137010152565b6020600319820112610195576004359067ffffffffffffffff82116101955780602383011215610195578160246138c393600401359101613850565b90565b9080601f83011215610195578160206138c393359101613850565b6001600160a01b0360c9541633036138f557565b606460405162461bcd60e51b815260206004820152602060248201527f4f776e61626c653a2063616c6c6572206973206e6f7420746865206f776e65726044820152fd5b60c954906001600160a01b0380911691826001600160a01b031982161760c955167f8be0079c531659141344cd1fd0a4f28419497f9722a3daafe3b4186f6b6457e0600080a3565b1561398857565b60405162461bcd60e51b815260206004820152602c60248201527f46756e6374696f6e206d7573742062652063616c6c6564207468726f7567682060448201526b19195b1959d85d1958d85b1b60a21b6064820152608490fd5b156139e957565b60405162461bcd60e51b815260206004820152602c60248201527f46756e6374696f6e206d7573742062652063616c6c6564207468726f7567682060448201526b6163746976652070726f787960a01b6064820152608490fd5b803b15613a86576001600160a01b037f360894a13ba1a3210667c828492db98dca3e2076cc3735a920a3ca505d382bbc91166001600160a01b0319825416179055565b60405162461bcd60e51b815260206004820152602d60248201527f455243313936373a206e657720696d706c656d656e746174696f6e206973206e60448201526c1bdd08184818dbdb9d1c9858dd609a1b6064820152608490fd5b15613ae857565b60405162461bcd60e51b815260206004820152601860248201527f4552433732313a20696e76616c696420746f6b656e20494400000000000000006044820152606490fd5b60005260676020526001600160a01b03604060002054166138c3811515613ae1565b613b726126e78260005260676020526001600160a01b0360406000205416151590565b60005260696020526001600160a01b036040600020541690565b15613b9357565b60405162461bcd60e51b815260206004820152602d60248201527f4552433732313a2063616c6c6572206973206e6f7420746f6b656e206f776e6560448201526c1c881bdc88185c1c1c9bdd9959609a1b6064820152608490fd5b15613bf557565b60405162461bcd60e51b815260206004820152603260248201527f4552433732313a207472616e7366657220746f206e6f6e20455243373231526560448201527131b2b4bb32b91034b6b83632b6b2b73a32b960711b6064820152608490fd5b0390fd5b906001600160a01b038080613c6d84613b2d565b16931691838314938415613ca0575b508315613c8a575b50505090565b613c9691929350613b4f565b1614388080613c84565b909350600052606a60205260406000208260005260205260ff604060002054169238613c7c565b15613cce57565b60405162461bcd60e51b815260206004820152602560248201527f4552433732313a207472616e736665722066726f6d20696e636f72726563742060448201526437bbb732b960d91b6064820152608490fd5b90613d4991613d2f84613b2d565b916001600160a01b03938493848094169485911614613cc7565b16918215613ddf5781613d6691613d5f86613b2d565b1614613cc7565b7fddf252ad1be2c89b69c2b068fc378daa952ba7f163c4a11628f55a4df523b3ef60008481526069602052604081206001600160a01b03199081815416905583825260686020526040822060001981540190558482526040822060018154019055858252606760205284604083209182541617905580a4565b60405162461bcd60e51b8152602060048201526024808201527f4552433732313a207472616e7366657220746f20746865207a65726f206164646044820152637265737360e01b6064820152608490fd5b3d15613e5b573d90613e4182613834565b91613e4f60405193846136b0565b82523d6000602084013e565b606090565b9091600091803b15613f9957613eb36020916001600160a01b039385604051958680958194630a85bd0160e11b9b8c84523360048501528560248501526044840152608060648401526084830190613552565b0393165af190829082613f4a575b5050613f3c57613ecf613e30565b80519081613f375760405162461bcd60e51b815260206004820152603260248201527f4552433732313a207472616e7366657220746f206e6f6e20455243373231526560448201527131b2b4bb32b91034b6b83632b6b2b73a32b960711b6064820152608490fd5b602001fd5b6001600160e01b0319161490565b909192506020813d8211613f91575b81613f66602093836136b0565b81010312613f8d5751906001600160e01b031982168203613f8a5750903880613ec1565b80fd5b5080fd5b3d9150613f59565b50505050600190565b91926000929190813b15613ff957602091613eb39185604051958680958194630a85bd0160e11b9b8c84523360048501526001600160a01b0380951660248501526044840152608060648401526084830190613552565b5050505050600190565b919290156140655750815115614017575090565b3b156140205790565b60405162461bcd60e51b815260206004820152601d60248201527f416464726573733a2063616c6c20746f206e6f6e2d636f6e74726163740000006044820152606490fd5b8251909150156140785750805190602001fd5b60405162461bcd60e51b815260206004820152908190613c55906024830190613552565b906140a682613834565b6140b360405191826136b0565b82815280926140c4601f1991613834565b0190602036910137565b8181106140d9575050565b600081556001016140ce565b9190601f81116140f457505050565b61370d926000526020600020906020601f840160051c83019310614120575b601f0160051c01906140ce565b9091508190614113565b6000919061417161417f849360405192839161415f6020840196634b5c427760e01b8852604060248601526064850190613552565b83810360231901604485015290613552565b03601f1981018352826136b0565b51906a636f6e736f6c652e6c6f675afa50565b1561419957565b60405162461bcd60e51b815260206004820152602b60248201527f496e697469616c697a61626c653a20636f6e7472616374206973206e6f74206960448201526a6e697469616c697a696e6760a81b6064820152608490fd5b908060209392818452848401376000828201840152601f01601f1916010190565b614221611c3f368484613850565b91821561425e5750506003810361423f5750678ac7230489e8000090565b60040361425257674563918244f4000090565b6729a2241af62c000090565b613c55604051928392637f19f48d60e01b84526020600485015260248401916141f2565b6000815191815b838110614297575050905090565b81518110156143a957818101602001517fff0000000000000000000000000000000000000000000000000000000000000016600160ff1b81101561430b5750600181018091116142f557915b60001981146142f55760010191614289565b634e487b7160e01b600052601160045260246000fd5b600760fd1b8110156143295750600281018091116142f557916142e3565b600f60fc1b8110156143475750600381018091116142f557916142e3565b601f60fb1b81101561437c575060048082018092116143675750916142e3565b601190634e487b7160e01b6000525260246000fd5b603f60fa1b111561439857600581018091116142f557916142e3565b600681018091116142f557916142e3565b634e487b7160e01b600052603260045260246000fd5b6000809160405161417f81614171602082019463104c13eb60e21b8652602060248401526044830190613552565b156143f457565b60405162461bcd60e51b815260206004820152601c60248201527f4552433732313a20746f6b656e20616c7265616479206d696e746564000000006044820152606490fd5b60fd546000929161444982613622565b916001908181169081156144b5575060011461446457505050565b909192935060fd6000527f9346ac6dd7de6b96975fec380d4d994c4c12e6a8897544f22915316cc6cca280906000915b8483106144a2575050500190565b8181602092548587015201920191614494565b60ff191683525050811515909102019150565b8051156145fa576040516144db8161365c565b604081527f4142434445464748494a4b4c4d4e4f505152535455565758595a61626364656660208201527f6768696a6b6c6d6e6f707172737475767778797a303132333435363738392b2f604082015281516002928382018092116142f5576003918290046001600160fe1b03811681036142f55761455d908594951b61409c565b936020850193829183518401925b8381106145a957505050505106806001146145965760021461458b575090565b603d90600019015390565b50603d9081600019820153600119015390565b85600491979293949701918251600190603f9082828260121c16880101518453828282600c1c16880101518385015382828260061c168801015188850153168501015187820153019592919061456b565b5060405161460781613678565b600081529056fea264697066735822122077ceb8c3eb138473efb5b3e69211a4818d42694df0a8fb50caa02824ac4bc18464736f6c63430008130033",
  "devdoc": {
    "author": "Dhruv <contact.dhruvagarwal@gmail.com>",
    "events": {
      "AdminChanged(address,address)": {
        "details": "Emitted when the admin account has changed."
      },
      "Approval(address,address,uint256)": {
        "details": "Emitted when `owner` enables `approved` to manage the `tokenId` token."
      },
      "ApprovalForAll(address,address,bool)": {
        "details": "Emitted when `owner` enables or disables (`approved`) `operator` to manage all of its assets."
      },
      "BatchMetadataUpdate(uint256,uint256)": {
        "details": "This event emits when the metadata of a range of tokens is changed. So that the third-party platforms such as NFT market could timely update the images and related attributes of the NFTs."
      },
      "BeaconUpgraded(address)": {
        "details": "Emitted when the beacon is changed."
      },
      "Initialized(uint8)": {
        "details": "Triggered when the contract has been initialized or reinitialized."
      },
      "MetadataUpdate(uint256)": {
        "details": "This event emits when the metadata of a token is changed. So that the third-party platforms such as NFT market could timely update the images and related attributes of the NFT."
      },
      "Transfer(address,address,uint256)": {
        "details": "Emitted when `tokenId` token is transferred from `from` to `to`."
      },
      "Upgraded(address)": {
        "details": "Emitted when the implementation is upgraded."
      }
    },
    "kind": "dev",
    "methods": {
      "approve(address,uint256)": {
        "details": "See {IERC721-approve}."
      },
      "balanceOf(address)": {
        "details": "See {IERC721-balanceOf}."
      },
      "constructor": {
        "details": "Lock implementation contract"
      },
      "getApproved(uint256)": {
        "details": "See {IERC721-getApproved}."
      },
      "getNameRecord(string)": {
        "details": "get the name record",
        "params": {
          "_username": "domain Name to fetch for"
        },
        "returns": {
          "_0": "Record domain Name record"
        }
      },
      "getNameRecordFromAddress(address)": {
        "details": "get the name record from Address",
        "params": {
          "user": "domain Name to fetch for"
        },
        "returns": {
          "_0": "recordId domain Name record Id"
        }
      },
      "initialize(string)": {
        "details": "The constructor sets NFT Implementation and the TLD",
        "params": {
          "_tld": "the domain name extension"
        }
      },
      "isApprovedForAll(address,address)": {
        "details": "See {IERC721-isApprovedForAll}."
      },
      "name()": {
        "details": "See {IERC721Metadata-name}."
      },
      "owner()": {
        "details": "Returns the address of the current owner."
      },
      "ownerOf(uint256)": {
        "details": "See {IERC721-ownerOf}."
      },
      "price(string)": {
        "details": "to get the Price for minting a new domain",
        "params": {
          "_username": "domain Name to mint"
        },
        "returns": {
          "amount": "amount to be paid for minting"
        }
      },
      "proxiableUUID()": {
        "details": "Implementation of the ERC1822 {proxiableUUID} function. This returns the storage slot used by the implementation. It is used to validate the implementation's compatibility when performing an upgrade. IMPORTANT: A proxy pointing at a proxiable contract should not be considered proxiable itself, because this risks bricking a proxy that upgrades to it, by delegating to itself until out of gas. Thus it is critical that this function revert if invoked through a proxy. This is guaranteed by the `notDelegated` modifier."
      },
      "register(string)": {
        "details": "to get the Price for minting a new domain",
        "params": {
          "_username": "domain Name to mint"
        },
        "returns": {
          "recordID": "amount to be paid for minting"
        }
      },
      "renounceOwnership()": {
        "details": "Leaves the contract without owner. It will not be possible to call `onlyOwner` functions. Can only be called by the current owner. NOTE: Renouncing ownership will leave the contract without an owner, thereby disabling any functionality that is only available to the owner."
      },
      "safeTransferFrom(address,address,uint256)": {
        "details": "See {IERC721-safeTransferFrom}."
      },
      "safeTransferFrom(address,address,uint256,bytes)": {
        "details": "See {IERC721-safeTransferFrom}."
      },
      "setApprovalForAll(address,bool)": {
        "details": "See {IERC721-setApprovalForAll}."
      },
      "supportsInterface(bytes4)": {
        "details": "See {IERC165-supportsInterface}"
      },
      "symbol()": {
        "details": "See {IERC721Metadata-symbol}."
      },
      "tokenURI(uint256)": {
        "details": "See {IERC721Metadata-tokenURI}."
      },
      "transferFrom(address,address,uint256)": {
        "details": "See {IERC721-transferFrom}."
      },
      "transferOwnership(address)": {
        "details": "Transfers ownership of the contract to a new account (`newOwner`). Can only be called by the current owner."
      },
      "upgradeTo(address)": {
        "custom:oz-upgrades-unsafe-allow-reachable": "delegatecall",
        "details": "Upgrade the implementation of the proxy to `newImplementation`. Calls {_authorizeUpgrade}. Emits an {Upgraded} event."
      },
      "upgradeToAndCall(address,bytes)": {
        "custom:oz-upgrades-unsafe-allow-reachable": "delegatecall",
        "details": "Upgrade the implementation of the proxy to `newImplementation`, and subsequently execute the function call encoded in `data`. Calls {_authorizeUpgrade}. Emits an {Upgraded} event."
      },
      "withdraw()": {
        "details": "withdraw the funds collected"
      }
    },
    "title": "OwlearnID",
    "version": 1
  },
  "userdoc": {
    "kind": "user",
    "methods": {
      "register(string)": {
        "notice": "Payable function to send the price for minting the domain"
      },
      "withdraw()": {
        "notice": "restricted only for the owner"
      }
    },
    "notice": "A namespace NFT contract that mints unique user handles.",
    "version": 1
  },
  "storageLayout": {
    "storage": [
      {
        "astId": 11058,
        "contract": "src/OwlearnId/OwlearnId.sol:OwlearnId",
        "label": "_initialized",
        "offset": 0,
        "slot": "0",
        "type": "t_uint8"
      },
      {
        "astId": 11061,
        "contract": "src/OwlearnId/OwlearnId.sol:OwlearnId",
        "label": "_initializing",
        "offset": 1,
        "slot": "0",
        "type": "t_bool"
      },
      {
        "astId": 14866,
        "contract": "src/OwlearnId/OwlearnId.sol:OwlearnId",
        "label": "__gap",
        "offset": 0,
        "slot": "1",
        "type": "t_array(t_uint256)50_storage"
      },
      {
        "astId": 15323,
        "contract": "src/OwlearnId/OwlearnId.sol:OwlearnId",
        "label": "__gap",
        "offset": 0,
        "slot": "51",
        "type": "t_array(t_uint256)50_storage"
      },
      {
        "astId": 13188,
        "contract": "src/OwlearnId/OwlearnId.sol:OwlearnId",
        "label": "_name",
        "offset": 0,
        "slot": "101",
        "type": "t_string_storage"
      },
      {
        "astId": 13190,
        "contract": "src/OwlearnId/OwlearnId.sol:OwlearnId",
        "label": "_symbol",
        "offset": 0,
        "slot": "102",
        "type": "t_string_storage"
      },
      {
        "astId": 13194,
        "contract": "src/OwlearnId/OwlearnId.sol:OwlearnId",
        "label": "_owners",
        "offset": 0,
        "slot": "103",
        "type": "t_mapping(t_uint256,t_address)"
      },
      {
        "astId": 13198,
        "contract": "src/OwlearnId/OwlearnId.sol:OwlearnId",
        "label": "_balances",
        "offset": 0,
        "slot": "104",
        "type": "t_mapping(t_address,t_uint256)"
      },
      {
        "astId": 13202,
        "contract": "src/OwlearnId/OwlearnId.sol:OwlearnId",
        "label": "_tokenApprovals",
        "offset": 0,
        "slot": "105",
        "type": "t_mapping(t_uint256,t_address)"
      },
      {
        "astId": 13208,
        "contract": "src/OwlearnId/OwlearnId.sol:OwlearnId",
        "label": "_operatorApprovals",
        "offset": 0,
        "slot": "106",
        "type": "t_mapping(t_address,t_mapping(t_address,t_bool))"
      },
      {
        "astId": 14110,
        "contract": "src/OwlearnId/OwlearnId.sol:OwlearnId",
        "label": "__gap",
        "offset": 0,
        "slot": "107",
        "type": "t_array(t_uint256)44_storage"
      },
      {
        "astId": 14276,
        "contract": "src/OwlearnId/OwlearnId.sol:OwlearnId",
        "label": "_tokenURIs",
        "offset": 0,
        "slot": "151",
        "type": "t_mapping(t_uint256,t_string_storage)"
      },
      {
        "astId": 14420,
        "contract": "src/OwlearnId/OwlearnId.sol:OwlearnId",
        "label": "__gap",
        "offset": 0,
        "slot": "152",
        "type": "t_array(t_uint256)49_storage"
      },
      {
        "astId": 10537,
        "contract": "src/OwlearnId/OwlearnId.sol:OwlearnId",
        "label": "_owner",
        "offset": 0,
        "slot": "201",
        "type": "t_address"
      },
      {
        "astId": 10657,
        "contract": "src/OwlearnId/OwlearnId.sol:OwlearnId",
        "label": "__gap",
        "offset": 0,
        "slot": "202",
        "type": "t_array(t_uint256)49_storage"
      },
      {
        "astId": 25018,
        "contract": "src/OwlearnId/OwlearnId.sol:OwlearnId",
        "label": "domainRecords",
        "offset": 0,
        "slot": "251",
        "type": "t_mapping(t_address,t_string_storage)"
      },
      {
        "astId": 25023,
        "contract": "src/OwlearnId/OwlearnId.sol:OwlearnId",
        "label": "domainNames",
        "offset": 0,
        "slot": "252",
        "type": "t_mapping(t_string_memory_ptr,t_struct(Record)25014_storage)"
      },
      {
        "astId": 25025,
        "contract": "src/OwlearnId/OwlearnId.sol:OwlearnId",
        "label": "tld",
        "offset": 0,
        "slot": "253",
        "type": "t_string_storage"
      },
      {
        "astId": 25027,
        "contract": "src/OwlearnId/OwlearnId.sol:OwlearnId",
        "label": "_svgPartOne",
        "offset": 0,
        "slot": "254",
        "type": "t_string_storage"
      },
      {
        "astId": 25029,
        "contract": "src/OwlearnId/OwlearnId.sol:OwlearnId",
        "label": "_svgPartTwo",
        "offset": 0,
        "slot": "255",
        "type": "t_string_storage"
      },
      {
        "astId": 25033,
        "contract": "src/OwlearnId/OwlearnId.sol:OwlearnId",
        "label": "__gap",
        "offset": 0,
        "slot": "256",
        "type": "t_array(t_uint256)50_storage"
      },
      {
        "astId": 11040,
        "contract": "src/OwlearnId/OwlearnId.sol:OwlearnId",
        "label": "__gap",
        "offset": 0,
        "slot": "306",
        "type": "t_array(t_uint256)50_storage"
      },
      {
        "astId": 11355,
        "contract": "src/OwlearnId/OwlearnId.sol:OwlearnId",
        "label": "__gap",
        "offset": 0,
        "slot": "356",
        "type": "t_array(t_uint256)50_storage"
      },
      {
        "astId": 24590,
        "contract": "src/OwlearnId/OwlearnId.sol:OwlearnId",
        "label": "_tokenIds",
        "offset": 0,
        "slot": "406",
        "type": "t_struct(Counter)14873_storage"
      }
    ],
    "types": {
      "t_address": {
        "encoding": "inplace",
        "label": "address",
        "numberOfBytes": "20"
      },
      "t_array(t_uint256)44_storage": {
        "base": "t_uint256",
        "encoding": "inplace",
        "label": "uint256[44]",
        "numberOfBytes": "1408"
      },
      "t_array(t_uint256)49_storage": {
        "base": "t_uint256",
        "encoding": "inplace",
        "label": "uint256[49]",
        "numberOfBytes": "1568"
      },
      "t_array(t_uint256)50_storage": {
        "base": "t_uint256",
        "encoding": "inplace",
        "label": "uint256[50]",
        "numberOfBytes": "1600"
      },
      "t_bool": {
        "encoding": "inplace",
        "label": "bool",
        "numberOfBytes": "1"
      },
      "t_mapping(t_address,t_bool)": {
        "encoding": "mapping",
        "key": "t_address",
        "label": "mapping(address => bool)",
        "numberOfBytes": "32",
        "value": "t_bool"
      },
      "t_mapping(t_address,t_mapping(t_address,t_bool))": {
        "encoding": "mapping",
        "key": "t_address",
        "label": "mapping(address => mapping(address => bool))",
        "numberOfBytes": "32",
        "value": "t_mapping(t_address,t_bool)"
      },
      "t_mapping(t_address,t_string_storage)": {
        "encoding": "mapping",
        "key": "t_address",
        "label": "mapping(address => string)",
        "numberOfBytes": "32",
        "value": "t_string_storage"
      },
      "t_mapping(t_address,t_uint256)": {
        "encoding": "mapping",
        "key": "t_address",
        "label": "mapping(address => uint256)",
        "numberOfBytes": "32",
        "value": "t_uint256"
      },
      "t_mapping(t_string_memory_ptr,t_struct(Record)25014_storage)": {
        "encoding": "mapping",
        "key": "t_string_memory_ptr",
        "label": "mapping(string => struct OwlearnIdStorage.Record)",
        "numberOfBytes": "32",
        "value": "t_struct(Record)25014_storage"
      },
      "t_mapping(t_uint256,t_address)": {
        "encoding": "mapping",
        "key": "t_uint256",
        "label": "mapping(uint256 => address)",
        "numberOfBytes": "32",
        "value": "t_address"
      },
      "t_mapping(t_uint256,t_string_storage)": {
        "encoding": "mapping",
        "key": "t_uint256",
        "label": "mapping(uint256 => string)",
        "numberOfBytes": "32",
        "value": "t_string_storage"
      },
      "t_string_memory_ptr": {
        "encoding": "bytes",
        "label": "string",
        "numberOfBytes": "32"
      },
      "t_string_storage": {
        "encoding": "bytes",
        "label": "string",
        "numberOfBytes": "32"
      },
      "t_struct(Counter)14873_storage": {
        "encoding": "inplace",
        "label": "struct CountersUpgradeable.Counter",
        "members": [
          {
            "astId": 14872,
            "contract": "src/OwlearnId/OwlearnId.sol:OwlearnId",
            "label": "_value",
            "offset": 0,
            "slot": "0",
            "type": "t_uint256"
          }
        ],
        "numberOfBytes": "32"
      },
      "t_struct(Record)25014_storage": {
        "encoding": "inplace",
        "label": "struct OwlearnIdStorage.Record",
        "members": [
          {
            "astId": 25009,
            "contract": "src/OwlearnId/OwlearnId.sol:OwlearnId",
            "label": "domain",
            "offset": 0,
            "slot": "0",
            "type": "t_string_storage"
          },
          {
            "astId": 25011,
            "contract": "src/OwlearnId/OwlearnId.sol:OwlearnId",
            "label": "user",
            "offset": 0,
            "slot": "1",
            "type": "t_address"
          },
          {
            "astId": 25013,
            "contract": "src/OwlearnId/OwlearnId.sol:OwlearnId",
            "label": "tokenId",
            "offset": 0,
            "slot": "2",
            "type": "t_uint256"
          }
        ],
        "numberOfBytes": "96"
      },
      "t_uint256": {
        "encoding": "inplace",
        "label": "uint256",
        "numberOfBytes": "32"
      },
      "t_uint8": {
        "encoding": "inplace",
        "label": "uint8",
        "numberOfBytes": "1"
      }
    }
  }
}